{
  "address": "0xE374A40daBb331F3d1a84F62C74FbD8fd1905A90",
  "abi": [
    {
      "anonymous": false,
      "inputs": [
        {
          "indexed": true,
          "internalType": "address",
          "name": "owner",
          "type": "address"
        },
        {
          "indexed": true,
          "internalType": "address",
          "name": "spender",
          "type": "address"
        },
        {
          "indexed": false,
          "internalType": "uint256",
          "name": "value",
          "type": "uint256"
        }
      ],
      "name": "Approval",
      "type": "event"
    },
    {
      "anonymous": false,
      "inputs": [
        {
          "indexed": false,
          "internalType": "uint8",
          "name": "version",
          "type": "uint8"
        }
      ],
      "name": "Initialized",
      "type": "event"
    },
    {
      "anonymous": false,
      "inputs": [
        {
          "indexed": true,
          "internalType": "address",
          "name": "previousOwner",
          "type": "address"
        },
        {
          "indexed": true,
          "internalType": "address",
          "name": "newOwner",
          "type": "address"
        }
      ],
      "name": "OwnershipTransferred",
      "type": "event"
    },
    {
      "anonymous": false,
      "inputs": [
        {
          "indexed": false,
          "internalType": "address",
          "name": "account",
          "type": "address"
        }
      ],
      "name": "Paused",
      "type": "event"
    },
    {
      "anonymous": false,
      "inputs": [
        {
          "indexed": true,
          "internalType": "address",
          "name": "from",
          "type": "address"
        },
        {
          "indexed": true,
          "internalType": "address",
          "name": "to",
          "type": "address"
        },
        {
          "indexed": false,
          "internalType": "uint256",
          "name": "value",
          "type": "uint256"
        }
      ],
      "name": "Transfer",
      "type": "event"
    },
    {
      "anonymous": false,
      "inputs": [
        {
          "indexed": false,
          "internalType": "address",
          "name": "account",
          "type": "address"
        }
      ],
      "name": "Unpaused",
      "type": "event"
    },
    {
      "inputs": [],
      "name": "MAXIMUM_CAP",
      "outputs": [
        {
          "internalType": "uint256",
          "name": "",
          "type": "uint256"
        }
      ],
      "stateMutability": "view",
      "type": "function"
    },
    {
      "inputs": [],
      "name": "PRECISION",
      "outputs": [
        {
          "internalType": "uint256",
          "name": "",
          "type": "uint256"
        }
      ],
      "stateMutability": "view",
      "type": "function"
    },
    {
      "inputs": [
        {
          "internalType": "uint256",
          "name": "",
          "type": "uint256"
        }
      ],
      "name": "_minted_pool",
      "outputs": [
        {
          "internalType": "bool",
          "name": "",
          "type": "bool"
        }
      ],
      "stateMutability": "view",
      "type": "function"
    },
    {
      "inputs": [
        {
          "internalType": "address",
          "name": "owner",
          "type": "address"
        },
        {
          "internalType": "address",
          "name": "spender",
          "type": "address"
        }
      ],
      "name": "allowance",
      "outputs": [
        {
          "internalType": "uint256",
          "name": "",
          "type": "uint256"
        }
      ],
      "stateMutability": "view",
      "type": "function"
    },
    {
      "inputs": [
        {
          "internalType": "address",
          "name": "spender",
          "type": "address"
        },
        {
          "internalType": "uint256",
          "name": "amount",
          "type": "uint256"
        }
      ],
      "name": "approve",
      "outputs": [
        {
          "internalType": "bool",
          "name": "",
          "type": "bool"
        }
      ],
      "stateMutability": "nonpayable",
      "type": "function"
    },
    {
      "inputs": [
        {
          "internalType": "address",
          "name": "account",
          "type": "address"
        }
      ],
      "name": "balanceOf",
      "outputs": [
        {
          "internalType": "uint256",
          "name": "",
          "type": "uint256"
        }
      ],
      "stateMutability": "view",
      "type": "function"
    },
    {
      "inputs": [
        {
          "internalType": "uint256",
          "name": "amount",
          "type": "uint256"
        }
      ],
      "name": "burn",
      "outputs": [],
      "stateMutability": "nonpayable",
      "type": "function"
    },
    {
      "inputs": [
        {
          "internalType": "address",
          "name": "account",
          "type": "address"
        },
        {
          "internalType": "uint256",
          "name": "amount",
          "type": "uint256"
        }
      ],
      "name": "burnFrom",
      "outputs": [],
      "stateMutability": "nonpayable",
      "type": "function"
    },
    {
      "inputs": [],
      "name": "buyFee",
      "outputs": [
        {
          "internalType": "uint256",
          "name": "",
          "type": "uint256"
        }
      ],
      "stateMutability": "view",
      "type": "function"
    },
    {
      "inputs": [],
      "name": "cap",
      "outputs": [
        {
          "internalType": "uint256",
          "name": "",
          "type": "uint256"
        }
      ],
      "stateMutability": "view",
      "type": "function"
    },
    {
      "inputs": [],
      "name": "decimals",
      "outputs": [
        {
          "internalType": "uint8",
          "name": "",
          "type": "uint8"
        }
      ],
      "stateMutability": "view",
      "type": "function"
    },
    {
      "inputs": [
        {
          "internalType": "address",
          "name": "spender",
          "type": "address"
        },
        {
          "internalType": "uint256",
          "name": "subtractedValue",
          "type": "uint256"
        }
      ],
      "name": "decreaseAllowance",
      "outputs": [
        {
          "internalType": "bool",
          "name": "",
          "type": "bool"
        }
      ],
      "stateMutability": "nonpayable",
      "type": "function"
    },
    {
      "inputs": [
        {
          "internalType": "address",
          "name": "spender",
          "type": "address"
        },
        {
          "internalType": "uint256",
          "name": "addedValue",
          "type": "uint256"
        }
      ],
      "name": "increaseAllowance",
      "outputs": [
        {
          "internalType": "bool",
          "name": "",
          "type": "bool"
        }
      ],
      "stateMutability": "nonpayable",
      "type": "function"
    },
    {
      "inputs": [
        {
          "internalType": "string",
          "name": "name",
          "type": "string"
        },
        {
          "internalType": "string",
          "name": "symbol",
          "type": "string"
        },
        {
          "internalType": "address",
          "name": "tokenVesting_",
          "type": "address"
        },
        {
          "internalType": "address",
          "name": "ido",
          "type": "address"
        },
        {
          "internalType": "address",
          "name": "farming",
          "type": "address"
        },
        {
          "internalType": "address",
          "name": "liquidity",
          "type": "address"
        },
        {
          "internalType": "address",
          "name": "marketing",
          "type": "address"
        },
        {
          "internalType": "address",
          "name": "community",
          "type": "address"
        },
        {
          "internalType": "address",
          "name": "team",
          "type": "address"
        },
        {
          "internalType": "address",
          "name": "treasury",
          "type": "address"
        }
      ],
      "name": "initialize",
      "outputs": [],
      "stateMutability": "nonpayable",
      "type": "function"
    },
    {
      "inputs": [
        {
          "internalType": "address",
          "name": "team",
          "type": "address"
        },
        {
          "internalType": "address",
          "name": "treasury",
          "type": "address"
        }
      ],
      "name": "lock",
      "outputs": [],
      "stateMutability": "nonpayable",
      "type": "function"
    },
    {
      "inputs": [
        {
          "internalType": "address",
          "name": "",
          "type": "address"
        }
      ],
      "name": "lpAddresses",
      "outputs": [
        {
          "internalType": "bool",
          "name": "",
          "type": "bool"
        }
      ],
      "stateMutability": "view",
      "type": "function"
    },
    {
      "inputs": [
        {
          "internalType": "address",
          "name": "to",
          "type": "address"
        },
        {
          "internalType": "uint256",
          "name": "amount",
          "type": "uint256"
        }
      ],
      "name": "mint",
      "outputs": [],
      "stateMutability": "nonpayable",
      "type": "function"
    },
    {
      "inputs": [],
      "name": "name",
      "outputs": [
        {
          "internalType": "string",
          "name": "",
          "type": "string"
        }
      ],
      "stateMutability": "view",
      "type": "function"
    },
    {
      "inputs": [],
      "name": "owner",
      "outputs": [
        {
          "internalType": "address",
          "name": "",
          "type": "address"
        }
      ],
      "stateMutability": "view",
      "type": "function"
    },
    {
      "inputs": [],
      "name": "pause",
      "outputs": [],
      "stateMutability": "nonpayable",
      "type": "function"
    },
    {
      "inputs": [],
      "name": "paused",
      "outputs": [
        {
          "internalType": "bool",
          "name": "",
          "type": "bool"
        }
      ],
      "stateMutability": "view",
      "type": "function"
    },
    {
      "inputs": [
        {
          "internalType": "uint256",
          "name": "",
          "type": "uint256"
        }
      ],
      "name": "pools_amount",
      "outputs": [
        {
          "internalType": "uint256",
          "name": "",
          "type": "uint256"
        }
      ],
      "stateMutability": "view",
      "type": "function"
    },
    {
      "inputs": [],
      "name": "renounceOwnership",
      "outputs": [],
      "stateMutability": "nonpayable",
      "type": "function"
    },
    {
      "inputs": [],
      "name": "sellFee",
      "outputs": [
        {
          "internalType": "uint256",
          "name": "",
          "type": "uint256"
        }
      ],
      "stateMutability": "view",
      "type": "function"
    },
    {
      "inputs": [],
      "name": "swapRouter",
      "outputs": [
        {
          "internalType": "contract IPancakeRouter02",
          "name": "",
          "type": "address"
        }
      ],
      "stateMutability": "view",
      "type": "function"
    },
    {
      "inputs": [],
      "name": "symbol",
      "outputs": [
        {
          "internalType": "string",
          "name": "",
          "type": "string"
        }
      ],
      "stateMutability": "view",
      "type": "function"
    },
    {
      "inputs": [],
      "name": "tokenVesting",
      "outputs": [
        {
          "internalType": "contract IUncxTokenVesting",
          "name": "",
          "type": "address"
        }
      ],
      "stateMutability": "view",
      "type": "function"
    },
    {
      "inputs": [],
      "name": "totalSupply",
      "outputs": [
        {
          "internalType": "uint256",
          "name": "",
          "type": "uint256"
        }
      ],
      "stateMutability": "view",
      "type": "function"
    },
    {
      "inputs": [
        {
          "internalType": "address",
          "name": "to",
          "type": "address"
        },
        {
          "internalType": "uint256",
          "name": "amount",
          "type": "uint256"
        }
      ],
      "name": "transfer",
      "outputs": [
        {
          "internalType": "bool",
          "name": "",
          "type": "bool"
        }
      ],
      "stateMutability": "nonpayable",
      "type": "function"
    },
    {
      "inputs": [
        {
          "internalType": "address",
          "name": "from",
          "type": "address"
        },
        {
          "internalType": "address",
          "name": "to",
          "type": "address"
        },
        {
          "internalType": "uint256",
          "name": "amount",
          "type": "uint256"
        }
      ],
      "name": "transferFrom",
      "outputs": [
        {
          "internalType": "bool",
          "name": "",
          "type": "bool"
        }
      ],
      "stateMutability": "nonpayable",
      "type": "function"
    },
    {
      "inputs": [
        {
          "internalType": "address",
          "name": "newOwner",
          "type": "address"
        }
      ],
      "name": "transferOwnership",
      "outputs": [],
      "stateMutability": "nonpayable",
      "type": "function"
    },
    {
      "inputs": [],
      "name": "unpause",
      "outputs": [],
      "stateMutability": "nonpayable",
      "type": "function"
    },
    {
      "inputs": [
        {
          "internalType": "uint256",
          "name": "_buyFee",
          "type": "uint256"
        }
      ],
      "name": "updateBuyFee",
      "outputs": [],
      "stateMutability": "nonpayable",
      "type": "function"
    },
    {
      "inputs": [
        {
          "internalType": "address",
          "name": "_includeAddress",
          "type": "address"
        },
        {
          "internalType": "bool",
          "name": "_status",
          "type": "bool"
        }
      ],
      "name": "updatePairAddress",
      "outputs": [],
      "stateMutability": "nonpayable",
      "type": "function"
    },
    {
      "inputs": [
        {
          "internalType": "uint256",
          "name": "_sellFee",
          "type": "uint256"
        }
      ],
      "name": "updateSellFee",
      "outputs": [],
      "stateMutability": "nonpayable",
      "type": "function"
    }
  ],
  "transactionHash": "0x82b71f5e4465c9b79262db3eeb26c7517ca8db124ef052c88542a42914b6780d",
  "args": [],
  "solcInputHash": "add6809fa6826d17400c4b5c3390aef8",
  "bytecode": "0x608060405234801561001057600080fd5b50611e95806100206000396000f3fe608060405234801561001057600080fd5b50600436106101d15760003560e01c806342b20665116101055780638f7cbc401161009d5780638f7cbc40146103d357806395d89b41146103e65780639a9a5b52146103ee578063a457c2d714610401578063a9059cbb14610414578063aaf5eb6814610427578063c31c9c0714610430578063dd62ed3e14610444578063f2fde38b1461045757600080fd5b806342b206651461033b578063467abe0a1461034e57806347062402146103615780635c975abb1461036b57806370a0823114610376578063715018a61461039f57806379cc6790146103a75780638456cb59146103ba5780638da5cb5b146103c257600080fd5b80632654fb41116101785780632654fb41146102b45780632b14ca56146102c75780632c4c2719146102d1578063313ce567146102e3578063355274ea146102f257806339509351146102fa5780633f4ba83a1461030d57806340c10f191461031557806342966c681461032857600080fd5b806306fdde03146101d6578063095ea7b3146101f45780630a1a8d3c1461021757806317ffe1711461024357806318160ddd146102585780631d933a4a1461026a5780631f4b21d41461027d57806323b872dd146102a1575b600080fd5b6101de61046a565b6040516101eb9190611858565b60405180910390f35b6102076102023660046118c2565b6104fc565b60405190151581526020016101eb565b6101395461022b906001600160a01b031681565b6040516001600160a01b0390911681526020016101eb565b6102566102513660046118ec565b610516565b005b6035545b6040519081526020016101eb565b61025661027836600461191f565b61072d565b61020761028b366004611938565b61013a6020526000908152604090205460ff1681565b6102076102af36600461195a565b6107a2565b6102076102c236600461191f565b6107c6565b61025c61012e5481565b61025c6a295be96e6406697200000081565b604051601281526020016101eb565b60655461025c565b6102076103083660046118c2565b6107f1565b61025661080e565b6102566103233660046118c2565b610820565b61025661033636600461191f565b610836565b61025c61034936600461191f565b610843565b61025661035c36600461191f565b61085b565b61025c61012f5481565b60ca5460ff16610207565b61025c610384366004611938565b6001600160a01b031660009081526033602052604090205490565b6102566108cc565b6102566103b53660046118c2565b6108de565b6102566108f3565b60fc546001600160a01b031661022b565b6102566103e1366004611996565b610903565b6101de6109a1565b6102566103fc366004611a75565b6109b0565b61020761040f3660046118c2565b610cbd565b6102076104223660046118c2565b610d38565b61025c61271081565b6101385461022b906001600160a01b031681565b61025c6104523660046118ec565b610d46565b610256610465366004611938565b610d71565b60606036805461047990611b60565b80601f01602080910402602001604051908101604052809291908181526020018280546104a590611b60565b80156104f25780601f106104c7576101008083540402835291602001916104f2565b820191906000526020600020905b8154815290600101906020018083116104d557829003601f168201915b5050505050905090565b60003361050a818585610de7565b60019150505b92915050565b61051e610f0c565b61052f3061013060055b0154610f66565b610137805465ff0000000000191665010000000000179055610555306101306003610528565b610137805463ff000000191663010000001790556101395461013554610133546105969230926001600160a01b03909116916105919190611bc6565b610de7565b6040805160a080820183526001600160a01b038481168352610135546020808501919091526365e0026c848601526365e0107c60608501526000608085018190528551938401909552908616825291929181016101306003015481526365e0026c60208201526365e0107c604080830191909152600060609283018190528151600280825293810190925292935090816020015b61066e6040518060a0016040528060006001600160a01b0316815260200160008152602001600081526020016000815260200160006001600160a01b031681525090565b81526020019060019003908161062a579050509050828160008151811061069757610697611b9a565b602002602001018190525081816001815181106106b6576106b6611b9a565b6020908102919091010152610139546040516313ef2b1b60e01b81526001600160a01b03909116906313ef2b1b906106f49030908590600401611bd9565b600060405180830381600087803b15801561070e57600080fd5b505af1158015610722573d6000803e3d6000fd5b505050505050505050565b610735610f0c565b61271081111561079c5760405162461bcd60e51b815260206004820152602760248201527f546f6b656e3a2053776170204665652063616e206e6f74206c6172676572207460448201526668616e2033302560c81b60648201526084015b60405180910390fd5b61012e55565b6000336107b0858285610fa5565b6107bb85858561101f565b506001949350505050565b61013781600781106107d757600080fd5b60209182820401919006915054906101000a900460ff1681565b60003361050a8185856108048383610d46565b6105919190611bc6565b610816610f0c565b61081e6110e3565b565b610828610f0c565b6108328282610f66565b5050565b6108403382611135565b50565b610130816007811061085457600080fd5b0154905081565b610863610f0c565b6127108111156108c65760405162461bcd60e51b815260206004820152602860248201527f546f6b656e3a2053776170204665652063616e206e6f74206c6172676572207460448201526768616e203130302560c01b6064820152608401610793565b61012f55565b6108d4610f0c565b61081e6000611254565b6108e9823383610fa5565b6108328282611135565b6108fb610f0c565b61081e6112a6565b61090b610f0c565b6001600160a01b0382166109755760405162461bcd60e51b815260206004820152602b60248201527f546f6b656e3a205061697220616464726573732063616e206e6f74206265207a60448201526a65726f206164647265737360a81b6064820152608401610793565b6001600160a01b0391909116600090815261013a60205260409020805460ff1916911515919091179055565b60606037805461047990611b60565b600054610100900460ff16158080156109d05750600054600160ff909116105b806109ea5750303b1580156109ea575060005460ff166001145b610a4d5760405162461bcd60e51b815260206004820152602e60248201527f496e697469616c697a61626c653a20636f6e747261637420697320616c72656160448201526d191e481a5b9a5d1a585b1a5e995960921b6064820152608401610793565b6000805460ff191660011790558015610a70576000805461ff0019166101001790555b610a7a8b8b6112e3565b610a8e6a295be96e64066972000000611314565b610a96611344565b610a9e61136b565b610aa661139a565b61013980546001600160a01b0319166001600160a01b038b161790556040805160e0810182526a0422ca8b0a00a4250000008082526a108b2a2c28029094000000602083015291810182905260608101919091526a013da329b633647180000060808201526a084595161401484a00000060a08201526a02e5276153cd3fb380000060c0820152610b3c906101309060076117f6565b50610b4d8861013060000154610820565b610137805460ff19166001908117909155610b6d90889061013090610528565b610137805461ff001916610100179055610b8b866101306002610528565b610137805462ff0000191662010000179055610bab856101306004610528565b610137805464ff000000001916640100000000179055610bcf846101306006610528565b610137805466ff000000000000191666010000000000001790556107d061012f55610bb861012e556101388054738cfe327cec66d1c090dd72bd0ff11d690c33a2eb6001600160a01b031990911617905573795003bee36283bab1bc754b850faf60b569af5360005261013a6020527fc964acffafaa1e202f14834da13d744c14e96d4c63a5c588e350b98cb73f0914805460ff191660011790558015610cb0576000805461ff0019169055604051600181527f7f26b83ff96e1f2b6a682f133852f6798a09c465da95921460cefb38474024989060200160405180910390a15b5050505050505050505050565b60003381610ccb8286610d46565b905083811015610d2b5760405162461bcd60e51b815260206004820152602560248201527f45524332303a2064656372656173656420616c6c6f77616e63652062656c6f77604482015264207a65726f60d81b6064820152608401610793565b6107bb8286868403610de7565b60003361050a81858561101f565b6001600160a01b03918216600090815260346020908152604080832093909416825291909152205490565b610d79610f0c565b6001600160a01b038116610dde5760405162461bcd60e51b815260206004820152602660248201527f4f776e61626c653a206e6577206f776e657220697320746865207a65726f206160448201526564647265737360d01b6064820152608401610793565b61084081611254565b6001600160a01b038316610e495760405162461bcd60e51b8152602060048201526024808201527f45524332303a20617070726f76652066726f6d20746865207a65726f206164646044820152637265737360e01b6064820152608401610793565b6001600160a01b038216610eaa5760405162461bcd60e51b815260206004820152602260248201527f45524332303a20617070726f766520746f20746865207a65726f206164647265604482015261737360f01b6064820152608401610793565b6001600160a01b0383811660008181526034602090815260408083209487168084529482529182902085905590518481527f8c5be1e5ebec7d5bd14f71427d1e84f3dd0314c0f7b2291e5b200ac8c7c3b92591015b60405180910390a3505050565b60fc546001600160a01b0316331461081e5760405162461bcd60e51b815260206004820181905260248201527f4f776e61626c653a2063616c6c6572206973206e6f7420746865206f776e65726044820152606401610793565b60655481610f7360355490565b610f7d9190611bc6565b1115610f9b5760405162461bcd60e51b815260040161079390611c5f565b61083282826113c9565b6000610fb18484610d46565b90506000198114611019578181101561100c5760405162461bcd60e51b815260206004820152601d60248201527f45524332303a20696e73756666696369656e7420616c6c6f77616e63650000006044820152606401610793565b6110198484848403610de7565b50505050565b6101385460009033906001600160a01b0316810361105a5761271061012e54846110499190611c92565b6110539190611cb1565b91506110b8565b806001600160a01b0316856001600160a01b031614801561109457506001600160a01b038116600090815261013a602052604090205460ff165b156110b85761271061012f54846110ab9190611c92565b6110b59190611cb1565b91505b6110cc85856110c78587611cd3565b611408565b81156110dc576110dc8583611135565b5050505050565b6110eb6115a1565b60ca805460ff191690557f5db9ee0a495bf2e6ff9c91a7834c1ba4fdd244a5e8aa4e537bd38aeae4b073aa335b6040516001600160a01b03909116815260200160405180910390a1565b6001600160a01b0382166111955760405162461bcd60e51b815260206004820152602160248201527f45524332303a206275726e2066726f6d20746865207a65726f206164647265736044820152607360f81b6064820152608401610793565b6001600160a01b038216600090815260336020526040902054818110156112095760405162461bcd60e51b815260206004820152602260248201527f45524332303a206275726e20616d6f756e7420657863656564732062616c616e604482015261636560f01b6064820152608401610793565b6001600160a01b0383166000818152603360209081526040808320868603905560358054879003905551858152919291600080516020611e408339815191529101610eff565b505050565b60fc80546001600160a01b038381166001600160a01b0319831681179093556040519116919082907f8be0079c531659141344cd1fd0a4f28419497f9722a3daafe3b4186f6b6457e090600090a35050565b6112ae6115ea565b60ca805460ff191660011790557f62e78cea01bee320cd4e420270b5ea74000d11b0c9f74754ebdbfc544b05a2586111183390565b600054610100900460ff1661130a5760405162461bcd60e51b815260040161079390611ce6565b6108328282611630565b600054610100900460ff1661133b5760405162461bcd60e51b815260040161079390611ce6565b61084081611670565b600054610100900460ff1661081e5760405162461bcd60e51b815260040161079390611ce6565b600054610100900460ff166113925760405162461bcd60e51b815260040161079390611ce6565b61081e6116e4565b600054610100900460ff166113c15760405162461bcd60e51b815260040161079390611ce6565b61081e611714565b606554816113d660355490565b6113e09190611bc6565b11156113fe5760405162461bcd60e51b815260040161079390611c5f565b6108328282611747565b6001600160a01b03831661146c5760405162461bcd60e51b815260206004820152602560248201527f45524332303a207472616e736665722066726f6d20746865207a65726f206164604482015264647265737360d81b6064820152608401610793565b6001600160a01b0382166114ce5760405162461bcd60e51b815260206004820152602360248201527f45524332303a207472616e7366657220746f20746865207a65726f206164647260448201526265737360e81b6064820152608401610793565b6001600160a01b038316600090815260336020526040902054818110156115465760405162461bcd60e51b815260206004820152602660248201527f45524332303a207472616e7366657220616d6f756e7420657863656564732062604482015265616c616e636560d01b6064820152608401610793565b6001600160a01b038085166000818152603360205260408082208686039055928616808252908390208054860190559151600080516020611e40833981519152906115949086815260200190565b60405180910390a3611019565b60ca5460ff1661081e5760405162461bcd60e51b815260206004820152601460248201527314185d5cd8589b194e881b9bdd081c185d5cd95960621b6044820152606401610793565b60ca5460ff161561081e5760405162461bcd60e51b815260206004820152601060248201526f14185d5cd8589b194e881c185d5cd95960821b6044820152606401610793565b600054610100900460ff166116575760405162461bcd60e51b815260040161079390611ce6565b60366116638382611d7f565b50603761124f8282611d7f565b600054610100900460ff166116975760405162461bcd60e51b815260040161079390611ce6565b600081116116df5760405162461bcd60e51b8152602060048201526015602482015274045524332304361707065643a20636170206973203605c1b6044820152606401610793565b606555565b600054610100900460ff1661170b5760405162461bcd60e51b815260040161079390611ce6565b61081e33611254565b600054610100900460ff1661173b5760405162461bcd60e51b815260040161079390611ce6565b60ca805460ff19169055565b6001600160a01b03821661179d5760405162461bcd60e51b815260206004820152601f60248201527f45524332303a206d696e7420746f20746865207a65726f2061646472657373006044820152606401610793565b80603560008282546117af9190611bc6565b90915550506001600160a01b038216600081815260336020908152604080832080548601905551848152600080516020611e40833981519152910160405180910390a35050565b8260078101928215611833579160200282015b8281111561183357825182906affffffffffffffffffffff16905591602001919060010190611809565b5061183f929150611843565b5090565b5b8082111561183f5760008155600101611844565b600060208083528351808285015260005b8181101561188557858101830151858201604001528201611869565b506000604082860101526040601f19601f8301168501019250505092915050565b80356001600160a01b03811681146118bd57600080fd5b919050565b600080604083850312156118d557600080fd5b6118de836118a6565b946020939093013593505050565b600080604083850312156118ff57600080fd5b611908836118a6565b9150611916602084016118a6565b90509250929050565b60006020828403121561193157600080fd5b5035919050565b60006020828403121561194a57600080fd5b611953826118a6565b9392505050565b60008060006060848603121561196f57600080fd5b611978846118a6565b9250611986602085016118a6565b9150604084013590509250925092565b600080604083850312156119a957600080fd5b6119b2836118a6565b9150602083013580151581146119c757600080fd5b809150509250929050565b634e487b7160e01b600052604160045260246000fd5b600082601f8301126119f957600080fd5b813567ffffffffffffffff80821115611a1457611a146119d2565b604051601f8301601f19908116603f01168101908282118183101715611a3c57611a3c6119d2565b81604052838152866020858801011115611a5557600080fd5b836020870160208301376000602085830101528094505050505092915050565b6000806000806000806000806000806101408b8d031215611a9557600080fd5b8a3567ffffffffffffffff80821115611aad57600080fd5b611ab98e838f016119e8565b9b5060208d0135915080821115611acf57600080fd5b50611adc8d828e016119e8565b995050611aeb60408c016118a6565b9750611af960608c016118a6565b9650611b0760808c016118a6565b9550611b1560a08c016118a6565b9450611b2360c08c016118a6565b9350611b3160e08c016118a6565b9250611b406101008c016118a6565b9150611b4f6101208c016118a6565b90509295989b9194979a5092959850565b600181811c90821680611b7457607f821691505b602082108103611b9457634e487b7160e01b600052602260045260246000fd5b50919050565b634e487b7160e01b600052603260045260246000fd5b634e487b7160e01b600052601160045260246000fd5b8082018082111561051057610510611bb0565b6001600160a01b038381168252604060208084018290528451848301819052600093606092909183870190888301875b82811015611c4f57815180518716855285810151868601528881015189860152878101518886015260809081015187169085015260a09093019290840190600101611c09565b50919a9950505050505050505050565b602080825260199082015278115490cc8c10d85c1c19590e8818d85c08195e18d959591959603a1b604082015260600190565b6000816000190483118215151615611cac57611cac611bb0565b500290565b600082611cce57634e487b7160e01b600052601260045260246000fd5b500490565b8181038181111561051057610510611bb0565b6020808252602b908201527f496e697469616c697a61626c653a20636f6e7472616374206973206e6f74206960408201526a6e697469616c697a696e6760a81b606082015260800190565b601f82111561124f57600081815260208120601f850160051c81016020861015611d585750805b601f850160051c820191505b81811015611d7757828155600101611d64565b505050505050565b815167ffffffffffffffff811115611d9957611d996119d2565b611dad81611da78454611b60565b84611d31565b602080601f831160018114611de25760008415611dca5750858301515b600019600386901b1c1916600185901b178555611d77565b600085815260208120601f198616915b82811015611e1157888601518255948401946001909101908401611df2565b5085821015611e2f5787850151600019600388901b60f8161c191681555b5050505050600190811b0190555056feddf252ad1be2c89b69c2b068fc378daa952ba7f163c4a11628f55a4df523b3efa2646970667358221220623163a1a4a2eea5abeaa6b412c775618292b4742cb087b68df2dde03683c41864736f6c63430008100033",
  "devdoc": {
    "kind": "dev",
    "methods": {
      "allowance(address,address)": {
        "details": "See {IERC20-allowance}."
      },
      "approve(address,uint256)": {
        "details": "See {IERC20-approve}. NOTE: If `amount` is the maximum `uint256`, the allowance is not updated on `transferFrom`. This is semantically equivalent to an infinite approval. Requirements: - `spender` cannot be the zero address."
      },
      "balanceOf(address)": {
        "details": "See {IERC20-balanceOf}."
      },
      "burn(uint256)": {
        "details": "Destroys `amount` tokens from the caller. See {ERC20-_burn}."
      },
      "burnFrom(address,uint256)": {
        "details": "Destroys `amount` tokens from `account`, deducting from the caller's allowance. See {ERC20-_burn} and {ERC20-allowance}. Requirements: - the caller must have allowance for ``accounts``'s tokens of at least `amount`."
      },
      "cap()": {
        "details": "Returns the cap on the token's total supply."
      },
      "decimals()": {
        "details": "Returns the number of decimals used to get its user representation. For example, if `decimals` equals `2`, a balance of `505` tokens should be displayed to a user as `5.05` (`505 / 10 ** 2`). Tokens usually opt for a value of 18, imitating the relationship between Ether and Wei. This is the value {ERC20} uses, unless this function is overridden; NOTE: This information is only used for _display_ purposes: it in no way affects any of the arithmetic of the contract, including {IERC20-balanceOf} and {IERC20-transfer}."
      },
      "decreaseAllowance(address,uint256)": {
        "details": "Atomically decreases the allowance granted to `spender` by the caller. This is an alternative to {approve} that can be used as a mitigation for problems described in {IERC20-approve}. Emits an {Approval} event indicating the updated allowance. Requirements: - `spender` cannot be the zero address. - `spender` must have allowance for the caller of at least `subtractedValue`."
      },
      "increaseAllowance(address,uint256)": {
        "details": "Atomically increases the allowance granted to `spender` by the caller. This is an alternative to {approve} that can be used as a mitigation for problems described in {IERC20-approve}. Emits an {Approval} event indicating the updated allowance. Requirements: - `spender` cannot be the zero address."
      },
      "name()": {
        "details": "Returns the name of the token."
      },
      "owner()": {
        "details": "Returns the address of the current owner."
      },
      "paused()": {
        "details": "Returns true if the contract is paused, and false otherwise."
      },
      "renounceOwnership()": {
        "details": "Leaves the contract without owner. It will not be possible to call `onlyOwner` functions anymore. Can only be called by the current owner. NOTE: Renouncing ownership will leave the contract without an owner, thereby removing any functionality that is only available to the owner."
      },
      "symbol()": {
        "details": "Returns the symbol of the token, usually a shorter version of the name."
      },
      "totalSupply()": {
        "details": "See {IERC20-totalSupply}."
      },
      "transfer(address,uint256)": {
        "details": "See {IERC20-transfer}. Requirements: - `to` cannot be the zero address. - the caller must have a balance of at least `amount`."
      },
      "transferFrom(address,address,uint256)": {
        "details": "See {IERC20-transferFrom}. Emits an {Approval} event indicating the updated allowance. This is not required by the EIP. See the note at the beginning of {ERC20}. NOTE: Does not update the allowance if the current allowance is the maximum `uint256`. Requirements: - `from` and `to` cannot be the zero address. - `from` must have a balance of at least `amount`. - the caller must have allowance for ``from``'s tokens of at least `amount`."
      },
      "transferOwnership(address)": {
        "details": "Transfers ownership of the contract to a new account (`newOwner`). Can only be called by the current owner."
      }
    },
    "version": 1
  },
  "userdoc": {
    "kind": "user",
    "methods": {},
    "version": 1
  },
  "storageLayout": {
    "storage": [
      {
        "astId": 138,
        "contract": "contracts/DGW.sol:DGWToken",
        "label": "_initialized",
        "offset": 0,
        "slot": "0",
        "type": "t_uint8"
      },
      {
        "astId": 141,
        "contract": "contracts/DGW.sol:DGWToken",
        "label": "_initializing",
        "offset": 1,
        "slot": "0",
        "type": "t_bool"
      },
      {
        "astId": 1618,
        "contract": "contracts/DGW.sol:DGWToken",
        "label": "__gap",
        "offset": 0,
        "slot": "1",
        "type": "t_array(t_uint256)50_storage"
      },
      {
        "astId": 446,
        "contract": "contracts/DGW.sol:DGWToken",
        "label": "_balances",
        "offset": 0,
        "slot": "51",
        "type": "t_mapping(t_address,t_uint256)"
      },
      {
        "astId": 452,
        "contract": "contracts/DGW.sol:DGWToken",
        "label": "_allowances",
        "offset": 0,
        "slot": "52",
        "type": "t_mapping(t_address,t_mapping(t_address,t_uint256))"
      },
      {
        "astId": 454,
        "contract": "contracts/DGW.sol:DGWToken",
        "label": "_totalSupply",
        "offset": 0,
        "slot": "53",
        "type": "t_uint256"
      },
      {
        "astId": 456,
        "contract": "contracts/DGW.sol:DGWToken",
        "label": "_name",
        "offset": 0,
        "slot": "54",
        "type": "t_string_storage"
      },
      {
        "astId": 458,
        "contract": "contracts/DGW.sol:DGWToken",
        "label": "_symbol",
        "offset": 0,
        "slot": "55",
        "type": "t_string_storage"
      },
      {
        "astId": 1038,
        "contract": "contracts/DGW.sol:DGWToken",
        "label": "__gap",
        "offset": 0,
        "slot": "56",
        "type": "t_array(t_uint256)45_storage"
      },
      {
        "astId": 1192,
        "contract": "contracts/DGW.sol:DGWToken",
        "label": "_cap",
        "offset": 0,
        "slot": "101",
        "type": "t_uint256"
      },
      {
        "astId": 1267,
        "contract": "contracts/DGW.sol:DGWToken",
        "label": "__gap",
        "offset": 0,
        "slot": "102",
        "type": "t_array(t_uint256)50_storage"
      },
      {
        "astId": 1180,
        "contract": "contracts/DGW.sol:DGWToken",
        "label": "__gap",
        "offset": 0,
        "slot": "152",
        "type": "t_array(t_uint256)50_storage"
      },
      {
        "astId": 321,
        "contract": "contracts/DGW.sol:DGWToken",
        "label": "_paused",
        "offset": 0,
        "slot": "202",
        "type": "t_bool"
      },
      {
        "astId": 426,
        "contract": "contracts/DGW.sol:DGWToken",
        "label": "__gap",
        "offset": 0,
        "slot": "203",
        "type": "t_array(t_uint256)49_storage"
      },
      {
        "astId": 10,
        "contract": "contracts/DGW.sol:DGWToken",
        "label": "_owner",
        "offset": 0,
        "slot": "252",
        "type": "t_address"
      },
      {
        "astId": 130,
        "contract": "contracts/DGW.sol:DGWToken",
        "label": "__gap",
        "offset": 0,
        "slot": "253",
        "type": "t_array(t_uint256)49_storage"
      },
      {
        "astId": 1654,
        "contract": "contracts/DGW.sol:DGWToken",
        "label": "sellFee",
        "offset": 0,
        "slot": "302",
        "type": "t_uint256"
      },
      {
        "astId": 1656,
        "contract": "contracts/DGW.sol:DGWToken",
        "label": "buyFee",
        "offset": 0,
        "slot": "303",
        "type": "t_uint256"
      },
      {
        "astId": 1681,
        "contract": "contracts/DGW.sol:DGWToken",
        "label": "pools_amount",
        "offset": 0,
        "slot": "304",
        "type": "t_array(t_uint256)7_storage"
      },
      {
        "astId": 1685,
        "contract": "contracts/DGW.sol:DGWToken",
        "label": "_minted_pool",
        "offset": 0,
        "slot": "311",
        "type": "t_array(t_bool)7_storage"
      },
      {
        "astId": 1688,
        "contract": "contracts/DGW.sol:DGWToken",
        "label": "swapRouter",
        "offset": 0,
        "slot": "312",
        "type": "t_contract(IPancakeRouter02)2674"
      },
      {
        "astId": 1691,
        "contract": "contracts/DGW.sol:DGWToken",
        "label": "tokenVesting",
        "offset": 0,
        "slot": "313",
        "type": "t_contract(IUncxTokenVesting)2278"
      },
      {
        "astId": 1695,
        "contract": "contracts/DGW.sol:DGWToken",
        "label": "lpAddresses",
        "offset": 0,
        "slot": "314",
        "type": "t_mapping(t_address,t_bool)"
      }
    ],
    "types": {
      "t_address": {
        "encoding": "inplace",
        "label": "address",
        "numberOfBytes": "20"
      },
      "t_array(t_bool)7_storage": {
        "base": "t_bool",
        "encoding": "inplace",
        "label": "bool[7]",
        "numberOfBytes": "32"
      },
      "t_array(t_uint256)45_storage": {
        "base": "t_uint256",
        "encoding": "inplace",
        "label": "uint256[45]",
        "numberOfBytes": "1440"
      },
      "t_array(t_uint256)49_storage": {
        "base": "t_uint256",
        "encoding": "inplace",
        "label": "uint256[49]",
        "numberOfBytes": "1568"
      },
      "t_array(t_uint256)50_storage": {
        "base": "t_uint256",
        "encoding": "inplace",
        "label": "uint256[50]",
        "numberOfBytes": "1600"
      },
      "t_array(t_uint256)7_storage": {
        "base": "t_uint256",
        "encoding": "inplace",
        "label": "uint256[7]",
        "numberOfBytes": "224"
      },
      "t_bool": {
        "encoding": "inplace",
        "label": "bool",
        "numberOfBytes": "1"
      },
      "t_contract(IPancakeRouter02)2674": {
        "encoding": "inplace",
        "label": "contract IPancakeRouter02",
        "numberOfBytes": "20"
      },
      "t_contract(IUncxTokenVesting)2278": {
        "encoding": "inplace",
        "label": "contract IUncxTokenVesting",
        "numberOfBytes": "20"
      },
      "t_mapping(t_address,t_bool)": {
        "encoding": "mapping",
        "key": "t_address",
        "label": "mapping(address => bool)",
        "numberOfBytes": "32",
        "value": "t_bool"
      },
      "t_mapping(t_address,t_mapping(t_address,t_uint256))": {
        "encoding": "mapping",
        "key": "t_address",
        "label": "mapping(address => mapping(address => uint256))",
        "numberOfBytes": "32",
        "value": "t_mapping(t_address,t_uint256)"
      },
      "t_mapping(t_address,t_uint256)": {
        "encoding": "mapping",
        "key": "t_address",
        "label": "mapping(address => uint256)",
        "numberOfBytes": "32",
        "value": "t_uint256"
      },
      "t_string_storage": {
        "encoding": "bytes",
        "label": "string",
        "numberOfBytes": "32"
      },
      "t_uint256": {
        "encoding": "inplace",
        "label": "uint256",
        "numberOfBytes": "32"
      },
      "t_uint8": {
        "encoding": "inplace",
        "label": "uint8",
        "numberOfBytes": "1"
      }
    }
  }
}