{
  "address": "0x8F562629225AEbF517E78683C026fa06e3f67dc1",
  "abi": [
    {
      "anonymous": false,
      "inputs": [
        {
          "indexed": true,
          "internalType": "uint256",
          "name": "contractId",
          "type": "uint256"
        },
        {
          "indexed": true,
          "internalType": "address",
          "name": "user",
          "type": "address"
        },
        {
          "indexed": true,
          "internalType": "address",
          "name": "stakeToken",
          "type": "address"
        },
        {
          "indexed": false,
          "internalType": "address",
          "name": "referrer",
          "type": "address"
        },
        {
          "indexed": false,
          "internalType": "uint256",
          "name": "amount",
          "type": "uint256"
        },
        {
          "indexed": false,
          "internalType": "uint256",
          "name": "amountInUSD",
          "type": "uint256"
        }
      ],
      "name": "ContractCreated",
      "type": "event"
    },
    {
      "anonymous": false,
      "inputs": [
        {
          "indexed": false,
          "internalType": "uint8",
          "name": "version",
          "type": "uint8"
        }
      ],
      "name": "Initialized",
      "type": "event"
    },
    {
      "anonymous": false,
      "inputs": [
        {
          "indexed": false,
          "internalType": "address",
          "name": "account",
          "type": "address"
        }
      ],
      "name": "Paused",
      "type": "event"
    },
    {
      "anonymous": false,
      "inputs": [
        {
          "indexed": false,
          "internalType": "uint256",
          "name": "_minDepositInUSD",
          "type": "uint256"
        },
        {
          "indexed": false,
          "internalType": "uint64",
          "name": "_APR",
          "type": "uint64"
        },
        {
          "indexed": false,
          "internalType": "uint128",
          "name": "_period",
          "type": "uint128"
        }
      ],
      "name": "PoolAdded",
      "type": "event"
    },
    {
      "anonymous": false,
      "inputs": [
        {
          "indexed": true,
          "internalType": "address",
          "name": "claimer",
          "type": "address"
        },
        {
          "indexed": true,
          "internalType": "uint256",
          "name": "pid",
          "type": "uint256"
        },
        {
          "indexed": false,
          "internalType": "uint256",
          "name": "amount",
          "type": "uint256"
        },
        {
          "indexed": false,
          "internalType": "uint256",
          "name": "amountInUSD",
          "type": "uint256"
        }
      ],
      "name": "RewardHarvested",
      "type": "event"
    },
    {
      "anonymous": false,
      "inputs": [
        {
          "indexed": true,
          "internalType": "bytes32",
          "name": "role",
          "type": "bytes32"
        },
        {
          "indexed": true,
          "internalType": "bytes32",
          "name": "previousAdminRole",
          "type": "bytes32"
        },
        {
          "indexed": true,
          "internalType": "bytes32",
          "name": "newAdminRole",
          "type": "bytes32"
        }
      ],
      "name": "RoleAdminChanged",
      "type": "event"
    },
    {
      "anonymous": false,
      "inputs": [
        {
          "indexed": true,
          "internalType": "bytes32",
          "name": "role",
          "type": "bytes32"
        },
        {
          "indexed": true,
          "internalType": "address",
          "name": "account",
          "type": "address"
        },
        {
          "indexed": true,
          "internalType": "address",
          "name": "sender",
          "type": "address"
        }
      ],
      "name": "RoleGranted",
      "type": "event"
    },
    {
      "anonymous": false,
      "inputs": [
        {
          "indexed": true,
          "internalType": "bytes32",
          "name": "role",
          "type": "bytes32"
        },
        {
          "indexed": true,
          "internalType": "address",
          "name": "account",
          "type": "address"
        },
        {
          "indexed": true,
          "internalType": "address",
          "name": "sender",
          "type": "address"
        }
      ],
      "name": "RoleRevoked",
      "type": "event"
    },
    {
      "anonymous": false,
      "inputs": [
        {
          "indexed": true,
          "internalType": "address",
          "name": "user",
          "type": "address"
        },
        {
          "indexed": true,
          "internalType": "address",
          "name": "referrer",
          "type": "address"
        },
        {
          "indexed": true,
          "internalType": "uint256",
          "name": "contractId",
          "type": "uint256"
        },
        {
          "indexed": false,
          "internalType": "uint256",
          "name": "stakingAmount",
          "type": "uint256"
        }
      ],
      "name": "StakingContractCreated",
      "type": "event"
    },
    {
      "anonymous": false,
      "inputs": [
        {
          "indexed": false,
          "internalType": "address",
          "name": "account",
          "type": "address"
        }
      ],
      "name": "Unpaused",
      "type": "event"
    },
    {
      "anonymous": false,
      "inputs": [
        {
          "indexed": true,
          "internalType": "address",
          "name": "user",
          "type": "address"
        },
        {
          "indexed": false,
          "internalType": "uint256",
          "name": "amount",
          "type": "uint256"
        }
      ],
      "name": "Withdraw",
      "type": "event"
    },
    {
      "anonymous": false,
      "inputs": [
        {
          "indexed": true,
          "internalType": "address",
          "name": "claimer",
          "type": "address"
        },
        {
          "indexed": true,
          "internalType": "uint256",
          "name": "pid",
          "type": "uint256"
        },
        {
          "indexed": false,
          "internalType": "uint256",
          "name": "amount",
          "type": "uint256"
        },
        {
          "indexed": false,
          "internalType": "uint256",
          "name": "amountInUSD",
          "type": "uint256"
        }
      ],
      "name": "Withdrawed",
      "type": "event"
    },
    {
      "inputs": [],
      "name": "DEFAULT_ADMIN_ROLE",
      "outputs": [
        {
          "internalType": "bytes32",
          "name": "",
          "type": "bytes32"
        }
      ],
      "stateMutability": "view",
      "type": "function"
    },
    {
      "inputs": [],
      "name": "OWNER_ROLE",
      "outputs": [
        {
          "internalType": "bytes32",
          "name": "",
          "type": "bytes32"
        }
      ],
      "stateMutability": "view",
      "type": "function"
    },
    {
      "inputs": [],
      "name": "PAUSER_ROLE",
      "outputs": [
        {
          "internalType": "bytes32",
          "name": "",
          "type": "bytes32"
        }
      ],
      "stateMutability": "view",
      "type": "function"
    },
    {
      "inputs": [],
      "name": "SUB_ADMIN_ROLE",
      "outputs": [
        {
          "internalType": "bytes32",
          "name": "",
          "type": "bytes32"
        }
      ],
      "stateMutability": "view",
      "type": "function"
    },
    {
      "inputs": [
        {
          "internalType": "address",
          "name": "owner",
          "type": "address"
        }
      ],
      "name": "__DChainBase_init",
      "outputs": [],
      "stateMutability": "nonpayable",
      "type": "function"
    },
    {
      "inputs": [
        {
          "internalType": "uint256",
          "name": "_minDepositInUSD",
          "type": "uint256"
        },
        {
          "internalType": "uint64",
          "name": "_APR",
          "type": "uint64"
        },
        {
          "internalType": "uint64",
          "name": "_period",
          "type": "uint64"
        }
      ],
      "name": "addPool",
      "outputs": [],
      "stateMutability": "nonpayable",
      "type": "function"
    },
    {
      "inputs": [],
      "name": "admin",
      "outputs": [
        {
          "internalType": "address",
          "name": "",
          "type": "address"
        }
      ],
      "stateMutability": "view",
      "type": "function"
    },
    {
      "inputs": [
        {
          "internalType": "uint256",
          "name": "_pid",
          "type": "uint256"
        }
      ],
      "name": "claimReward",
      "outputs": [],
      "stateMutability": "nonpayable",
      "type": "function"
    },
    {
      "inputs": [
        {
          "internalType": "uint256",
          "name": "_pid",
          "type": "uint256"
        },
        {
          "internalType": "uint256",
          "name": "_amount",
          "type": "uint256"
        }
      ],
      "name": "deposit",
      "outputs": [],
      "stateMutability": "nonpayable",
      "type": "function"
    },
    {
      "inputs": [
        {
          "internalType": "uint256",
          "name": "_pid",
          "type": "uint256"
        },
        {
          "internalType": "uint256",
          "name": "_originAmount",
          "type": "uint256"
        },
        {
          "internalType": "uint256",
          "name": "_lockedAmount",
          "type": "uint256"
        },
        {
          "internalType": "address",
          "name": "_user",
          "type": "address"
        }
      ],
      "name": "depositByVault",
      "outputs": [],
      "stateMutability": "nonpayable",
      "type": "function"
    },
    {
      "inputs": [],
      "name": "emergencyCancelled",
      "outputs": [
        {
          "internalType": "bool",
          "name": "",
          "type": "bool"
        }
      ],
      "stateMutability": "view",
      "type": "function"
    },
    {
      "inputs": [
        {
          "internalType": "uint256",
          "name": "_amountInUSD",
          "type": "uint256"
        }
      ],
      "name": "getAmountDDXByUSD",
      "outputs": [
        {
          "internalType": "uint256",
          "name": "",
          "type": "uint256"
        }
      ],
      "stateMutability": "nonpayable",
      "type": "function"
    },
    {
      "inputs": [
        {
          "internalType": "bytes32",
          "name": "role",
          "type": "bytes32"
        }
      ],
      "name": "getRoleAdmin",
      "outputs": [
        {
          "internalType": "bytes32",
          "name": "",
          "type": "bytes32"
        }
      ],
      "stateMutability": "view",
      "type": "function"
    },
    {
      "inputs": [
        {
          "internalType": "address",
          "name": "_token",
          "type": "address"
        },
        {
          "internalType": "uint256",
          "name": "_amount",
          "type": "uint256"
        }
      ],
      "name": "getStakingAmountByPegToken",
      "outputs": [
        {
          "internalType": "uint256",
          "name": "",
          "type": "uint256"
        }
      ],
      "stateMutability": "view",
      "type": "function"
    },
    {
      "inputs": [
        {
          "internalType": "address",
          "name": "_token",
          "type": "address"
        },
        {
          "internalType": "uint256",
          "name": "_amount",
          "type": "uint256"
        }
      ],
      "name": "getStakingAmountInUSD",
      "outputs": [
        {
          "internalType": "uint256",
          "name": "",
          "type": "uint256"
        }
      ],
      "stateMutability": "view",
      "type": "function"
    },
    {
      "inputs": [
        {
          "internalType": "bytes32",
          "name": "role",
          "type": "bytes32"
        },
        {
          "internalType": "address",
          "name": "account",
          "type": "address"
        }
      ],
      "name": "grantRole",
      "outputs": [],
      "stateMutability": "nonpayable",
      "type": "function"
    },
    {
      "inputs": [
        {
          "internalType": "bytes32",
          "name": "role",
          "type": "bytes32"
        },
        {
          "internalType": "address",
          "name": "account",
          "type": "address"
        }
      ],
      "name": "hasRole",
      "outputs": [
        {
          "internalType": "bool",
          "name": "",
          "type": "bool"
        }
      ],
      "stateMutability": "view",
      "type": "function"
    },
    {
      "inputs": [
        {
          "internalType": "address",
          "name": "_owner",
          "type": "address"
        },
        {
          "internalType": "address",
          "name": "_oracle",
          "type": "address"
        },
        {
          "internalType": "address",
          "name": "_treasury",
          "type": "address"
        },
        {
          "internalType": "contract IERC20",
          "name": "_rewardToken",
          "type": "address"
        }
      ],
      "name": "initialize",
      "outputs": [],
      "stateMutability": "nonpayable",
      "type": "function"
    },
    {
      "inputs": [],
      "name": "isAdmin",
      "outputs": [
        {
          "internalType": "bool",
          "name": "",
          "type": "bool"
        }
      ],
      "stateMutability": "view",
      "type": "function"
    },
    {
      "inputs": [
        {
          "internalType": "address",
          "name": "",
          "type": "address"
        }
      ],
      "name": "offeredCurrencies",
      "outputs": [
        {
          "internalType": "uint256",
          "name": "decimal",
          "type": "uint256"
        },
        {
          "internalType": "uint256",
          "name": "rate",
          "type": "uint256"
        }
      ],
      "stateMutability": "view",
      "type": "function"
    },
    {
      "inputs": [],
      "name": "oracle",
      "outputs": [
        {
          "internalType": "address",
          "name": "",
          "type": "address"
        }
      ],
      "stateMutability": "view",
      "type": "function"
    },
    {
      "inputs": [],
      "name": "pause",
      "outputs": [],
      "stateMutability": "nonpayable",
      "type": "function"
    },
    {
      "inputs": [],
      "name": "paused",
      "outputs": [
        {
          "internalType": "bool",
          "name": "",
          "type": "bool"
        }
      ],
      "stateMutability": "view",
      "type": "function"
    },
    {
      "inputs": [
        {
          "internalType": "uint256",
          "name": "_pid",
          "type": "uint256"
        },
        {
          "internalType": "address",
          "name": "_user",
          "type": "address"
        }
      ],
      "name": "pendingRewardInUSD",
      "outputs": [
        {
          "internalType": "uint256",
          "name": "",
          "type": "uint256"
        }
      ],
      "stateMutability": "view",
      "type": "function"
    },
    {
      "inputs": [
        {
          "internalType": "uint256",
          "name": "",
          "type": "uint256"
        }
      ],
      "name": "poolInfo",
      "outputs": [
        {
          "internalType": "uint256",
          "name": "minDepositInUSD",
          "type": "uint256"
        },
        {
          "internalType": "uint64",
          "name": "period",
          "type": "uint64"
        },
        {
          "internalType": "uint64",
          "name": "APR",
          "type": "uint64"
        },
        {
          "internalType": "bool",
          "name": "status",
          "type": "bool"
        }
      ],
      "stateMutability": "view",
      "type": "function"
    },
    {
      "inputs": [
        {
          "internalType": "bytes32",
          "name": "role",
          "type": "bytes32"
        },
        {
          "internalType": "address",
          "name": "account",
          "type": "address"
        }
      ],
      "name": "renounceRole",
      "outputs": [],
      "stateMutability": "nonpayable",
      "type": "function"
    },
    {
      "inputs": [
        {
          "internalType": "bytes32",
          "name": "role",
          "type": "bytes32"
        },
        {
          "internalType": "address",
          "name": "account",
          "type": "address"
        }
      ],
      "name": "revokeRole",
      "outputs": [],
      "stateMutability": "nonpayable",
      "type": "function"
    },
    {
      "inputs": [],
      "name": "rewardToken",
      "outputs": [
        {
          "internalType": "contract IERC20",
          "name": "",
          "type": "address"
        }
      ],
      "stateMutability": "view",
      "type": "function"
    },
    {
      "inputs": [
        {
          "internalType": "contract IDDXVault",
          "name": "_vault",
          "type": "address"
        }
      ],
      "name": "setDDXVault",
      "outputs": [],
      "stateMutability": "nonpayable",
      "type": "function"
    },
    {
      "inputs": [
        {
          "internalType": "address",
          "name": "_currency",
          "type": "address"
        },
        {
          "internalType": "uint256",
          "name": "_rate",
          "type": "uint256"
        },
        {
          "internalType": "uint256",
          "name": "_decimal",
          "type": "uint256"
        }
      ],
      "name": "setOfferedCurrency",
      "outputs": [],
      "stateMutability": "nonpayable",
      "type": "function"
    },
    {
      "inputs": [
        {
          "internalType": "uint256",
          "name": "",
          "type": "uint256"
        },
        {
          "internalType": "address",
          "name": "",
          "type": "address"
        }
      ],
      "name": "stakingInfos",
      "outputs": [
        {
          "internalType": "uint256",
          "name": "totalStakesInUSD",
          "type": "uint256"
        },
        {
          "internalType": "uint256",
          "name": "claimedInterest",
          "type": "uint256"
        },
        {
          "internalType": "uint64",
          "name": "dueDate",
          "type": "uint64"
        },
        {
          "internalType": "uint64",
          "name": "timeStake",
          "type": "uint64"
        },
        {
          "internalType": "uint64",
          "name": "lastClaimedTime",
          "type": "uint64"
        },
        {
          "internalType": "uint64",
          "name": "lastUpdatedTime",
          "type": "uint64"
        },
        {
          "internalType": "uint64",
          "name": "createdAt",
          "type": "uint64"
        }
      ],
      "stateMutability": "view",
      "type": "function"
    },
    {
      "inputs": [
        {
          "internalType": "bytes4",
          "name": "interfaceId",
          "type": "bytes4"
        }
      ],
      "name": "supportsInterface",
      "outputs": [
        {
          "internalType": "bool",
          "name": "",
          "type": "bool"
        }
      ],
      "stateMutability": "view",
      "type": "function"
    },
    {
      "inputs": [],
      "name": "totalStaked",
      "outputs": [
        {
          "internalType": "uint256",
          "name": "",
          "type": "uint256"
        }
      ],
      "stateMutability": "view",
      "type": "function"
    },
    {
      "inputs": [],
      "name": "treasury",
      "outputs": [
        {
          "internalType": "address",
          "name": "",
          "type": "address"
        }
      ],
      "stateMutability": "view",
      "type": "function"
    },
    {
      "inputs": [],
      "name": "unpause",
      "outputs": [],
      "stateMutability": "nonpayable",
      "type": "function"
    },
    {
      "inputs": [],
      "name": "vault",
      "outputs": [
        {
          "internalType": "contract IDDXVault",
          "name": "",
          "type": "address"
        }
      ],
      "stateMutability": "view",
      "type": "function"
    },
    {
      "inputs": [
        {
          "internalType": "uint256",
          "name": "_pid",
          "type": "uint256"
        }
      ],
      "name": "withdraw",
      "outputs": [],
      "stateMutability": "nonpayable",
      "type": "function"
    }
  ],
  "transactionHash": "0x9918858895c65b9523f514591bd4a90ffc8ca4b7786a8d373c7630a6912f90a1",
  "args": [],
  "solcInputHash": "f5aebcb8d3bc11338a03402a54132064",
  "bytecode": "0x608060405234801561001057600080fd5b50612d4a806100206000396000f3fe608060405234801561001057600080fd5b50600436106101f75760003560e01c80638072e60f11610120578063e2bbb158116100b8578063f851a4401161007c578063f851a44014610560578063f8c8765e14610574578063f9e9428f14610587578063fbd695bf1461059a578063fbfa77cf146105ad57600080fd5b8063e2bbb158146104fc578063e58378bb1461050f578063e63ab1e914610524578063f2e0348214610539578063f7c618c11461054c57600080fd5b80638072e60f1461047b578063817b1cd21461048e5780638456cb591461049857806391d14854146104a0578063a217fddf146104b3578063ae169a50146104bb578063b6db75a0146104ce578063d547741f146104d6578063e1988ca3146104e957600080fd5b80635a3a85cb116101935780635a3a85cb146103055780635c975abb1461034257806361d027b31461034d57806362d6306f1461036e578063657efde6146103815780636ca63297146103945780636eb1e05a146103a757806378ecb4ee146104595780637dc0d1d01461046757600080fd5b806301ffc9a7146101fc578063022f2354146102245780631526fe27146102475780632204d5ee1461028c578063248a9ca31461029f5780632e1a7d4d146102c25780632f2ff15d146102d757806336568abe146102ea5780633f4ba83a146102fd575b600080fd5b61020f61020a366004612787565b6105c1565b60405190151581526020015b60405180910390f35b610239600080516020612cf583398151915281565b60405190815260200161021b565b61025a610255366004612740565b6105f8565b60405161021b94939291909384526001600160401b039283166020850152911660408301521515606082015260800190565b61023961029a366004612740565b610648565b6102396102ad366004612740565b60009081526065602052604090206001015490565b6102d56102d0366004612740565b610653565b005b6102d56102e5366004612758565b610898565b6102d56102f8366004612758565b6108c2565b6102d5610940565b61032d61031336600461262e565b6101ca602052600090815260409020805460019091015482565b6040805192835260208301919091520161021b565b60975460ff1661020f565b6101c554610361906001600160a01b031681565b60405161021b91906128eb565b6102d561037c36600461262e565b61096e565b6102d561038f3660046126ec565b610a97565b6102396103a2366004612758565b610ad5565b6104146103b5366004612758565b6101cb6020908152600092835260408084209091529082529020805460018201546002830154600390930154919290916001600160401b0380831692600160401b8104821692600160801b8204831692600160c01b9092048216911687565b6040805197885260208801969096526001600160401b0394851695870195909552918316606086015282166080850152811660a08401521660c082015260e00161021b565b6101c95461020f9060ff1681565b6101c754610361906001600160a01b031681565b6102d56104893660046127e8565b610c04565b6102396101c85481565b6102d5610dd2565b61020f6104ae366004612758565b610dfe565b610239600081565b6102d56104c9366004612740565b610e29565b61020f610e4f565b6102d56104e4366004612758565b610e6e565b6102396104f73660046126c1565b610e93565b6102d561050a3660046127c7565b610ef2565b610239600080516020612cb583398151915281565b610239600080516020612cd583398151915281565b6102396105473660046126c1565b6110fe565b6101c354610361906001600160a01b031681565b6101c654610361906001600160a01b031681565b6102d5610582366004612666565b61114f565b6102d561059536600461281d565b61139c565b6102d56105a836600461262e565b6114d9565b6101c454610361906001600160a01b031681565b60006001600160e01b03198216637965db0b60e01b14806105f257506301ffc9a760e01b6001600160e01b03198316145b92915050565b6101cc818154811061060957600080fd5b6000918252602090912060029091020180546001909101549091506001600160401b0380821691600160401b810490911690600160801b900460ff1684565b60006105f28261157a565b61065b611828565b61066361186e565b60008181526101cb6020908152604080832033808552925290912080546106e05760405162461bcd60e51b815260206004820152602660248201527f706f6f6c3a20746f74616c207374616b6573206d75737420677265617465722060448201526507468616e20360d41b60648201526084015b60405180910390fd5b60028101546001600160401b0316421161073c5760405162461bcd60e51b815260206004820152601b60248201527f706f6f6c3a20647565206461746520726571206e6f74206d656574000000000060448201526064016106d7565b61074683836118c8565b6000610755826000015461157a565b9050600081116107775760405162461bcd60e51b81526004016106d79061298b565b6101c3546101c5546040516323b872dd60e01b81526001600160a01b03928316926323b872dd926107b192911690879086906004016128ff565b602060405180830381600087803b1580156107cb57600080fd5b505af11580156107df573d6000803e3d6000fd5b505050506040513d601f19601f820116820180604052508101906108039190612720565b5060008481526101cb602090815260408083206001600160a01b0387168085529083528184208481556001810185905560028101949094556003909301805467ffffffffffffffff1916905584548151858152928301528692917f992aa94ba074f022eacd638616e322641ce0911ddc743e0dc48c338afafc1ff0910160405180910390a3505050610895600160c955565b50565b6000828152606560205260409020600101546108b381611a93565b6108bd8383611a9d565b505050565b6001600160a01b03811633146109325760405162461bcd60e51b815260206004820152602f60248201527f416363657373436f6e74726f6c3a2063616e206f6e6c792072656e6f756e636560448201526e103937b632b9903337b91039b2b63360891b60648201526084016106d7565b61093c8282611b23565b5050565b610948610e4f565b6109645760405162461bcd60e51b81526004016106d790612a4f565b61096c611b8a565b565b600054610100900460ff166109955760405162461bcd60e51b81526004016106d790612a04565b6001600160a01b0381166109eb5760405162461bcd60e51b815260206004820181905260248201527f4f776e65722063616e6e6f7420626520746865207a65726f206164647265737360448201526064016106d7565b6109f3611bd6565b6109fb611bfd565b610a03611c2c565b610a1b600080516020612cb583398151915282611c5b565b610a33600080516020612cd583398151915282611c5b565b610a59600080516020612cf5833981519152600080516020612cb5833981519152611c65565b610a7f600080516020612cd5833981519152600080516020612cb5833981519152611c65565b610895600080516020612cb583398151915280611c65565b600080516020612cf5833981519152610aaf81611a93565b506001600160a01b0390921660009081526101ca60205260409020600181019190915555565b6000806101cc8481548110610afa57634e487b7160e01b600052603260045260246000fd5b600091825260208083208784526101cb825260408085206001600160a01b038916865290925292206002818101549202909201925042906001600160401b03600160801b909104811690821611610b5757600093505050506105f2565b60028201546001600160401b039081169082161115610b80575060028101546001600160401b03165b6002820154600090610ba290600160801b90046001600160401b031642612c1e565b600185015484549192506000916301e1338091620186a091600160401b9091046001600160401b0390811691610bda91871690612be8565b610be49190612be8565b610bee9190612add565b610bf89190612add565b98975050505050505050565b610c0c611828565b610c1461186e565b6101c4546001600160a01b0316336001600160a01b031614610c735760405162461bcd60e51b81526020600482015260186024820152771c1bdbdb0e88139bdd081cdd185ad948189e481d985d5b1d60421b60448201526064016106d7565b6101c45460408051633304424960e11b8152905142926001600160a01b0316916366088492916004808301926020929190829003018186803b158015610cb857600080fd5b505afa158015610ccc573d6000803e3d6000fd5b505050506040513d601f19601f82011682018060405250810190610cf091906127af565b1115610d5d5760405162461bcd60e51b815260206004820152603660248201527f706f6f6c3a206e6f7420616c6c6f7720746f20757365207468697320616674656044820152751c881d995cdd1a5b99c81d1a5b59481cdd185c9d195960521b60648201526084016106d7565b6000610d698385612a9a565b905060008111610d8b5760405162461bcd60e51b81526004016106d7906129cd565b6101c4548290610da4906001600160a01b031686611cb0565b506000610db18784611e56565b9050610dbf8783858461217f565b505050610dcc600160c955565b50505050565b610dda610e4f565b610df65760405162461bcd60e51b81526004016106d790612a4f565b61096c6122df565b60009182526065602090815260408084206001600160a01b0393909316845291905290205460ff1690565b610e3161186e565b610e39611828565b33610e4482826118c8565b50610895600160c955565b6000610e69600080516020612cb583398151915233610dfe565b905090565b600082815260656020526040902060010154610e8981611a93565b6108bd8383611b23565b6001600160a01b03821660009081526101ca6020908152604080832081518083019092528054808352600190910154928201839052909190610ed690600a612b40565b610ee09085612be8565b610eea9190612add565b949350505050565b610efa611828565b610f0261186e565b600033905060006101cc8481548110610f2b57634e487b7160e01b600052603260045260246000fd5b600091825260208083208784526101cb8252604080852033865290925292206002909102909101915083610f715760405162461bcd60e51b81526004016106d7906129cd565b6001820154600160801b900460ff16610fc15760405162461bcd60e51b81526020600482015260126024820152715468697320706f6f6c20697320636c6f736560701b60448201526064016106d7565b6000610fcd8486611cb0565b90506000610fdb8783611e56565b6002840154909150600160401b90046001600160401b03166110755760038301805467ffffffffffffffff1916426001600160401b0390811691821790925560028501805467ffffffffffffffff60401b1916600160401b92830217908190556001870154611051939081169290910416612ab2565b60028401805467ffffffffffffffff19166001600160401b03929092169190911790555b6002830180546001600160801b0316600160801b426001600160401b03169081026001600160c01b031691909117600160c01b919091021790558254819084906000906110c3908490612a9a565b92505081905550816101c860008282546110dd9190612a9a565b909155506110ef90508786848461217f565b505050505061093c600160c955565b6001600160a01b03821660009081526101ca6020908152604080832081518083019092528054808352600190910154928201929092529061114090600a612b40565b6020820151610ee09085612be8565b600054610100900460ff161580801561116f5750600054600160ff909116105b806111895750303b158015611189575060005460ff166001145b6111ec5760405162461bcd60e51b815260206004820152602e60248201527f496e697469616c697a61626c653a20636f6e747261637420697320616c72656160448201526d191e481a5b9a5d1a585b1a5e995960921b60648201526084016106d7565b6000805460ff19166001179055801561120f576000805461ff0019166101001790555b6112188561096e565b6001600160a01b03831661123e5760405162461bcd60e51b81526004016106d79061296f565b6001600160a01b0382166112645760405162461bcd60e51b81526004016106d79061296f565b6101c580546001600160a01b038086166001600160a01b0319928316179092556101c380548584169083161790556101c680548216331790556101c78054928716929091169190911790556112c7600080516020612cf583398151915286611c5b565b6101c35460405163095ea7b360e01b81526001600160a01b039091169063095ea7b3906112fc90309060001990600401612923565b602060405180830381600087803b15801561131657600080fd5b505af115801561132a573d6000803e3d6000fd5b505050506040513d601f19601f8201168201806040525081019061134e9190612720565b508015611395576000805461ff0019169055604051600181527f7f26b83ff96e1f2b6a682f133852f6798a09c465da95921460cefb38474024989060200160405180910390a15b5050505050565b600080516020612cf58339815191526113b481611a93565b604080516080810182528581526001600160401b03808516602083019081528682168385019081526001606085018181526101cc80549283018155600052945160029091027f9a37fbd5e796e9046c2f5f7e29046a230a4ba9ada48a80535ed93a51fec5cfbc81019190915591517f9a37fbd5e796e9046c2f5f7e29046a230a4ba9ada48a80535ed93a51fec5cfbd9092018054915194511515600160801b0260ff60801b19958516600160401b026001600160801b031990931693909416929092171792909216179055517f650fdcae7b8d99fe642c583ac1cc53ad68b560fbec8801e4756567332af9a8d3906114cb908690869086909283526001600160401b03918216602084015216604082015260600190565b60405180910390a150505050565b600080516020612cf58339815191526114f181611a93565b6001600160a01b0382166115565760405162461bcd60e51b815260206004820152602660248201527f706f6f6c3a20444458207661756c742063616e6e6f74206265207a65726f206160448201526564647265737360d01b60648201526084016106d7565b506101c480546001600160a01b0319166001600160a01b0392909216919091179055565b6101c7546000906001600160a01b031615611811576101c760009054906101000a90046001600160a01b03166001600160a01b031663b4d1d7956040518163ffffffff1660e01b815260040160206040518083038186803b1580156115de57600080fd5b505afa1580156115f2573d6000803e3d6000fd5b505050506040513d601f19601f8201168201806040525081019061161691906127af565b6101c760009054906101000a90046001600160a01b03166001600160a01b031663e56522a96040518163ffffffff1660e01b815260040160206040518083038186803b15801561166557600080fd5b505afa158015611679573d6000803e3d6000fd5b505050506040513d601f19601f8201168201806040525081019061169d9190612858565b6116ad9063ffffffff1642612c07565b111561171d576101c760009054906101000a90046001600160a01b03166001600160a01b031663a2e620456040518163ffffffff1660e01b8152600401600060405180830381600087803b15801561170457600080fd5b505af1158015611718573d6000803e3d6000fd5b505050505b6101c7546040805163d21220a760e01b815290516001600160a01b0390921691633ddac95391839163d21220a791600480820192602092909190829003018186803b15801561176b57600080fd5b505afa15801561177f573d6000803e3d6000fd5b505050506040513d601f19601f820116820180604052508101906117a3919061264a565b846040518363ffffffff1660e01b81526004016117c1929190612923565b60206040518083038186803b1580156117d957600080fd5b505afa1580156117ed573d6000803e3d6000fd5b505050506040513d601f19601f820116820180604052508101906105f291906127af565b6101c3546105f2906001600160a01b0316836110fe565b60975460ff161561096c5760405162461bcd60e51b815260206004820152601060248201526f14185d5cd8589b194e881c185d5cd95960821b60448201526064016106d7565b600260c95414156118c15760405162461bcd60e51b815260206004820152601f60248201527f5265656e7472616e637947756172643a207265656e7472616e742063616c6c0060448201526064016106d7565b600260c955565b60008281526101cb602090815260408083206001600160a01b03851684529091528120906118f68484610ad5565b905060006119038261157a565b9050600081116119255760405162461bcd60e51b81526004016106d79061298b565b6101c3546101c5546040516323b872dd60e01b81526001600160a01b03928316926323b872dd9261195f92911690889086906004016128ff565b602060405180830381600087803b15801561197957600080fd5b505af115801561198d573d6000803e3d6000fd5b505050506040513d601f19601f820116820180604052508101906119b19190612720565b50600283015442906001600160401b0390811690821611156119dd575060028301546001600160401b03165b6002840180546001600160401b03838116600160801b0267ffffffffffffffff60801b194292909216600160c01b02919091166001600160801b0390921691909117179055600184018054849190600090611a39908490612a9a565b9091555050604080518381526020810185905287916001600160a01b038816917fe4a5de9e0c45dc9d917564821c800ad76813de2ed7773d5dedf8ae7e0e225dfe910160405180910390a3505050505050565b600160c955565b610895813361231c565b611aa78282610dfe565b61093c5760008281526065602090815260408083206001600160a01b03851684529091529020805460ff19166001179055611adf3390565b6001600160a01b0316816001600160a01b0316837f2f8788117e7eff1d82e926ec794901d17c78024a50270940304540a733656f0d60405160405180910390a45050565b611b2d8282610dfe565b1561093c5760008281526065602090815260408083206001600160a01b0385168085529252808320805460ff1916905551339285917ff6391f5c32d9c69d2a47ea670b442974b53935d1edc7fd64eb21e047a839171b9190a45050565b611b92612375565b6097805460ff191690557f5db9ee0a495bf2e6ff9c91a7834c1ba4fdd244a5e8aa4e537bd38aeae4b073aa335b604051611bcc91906128eb565b60405180910390a1565b600054610100900460ff1661096c5760405162461bcd60e51b81526004016106d790612a04565b600054610100900460ff16611c245760405162461bcd60e51b81526004016106d790612a04565b61096c6123be565b600054610100900460ff16611c535760405162461bcd60e51b81526004016106d790612a04565b61096c6123f1565b61093c8282611a9d565b600082815260656020526040808220600101805490849055905190918391839186917fbd79b86ffe0ab8e8776151514217cd7cacd52c909f66475c3af44e129f0b00ff9190a4505050565b6101c3546040516370a0823160e01b815260009182916001600160a01b03909116906370a0823190611ce69030906004016128eb565b60206040518083038186803b158015611cfe57600080fd5b505afa158015611d12573d6000803e3d6000fd5b505050506040513d601f19601f82011682018060405250810190611d3691906127af565b6101c3546040516323b872dd60e01b81529192506001600160a01b0316906323b872dd90611d6c908790309088906004016128ff565b602060405180830381600087803b158015611d8657600080fd5b505af1158015611d9a573d6000803e3d6000fd5b505050506040513d601f19601f82011682018060405250810190611dbe9190612720565b506101c3546040516370a0823160e01b81526000916001600160a01b0316906370a0823190611df19030906004016128eb565b60206040518083038186803b158015611e0957600080fd5b505afa158015611e1d573d6000803e3d6000fd5b505050506040513d601f19601f82011682018060405250810190611e4191906127af565b9050611e4d8282612c07565b95945050505050565b6000806101cc8481548110611e7b57634e487b7160e01b600052603260045260246000fd5b600091825260208083208784526101cb825260408085203386529092529083206101c7546002909302909101935091906001600160a01b0316156120d2576101c760009054906101000a90046001600160a01b03166001600160a01b031663b4d1d7956040518163ffffffff1660e01b815260040160206040518083038186803b158015611f0857600080fd5b505afa158015611f1c573d6000803e3d6000fd5b505050506040513d601f19601f82011682018060405250810190611f4091906127af565b6101c760009054906101000a90046001600160a01b03166001600160a01b031663e56522a96040518163ffffffff1660e01b815260040160206040518083038186803b158015611f8f57600080fd5b505afa158015611fa3573d6000803e3d6000fd5b505050506040513d601f19601f82011682018060405250810190611fc79190612858565b611fd79063ffffffff1642612c07565b1115612047576101c760009054906101000a90046001600160a01b03166001600160a01b031663a2e620456040518163ffffffff1660e01b8152600401600060405180830381600087803b15801561202e57600080fd5b505af1158015612042573d6000803e3d6000fd5b505050505b6101c7546101c354604051633ddac95360e01b81526001600160a01b0392831692633ddac9539261207f929116908990600401612923565b60206040518083038186803b15801561209757600080fd5b505afa1580156120ab573d6000803e3d6000fd5b505050506040513d601f19601f820116820180604052508101906120cf91906127af565b90505b80156120e0578093506120fa565b6101c3546120f7906001600160a01b031686610e93565b93505b8382600001600082825461210e9190612a9a565b90915550508254825410156121765760405162461bcd60e51b815260206004820152602860248201527f706f6f6c3a206d696e696d756d207374616b696e6720616d6f756e74206e6f74604482015267081c995858da195960c21b60648201526084016106d7565b50505092915050565b60006101cc85815481106121a357634e487b7160e01b600052603260045260246000fd5b600091825260208083208884526101cb825260408085206001600160a01b038a168652909252922060028082015492029092019250600160401b90046001600160401b031661226a5760038101805467ffffffffffffffff1916426001600160401b0390811691821790925560028301805467ffffffffffffffff60401b1916600160401b92830217908190556001850154612246939081169290910416612ab2565b60028201805467ffffffffffffffff19166001600160401b03929092169190911790555b6002810180546001600160801b0316600160801b426001600160401b03169081026001600160c01b031691909117600160c01b919091021790558054839082906000906122b8908490612a9a565b92505081905550836101c860008282546122d29190612a9a565b9091555050505050505050565b6122e7611828565b6097805460ff191660011790557f62e78cea01bee320cd4e420270b5ea74000d11b0c9f74754ebdbfc544b05a258611bbf3390565b6123268282610dfe565b61093c5761233381612418565b61233e83602061242a565b60405160200161234f92919061287c565b60408051601f198184030181529082905262461bcd60e51b82526106d79160040161293c565b60975460ff1661096c5760405162461bcd60e51b815260206004820152601460248201527314185d5cd8589b194e881b9bdd081c185d5cd95960621b60448201526064016106d7565b600054610100900460ff166123e55760405162461bcd60e51b81526004016106d790612a04565b6097805460ff19169055565b600054610100900460ff16611a8c5760405162461bcd60e51b81526004016106d790612a04565b60606105f26001600160a01b03831660145b60606000612439836002612be8565b612444906002612a9a565b6001600160401b0381111561246957634e487b7160e01b600052604160045260246000fd5b6040519080825280601f01601f191660200182016040528015612493576020820181803683370190505b509050600360fc1b816000815181106124bc57634e487b7160e01b600052603260045260246000fd5b60200101906001600160f81b031916908160001a905350600f60fb1b816001815181106124f957634e487b7160e01b600052603260045260246000fd5b60200101906001600160f81b031916908160001a905350600061251d846002612be8565b612528906001612a9a565b90505b60018111156125bc576f181899199a1a9b1b9c1cb0b131b232b360811b85600f166010811061256a57634e487b7160e01b600052603260045260246000fd5b1a60f81b82828151811061258e57634e487b7160e01b600052603260045260246000fd5b60200101906001600160f81b031916908160001a90535060049490941c936125b581612c72565b905061252b565b50831561260b5760405162461bcd60e51b815260206004820181905260248201527f537472696e67733a20686578206c656e67746820696e73756666696369656e7460448201526064016106d7565b9392505050565b80356001600160401b038116811461262957600080fd5b919050565b60006020828403121561263f578081fd5b813561260b81612c9f565b60006020828403121561265b578081fd5b815161260b81612c9f565b6000806000806080858703121561267b578283fd5b843561268681612c9f565b9350602085013561269681612c9f565b925060408501356126a681612c9f565b915060608501356126b681612c9f565b939692955090935050565b600080604083850312156126d3578182fd5b82356126de81612c9f565b946020939093013593505050565b600080600060608486031215612700578283fd5b833561270b81612c9f565b95602085013595506040909401359392505050565b600060208284031215612731578081fd5b8151801515811461260b578182fd5b600060208284031215612751578081fd5b5035919050565b6000806040838503121561276a578182fd5b82359150602083013561277c81612c9f565b809150509250929050565b600060208284031215612798578081fd5b81356001600160e01b03198116811461260b578182fd5b6000602082840312156127c0578081fd5b5051919050565b600080604083850312156127d9578182fd5b50508035926020909101359150565b600080600080608085870312156127fd578182fd5b84359350602085013592506040850135915060608501356126b681612c9f565b600080600060608486031215612831578081fd5b8335925061284160208501612612565b915061284f60408501612612565b90509250925092565b600060208284031215612869578081fd5b815163ffffffff8116811461260b578182fd5b76020b1b1b2b9b9a1b7b73a3937b61d1030b1b1b7bab73a1604d1b8152600083516128ae816017850160208801612c46565b7001034b99036b4b9b9b4b733903937b6329607d1b60179184019182015283516128df816028840160208801612c46565b01602801949350505050565b6001600160a01b0391909116815260200190565b6001600160a01b039384168152919092166020820152604081019190915260600190565b6001600160a01b03929092168252602082015260400190565b602081526000825180602084015261295b816040850160208701612c46565b601f01601f19169190910160400192915050565b6020808252600290820152615a4160f01b604082015260600190565b60208082526022908201527f706f6f6c3a20726577617264206e6f7420656e6f75676820746f2068617276656040820152611cdd60f21b606082015260800190565b6020808252601b908201527f706f6f6c3a20616d6f756e742063616e6e6f74206265207a65726f0000000000604082015260600190565b6020808252602b908201527f496e697469616c697a61626c653a20636f6e7472616374206973206e6f74206960408201526a6e697469616c697a696e6760a81b606082015260800190565b6020808252602b908201527f4d75737420686176652061646d696e20726f6c6520746f20706572666f726d2060408201526a3a3434b99030b1ba34b7b760a91b606082015260800190565b60008219821115612aad57612aad612c89565b500190565b60006001600160401b03808316818516808303821115612ad457612ad4612c89565b01949350505050565b600082612af857634e487b7160e01b81526012600452602481fd5b500490565b600181815b80851115612b38578160001904821115612b1e57612b1e612c89565b80851615612b2b57918102915b93841c9390800290612b02565b509250929050565b600061260b8383600082612b56575060016105f2565b81612b63575060006105f2565b8160018114612b795760028114612b8357612b9f565b60019150506105f2565b60ff841115612b9457612b94612c89565b50506001821b6105f2565b5060208310610133831016604e8410600b8410161715612bc2575081810a6105f2565b612bcc8383612afd565b8060001904821115612be057612be0612c89565b029392505050565b6000816000190483118215151615612c0257612c02612c89565b500290565b600082821015612c1957612c19612c89565b500390565b60006001600160401b0383811690831681811015612c3e57612c3e612c89565b039392505050565b60005b83811015612c61578181015183820152602001612c49565b83811115610dcc5750506000910152565b600081612c8157612c81612c89565b506000190190565b634e487b7160e01b600052601160045260246000fd5b6001600160a01b038116811461089557600080fdfeb19546dff01e856fb3f010c267a7b1c60363cf8a4664e21cc89c26224620214e65d7a28e3265b37a6474929f336521b332c1681b933f6cb9f3376673440d862ad2e4c2619ea6e0faebc405d89445161c041e30fe03373ea0473da142d57d4514a2646970667358221220e077706216fa647b29a5af728810b56d50242cfe492d7a1dcf66072798c0cf9e64736f6c63430008040033",
  "devdoc": {
    "kind": "dev",
    "methods": {
      "getRoleAdmin(bytes32)": {
        "details": "Returns the admin role that controls `role`. See {grantRole} and {revokeRole}. To change a role's admin, use {_setRoleAdmin}."
      },
      "getStakingAmountInUSD(address,uint256)": {
        "details": "Get Staking token amount in offered currencies",
        "params": {
          "_amount": "Amount of purchase token"
        },
        "returns": {
          "_0": "Return amount of respective IDO token"
        }
      },
      "grantRole(bytes32,address)": {
        "details": "Grants `role` to `account`. If `account` had not been already granted `role`, emits a {RoleGranted} event. Requirements: - the caller must have ``role``'s admin role. May emit a {RoleGranted} event."
      },
      "hasRole(bytes32,address)": {
        "details": "Returns `true` if `account` has been granted `role`."
      },
      "paused()": {
        "details": "Returns true if the contract is paused, and false otherwise."
      },
      "renounceRole(bytes32,address)": {
        "details": "Revokes `role` from the calling account. Roles are often managed via {grantRole} and {revokeRole}: this function's purpose is to provide a mechanism for accounts to lose their privileges if they are compromised (such as when a trusted device is misplaced). If the calling account had been revoked `role`, emits a {RoleRevoked} event. Requirements: - the caller must be `account`. May emit a {RoleRevoked} event."
      },
      "revokeRole(bytes32,address)": {
        "details": "Revokes `role` from `account`. If `account` had been granted `role`, emits a {RoleRevoked} event. Requirements: - the caller must have ``role``'s admin role. May emit a {RoleRevoked} event."
      },
      "supportsInterface(bytes4)": {
        "details": "See {IERC165-supportsInterface}."
      }
    },
    "version": 1
  },
  "userdoc": {
    "kind": "user",
    "methods": {
      "addPool(uint256,uint64,uint64)": {
        "notice": "----------------------------------- ---------- Core Function ---------- -----------------------------------"
      },
      "pause()": {
        "notice": "----------------------------------- --------- Pause Function ---------- -----------------------------------"
      },
      "setDDXVault(address)": {
        "notice": "----------------------------------- --------- Update Function --------- -----------------------------------"
      }
    },
    "version": 1
  },
  "storageLayout": {
    "storage": [
      {
        "astId": 415,
        "contract": "contracts/DDXStaking.sol:DDXStaking",
        "label": "_initialized",
        "offset": 0,
        "slot": "0",
        "type": "t_uint8"
      },
      {
        "astId": 418,
        "contract": "contracts/DDXStaking.sol:DDXStaking",
        "label": "_initializing",
        "offset": 1,
        "slot": "0",
        "type": "t_bool"
      },
      {
        "astId": 2044,
        "contract": "contracts/DDXStaking.sol:DDXStaking",
        "label": "__gap",
        "offset": 0,
        "slot": "1",
        "type": "t_array(t_uint256)50_storage"
      },
      {
        "astId": 2848,
        "contract": "contracts/DDXStaking.sol:DDXStaking",
        "label": "__gap",
        "offset": 0,
        "slot": "51",
        "type": "t_array(t_uint256)50_storage"
      },
      {
        "astId": 39,
        "contract": "contracts/DDXStaking.sol:DDXStaking",
        "label": "_roles",
        "offset": 0,
        "slot": "101",
        "type": "t_mapping(t_bytes32,t_struct(RoleData)34_storage)"
      },
      {
        "astId": 334,
        "contract": "contracts/DDXStaking.sol:DDXStaking",
        "label": "__gap",
        "offset": 0,
        "slot": "102",
        "type": "t_array(t_uint256)49_storage"
      },
      {
        "astId": 598,
        "contract": "contracts/DDXStaking.sol:DDXStaking",
        "label": "_paused",
        "offset": 0,
        "slot": "151",
        "type": "t_bool"
      },
      {
        "astId": 703,
        "contract": "contracts/DDXStaking.sol:DDXStaking",
        "label": "__gap",
        "offset": 0,
        "slot": "152",
        "type": "t_array(t_uint256)49_storage"
      },
      {
        "astId": 718,
        "contract": "contracts/DDXStaking.sol:DDXStaking",
        "label": "_status",
        "offset": 0,
        "slot": "201",
        "type": "t_uint256"
      },
      {
        "astId": 776,
        "contract": "contracts/DDXStaking.sol:DDXStaking",
        "label": "__gap",
        "offset": 0,
        "slot": "202",
        "type": "t_array(t_uint256)49_storage"
      },
      {
        "astId": 4441,
        "contract": "contracts/DDXStaking.sol:DDXStaking",
        "label": "__gap1",
        "offset": 0,
        "slot": "251",
        "type": "t_array(t_uint256)50_storage"
      },
      {
        "astId": 4445,
        "contract": "contracts/DDXStaking.sol:DDXStaking",
        "label": "__gap2",
        "offset": 0,
        "slot": "301",
        "type": "t_array(t_uint256)50_storage"
      },
      {
        "astId": 4449,
        "contract": "contracts/DDXStaking.sol:DDXStaking",
        "label": "__gap3",
        "offset": 0,
        "slot": "351",
        "type": "t_array(t_uint256)50_storage"
      },
      {
        "astId": 4453,
        "contract": "contracts/DDXStaking.sol:DDXStaking",
        "label": "__gap4",
        "offset": 0,
        "slot": "401",
        "type": "t_array(t_uint256)50_storage"
      },
      {
        "astId": 4587,
        "contract": "contracts/DDXStaking.sol:DDXStaking",
        "label": "rewardToken",
        "offset": 0,
        "slot": "451",
        "type": "t_contract(IERC20)8961"
      },
      {
        "astId": 4590,
        "contract": "contracts/DDXStaking.sol:DDXStaking",
        "label": "vault",
        "offset": 0,
        "slot": "452",
        "type": "t_contract(IDDXVault)8923"
      },
      {
        "astId": 4592,
        "contract": "contracts/DDXStaking.sol:DDXStaking",
        "label": "treasury",
        "offset": 0,
        "slot": "453",
        "type": "t_address"
      },
      {
        "astId": 4594,
        "contract": "contracts/DDXStaking.sol:DDXStaking",
        "label": "admin",
        "offset": 0,
        "slot": "454",
        "type": "t_address"
      },
      {
        "astId": 4596,
        "contract": "contracts/DDXStaking.sol:DDXStaking",
        "label": "oracle",
        "offset": 0,
        "slot": "455",
        "type": "t_address"
      },
      {
        "astId": 4598,
        "contract": "contracts/DDXStaking.sol:DDXStaking",
        "label": "totalStaked",
        "offset": 0,
        "slot": "456",
        "type": "t_uint256"
      },
      {
        "astId": 4600,
        "contract": "contracts/DDXStaking.sol:DDXStaking",
        "label": "emergencyCancelled",
        "offset": 0,
        "slot": "457",
        "type": "t_bool"
      },
      {
        "astId": 4605,
        "contract": "contracts/DDXStaking.sol:DDXStaking",
        "label": "offeredCurrencies",
        "offset": 0,
        "slot": "458",
        "type": "t_mapping(t_address,t_struct(OfferedCurrency)4572_storage)"
      },
      {
        "astId": 4612,
        "contract": "contracts/DDXStaking.sol:DDXStaking",
        "label": "stakingInfos",
        "offset": 0,
        "slot": "459",
        "type": "t_mapping(t_uint256,t_mapping(t_address,t_struct(StakingInfo)4558_storage))"
      },
      {
        "astId": 4616,
        "contract": "contracts/DDXStaking.sol:DDXStaking",
        "label": "poolInfo",
        "offset": 0,
        "slot": "460",
        "type": "t_array(t_struct(PoolInfo)4567_storage)dyn_storage"
      }
    ],
    "types": {
      "t_address": {
        "encoding": "inplace",
        "label": "address",
        "numberOfBytes": "20"
      },
      "t_array(t_struct(PoolInfo)4567_storage)dyn_storage": {
        "base": "t_struct(PoolInfo)4567_storage",
        "encoding": "dynamic_array",
        "label": "struct DDXStaking.PoolInfo[]",
        "numberOfBytes": "32"
      },
      "t_array(t_uint256)49_storage": {
        "base": "t_uint256",
        "encoding": "inplace",
        "label": "uint256[49]",
        "numberOfBytes": "1568"
      },
      "t_array(t_uint256)50_storage": {
        "base": "t_uint256",
        "encoding": "inplace",
        "label": "uint256[50]",
        "numberOfBytes": "1600"
      },
      "t_bool": {
        "encoding": "inplace",
        "label": "bool",
        "numberOfBytes": "1"
      },
      "t_bytes32": {
        "encoding": "inplace",
        "label": "bytes32",
        "numberOfBytes": "32"
      },
      "t_contract(IDDXVault)8923": {
        "encoding": "inplace",
        "label": "contract IDDXVault",
        "numberOfBytes": "20"
      },
      "t_contract(IERC20)8961": {
        "encoding": "inplace",
        "label": "contract IERC20",
        "numberOfBytes": "20"
      },
      "t_mapping(t_address,t_bool)": {
        "encoding": "mapping",
        "key": "t_address",
        "label": "mapping(address => bool)",
        "numberOfBytes": "32",
        "value": "t_bool"
      },
      "t_mapping(t_address,t_struct(OfferedCurrency)4572_storage)": {
        "encoding": "mapping",
        "key": "t_address",
        "label": "mapping(address => struct DDXStaking.OfferedCurrency)",
        "numberOfBytes": "32",
        "value": "t_struct(OfferedCurrency)4572_storage"
      },
      "t_mapping(t_address,t_struct(StakingInfo)4558_storage)": {
        "encoding": "mapping",
        "key": "t_address",
        "label": "mapping(address => struct DDXStaking.StakingInfo)",
        "numberOfBytes": "32",
        "value": "t_struct(StakingInfo)4558_storage"
      },
      "t_mapping(t_bytes32,t_struct(RoleData)34_storage)": {
        "encoding": "mapping",
        "key": "t_bytes32",
        "label": "mapping(bytes32 => struct AccessControlUpgradeable.RoleData)",
        "numberOfBytes": "32",
        "value": "t_struct(RoleData)34_storage"
      },
      "t_mapping(t_uint256,t_mapping(t_address,t_struct(StakingInfo)4558_storage))": {
        "encoding": "mapping",
        "key": "t_uint256",
        "label": "mapping(uint256 => mapping(address => struct DDXStaking.StakingInfo))",
        "numberOfBytes": "32",
        "value": "t_mapping(t_address,t_struct(StakingInfo)4558_storage)"
      },
      "t_struct(OfferedCurrency)4572_storage": {
        "encoding": "inplace",
        "label": "struct DDXStaking.OfferedCurrency",
        "members": [
          {
            "astId": 4569,
            "contract": "contracts/DDXStaking.sol:DDXStaking",
            "label": "decimal",
            "offset": 0,
            "slot": "0",
            "type": "t_uint256"
          },
          {
            "astId": 4571,
            "contract": "contracts/DDXStaking.sol:DDXStaking",
            "label": "rate",
            "offset": 0,
            "slot": "1",
            "type": "t_uint256"
          }
        ],
        "numberOfBytes": "64"
      },
      "t_struct(PoolInfo)4567_storage": {
        "encoding": "inplace",
        "label": "struct DDXStaking.PoolInfo",
        "members": [
          {
            "astId": 4560,
            "contract": "contracts/DDXStaking.sol:DDXStaking",
            "label": "minDepositInUSD",
            "offset": 0,
            "slot": "0",
            "type": "t_uint256"
          },
          {
            "astId": 4562,
            "contract": "contracts/DDXStaking.sol:DDXStaking",
            "label": "period",
            "offset": 0,
            "slot": "1",
            "type": "t_uint64"
          },
          {
            "astId": 4564,
            "contract": "contracts/DDXStaking.sol:DDXStaking",
            "label": "APR",
            "offset": 8,
            "slot": "1",
            "type": "t_uint64"
          },
          {
            "astId": 4566,
            "contract": "contracts/DDXStaking.sol:DDXStaking",
            "label": "status",
            "offset": 16,
            "slot": "1",
            "type": "t_bool"
          }
        ],
        "numberOfBytes": "64"
      },
      "t_struct(RoleData)34_storage": {
        "encoding": "inplace",
        "label": "struct AccessControlUpgradeable.RoleData",
        "members": [
          {
            "astId": 31,
            "contract": "contracts/DDXStaking.sol:DDXStaking",
            "label": "members",
            "offset": 0,
            "slot": "0",
            "type": "t_mapping(t_address,t_bool)"
          },
          {
            "astId": 33,
            "contract": "contracts/DDXStaking.sol:DDXStaking",
            "label": "adminRole",
            "offset": 0,
            "slot": "1",
            "type": "t_bytes32"
          }
        ],
        "numberOfBytes": "64"
      },
      "t_struct(StakingInfo)4558_storage": {
        "encoding": "inplace",
        "label": "struct DDXStaking.StakingInfo",
        "members": [
          {
            "astId": 4545,
            "contract": "contracts/DDXStaking.sol:DDXStaking",
            "label": "totalStakesInUSD",
            "offset": 0,
            "slot": "0",
            "type": "t_uint256"
          },
          {
            "astId": 4547,
            "contract": "contracts/DDXStaking.sol:DDXStaking",
            "label": "claimedInterest",
            "offset": 0,
            "slot": "1",
            "type": "t_uint256"
          },
          {
            "astId": 4549,
            "contract": "contracts/DDXStaking.sol:DDXStaking",
            "label": "dueDate",
            "offset": 0,
            "slot": "2",
            "type": "t_uint64"
          },
          {
            "astId": 4551,
            "contract": "contracts/DDXStaking.sol:DDXStaking",
            "label": "timeStake",
            "offset": 8,
            "slot": "2",
            "type": "t_uint64"
          },
          {
            "astId": 4553,
            "contract": "contracts/DDXStaking.sol:DDXStaking",
            "label": "lastClaimedTime",
            "offset": 16,
            "slot": "2",
            "type": "t_uint64"
          },
          {
            "astId": 4555,
            "contract": "contracts/DDXStaking.sol:DDXStaking",
            "label": "lastUpdatedTime",
            "offset": 24,
            "slot": "2",
            "type": "t_uint64"
          },
          {
            "astId": 4557,
            "contract": "contracts/DDXStaking.sol:DDXStaking",
            "label": "createdAt",
            "offset": 0,
            "slot": "3",
            "type": "t_uint64"
          }
        ],
        "numberOfBytes": "128"
      },
      "t_uint256": {
        "encoding": "inplace",
        "label": "uint256",
        "numberOfBytes": "32"
      },
      "t_uint64": {
        "encoding": "inplace",
        "label": "uint64",
        "numberOfBytes": "8"
      },
      "t_uint8": {
        "encoding": "inplace",
        "label": "uint8",
        "numberOfBytes": "1"
      }
    }
  }
}