{
  "address": "0xb9e4c7aFC8833BB5E4f8B51881C64D35E1B5Ad17",
  "abi": [
    {
      "anonymous": false,
      "inputs": [
        {
          "indexed": true,
          "internalType": "address",
          "name": "user",
          "type": "address"
        },
        {
          "indexed": true,
          "internalType": "address",
          "name": "recipient",
          "type": "address"
        },
        {
          "indexed": false,
          "internalType": "uint256",
          "name": "amount",
          "type": "uint256"
        },
        {
          "indexed": false,
          "internalType": "uint256",
          "name": "amountInUSD",
          "type": "uint256"
        }
      ],
      "name": "ComissionDirectBonus",
      "type": "event"
    },
    {
      "anonymous": false,
      "inputs": [
        {
          "indexed": true,
          "internalType": "uint256",
          "name": "contractId",
          "type": "uint256"
        },
        {
          "indexed": true,
          "internalType": "address",
          "name": "user",
          "type": "address"
        },
        {
          "indexed": true,
          "internalType": "address",
          "name": "stakeToken",
          "type": "address"
        },
        {
          "indexed": false,
          "internalType": "address",
          "name": "referrer",
          "type": "address"
        },
        {
          "indexed": false,
          "internalType": "uint256",
          "name": "amount",
          "type": "uint256"
        },
        {
          "indexed": false,
          "internalType": "uint256",
          "name": "amountInUSD",
          "type": "uint256"
        },
        {
          "indexed": false,
          "internalType": "uint256",
          "name": "interestAmountInUSD",
          "type": "uint256"
        },
        {
          "indexed": false,
          "internalType": "uint64",
          "name": "dueDate",
          "type": "uint64"
        }
      ],
      "name": "ContractCreated",
      "type": "event"
    },
    {
      "anonymous": false,
      "inputs": [
        {
          "indexed": false,
          "internalType": "uint8",
          "name": "version",
          "type": "uint8"
        }
      ],
      "name": "Initialized",
      "type": "event"
    },
    {
      "anonymous": false,
      "inputs": [
        {
          "indexed": false,
          "internalType": "address",
          "name": "account",
          "type": "address"
        }
      ],
      "name": "Paused",
      "type": "event"
    },
    {
      "anonymous": false,
      "inputs": [
        {
          "indexed": true,
          "internalType": "uint256",
          "name": "contractId",
          "type": "uint256"
        },
        {
          "indexed": true,
          "internalType": "address",
          "name": "claimer",
          "type": "address"
        },
        {
          "indexed": false,
          "internalType": "uint256",
          "name": "amount",
          "type": "uint256"
        },
        {
          "indexed": false,
          "internalType": "uint256",
          "name": "amountInUSD",
          "type": "uint256"
        }
      ],
      "name": "RewardHarvested",
      "type": "event"
    },
    {
      "anonymous": false,
      "inputs": [
        {
          "indexed": true,
          "internalType": "bytes32",
          "name": "role",
          "type": "bytes32"
        },
        {
          "indexed": true,
          "internalType": "bytes32",
          "name": "previousAdminRole",
          "type": "bytes32"
        },
        {
          "indexed": true,
          "internalType": "bytes32",
          "name": "newAdminRole",
          "type": "bytes32"
        }
      ],
      "name": "RoleAdminChanged",
      "type": "event"
    },
    {
      "anonymous": false,
      "inputs": [
        {
          "indexed": true,
          "internalType": "bytes32",
          "name": "role",
          "type": "bytes32"
        },
        {
          "indexed": true,
          "internalType": "address",
          "name": "account",
          "type": "address"
        },
        {
          "indexed": true,
          "internalType": "address",
          "name": "sender",
          "type": "address"
        }
      ],
      "name": "RoleGranted",
      "type": "event"
    },
    {
      "anonymous": false,
      "inputs": [
        {
          "indexed": true,
          "internalType": "bytes32",
          "name": "role",
          "type": "bytes32"
        },
        {
          "indexed": true,
          "internalType": "address",
          "name": "account",
          "type": "address"
        },
        {
          "indexed": true,
          "internalType": "address",
          "name": "sender",
          "type": "address"
        }
      ],
      "name": "RoleRevoked",
      "type": "event"
    },
    {
      "anonymous": false,
      "inputs": [
        {
          "indexed": true,
          "internalType": "address",
          "name": "user",
          "type": "address"
        },
        {
          "indexed": true,
          "internalType": "address",
          "name": "referrer",
          "type": "address"
        },
        {
          "indexed": true,
          "internalType": "uint256",
          "name": "contractId",
          "type": "uint256"
        },
        {
          "indexed": false,
          "internalType": "uint256",
          "name": "stakingAmount",
          "type": "uint256"
        }
      ],
      "name": "StakingContractCreated",
      "type": "event"
    },
    {
      "anonymous": false,
      "inputs": [
        {
          "indexed": false,
          "internalType": "address",
          "name": "account",
          "type": "address"
        }
      ],
      "name": "Unpaused",
      "type": "event"
    },
    {
      "anonymous": false,
      "inputs": [
        {
          "indexed": true,
          "internalType": "address",
          "name": "user",
          "type": "address"
        },
        {
          "indexed": false,
          "internalType": "uint256",
          "name": "amount",
          "type": "uint256"
        }
      ],
      "name": "Withdraw",
      "type": "event"
    },
    {
      "inputs": [],
      "name": "DDXStaking",
      "outputs": [
        {
          "internalType": "contract IDDXStaking",
          "name": "",
          "type": "address"
        }
      ],
      "stateMutability": "view",
      "type": "function"
    },
    {
      "inputs": [],
      "name": "DDXVault",
      "outputs": [
        {
          "internalType": "contract IDDXVault",
          "name": "",
          "type": "address"
        }
      ],
      "stateMutability": "view",
      "type": "function"
    },
    {
      "inputs": [],
      "name": "DEFAULT_ADMIN_ROLE",
      "outputs": [
        {
          "internalType": "bytes32",
          "name": "",
          "type": "bytes32"
        }
      ],
      "stateMutability": "view",
      "type": "function"
    },
    {
      "inputs": [],
      "name": "OWNER_ROLE",
      "outputs": [
        {
          "internalType": "bytes32",
          "name": "",
          "type": "bytes32"
        }
      ],
      "stateMutability": "view",
      "type": "function"
    },
    {
      "inputs": [],
      "name": "PAUSER_ROLE",
      "outputs": [
        {
          "internalType": "bytes32",
          "name": "",
          "type": "bytes32"
        }
      ],
      "stateMutability": "view",
      "type": "function"
    },
    {
      "inputs": [],
      "name": "SUB_ADMIN_ROLE",
      "outputs": [
        {
          "internalType": "bytes32",
          "name": "",
          "type": "bytes32"
        }
      ],
      "stateMutability": "view",
      "type": "function"
    },
    {
      "inputs": [
        {
          "internalType": "address",
          "name": "owner",
          "type": "address"
        }
      ],
      "name": "__DChainBase_init",
      "outputs": [],
      "stateMutability": "nonpayable",
      "type": "function"
    },
    {
      "inputs": [],
      "name": "admin",
      "outputs": [
        {
          "internalType": "address",
          "name": "",
          "type": "address"
        }
      ],
      "stateMutability": "view",
      "type": "function"
    },
    {
      "inputs": [
        {
          "internalType": "address",
          "name": "",
          "type": "address"
        }
      ],
      "name": "allowedStakeTokens",
      "outputs": [
        {
          "internalType": "bool",
          "name": "created",
          "type": "bool"
        }
      ],
      "stateMutability": "view",
      "type": "function"
    },
    {
      "inputs": [
        {
          "internalType": "address",
          "name": "",
          "type": "address"
        }
      ],
      "name": "assetPrices",
      "outputs": [
        {
          "internalType": "address",
          "name": "",
          "type": "address"
        }
      ],
      "stateMutability": "view",
      "type": "function"
    },
    {
      "inputs": [],
      "name": "claimDuration",
      "outputs": [
        {
          "internalType": "uint64",
          "name": "",
          "type": "uint64"
        }
      ],
      "stateMutability": "view",
      "type": "function"
    },
    {
      "inputs": [
        {
          "internalType": "uint256[]",
          "name": "_contractIds",
          "type": "uint256[]"
        }
      ],
      "name": "claimMultipleRewards",
      "outputs": [],
      "stateMutability": "nonpayable",
      "type": "function"
    },
    {
      "inputs": [
        {
          "internalType": "uint256",
          "name": "_contractId",
          "type": "uint256"
        }
      ],
      "name": "claimReward",
      "outputs": [],
      "stateMutability": "nonpayable",
      "type": "function"
    },
    {
      "inputs": [
        {
          "internalType": "uint256",
          "name": "",
          "type": "uint256"
        }
      ],
      "name": "commissionInterestLevels",
      "outputs": [
        {
          "internalType": "uint256",
          "name": "",
          "type": "uint256"
        }
      ],
      "stateMutability": "view",
      "type": "function"
    },
    {
      "inputs": [
        {
          "internalType": "address",
          "name": "",
          "type": "address"
        }
      ],
      "name": "couldBecomeReferrer",
      "outputs": [
        {
          "internalType": "bool",
          "name": "",
          "type": "bool"
        }
      ],
      "stateMutability": "view",
      "type": "function"
    },
    {
      "inputs": [
        {
          "internalType": "uint256",
          "name": "amount",
          "type": "uint256"
        },
        {
          "internalType": "address",
          "name": "stakeToken",
          "type": "address"
        },
        {
          "internalType": "address",
          "name": "referrer",
          "type": "address"
        }
      ],
      "name": "deposit",
      "outputs": [],
      "stateMutability": "nonpayable",
      "type": "function"
    },
    {
      "inputs": [
        {
          "internalType": "uint256",
          "name": "_originAmount",
          "type": "uint256"
        },
        {
          "internalType": "uint256",
          "name": "_lockedAmount",
          "type": "uint256"
        },
        {
          "internalType": "address",
          "name": "_user",
          "type": "address"
        },
        {
          "internalType": "address",
          "name": "_referrer",
          "type": "address"
        }
      ],
      "name": "depositByVault",
      "outputs": [],
      "stateMutability": "nonpayable",
      "type": "function"
    },
    {
      "inputs": [
        {
          "internalType": "address",
          "name": "",
          "type": "address"
        }
      ],
      "name": "directBonus",
      "outputs": [
        {
          "internalType": "uint256",
          "name": "",
          "type": "uint256"
        }
      ],
      "stateMutability": "view",
      "type": "function"
    },
    {
      "inputs": [],
      "name": "directInterest",
      "outputs": [
        {
          "internalType": "uint256",
          "name": "",
          "type": "uint256"
        }
      ],
      "stateMutability": "view",
      "type": "function"
    },
    {
      "inputs": [],
      "name": "emergencyCancelled",
      "outputs": [
        {
          "internalType": "bool",
          "name": "",
          "type": "bool"
        }
      ],
      "stateMutability": "view",
      "type": "function"
    },
    {
      "inputs": [],
      "name": "extraRewardToken",
      "outputs": [
        {
          "internalType": "contract IERC20WithBurn",
          "name": "",
          "type": "address"
        }
      ],
      "stateMutability": "view",
      "type": "function"
    },
    {
      "inputs": [],
      "name": "fundReceiver",
      "outputs": [
        {
          "internalType": "address",
          "name": "",
          "type": "address"
        }
      ],
      "stateMutability": "view",
      "type": "function"
    },
    {
      "inputs": [
        {
          "internalType": "uint256[]",
          "name": "_contractIds",
          "type": "uint256[]"
        }
      ],
      "name": "getAllPendingRewards",
      "outputs": [
        {
          "internalType": "uint256",
          "name": "",
          "type": "uint256"
        }
      ],
      "stateMutability": "view",
      "type": "function"
    },
    {
      "inputs": [
        {
          "internalType": "uint256",
          "name": "_amountInUSD",
          "type": "uint256"
        }
      ],
      "name": "getAmountDWByUSD",
      "outputs": [
        {
          "internalType": "uint256",
          "name": "",
          "type": "uint256"
        }
      ],
      "stateMutability": "nonpayable",
      "type": "function"
    },
    {
      "inputs": [
        {
          "internalType": "uint256",
          "name": "_amountInUSD",
          "type": "uint256"
        }
      ],
      "name": "getAmountDWByUSDStatic",
      "outputs": [
        {
          "internalType": "uint256",
          "name": "",
          "type": "uint256"
        }
      ],
      "stateMutability": "nonpayable",
      "type": "function"
    },
    {
      "inputs": [
        {
          "internalType": "address",
          "name": "_stakeToken",
          "type": "address"
        },
        {
          "internalType": "uint256",
          "name": "_stakingAmount",
          "type": "uint256"
        }
      ],
      "name": "getAmountUSDByToken",
      "outputs": [
        {
          "internalType": "uint256",
          "name": "",
          "type": "uint256"
        }
      ],
      "stateMutability": "nonpayable",
      "type": "function"
    },
    {
      "inputs": [
        {
          "internalType": "address",
          "name": "_stakeToken",
          "type": "address"
        },
        {
          "internalType": "uint256",
          "name": "_stakingAmount",
          "type": "uint256"
        }
      ],
      "name": "getAmountUSDByTokenStatic",
      "outputs": [
        {
          "internalType": "uint256",
          "name": "",
          "type": "uint256"
        }
      ],
      "stateMutability": "nonpayable",
      "type": "function"
    },
    {
      "inputs": [
        {
          "internalType": "uint256[]",
          "name": "_contractIds",
          "type": "uint256[]"
        }
      ],
      "name": "getMultipleContractInfos",
      "outputs": [
        {
          "components": [
            {
              "internalType": "uint256",
              "name": "totalExpectedInterest",
              "type": "uint256"
            },
            {
              "internalType": "uint256",
              "name": "totalStakesInUSD",
              "type": "uint256"
            },
            {
              "internalType": "uint256",
              "name": "claimedInterest",
              "type": "uint256"
            },
            {
              "internalType": "uint64",
              "name": "claimDuration",
              "type": "uint64"
            },
            {
              "internalType": "uint64",
              "name": "dueDate",
              "type": "uint64"
            },
            {
              "internalType": "uint64",
              "name": "lastClaimedTime",
              "type": "uint64"
            },
            {
              "internalType": "uint64",
              "name": "lastUpdatedTime",
              "type": "uint64"
            },
            {
              "internalType": "uint64",
              "name": "createdAt",
              "type": "uint64"
            },
            {
              "internalType": "address",
              "name": "stakeToken",
              "type": "address"
            },
            {
              "internalType": "uint256",
              "name": "totalStakesInToken",
              "type": "uint256"
            }
          ],
          "internalType": "struct DGWStaking.StakingInfo[]",
          "name": "",
          "type": "tuple[]"
        }
      ],
      "stateMutability": "view",
      "type": "function"
    },
    {
      "inputs": [
        {
          "internalType": "bytes32",
          "name": "role",
          "type": "bytes32"
        }
      ],
      "name": "getRoleAdmin",
      "outputs": [
        {
          "internalType": "bytes32",
          "name": "",
          "type": "bytes32"
        }
      ],
      "stateMutability": "view",
      "type": "function"
    },
    {
      "inputs": [
        {
          "internalType": "address",
          "name": "_token",
          "type": "address"
        },
        {
          "internalType": "uint256",
          "name": "_amount",
          "type": "uint256"
        }
      ],
      "name": "getStakingAmountByPegToken",
      "outputs": [
        {
          "internalType": "uint256",
          "name": "",
          "type": "uint256"
        }
      ],
      "stateMutability": "view",
      "type": "function"
    },
    {
      "inputs": [
        {
          "internalType": "address",
          "name": "_token",
          "type": "address"
        },
        {
          "internalType": "uint256",
          "name": "_amount",
          "type": "uint256"
        }
      ],
      "name": "getStakingAmountInUSD",
      "outputs": [
        {
          "internalType": "uint256",
          "name": "",
          "type": "uint256"
        }
      ],
      "stateMutability": "view",
      "type": "function"
    },
    {
      "inputs": [
        {
          "internalType": "bytes32",
          "name": "role",
          "type": "bytes32"
        },
        {
          "internalType": "address",
          "name": "account",
          "type": "address"
        }
      ],
      "name": "grantRole",
      "outputs": [],
      "stateMutability": "nonpayable",
      "type": "function"
    },
    {
      "inputs": [
        {
          "internalType": "bytes32",
          "name": "role",
          "type": "bytes32"
        },
        {
          "internalType": "address",
          "name": "account",
          "type": "address"
        }
      ],
      "name": "hasRole",
      "outputs": [
        {
          "internalType": "bool",
          "name": "",
          "type": "bool"
        }
      ],
      "stateMutability": "view",
      "type": "function"
    },
    {
      "inputs": [
        {
          "internalType": "address",
          "name": "_owner",
          "type": "address"
        },
        {
          "internalType": "address",
          "name": "_treasury",
          "type": "address"
        },
        {
          "internalType": "address",
          "name": "_fundReceiver",
          "type": "address"
        },
        {
          "internalType": "contract IERC20WithBurn",
          "name": "_rewardToken",
          "type": "address"
        },
        {
          "internalType": "contract IERC20WithBurn",
          "name": "_extraRewardToken",
          "type": "address"
        }
      ],
      "name": "initialize",
      "outputs": [],
      "stateMutability": "nonpayable",
      "type": "function"
    },
    {
      "inputs": [],
      "name": "isAdmin",
      "outputs": [
        {
          "internalType": "bool",
          "name": "",
          "type": "bool"
        }
      ],
      "stateMutability": "view",
      "type": "function"
    },
    {
      "inputs": [],
      "name": "maximumEarningsInPercent",
      "outputs": [
        {
          "internalType": "uint256",
          "name": "",
          "type": "uint256"
        }
      ],
      "stateMutability": "view",
      "type": "function"
    },
    {
      "inputs": [],
      "name": "minimumStakingAmountInUSD",
      "outputs": [
        {
          "internalType": "uint256",
          "name": "",
          "type": "uint256"
        }
      ],
      "stateMutability": "view",
      "type": "function"
    },
    {
      "inputs": [
        {
          "internalType": "address",
          "name": "",
          "type": "address"
        }
      ],
      "name": "offeredCurrencies",
      "outputs": [
        {
          "internalType": "uint256",
          "name": "decimal",
          "type": "uint256"
        },
        {
          "internalType": "uint256",
          "name": "rate",
          "type": "uint256"
        }
      ],
      "stateMutability": "view",
      "type": "function"
    },
    {
      "inputs": [],
      "name": "pause",
      "outputs": [],
      "stateMutability": "nonpayable",
      "type": "function"
    },
    {
      "inputs": [],
      "name": "paused",
      "outputs": [
        {
          "internalType": "bool",
          "name": "",
          "type": "bool"
        }
      ],
      "stateMutability": "view",
      "type": "function"
    },
    {
      "inputs": [
        {
          "internalType": "uint256",
          "name": "_contractId",
          "type": "uint256"
        }
      ],
      "name": "pendingRewardInUSD",
      "outputs": [
        {
          "internalType": "uint256",
          "name": "",
          "type": "uint256"
        }
      ],
      "stateMutability": "view",
      "type": "function"
    },
    {
      "inputs": [
        {
          "internalType": "address",
          "name": "",
          "type": "address"
        }
      ],
      "name": "referredBy",
      "outputs": [
        {
          "internalType": "address",
          "name": "",
          "type": "address"
        }
      ],
      "stateMutability": "view",
      "type": "function"
    },
    {
      "inputs": [
        {
          "internalType": "bytes32",
          "name": "role",
          "type": "bytes32"
        },
        {
          "internalType": "address",
          "name": "account",
          "type": "address"
        }
      ],
      "name": "renounceRole",
      "outputs": [],
      "stateMutability": "nonpayable",
      "type": "function"
    },
    {
      "inputs": [
        {
          "internalType": "bytes32",
          "name": "role",
          "type": "bytes32"
        },
        {
          "internalType": "address",
          "name": "account",
          "type": "address"
        }
      ],
      "name": "revokeRole",
      "outputs": [],
      "stateMutability": "nonpayable",
      "type": "function"
    },
    {
      "inputs": [],
      "name": "rewardToken",
      "outputs": [
        {
          "internalType": "contract IERC20WithBurn",
          "name": "",
          "type": "address"
        }
      ],
      "stateMutability": "view",
      "type": "function"
    },
    {
      "inputs": [],
      "name": "root",
      "outputs": [
        {
          "internalType": "address",
          "name": "",
          "type": "address"
        }
      ],
      "stateMutability": "view",
      "type": "function"
    },
    {
      "inputs": [
        {
          "internalType": "address",
          "name": "_stakeToken",
          "type": "address"
        }
      ],
      "name": "setAllowedStakeToken",
      "outputs": [],
      "stateMutability": "nonpayable",
      "type": "function"
    },
    {
      "inputs": [
        {
          "internalType": "address",
          "name": "_pegToken",
          "type": "address"
        },
        {
          "internalType": "address",
          "name": "_oracle",
          "type": "address"
        }
      ],
      "name": "setAssetOracle",
      "outputs": [],
      "stateMutability": "nonpayable",
      "type": "function"
    },
    {
      "inputs": [
        {
          "internalType": "uint64",
          "name": "_claimDuration",
          "type": "uint64"
        }
      ],
      "name": "setClaimDuration",
      "outputs": [],
      "stateMutability": "nonpayable",
      "type": "function"
    },
    {
      "inputs": [
        {
          "internalType": "contract IDDXStaking",
          "name": "_staking",
          "type": "address"
        }
      ],
      "name": "setDDXStaking",
      "outputs": [],
      "stateMutability": "nonpayable",
      "type": "function"
    },
    {
      "inputs": [
        {
          "internalType": "contract IDDXVault",
          "name": "_vault",
          "type": "address"
        }
      ],
      "name": "setDDXVault",
      "outputs": [],
      "stateMutability": "nonpayable",
      "type": "function"
    },
    {
      "inputs": [
        {
          "internalType": "contract IDWVault",
          "name": "_vault",
          "type": "address"
        }
      ],
      "name": "setDWVault",
      "outputs": [],
      "stateMutability": "nonpayable",
      "type": "function"
    },
    {
      "inputs": [
        {
          "internalType": "uint256",
          "name": "_directInterest",
          "type": "uint256"
        }
      ],
      "name": "setDirectInterest",
      "outputs": [],
      "stateMutability": "nonpayable",
      "type": "function"
    },
    {
      "inputs": [
        {
          "internalType": "address",
          "name": "_fundReceiver",
          "type": "address"
        }
      ],
      "name": "setFundReceiver",
      "outputs": [],
      "stateMutability": "nonpayable",
      "type": "function"
    },
    {
      "inputs": [
        {
          "internalType": "uint256",
          "name": "_minimumStakingAmountInUSD",
          "type": "uint256"
        }
      ],
      "name": "setMinimumStakingInUSD",
      "outputs": [],
      "stateMutability": "nonpayable",
      "type": "function"
    },
    {
      "inputs": [
        {
          "internalType": "address",
          "name": "_currency",
          "type": "address"
        },
        {
          "internalType": "uint256",
          "name": "_rate",
          "type": "uint256"
        },
        {
          "internalType": "uint256",
          "name": "_decimal",
          "type": "uint256"
        }
      ],
      "name": "setOfferedCurrency",
      "outputs": [],
      "stateMutability": "nonpayable",
      "type": "function"
    },
    {
      "inputs": [
        {
          "internalType": "address",
          "name": "_root",
          "type": "address"
        }
      ],
      "name": "setRoot",
      "outputs": [],
      "stateMutability": "nonpayable",
      "type": "function"
    },
    {
      "inputs": [
        {
          "internalType": "uint256",
          "name": "",
          "type": "uint256"
        }
      ],
      "name": "stakingContractOwnedBy",
      "outputs": [
        {
          "internalType": "address",
          "name": "",
          "type": "address"
        }
      ],
      "stateMutability": "view",
      "type": "function"
    },
    {
      "inputs": [
        {
          "internalType": "uint256",
          "name": "",
          "type": "uint256"
        }
      ],
      "name": "stakingContracts",
      "outputs": [
        {
          "internalType": "uint256",
          "name": "totalExpectedInterest",
          "type": "uint256"
        },
        {
          "internalType": "uint256",
          "name": "totalStakesInUSD",
          "type": "uint256"
        },
        {
          "internalType": "uint256",
          "name": "claimedInterest",
          "type": "uint256"
        },
        {
          "internalType": "uint64",
          "name": "claimDuration",
          "type": "uint64"
        },
        {
          "internalType": "uint64",
          "name": "dueDate",
          "type": "uint64"
        },
        {
          "internalType": "uint64",
          "name": "lastClaimedTime",
          "type": "uint64"
        },
        {
          "internalType": "uint64",
          "name": "lastUpdatedTime",
          "type": "uint64"
        },
        {
          "internalType": "uint64",
          "name": "createdAt",
          "type": "uint64"
        },
        {
          "internalType": "address",
          "name": "stakeToken",
          "type": "address"
        },
        {
          "internalType": "uint256",
          "name": "totalStakesInToken",
          "type": "uint256"
        }
      ],
      "stateMutability": "view",
      "type": "function"
    },
    {
      "inputs": [
        {
          "internalType": "bytes4",
          "name": "interfaceId",
          "type": "bytes4"
        }
      ],
      "name": "supportsInterface",
      "outputs": [
        {
          "internalType": "bool",
          "name": "",
          "type": "bool"
        }
      ],
      "stateMutability": "view",
      "type": "function"
    },
    {
      "inputs": [
        {
          "internalType": "address",
          "name": "",
          "type": "address"
        }
      ],
      "name": "totalReferralInvitations",
      "outputs": [
        {
          "internalType": "uint256",
          "name": "",
          "type": "uint256"
        }
      ],
      "stateMutability": "view",
      "type": "function"
    },
    {
      "inputs": [],
      "name": "totalStaked",
      "outputs": [
        {
          "internalType": "uint256",
          "name": "",
          "type": "uint256"
        }
      ],
      "stateMutability": "view",
      "type": "function"
    },
    {
      "inputs": [],
      "name": "totalStakingContracts",
      "outputs": [
        {
          "internalType": "uint256",
          "name": "",
          "type": "uint256"
        }
      ],
      "stateMutability": "view",
      "type": "function"
    },
    {
      "inputs": [],
      "name": "treasury",
      "outputs": [
        {
          "internalType": "address",
          "name": "",
          "type": "address"
        }
      ],
      "stateMutability": "view",
      "type": "function"
    },
    {
      "inputs": [],
      "name": "unpause",
      "outputs": [],
      "stateMutability": "nonpayable",
      "type": "function"
    },
    {
      "inputs": [],
      "name": "vault",
      "outputs": [
        {
          "internalType": "contract IDWVault",
          "name": "",
          "type": "address"
        }
      ],
      "stateMutability": "view",
      "type": "function"
    }
  ],
  "transactionHash": "0xf7a631cb3ab338ca6b1bbaa0efd23cb3ab3ee4ca448c6551478b31c3a6c1e1e7",
  "args": [],
  "solcInputHash": "d9e3e00f9de3aca69e5e34b453e2bc60",
  "bytecode": "0x608060405234801561001057600080fd5b5061432b806100206000396000f3fe608060405234801561001057600080fd5b50600436106103655760003560e01c8063803efb61116101ca578063ce3637ef11610105578063ebf0c717116100a8578063ebf0c71714610919578063ed2ffc091461092d578063f2e0348214610940578063f464f38f14610953578063f7c618c114610977578063f851a4401461098b578063fb4aa0a11461099f578063fbd695bf146109b3578063fbfa77cf146109c657600080fd5b8063ce3637ef14610866578063d547741f14610879578063dc2903c61461088c578063e1988ca3146108b6578063e37242f9146108c9578063e58378bb146108dc578063e63ab1e9146108f1578063e7ad37011461090657600080fd5b8063a00229fe1161016d578063a00229fe146107bd578063a217fddf146107d0578063a90f8e9a146107d8578063ab1a4d9414610802578063ae169a501461082e578063b1e6cb8214610841578063b6db75a01461084b578063bfc90a5e1461085357600080fd5b8063803efb6114610732578063817b1cd21461073c5780638456cb59146107465780638e1303d71461074e5780638fb33c3b14610761578063901bb5af1461078257806391d1485414610796578063991932bb146107a957600080fd5b80633f4ba83a116102a557806362d6306f1161024857806362d6306f14610686578063657efde614610699578063688cd845146106ac578063729d0a8a146106bf5780637801d3a8146106d257806378457926146106e657806378ecb4ee146106f057806379ebe118146106fe5780637d12cfc11461071f57600080fd5b80633f4ba83a146105b257806341c90bae146105ba57806344d25cb2146105cd5780635a3a85cb146105e05780635c975abb1461061d5780635e9a523c1461062857806361d027b31461065f57806362adfe7a1461067357600080fd5b8063248a9ca31161030d578063248a9ca3146105025780632a9c0560146105255780632e2d29841461052f5780632f10a9be146105425780632f2ff15d1461055557806336568abe146105685780633c34ab301461057b5780633e29a7361461059f57600080fd5b80623ba1ed1461036a57806301ffc9a71461037f578063022f2354146103a75780630c75a1d7146103ca5780631109b19a146103ea5780631356df35146104c95780631459457a146104dc578063188601f7146104ef575b600080fd5b61037d6103783660046139b1565b6109da565b005b61039261038d366004613c7a565b610a2a565b60405190151581526020015b60405180910390f35b6103bc6000805160206142d683398151915281565b60405190815260200161039e565b6103dd6103d8366004613af0565b610a61565b60405161039e9190613e6b565b6104686103f8366004613c3e565b6101e0602052600090815260409020805460018201546002830154600384015460048501546005909501549394929391926001600160401b0380831693600160401b808504831694600160801b8104841694600160c01b9091048416938116929190046001600160a01b0316908a565b604080519a8b5260208b0199909952978901969096526001600160401b039485166060890152928416608088015290831660a0870152821660c08601521660e08401526001600160a01b03166101008301526101208201526101400161039e565b61037d6104d7366004613c3e565b610c2e565b61037d6104ea366004613a21565b610cc3565b6103bc6104fd366004613a91565b610fb7565b6103bc610510366004613c3e565b60009081526065602052604090206001015490565b6103bc6101cd5481565b61037d61053d366004613cba565b611072565b6103bc610550366004613c3e565b611287565b61037d610563366004613c56565b6113eb565b61037d610576366004613c56565b611410565b6103926105893660046139b1565b6101dc6020526000908152604090205460ff1681565b61037d6105ad366004613c3e565b61148e565b61037d6114ad565b6103bc6105c8366004613a91565b6114d0565b6103bc6105db366004613c3e565b6114e3565b6106086105ee3660046139b1565b6101da602052600090815260409020805460019091015482565b6040805192835260208301919091520161039e565b60975460ff16610392565b6106526106363660046139b1565b6101dd602052600090815260409020546001600160a01b031681565b60405161039e9190613e1a565b6101c854610652906001600160a01b031681565b61037d6106813660046139e9565b6114fb565b61037d6106943660046139b1565b611543565b61037d6106a7366004613abc565b61166c565b6103bc6106ba366004613c3e565b6116aa565b61037d6106cd366004613b5f565b6116b5565b6101c754610652906001600160a01b031681565b6103bc6101cc5481565b6101d9546103929060ff1681565b6103bc61070c3660046139b1565b6101db6020526000908152604090205481565b6103bc61072d366004613af0565b611701565b6103bc6101cf5481565b6103bc6101cb5481565b61037d61175b565b61037d61075c366004613cfb565b61177b565b6103bc61076f3660046139b1565b6101de6020526000908152604090205481565b6101c554610652906001600160a01b031681565b6103926107a4366004613c56565b6118ff565b6101c454610652906001600160a01b031681565b6103bc6107cb366004613c3e565b61192a565b6103bc600081565b6106526107e63660046139b1565b6101df602052600090815260409020546001600160a01b031681565b6101ce54610816906001600160401b031681565b6040516001600160401b03909116815260200161039e565b61037d61083c366004613c3e565b6119e4565b6103bc6101ca5481565b610392611a08565b61037d6108613660046139b1565b611a27565b61037d6108743660046139b1565b611ac3565b61037d610887366004613c56565b611b63565b61065261089a366004613c3e565b6101e1602052600090815260409020546001600160a01b031681565b6103bc6108c4366004613a91565b611b88565b61037d6108d73660046139b1565b611bdf565b6103bc60008051602061429683398151915281565b6103bc6000805160206142b683398151915281565b61037d6109143660046139b1565b611c26565b6101e454610652906001600160a01b031681565b61037d61093b366004613d68565b611cc9565b6103bc61094e366004613a91565b611d06565b6103926109613660046139b1565b6101e26020526000908152604090205460ff1681565b6101c354610652906001600160a01b031681565b6101c954610652906001600160a01b031681565b6101e354610652906001600160a01b031681565b61037d6109c13660046139b1565b611d57565b6101c654610652906001600160a01b031681565b6109e2611a08565b610a075760405162461bcd60e51b81526004016109fe90613fff565b60405180910390fd5b6101e480546001600160a01b0319166001600160a01b0392909216919091179055565b60006001600160e01b03198216637965db0b60e01b1480610a5b57506301ffc9a760e01b6001600160e01b03198316145b92915050565b60606000826001600160401b03811115610a8b57634e487b7160e01b600052604160045260246000fd5b604051908082528060200260200182016040528015610b0a57816020015b604080516101408101825260008082526020808301829052928201819052606082018190526080820181905260a0820181905260c0820181905260e0820181905261010082018190526101208201528252600019909201910181610aa95790505b50905060005b83811015610c26576101e06000868684818110610b3d57634e487b7160e01b600052603260045260246000fd5b602090810292909201358352508181019290925260409081016000208151610140810183528154815260018201549381019390935260028101549183019190915260038101546001600160401b038082166060850152600160401b80830482166080860152600160801b8304821660a0860152600160c01b909204811660c0850152600483015490811660e0850152046001600160a01b0316610100830152600501546101208201528251839083908110610c0857634e487b7160e01b600052603260045260246000fd5b60200260200101819052508080610c1e90614239565b915050610b10565b509392505050565b6000805160206142d6833981519152610c4681611df8565b670de0b6b3a7640000821115610cbc5760405162461bcd60e51b815260206004820152603560248201527f706f6f6c3a2044697265637420496e746572657374207261746520636f756c64604482015274206e6f7420686967686572207468616e203130302560581b60648201526084016109fe565b506101cf55565b600054610100900460ff1615808015610ce35750600054600160ff909116105b80610cfd5750303b158015610cfd575060005460ff166001145b610d605760405162461bcd60e51b815260206004820152602e60248201527f496e697469616c697a61626c653a20636f6e747261637420697320616c72656160448201526d191e481a5b9a5d1a585b1a5e995960921b60648201526084016109fe565b6000805460ff191660011790558015610d83576000805461ff0019166101001790555b610d8c86611543565b6001600160a01b038516610db25760405162461bcd60e51b81526004016109fe90613f61565b6001600160a01b038316610dd85760405162461bcd60e51b81526004016109fe90613f61565b6101e380546001600160a01b038087166001600160a01b0319928316179092556101c880548884169083161790556101c380548684169083161790556101c48054928516928216929092179091556101c980549091163317905560408051610120810182526105dc81526103e860208201526101f4918101829052606081018290526080810191909152600060a0820181905260c0820181905260e08201819052610100820152610e8e906101d0906009613958565b506101ce805467ffffffffffffffff1916630317040017905566b1a2bc2ec500006101cf556305f5e1006101cc55671bc16d674ec800006101cd55610ee16000805160206142d683398151915287611e02565b6101c35460405163095ea7b360e01b81526001600160a01b039091169063095ea7b390610f1690309060001990600401613e52565b602060405180830381600087803b158015610f3057600080fd5b505af1158015610f44573d6000803e3d6000fd5b505050506040513d601f19601f82011682018060405250810190610f689190613c1e565b508015610faf576000805461ff0019169055604051600181527f7f26b83ff96e1f2b6a682f133852f6798a09c465da95921460cefb38474024989060200160405180910390a15b505050505050565b6000806000306001600160a01b03168585604051602401610fd9929190613e52565b60408051601f198184030181529181526020820180516001600160e01b03166320e485d760e11b1790525161100e9190613d8f565b6000604051808303816000865af19150503d806000811461104b576040519150601f19603f3d011682016040523d82523d6000602084013e611050565b606091505b5091509150808060200190518101906110699190613ca2565b95945050505050565b61107a611e0c565b611082611e54565b33836110a05760405162461bcd60e51b81526004016109fe90613f7d565b6001600160a01b03811661110a5760405162461bcd60e51b815260206004820152602b60248201527f706f6f6c3a207374616b6520616464726573732063616e206e6f74206265207a60448201526a65726f206164647265737360a81b60648201526084016109fe565b6000611117848387611eae565b905060006111258583611fcf565b6101c3549091506001600160a01b038681169116146111bb576001600160a01b03851660009081526101dc60209081526040918290208251918201909252905460ff1615158082526111b95760405162461bcd60e51b815260206004820181905260248201527f706f6f6c3a207374616b6520746f6b656e206973206e6f7420616c6c6f77656460448201526064016109fe565b505b6101c3546001600160a01b0386811691161415611236576101c354604051630852cd8d60e31b8152600481018490526001600160a01b03909116906342966c6890602401600060405180830381600087803b15801561121957600080fd5b505af115801561122d573d6000803e3d6000fd5b50505050611251565b6101e354611251906001600160a01b03878116911688612248565b61125c83858361229e565b935061126b83868685856126fa565b6112758184612949565b505050611282600160c955565b505050565b60008181526101e0602090815260408083208151610140810183528154815260018201549381019390935260028101549183019190915260038101546001600160401b038082166060850152600160401b80830482166080860152600160801b8304821660a08601819052600160c01b909304821660c0860152600484015480831660e0870152046001600160a01b0316610100850152600590920154610120840152429182161161133d575060009392505050565b81608001516001600160401b0316816001600160401b03161115611362575060808101515b60008260a001518261137491906141ce565b90506000670de0b6b3a76400006001600160401b031684606001516001600160401b0316670de0b6b3a76400006001600160401b0316846001600160401b031687600001516113c39190614198565b6113cd9190614198565b6113d7919061408d565b6113e1919061408d565b9695505050505050565b60008281526065602052604090206001015461140681611df8565b6112828383612ad3565b6001600160a01b03811633146114805760405162461bcd60e51b815260206004820152602f60248201527f416363657373436f6e74726f6c3a2063616e206f6e6c792072656e6f756e636560448201526e103937b632b9903337b91039b2b63360891b60648201526084016109fe565b61148a8282612b59565b5050565b6000805160206142d68339815191526114a681611df8565b506101cc55565b6000805160206142d68339815191526114c581611df8565b6114cd612bc0565b50565b60006114dc8383612c0c565b9392505050565b6101d081600981106114f457600080fd5b0154905081565b6000805160206142d683398151915261151381611df8565b506001600160a01b0391821660009081526101dd6020526040902080546001600160a01b03191691909216179055565b600054610100900460ff1661156a5760405162461bcd60e51b81526004016109fe90613fb4565b6001600160a01b0381166115c05760405162461bcd60e51b815260206004820181905260248201527f4f776e65722063616e6e6f7420626520746865207a65726f206164647265737360448201526064016109fe565b6115c8612e25565b6115d0612e4c565b6115d8612e7b565b6115f060008051602061429683398151915282611e02565b6116086000805160206142b683398151915282611e02565b61162e6000805160206142d6833981519152600080516020614296833981519152612eaa565b6116546000805160206142b6833981519152600080516020614296833981519152612eaa565b6114cd60008051602061429683398151915280612eaa565b6000805160206142d683398151915261168481611df8565b506001600160a01b0390921660009081526101da60205260409020600181019190915555565b6000610a5b82612ef5565b6116bd611e0c565b60005b815181101561148a576116f98282815181106116ec57634e487b7160e01b600052603260045260246000fd5b60200260200101516119e4565b6001016116c0565b600080805b83811015610c265761173d85858381811061173157634e487b7160e01b600052603260045260246000fd5b90506020020135611287565b611747908361404a565b91508061175381614239565b915050611706565b6000805160206142d683398151915261177381611df8565b6114cd6131ff565b611783611e0c565b61178b611e54565b6101c6546001600160a01b0316336001600160a01b0316146117ea5760405162461bcd60e51b81526020600482015260186024820152771c1bdbdb0e88139bdd081cdd185ad948189e481d985d5b1d60421b60448201526064016109fe565b60006117f6848661404a565b9050600081116118185760405162461bcd60e51b81526004016109fe90613f7d565b6101c3546101c654611837916001600160a01b03908116911687611eae565b506101c354600090611852906001600160a01b031683611fcf565b905085156118ba576101c354604051630852cd8d60e31b8152600481018890526001600160a01b03909116906342966c6890602401600060405180830381600087803b1580156118a157600080fd5b505af11580156118b5573d6000803e3d6000fd5b505050505b6118c584848361229e565b6101c3549093506118e39085906001600160a01b03168585856126fa565b6118ed8185612949565b50506118f9600160c955565b50505050565b60009182526065602090815260408084206001600160a01b0393909316845291905290205460ff1690565b6000806000306001600160a01b03168460405160240161194c91815260200190565b60408051601f198184030181529181526020820180516001600160e01b031663688cd84560e01b179052516119819190613d8f565b6000604051808303816000865af19150503d80600081146119be576040519150601f19603f3d011682016040523d82523d6000602084013e6119c3565b606091505b5091509150808060200190518101906119dc9190613ca2565b949350505050565b6119ec611e54565b6119f4611e0c565b6119fe338261323c565b6114cd600160c955565b6000611a22600080516020614296833981519152336118ff565b905090565b6000805160206142d6833981519152611a3f81611df8565b6001600160a01b03821660009081526101dc60205260409020805460ff1615611ab45760405162461bcd60e51b815260206004820152602160248201527f416c6c6f77656420746f6b656e20697320616c726561647920657869737465646044820152602160f81b60648201526084016109fe565b805460ff191660011790555050565b6000805160206142d6833981519152611adb81611df8565b6001600160a01b038216611b3f5760405162461bcd60e51b815260206004820152602560248201527f706f6f6c3a204457207661756c742063616e6e6f74206265207a65726f206164604482015264647265737360d81b60648201526084016109fe565b506101c680546001600160a01b0319166001600160a01b0392909216919091179055565b600082815260656020526040902060010154611b7e81611df8565b6112828383612b59565b6001600160a01b03821660009081526101da6020908152604080832081518083019092528054808352600190910154928201839052909190611bcb90600a6140f0565b611bd59085614198565b6119dc919061408d565b611be7611a08565b611c035760405162461bcd60e51b81526004016109fe90613fff565b6101e380546001600160a01b0319166001600160a01b0392909216919091179055565b6000805160206142d6833981519152611c3e81611df8565b6001600160a01b038216611ca55760405162461bcd60e51b815260206004820152602860248201527f706f6f6c3a20444458205374616b696e672063616e6e6f74206265207a65726f604482015267206164647265737360c01b60648201526084016109fe565b506101c780546001600160a01b0319166001600160a01b0392909216919091179055565b6000805160206142d6833981519152611ce181611df8565b506101ce805467ffffffffffffffff19166001600160401b0392909216919091179055565b6001600160a01b03821660009081526101da60209081526040808320815180830190925280548083526001909101549282019290925290611d4890600a6140f0565b6020820151611bd59085614198565b6000805160206142d6833981519152611d6f81611df8565b6001600160a01b038216611dd45760405162461bcd60e51b815260206004820152602660248201527f706f6f6c3a20444458207661756c742063616e6e6f74206265207a65726f206160448201526564647265737360d01b60648201526084016109fe565b506101c580546001600160a01b0319166001600160a01b0392909216919091179055565b6114cd8133613462565b61148a8282612ad3565b60975460ff1615611e525760405162461bcd60e51b815260206004820152601060248201526f14185d5cd8589b194e881c185d5cd95960821b60448201526064016109fe565b565b600260c9541415611ea75760405162461bcd60e51b815260206004820152601f60248201527f5265656e7472616e637947756172643a207265656e7472616e742063616c6c0060448201526064016109fe565b600260c955565b600080846001600160a01b03166370a08231306040518263ffffffff1660e01b8152600401611edd9190613e1a565b60206040518083038186803b158015611ef557600080fd5b505afa158015611f09573d6000803e3d6000fd5b505050506040513d601f19601f82011682018060405250810190611f2d9190613ca2565b9050611f446001600160a01b0386168530866134bb565b6040516370a0823160e01b81526000906001600160a01b038716906370a0823190611f73903090600401613e1a565b60206040518083038186803b158015611f8b57600080fd5b505afa158015611f9f573d6000803e3d6000fd5b505050506040513d601f19601f82011682018060405250810190611fc39190613ca2565b90506113e182826141b7565b6001600160a01b0380831660009081526101dd60205260408120549091168181156121c157816001600160a01b031663b4d1d7956040518163ffffffff1660e01b815260040160206040518083038186803b15801561202d57600080fd5b505afa158015612041573d6000803e3d6000fd5b505050506040513d601f19601f820116820180604052508101906120659190613ca2565b826001600160a01b031663e56522a96040518163ffffffff1660e01b815260040160206040518083038186803b15801561209e57600080fd5b505afa1580156120b2573d6000803e3d6000fd5b505050506040513d601f19601f820116820180604052508101906120d69190613d44565b6120e69063ffffffff16426141b7565b111561214057816001600160a01b031663a2e620456040518163ffffffff1660e01b8152600401600060405180830381600087803b15801561212757600080fd5b505af115801561213b573d6000803e3d6000fd5b505050505b604051633ddac95360e01b81526001600160a01b03831690633ddac9539061216e9088908890600401613e52565b60206040518083038186803b15801561218657600080fd5b505afa15801561219a573d6000803e3d6000fd5b505050506040513d601f19601f820116820180604052508101906121be9190613ca2565b90505b80156121cf578092506121dc565b6121d98585611b88565b92505b6101cc548310156122405760405162461bcd60e51b815260206004820152602860248201527f706f6f6c3a206d696e696d756d207374616b696e6720616d6f756e74206e6f74604482015267081c995858da195960c21b60648201526084016109fe565b505092915050565b6112828363a9059cbb60e01b8484604051602401612267929190613e52565b60408051601f198184030181529190526020810180516001600160e01b03166001600160e01b0319909316929092179091526134dc565b6000806001600160a01b0384161580156122d157506001600160a01b0385811660009081526101df602052604090205416155b15612338576101e480546001600160a01b0387811660009081526101df6020908152604080832080546001600160a01b03191695851695909517909455935490911681526101de909252812080546001929061232e90849061404a565b9091555060019150505b6001600160a01b03841615612555576001600160a01b03841660009081526101e2602052604090205460ff166123c75760405162461bcd60e51b815260206004820152602e60248201527f706f6f6c3a2074686973207573657220686173206e6f74206a6f696e6564207460448201526d68652073797374656d207965742160901b60648201526084016109fe565b6001600160a01b0385811660009081526101df6020526040902054161580156124025750846001600160a01b0316846001600160a01b031614155b61245c5760405162461bcd60e51b815260206004820152602560248201527f706f6f6c3a207573657220616c7265616479206a6f696e656420627920726566604482015264195c9c985b60da1b60648201526084016109fe565b6001600160a01b0380851660009081526101df60205260409020541680158015906124985750856001600160a01b0316816001600160a01b0316145b156125015760405162461bcd60e51b815260206004820152603360248201527f706f6f6c3a206661696c65642062656361757365206f662063697263756c6174604482015272696e6720726566657272616c20636972636c6560681b60648201526084016109fe565b6001600160a01b0386811660009081526101df6020908152604080832080546001600160a01b031916948a1694851790559282526101de905290812080546001929061254e90849061404a565b9091555050505b6001600160a01b0385811660009081526101df602052604090205416156126d7576001600160a01b0380861660009081526101df60205260408120549091169061259e85612ef5565b90506000670de0b6b3a76400006001600160401b03166101cf54836125c39190614198565b6125cd919061408d565b6101c3546101c8546040516323b872dd60e01b81529293506001600160a01b03918216926323b872dd9261260992169087908690600401613e2e565b602060405180830381600087803b15801561262357600080fd5b505af1158015612637573d6000803e3d6000fd5b505050506040513d601f19601f8201168201806040525081019061265b9190613c1e565b506001600160a01b03831660009081526101db60205260408120805483929061268590849061404a565b909155505060408051828152602081018890526001600160a01b0380861692908b16917f1db3eb8593e2df25f384c5d65274f44eb883bdefc3323aa2197ed202ce0eb8ee910160405180910390a35050505b80156126f15750506101e4546001600160a01b03166114dc565b50919392505050565b6101ca5460008181526101e06020526040902060048101805467ffffffffffffffff1916426001600160401b03169081179091556003820180546001600160801b0316600160801b83026001600160c01b031617600160c01b909202919091179055600181018390556101cd54670de0b6b3a76400009061277b9085614198565b612785919061408d565b81556101ce5460038201805467ffffffffffffffff19166001600160401b0392831690811790915560048301546127bc9216614062565b8160030160086101000a8154816001600160401b0302191690836001600160401b03160217905550858160040160086101000a8154816001600160a01b0302191690836001600160a01b03160217905550838160050181905550836101cb6000828254612829919061404a565b90915550506101ca805490600061283f83614239565b909155505060008281526101e16020908152604080832080546001600160a01b0319166001600160a01b038c1690811790915583526101e290915290205460ff166128a9576001600160a01b03871660009081526101e260205260409020805460ff191660011790555b856001600160a01b0316876001600160a01b0316837ffeddeab5331bfcd2c5ba6992d9bb9c2233dee3f0785ec31e081eb46857693a01888888876001015488600001546128f691906141b7565b6003890154604080516001600160a01b0390961686526020860194909452928401919091526060830152600160401b90046001600160401b0316608082015260a00160405180910390a450505050505050565b6101c7546040516311026af760e11b8152600481018490526000916001600160a01b031690632204d5ee90602401602060405180830381600087803b15801561299157600080fd5b505af11580156129a5573d6000803e3d6000fd5b505050506040513d601f19601f820116820180604052508101906129c99190613ca2565b9050600081118015612a5d57506101c560009054906101000a90046001600160a01b03166001600160a01b0316638832e6726040518163ffffffff1660e01b815260040160206040518083038186803b158015612a2557600080fd5b505afa158015612a39573d6000803e3d6000fd5b505050506040513d601f19601f82011682018060405250810190612a5d9190613c1e565b15611282576101c554604051637b408a6b60e01b81526001600160a01b0390911690637b408a6b90612a959085908590600401613e52565b600060405180830381600087803b158015612aaf57600080fd5b505af1158015612ac3573d6000803e3d6000fd5b50505050505050565b600160c955565b612add82826118ff565b61148a5760008281526065602090815260408083206001600160a01b03851684529091529020805460ff19166001179055612b153390565b6001600160a01b0316816001600160a01b0316837f2f8788117e7eff1d82e926ec794901d17c78024a50270940304540a733656f0d60405160405180910390a45050565b612b6382826118ff565b1561148a5760008281526065602090815260408083206001600160a01b0385168085529252808320805460ff1916905551339285917ff6391f5c32d9c69d2a47ea670b442974b53935d1edc7fd64eb21e047a839171b9190a45050565b612bc86135ae565b6097805460ff191690557f5db9ee0a495bf2e6ff9c91a7834c1ba4fdd244a5e8aa4e537bd38aeae4b073aa335b604051612c029190613e1a565b60405180910390a1565b6001600160a01b0380831660009081526101dd60205260408120549091829116818115612e0057816001600160a01b031663b4d1d7956040518163ffffffff1660e01b815260040160206040518083038186803b158015612c6c57600080fd5b505afa158015612c80573d6000803e3d6000fd5b505050506040513d601f19601f82011682018060405250810190612ca49190613ca2565b826001600160a01b031663e56522a96040518163ffffffff1660e01b815260040160206040518083038186803b158015612cdd57600080fd5b505afa158015612cf1573d6000803e3d6000fd5b505050506040513d601f19601f82011682018060405250810190612d159190613d44565b612d259063ffffffff16426141b7565b1115612d7f57816001600160a01b031663a2e620456040518163ffffffff1660e01b8152600401600060405180830381600087803b158015612d6657600080fd5b505af1158015612d7a573d6000803e3d6000fd5b505050505b604051633ddac95360e01b81526001600160a01b03831690633ddac95390612dad9089908990600401613e52565b60206040518083038186803b158015612dc557600080fd5b505afa158015612dd9573d6000803e3d6000fd5b505050506040513d601f19601f82011682018060405250810190612dfd9190613ca2565b90505b8015612e0e57809250612e1b565b612e188686611b88565b92505b5090949350505050565b600054610100900460ff16611e525760405162461bcd60e51b81526004016109fe90613fb4565b600054610100900460ff16612e735760405162461bcd60e51b81526004016109fe90613fb4565b611e526135f7565b600054610100900460ff16612ea25760405162461bcd60e51b81526004016109fe90613fb4565b611e5261362a565b600082815260656020526040808220600101805490849055905190918391839186917fbd79b86ffe0ab8e8776151514217cd7cacd52c909f66475c3af44e129f0b00ff9190a4505050565b6101c3546001600160a01b0390811660009081526101dd602052604081205490911680156131e857806001600160a01b031663b4d1d7956040518163ffffffff1660e01b815260040160206040518083038186803b158015612f5657600080fd5b505afa158015612f6a573d6000803e3d6000fd5b505050506040513d601f19601f82011682018060405250810190612f8e9190613ca2565b816001600160a01b031663e56522a96040518163ffffffff1660e01b815260040160206040518083038186803b158015612fc757600080fd5b505afa158015612fdb573d6000803e3d6000fd5b505050506040513d601f19601f82011682018060405250810190612fff9190613d44565b61300f9063ffffffff16426141b7565b111561306957806001600160a01b031663a2e620456040518163ffffffff1660e01b8152600401600060405180830381600087803b15801561305057600080fd5b505af1158015613064573d6000803e3d6000fd5b505050505b6000816001600160a01b0316630dfe16816040518163ffffffff1660e01b815260040160206040518083038186803b1580156130a457600080fd5b505afa1580156130b8573d6000803e3d6000fd5b505050506040513d601f19601f820116820180604052508101906130dc91906139cd565b6101c3549091506001600160a01b038083169116141561316a57816001600160a01b031663d21220a76040518163ffffffff1660e01b815260040160206040518083038186803b15801561312f57600080fd5b505afa158015613143573d6000803e3d6000fd5b505050506040513d601f19601f8201168201806040525081019061316791906139cd565b90505b604051633ddac95360e01b81526001600160a01b03831690633ddac953906131989084908890600401613e52565b60206040518083038186803b1580156131b057600080fd5b505afa1580156131c4573d6000803e3d6000fd5b505050506040513d601f19601f820116820180604052508101906119dc9190613ca2565b6101c3546114dc906001600160a01b031684611d06565b613207611e0c565b6097805460ff191660011790557f62e78cea01bee320cd4e420270b5ea74000d11b0c9f74754ebdbfc544b05a258612bf53390565b60008181526101e160205260409020546001600160a01b038381169116146132ba5760405162461bcd60e51b815260206004820152602b60248201527f706f6f6c3a20636f6e7472616374206964206e6f742062656c6f6e677320746f60448201526a103a3434b99037bbb732b960a91b60648201526084016109fe565b60008181526101e060205260408120906132d383611287565b905060006132e082612ef5565b905080156133f3576101c3546101c8546040516323b872dd60e01b81526001600160a01b03928316926323b872dd926133229291169089908690600401613e2e565b602060405180830381600087803b15801561333c57600080fd5b505af1158015613350573d6000803e3d6000fd5b505050506040513d601f19601f820116820180604052508101906133749190613c1e565b50600383015442906001600160401b03600160401b909104811690821611156133ae57506003830154600160401b90046001600160401b03165b60038401805467ffffffffffffffff60801b1916600160801b6001600160401b038416021790556002840180548491906000906133ec90849061404a565b9091555050505b6003830180546001600160c01b0316600160c01b426001600160401b03160217905560408051828152602081018490526001600160a01b0387169186917f6fa2252892a07f93963cd54ee15abe8b0ac4070c43d93f0fbbfb30604ffb8d06910160405180910390a35050505050565b61346c82826118ff565b61148a5761347981613651565b613484836020613663565b604051602001613495929190613dab565b60408051601f198184030181529082905262461bcd60e51b82526109fe91600401613f2e565b6118f9846323b872dd60e01b85858560405160240161226793929190613e2e565b6000613531826040518060400160405280602081526020017f5361666545524332303a206c6f772d6c6576656c2063616c6c206661696c6564815250856001600160a01b03166138449092919063ffffffff16565b805190915015611282578080602001905181019061354f9190613c1e565b6112825760405162461bcd60e51b815260206004820152602a60248201527f5361666545524332303a204552433230206f7065726174696f6e20646964206e6044820152691bdd081cdd58d8d9595960b21b60648201526084016109fe565b60975460ff16611e525760405162461bcd60e51b815260206004820152601460248201527314185d5cd8589b194e881b9bdd081c185d5cd95960621b60448201526064016109fe565b600054610100900460ff1661361e5760405162461bcd60e51b81526004016109fe90613fb4565b6097805460ff19169055565b600054610100900460ff16612acc5760405162461bcd60e51b81526004016109fe90613fb4565b6060610a5b6001600160a01b03831660145b60606000613672836002614198565b61367d90600261404a565b6001600160401b038111156136a257634e487b7160e01b600052604160045260246000fd5b6040519080825280601f01601f1916602001820160405280156136cc576020820181803683370190505b509050600360fc1b816000815181106136f557634e487b7160e01b600052603260045260246000fd5b60200101906001600160f81b031916908160001a905350600f60fb1b8160018151811061373257634e487b7160e01b600052603260045260246000fd5b60200101906001600160f81b031916908160001a9053506000613756846002614198565b61376190600161404a565b90505b60018111156137f5576f181899199a1a9b1b9c1cb0b131b232b360811b85600f16601081106137a357634e487b7160e01b600052603260045260246000fd5b1a60f81b8282815181106137c757634e487b7160e01b600052603260045260246000fd5b60200101906001600160f81b031916908160001a90535060049490941c936137ee81614222565b9050613764565b5083156114dc5760405162461bcd60e51b815260206004820181905260248201527f537472696e67733a20686578206c656e67746820696e73756666696369656e7460448201526064016109fe565b60606119dc8484600085856001600160a01b0385163b6138a65760405162461bcd60e51b815260206004820152601d60248201527f416464726573733a2063616c6c20746f206e6f6e2d636f6e747261637400000060448201526064016109fe565b600080866001600160a01b031685876040516138c29190613d8f565b60006040518083038185875af1925050503d80600081146138ff576040519150601f19603f3d011682016040523d82523d6000602084013e613904565b606091505b509150915061391482828661391f565b979650505050505050565b6060831561392e5750816114dc565b82511561393e5782518084602001fd5b8160405162461bcd60e51b81526004016109fe9190613f2e565b826009810192821561398c579160200282015b8281111561398c578251829061ffff1690559160200191906001019061396b565b5061399892915061399c565b5090565b5b80821115613998576000815560010161399d565b6000602082840312156139c2578081fd5b81356114dc81614280565b6000602082840312156139de578081fd5b81516114dc81614280565b600080604083850312156139fb578081fd5b8235613a0681614280565b91506020830135613a1681614280565b809150509250929050565b600080600080600060a08688031215613a38578081fd5b8535613a4381614280565b94506020860135613a5381614280565b93506040860135613a6381614280565b92506060860135613a7381614280565b91506080860135613a8381614280565b809150509295509295909350565b60008060408385031215613aa3578182fd5b8235613aae81614280565b946020939093013593505050565b600080600060608486031215613ad0578283fd5b8335613adb81614280565b95602085013595506040909401359392505050565b60008060208385031215613b02578182fd5b82356001600160401b0380821115613b18578384fd5b818501915085601f830112613b2b578384fd5b813581811115613b39578485fd5b8660208260051b8501011115613b4d578485fd5b60209290920196919550909350505050565b60006020808385031215613b71578182fd5b82356001600160401b0380821115613b87578384fd5b818501915085601f830112613b9a578384fd5b813581811115613bac57613bac61426a565b8060051b604051601f19603f83011681018181108582111715613bd157613bd161426a565b604052828152858101935084860182860187018a1015613bef578788fd5b8795505b83861015613c11578035855260019590950194938601938601613bf3565b5098975050505050505050565b600060208284031215613c2f578081fd5b815180151581146114dc578182fd5b600060208284031215613c4f578081fd5b5035919050565b60008060408385031215613c68578182fd5b823591506020830135613a1681614280565b600060208284031215613c8b578081fd5b81356001600160e01b0319811681146114dc578182fd5b600060208284031215613cb3578081fd5b5051919050565b600080600060608486031215613cce578081fd5b833592506020840135613ce081614280565b91506040840135613cf081614280565b809150509250925092565b60008060008060808587031215613d10578182fd5b84359350602085013592506040850135613d2981614280565b91506060850135613d3981614280565b939692955090935050565b600060208284031215613d55578081fd5b815163ffffffff811681146114dc578182fd5b600060208284031215613d79578081fd5b81356001600160401b03811681146114dc578182fd5b60008251613da18184602087016141f6565b9190910192915050565b76020b1b1b2b9b9a1b7b73a3937b61d1030b1b1b7bab73a1604d1b815260008351613ddd8160178501602088016141f6565b7001034b99036b4b9b9b4b733903937b6329607d1b6017918401918201528351613e0e8160288401602088016141f6565b01602801949350505050565b6001600160a01b0391909116815260200190565b6001600160a01b039384168152919092166020820152604081019190915260600190565b6001600160a01b03929092168252602082015260400190565b602080825282518282018190526000919060409081850190868401855b82811015613f2157815180518552868101518786015285810151868601526060808201516001600160401b039081169187019190915260808083015182169087015260a08083015182169087015260c08083015182169087015260e08083015190911690860152610100808201516001600160a01b03169086015261012090810151908501526101409093019290850190600101613e88565b5091979650505050505050565b6020815260008251806020840152613f4d8160408501602087016141f6565b601f01601f19169190910160400192915050565b6020808252600290820152615a4160f01b604082015260600190565b6020808252601b908201527f706f6f6c3a20616d6f756e742063616e6e6f74206265207a65726f0000000000604082015260600190565b6020808252602b908201527f496e697469616c697a61626c653a20636f6e7472616374206973206e6f74206960408201526a6e697469616c697a696e6760a81b606082015260800190565b6020808252602b908201527f4d75737420686176652061646d696e20726f6c6520746f20706572666f726d2060408201526a3a3434b99030b1ba34b7b760a91b606082015260800190565b6000821982111561405d5761405d614254565b500190565b60006001600160401b0380831681851680830382111561408457614084614254565b01949350505050565b6000826140a857634e487b7160e01b81526012600452602481fd5b500490565b600181815b808511156140e85781600019048211156140ce576140ce614254565b808516156140db57918102915b93841c93908002906140b2565b509250929050565b60006114dc838360008261410657506001610a5b565b8161411357506000610a5b565b816001811461412957600281146141335761414f565b6001915050610a5b565b60ff84111561414457614144614254565b50506001821b610a5b565b5060208310610133831016604e8410600b8410161715614172575081810a610a5b565b61417c83836140ad565b806000190482111561419057614190614254565b029392505050565b60008160001904831182151516156141b2576141b2614254565b500290565b6000828210156141c9576141c9614254565b500390565b60006001600160401b03838116908316818110156141ee576141ee614254565b039392505050565b60005b838110156142115781810151838201526020016141f9565b838111156118f95750506000910152565b60008161423157614231614254565b506000190190565b600060001982141561424d5761424d614254565b5060010190565b634e487b7160e01b600052601160045260246000fd5b634e487b7160e01b600052604160045260246000fd5b6001600160a01b03811681146114cd57600080fdfeb19546dff01e856fb3f010c267a7b1c60363cf8a4664e21cc89c26224620214e65d7a28e3265b37a6474929f336521b332c1681b933f6cb9f3376673440d862ad2e4c2619ea6e0faebc405d89445161c041e30fe03373ea0473da142d57d4514a264697066735822122036f6395dc942b9d5d3dac231cfdf2921cd93d4a2240fb7267e7650236960519c64736f6c63430008040033",
  "devdoc": {
    "kind": "dev",
    "methods": {
      "getRoleAdmin(bytes32)": {
        "details": "Returns the admin role that controls `role`. See {grantRole} and {revokeRole}. To change a role's admin, use {_setRoleAdmin}."
      },
      "getStakingAmountInUSD(address,uint256)": {
        "details": "Get Staking token amount in offered currencies",
        "params": {
          "_amount": "Amount of purchase token"
        },
        "returns": {
          "_0": "Return amount of respective IDO token"
        }
      },
      "grantRole(bytes32,address)": {
        "details": "Grants `role` to `account`. If `account` had not been already granted `role`, emits a {RoleGranted} event. Requirements: - the caller must have ``role``'s admin role. May emit a {RoleGranted} event."
      },
      "hasRole(bytes32,address)": {
        "details": "Returns `true` if `account` has been granted `role`."
      },
      "paused()": {
        "details": "Returns true if the contract is paused, and false otherwise."
      },
      "renounceRole(bytes32,address)": {
        "details": "Revokes `role` from the calling account. Roles are often managed via {grantRole} and {revokeRole}: this function's purpose is to provide a mechanism for accounts to lose their privileges if they are compromised (such as when a trusted device is misplaced). If the calling account had been revoked `role`, emits a {RoleRevoked} event. Requirements: - the caller must be `account`. May emit a {RoleRevoked} event."
      },
      "revokeRole(bytes32,address)": {
        "details": "Revokes `role` from `account`. If `account` had been granted `role`, emits a {RoleRevoked} event. Requirements: - the caller must have ``role``'s admin role. May emit a {RoleRevoked} event."
      },
      "supportsInterface(bytes4)": {
        "details": "See {IERC165-supportsInterface}."
      }
    },
    "version": 1
  },
  "userdoc": {
    "kind": "user",
    "methods": {
      "depositByVault(uint256,uint256,address,address)": {
        "notice": "----------------------------------- ---------- Core Function ---------- -----------------------------------"
      },
      "pause()": {
        "notice": "----------------------------------- --------- Pause Function ---------- -----------------------------------"
      },
      "setRoot(address)": {
        "notice": "----------------------------------- --------- Update Function --------- -----------------------------------"
      }
    },
    "version": 1
  },
  "storageLayout": {
    "storage": [
      {
        "astId": 415,
        "contract": "contracts/DGWStaking.sol:DGWStaking",
        "label": "_initialized",
        "offset": 0,
        "slot": "0",
        "type": "t_uint8"
      },
      {
        "astId": 418,
        "contract": "contracts/DGWStaking.sol:DGWStaking",
        "label": "_initializing",
        "offset": 1,
        "slot": "0",
        "type": "t_bool"
      },
      {
        "astId": 2044,
        "contract": "contracts/DGWStaking.sol:DGWStaking",
        "label": "__gap",
        "offset": 0,
        "slot": "1",
        "type": "t_array(t_uint256)50_storage"
      },
      {
        "astId": 2848,
        "contract": "contracts/DGWStaking.sol:DGWStaking",
        "label": "__gap",
        "offset": 0,
        "slot": "51",
        "type": "t_array(t_uint256)50_storage"
      },
      {
        "astId": 39,
        "contract": "contracts/DGWStaking.sol:DGWStaking",
        "label": "_roles",
        "offset": 0,
        "slot": "101",
        "type": "t_mapping(t_bytes32,t_struct(RoleData)34_storage)"
      },
      {
        "astId": 334,
        "contract": "contracts/DGWStaking.sol:DGWStaking",
        "label": "__gap",
        "offset": 0,
        "slot": "102",
        "type": "t_array(t_uint256)49_storage"
      },
      {
        "astId": 598,
        "contract": "contracts/DGWStaking.sol:DGWStaking",
        "label": "_paused",
        "offset": 0,
        "slot": "151",
        "type": "t_bool"
      },
      {
        "astId": 703,
        "contract": "contracts/DGWStaking.sol:DGWStaking",
        "label": "__gap",
        "offset": 0,
        "slot": "152",
        "type": "t_array(t_uint256)49_storage"
      },
      {
        "astId": 718,
        "contract": "contracts/DGWStaking.sol:DGWStaking",
        "label": "_status",
        "offset": 0,
        "slot": "201",
        "type": "t_uint256"
      },
      {
        "astId": 776,
        "contract": "contracts/DGWStaking.sol:DGWStaking",
        "label": "__gap",
        "offset": 0,
        "slot": "202",
        "type": "t_array(t_uint256)49_storage"
      },
      {
        "astId": 4665,
        "contract": "contracts/DGWStaking.sol:DGWStaking",
        "label": "__gap1",
        "offset": 0,
        "slot": "251",
        "type": "t_array(t_uint256)50_storage"
      },
      {
        "astId": 4669,
        "contract": "contracts/DGWStaking.sol:DGWStaking",
        "label": "__gap2",
        "offset": 0,
        "slot": "301",
        "type": "t_array(t_uint256)50_storage"
      },
      {
        "astId": 4673,
        "contract": "contracts/DGWStaking.sol:DGWStaking",
        "label": "__gap3",
        "offset": 0,
        "slot": "351",
        "type": "t_array(t_uint256)50_storage"
      },
      {
        "astId": 4677,
        "contract": "contracts/DGWStaking.sol:DGWStaking",
        "label": "__gap4",
        "offset": 0,
        "slot": "401",
        "type": "t_array(t_uint256)50_storage"
      },
      {
        "astId": 7266,
        "contract": "contracts/DGWStaking.sol:DGWStaking",
        "label": "rewardToken",
        "offset": 0,
        "slot": "451",
        "type": "t_contract(IERC20WithBurn)10694"
      },
      {
        "astId": 7269,
        "contract": "contracts/DGWStaking.sol:DGWStaking",
        "label": "extraRewardToken",
        "offset": 0,
        "slot": "452",
        "type": "t_contract(IERC20WithBurn)10694"
      },
      {
        "astId": 7272,
        "contract": "contracts/DGWStaking.sol:DGWStaking",
        "label": "DDXVault",
        "offset": 0,
        "slot": "453",
        "type": "t_contract(IDDXVault)10656"
      },
      {
        "astId": 7275,
        "contract": "contracts/DGWStaking.sol:DGWStaking",
        "label": "vault",
        "offset": 0,
        "slot": "454",
        "type": "t_contract(IDWVault)10659"
      },
      {
        "astId": 7278,
        "contract": "contracts/DGWStaking.sol:DGWStaking",
        "label": "DDXStaking",
        "offset": 0,
        "slot": "455",
        "type": "t_contract(IDDXStaking)10636"
      },
      {
        "astId": 7280,
        "contract": "contracts/DGWStaking.sol:DGWStaking",
        "label": "treasury",
        "offset": 0,
        "slot": "456",
        "type": "t_address"
      },
      {
        "astId": 7282,
        "contract": "contracts/DGWStaking.sol:DGWStaking",
        "label": "admin",
        "offset": 0,
        "slot": "457",
        "type": "t_address"
      },
      {
        "astId": 7284,
        "contract": "contracts/DGWStaking.sol:DGWStaking",
        "label": "totalStakingContracts",
        "offset": 0,
        "slot": "458",
        "type": "t_uint256"
      },
      {
        "astId": 7286,
        "contract": "contracts/DGWStaking.sol:DGWStaking",
        "label": "totalStaked",
        "offset": 0,
        "slot": "459",
        "type": "t_uint256"
      },
      {
        "astId": 7288,
        "contract": "contracts/DGWStaking.sol:DGWStaking",
        "label": "minimumStakingAmountInUSD",
        "offset": 0,
        "slot": "460",
        "type": "t_uint256"
      },
      {
        "astId": 7290,
        "contract": "contracts/DGWStaking.sol:DGWStaking",
        "label": "maximumEarningsInPercent",
        "offset": 0,
        "slot": "461",
        "type": "t_uint256"
      },
      {
        "astId": 7292,
        "contract": "contracts/DGWStaking.sol:DGWStaking",
        "label": "claimDuration",
        "offset": 0,
        "slot": "462",
        "type": "t_uint64"
      },
      {
        "astId": 7294,
        "contract": "contracts/DGWStaking.sol:DGWStaking",
        "label": "directInterest",
        "offset": 0,
        "slot": "463",
        "type": "t_uint256"
      },
      {
        "astId": 7298,
        "contract": "contracts/DGWStaking.sol:DGWStaking",
        "label": "commissionInterestLevels",
        "offset": 0,
        "slot": "464",
        "type": "t_array(t_uint256)9_storage"
      },
      {
        "astId": 7300,
        "contract": "contracts/DGWStaking.sol:DGWStaking",
        "label": "emergencyCancelled",
        "offset": 0,
        "slot": "473",
        "type": "t_bool"
      },
      {
        "astId": 7305,
        "contract": "contracts/DGWStaking.sol:DGWStaking",
        "label": "offeredCurrencies",
        "offset": 0,
        "slot": "474",
        "type": "t_mapping(t_address,t_struct(OfferedCurrency)7250_storage)"
      },
      {
        "astId": 7309,
        "contract": "contracts/DGWStaking.sol:DGWStaking",
        "label": "directBonus",
        "offset": 0,
        "slot": "475",
        "type": "t_mapping(t_address,t_uint256)"
      },
      {
        "astId": 7314,
        "contract": "contracts/DGWStaking.sol:DGWStaking",
        "label": "allowedStakeTokens",
        "offset": 0,
        "slot": "476",
        "type": "t_mapping(t_address,t_struct(StakeToken)7245_storage)"
      },
      {
        "astId": 7318,
        "contract": "contracts/DGWStaking.sol:DGWStaking",
        "label": "assetPrices",
        "offset": 0,
        "slot": "477",
        "type": "t_mapping(t_address,t_address)"
      },
      {
        "astId": 7322,
        "contract": "contracts/DGWStaking.sol:DGWStaking",
        "label": "totalReferralInvitations",
        "offset": 0,
        "slot": "478",
        "type": "t_mapping(t_address,t_uint256)"
      },
      {
        "astId": 7326,
        "contract": "contracts/DGWStaking.sol:DGWStaking",
        "label": "referredBy",
        "offset": 0,
        "slot": "479",
        "type": "t_mapping(t_address,t_address)"
      },
      {
        "astId": 7331,
        "contract": "contracts/DGWStaking.sol:DGWStaking",
        "label": "stakingContracts",
        "offset": 0,
        "slot": "480",
        "type": "t_mapping(t_uint256,t_struct(StakingInfo)7242_storage)"
      },
      {
        "astId": 7335,
        "contract": "contracts/DGWStaking.sol:DGWStaking",
        "label": "stakingContractOwnedBy",
        "offset": 0,
        "slot": "481",
        "type": "t_mapping(t_uint256,t_address)"
      },
      {
        "astId": 7339,
        "contract": "contracts/DGWStaking.sol:DGWStaking",
        "label": "couldBecomeReferrer",
        "offset": 0,
        "slot": "482",
        "type": "t_mapping(t_address,t_bool)"
      },
      {
        "astId": 7341,
        "contract": "contracts/DGWStaking.sol:DGWStaking",
        "label": "fundReceiver",
        "offset": 0,
        "slot": "483",
        "type": "t_address"
      },
      {
        "astId": 7343,
        "contract": "contracts/DGWStaking.sol:DGWStaking",
        "label": "root",
        "offset": 0,
        "slot": "484",
        "type": "t_address"
      }
    ],
    "types": {
      "t_address": {
        "encoding": "inplace",
        "label": "address",
        "numberOfBytes": "20"
      },
      "t_array(t_uint256)49_storage": {
        "base": "t_uint256",
        "encoding": "inplace",
        "label": "uint256[49]",
        "numberOfBytes": "1568"
      },
      "t_array(t_uint256)50_storage": {
        "base": "t_uint256",
        "encoding": "inplace",
        "label": "uint256[50]",
        "numberOfBytes": "1600"
      },
      "t_array(t_uint256)9_storage": {
        "base": "t_uint256",
        "encoding": "inplace",
        "label": "uint256[9]",
        "numberOfBytes": "288"
      },
      "t_bool": {
        "encoding": "inplace",
        "label": "bool",
        "numberOfBytes": "1"
      },
      "t_bytes32": {
        "encoding": "inplace",
        "label": "bytes32",
        "numberOfBytes": "32"
      },
      "t_contract(IDDXStaking)10636": {
        "encoding": "inplace",
        "label": "contract IDDXStaking",
        "numberOfBytes": "20"
      },
      "t_contract(IDDXVault)10656": {
        "encoding": "inplace",
        "label": "contract IDDXVault",
        "numberOfBytes": "20"
      },
      "t_contract(IDWVault)10659": {
        "encoding": "inplace",
        "label": "contract IDWVault",
        "numberOfBytes": "20"
      },
      "t_contract(IERC20WithBurn)10694": {
        "encoding": "inplace",
        "label": "contract IERC20WithBurn",
        "numberOfBytes": "20"
      },
      "t_mapping(t_address,t_address)": {
        "encoding": "mapping",
        "key": "t_address",
        "label": "mapping(address => address)",
        "numberOfBytes": "32",
        "value": "t_address"
      },
      "t_mapping(t_address,t_bool)": {
        "encoding": "mapping",
        "key": "t_address",
        "label": "mapping(address => bool)",
        "numberOfBytes": "32",
        "value": "t_bool"
      },
      "t_mapping(t_address,t_struct(OfferedCurrency)7250_storage)": {
        "encoding": "mapping",
        "key": "t_address",
        "label": "mapping(address => struct DGWStaking.OfferedCurrency)",
        "numberOfBytes": "32",
        "value": "t_struct(OfferedCurrency)7250_storage"
      },
      "t_mapping(t_address,t_struct(StakeToken)7245_storage)": {
        "encoding": "mapping",
        "key": "t_address",
        "label": "mapping(address => struct DGWStaking.StakeToken)",
        "numberOfBytes": "32",
        "value": "t_struct(StakeToken)7245_storage"
      },
      "t_mapping(t_address,t_uint256)": {
        "encoding": "mapping",
        "key": "t_address",
        "label": "mapping(address => uint256)",
        "numberOfBytes": "32",
        "value": "t_uint256"
      },
      "t_mapping(t_bytes32,t_struct(RoleData)34_storage)": {
        "encoding": "mapping",
        "key": "t_bytes32",
        "label": "mapping(bytes32 => struct AccessControlUpgradeable.RoleData)",
        "numberOfBytes": "32",
        "value": "t_struct(RoleData)34_storage"
      },
      "t_mapping(t_uint256,t_address)": {
        "encoding": "mapping",
        "key": "t_uint256",
        "label": "mapping(uint256 => address)",
        "numberOfBytes": "32",
        "value": "t_address"
      },
      "t_mapping(t_uint256,t_struct(StakingInfo)7242_storage)": {
        "encoding": "mapping",
        "key": "t_uint256",
        "label": "mapping(uint256 => struct DGWStaking.StakingInfo)",
        "numberOfBytes": "32",
        "value": "t_struct(StakingInfo)7242_storage"
      },
      "t_struct(OfferedCurrency)7250_storage": {
        "encoding": "inplace",
        "label": "struct DGWStaking.OfferedCurrency",
        "members": [
          {
            "astId": 7247,
            "contract": "contracts/DGWStaking.sol:DGWStaking",
            "label": "decimal",
            "offset": 0,
            "slot": "0",
            "type": "t_uint256"
          },
          {
            "astId": 7249,
            "contract": "contracts/DGWStaking.sol:DGWStaking",
            "label": "rate",
            "offset": 0,
            "slot": "1",
            "type": "t_uint256"
          }
        ],
        "numberOfBytes": "64"
      },
      "t_struct(RoleData)34_storage": {
        "encoding": "inplace",
        "label": "struct AccessControlUpgradeable.RoleData",
        "members": [
          {
            "astId": 31,
            "contract": "contracts/DGWStaking.sol:DGWStaking",
            "label": "members",
            "offset": 0,
            "slot": "0",
            "type": "t_mapping(t_address,t_bool)"
          },
          {
            "astId": 33,
            "contract": "contracts/DGWStaking.sol:DGWStaking",
            "label": "adminRole",
            "offset": 0,
            "slot": "1",
            "type": "t_bytes32"
          }
        ],
        "numberOfBytes": "64"
      },
      "t_struct(StakeToken)7245_storage": {
        "encoding": "inplace",
        "label": "struct DGWStaking.StakeToken",
        "members": [
          {
            "astId": 7244,
            "contract": "contracts/DGWStaking.sol:DGWStaking",
            "label": "created",
            "offset": 0,
            "slot": "0",
            "type": "t_bool"
          }
        ],
        "numberOfBytes": "32"
      },
      "t_struct(StakingInfo)7242_storage": {
        "encoding": "inplace",
        "label": "struct DGWStaking.StakingInfo",
        "members": [
          {
            "astId": 7223,
            "contract": "contracts/DGWStaking.sol:DGWStaking",
            "label": "totalExpectedInterest",
            "offset": 0,
            "slot": "0",
            "type": "t_uint256"
          },
          {
            "astId": 7225,
            "contract": "contracts/DGWStaking.sol:DGWStaking",
            "label": "totalStakesInUSD",
            "offset": 0,
            "slot": "1",
            "type": "t_uint256"
          },
          {
            "astId": 7227,
            "contract": "contracts/DGWStaking.sol:DGWStaking",
            "label": "claimedInterest",
            "offset": 0,
            "slot": "2",
            "type": "t_uint256"
          },
          {
            "astId": 7229,
            "contract": "contracts/DGWStaking.sol:DGWStaking",
            "label": "claimDuration",
            "offset": 0,
            "slot": "3",
            "type": "t_uint64"
          },
          {
            "astId": 7231,
            "contract": "contracts/DGWStaking.sol:DGWStaking",
            "label": "dueDate",
            "offset": 8,
            "slot": "3",
            "type": "t_uint64"
          },
          {
            "astId": 7233,
            "contract": "contracts/DGWStaking.sol:DGWStaking",
            "label": "lastClaimedTime",
            "offset": 16,
            "slot": "3",
            "type": "t_uint64"
          },
          {
            "astId": 7235,
            "contract": "contracts/DGWStaking.sol:DGWStaking",
            "label": "lastUpdatedTime",
            "offset": 24,
            "slot": "3",
            "type": "t_uint64"
          },
          {
            "astId": 7237,
            "contract": "contracts/DGWStaking.sol:DGWStaking",
            "label": "createdAt",
            "offset": 0,
            "slot": "4",
            "type": "t_uint64"
          },
          {
            "astId": 7239,
            "contract": "contracts/DGWStaking.sol:DGWStaking",
            "label": "stakeToken",
            "offset": 8,
            "slot": "4",
            "type": "t_address"
          },
          {
            "astId": 7241,
            "contract": "contracts/DGWStaking.sol:DGWStaking",
            "label": "totalStakesInToken",
            "offset": 0,
            "slot": "5",
            "type": "t_uint256"
          }
        ],
        "numberOfBytes": "192"
      },
      "t_uint256": {
        "encoding": "inplace",
        "label": "uint256",
        "numberOfBytes": "32"
      },
      "t_uint64": {
        "encoding": "inplace",
        "label": "uint64",
        "numberOfBytes": "8"
      },
      "t_uint8": {
        "encoding": "inplace",
        "label": "uint8",
        "numberOfBytes": "1"
      }
    }
  }
}