{
  "address": "0xd438201B1BAAF7fdA18E378c604752c8b7bBDE6F",
  "abi": [
    {
      "anonymous": false,
      "inputs": [
        {
          "indexed": false,
          "internalType": "uint8",
          "name": "version",
          "type": "uint8"
        }
      ],
      "name": "Initialized",
      "type": "event"
    },
    {
      "anonymous": false,
      "inputs": [
        {
          "indexed": false,
          "internalType": "address",
          "name": "account",
          "type": "address"
        }
      ],
      "name": "Paused",
      "type": "event"
    },
    {
      "anonymous": false,
      "inputs": [
        {
          "indexed": true,
          "internalType": "bytes32",
          "name": "role",
          "type": "bytes32"
        },
        {
          "indexed": true,
          "internalType": "bytes32",
          "name": "previousAdminRole",
          "type": "bytes32"
        },
        {
          "indexed": true,
          "internalType": "bytes32",
          "name": "newAdminRole",
          "type": "bytes32"
        }
      ],
      "name": "RoleAdminChanged",
      "type": "event"
    },
    {
      "anonymous": false,
      "inputs": [
        {
          "indexed": true,
          "internalType": "bytes32",
          "name": "role",
          "type": "bytes32"
        },
        {
          "indexed": true,
          "internalType": "address",
          "name": "account",
          "type": "address"
        },
        {
          "indexed": true,
          "internalType": "address",
          "name": "sender",
          "type": "address"
        }
      ],
      "name": "RoleGranted",
      "type": "event"
    },
    {
      "anonymous": false,
      "inputs": [
        {
          "indexed": true,
          "internalType": "bytes32",
          "name": "role",
          "type": "bytes32"
        },
        {
          "indexed": true,
          "internalType": "address",
          "name": "account",
          "type": "address"
        },
        {
          "indexed": true,
          "internalType": "address",
          "name": "sender",
          "type": "address"
        }
      ],
      "name": "RoleRevoked",
      "type": "event"
    },
    {
      "anonymous": false,
      "inputs": [
        {
          "indexed": false,
          "internalType": "address",
          "name": "account",
          "type": "address"
        }
      ],
      "name": "Unpaused",
      "type": "event"
    },
    {
      "inputs": [],
      "name": "DEFAULT_ADMIN_ROLE",
      "outputs": [
        {
          "internalType": "bytes32",
          "name": "",
          "type": "bytes32"
        }
      ],
      "stateMutability": "view",
      "type": "function"
    },
    {
      "inputs": [],
      "name": "DWStaking",
      "outputs": [
        {
          "internalType": "contract IDChainStaking",
          "name": "",
          "type": "address"
        }
      ],
      "stateMutability": "view",
      "type": "function"
    },
    {
      "inputs": [],
      "name": "OWNER_ROLE",
      "outputs": [
        {
          "internalType": "bytes32",
          "name": "",
          "type": "bytes32"
        }
      ],
      "stateMutability": "view",
      "type": "function"
    },
    {
      "inputs": [],
      "name": "PAUSER_ROLE",
      "outputs": [
        {
          "internalType": "bytes32",
          "name": "",
          "type": "bytes32"
        }
      ],
      "stateMutability": "view",
      "type": "function"
    },
    {
      "inputs": [],
      "name": "SUB_ADMIN_ROLE",
      "outputs": [
        {
          "internalType": "bytes32",
          "name": "",
          "type": "bytes32"
        }
      ],
      "stateMutability": "view",
      "type": "function"
    },
    {
      "inputs": [
        {
          "internalType": "address",
          "name": "owner",
          "type": "address"
        }
      ],
      "name": "__DChainBase_init",
      "outputs": [],
      "stateMutability": "nonpayable",
      "type": "function"
    },
    {
      "inputs": [
        {
          "internalType": "bytes32",
          "name": "role",
          "type": "bytes32"
        }
      ],
      "name": "getRoleAdmin",
      "outputs": [
        {
          "internalType": "bytes32",
          "name": "",
          "type": "bytes32"
        }
      ],
      "stateMutability": "view",
      "type": "function"
    },
    {
      "inputs": [
        {
          "internalType": "bytes32",
          "name": "role",
          "type": "bytes32"
        },
        {
          "internalType": "address",
          "name": "account",
          "type": "address"
        }
      ],
      "name": "grantRole",
      "outputs": [],
      "stateMutability": "nonpayable",
      "type": "function"
    },
    {
      "inputs": [
        {
          "internalType": "bytes32",
          "name": "role",
          "type": "bytes32"
        },
        {
          "internalType": "address",
          "name": "account",
          "type": "address"
        }
      ],
      "name": "hasRole",
      "outputs": [
        {
          "internalType": "bool",
          "name": "",
          "type": "bool"
        }
      ],
      "stateMutability": "view",
      "type": "function"
    },
    {
      "inputs": [
        {
          "internalType": "address",
          "name": "_owner",
          "type": "address"
        },
        {
          "internalType": "address",
          "name": "_treasury",
          "type": "address"
        },
        {
          "internalType": "contract IERC20WithBurn",
          "name": "_rewardToken",
          "type": "address"
        },
        {
          "internalType": "contract IERC20WithBurn",
          "name": "_usdt",
          "type": "address"
        }
      ],
      "name": "initialize",
      "outputs": [],
      "stateMutability": "nonpayable",
      "type": "function"
    },
    {
      "inputs": [],
      "name": "isAdmin",
      "outputs": [
        {
          "internalType": "bool",
          "name": "",
          "type": "bool"
        }
      ],
      "stateMutability": "view",
      "type": "function"
    },
    {
      "inputs": [],
      "name": "pause",
      "outputs": [],
      "stateMutability": "nonpayable",
      "type": "function"
    },
    {
      "inputs": [],
      "name": "paused",
      "outputs": [
        {
          "internalType": "bool",
          "name": "",
          "type": "bool"
        }
      ],
      "stateMutability": "view",
      "type": "function"
    },
    {
      "inputs": [
        {
          "internalType": "bytes32",
          "name": "role",
          "type": "bytes32"
        },
        {
          "internalType": "address",
          "name": "account",
          "type": "address"
        }
      ],
      "name": "renounceRole",
      "outputs": [],
      "stateMutability": "nonpayable",
      "type": "function"
    },
    {
      "inputs": [
        {
          "internalType": "bytes32",
          "name": "role",
          "type": "bytes32"
        },
        {
          "internalType": "address",
          "name": "account",
          "type": "address"
        }
      ],
      "name": "revokeRole",
      "outputs": [],
      "stateMutability": "nonpayable",
      "type": "function"
    },
    {
      "inputs": [],
      "name": "rewardToken",
      "outputs": [
        {
          "internalType": "contract IERC20WithBurn",
          "name": "",
          "type": "address"
        }
      ],
      "stateMutability": "view",
      "type": "function"
    },
    {
      "inputs": [
        {
          "internalType": "contract IERC20WithBurn",
          "name": "_rewardToken",
          "type": "address"
        }
      ],
      "name": "setRewardToken",
      "outputs": [],
      "stateMutability": "nonpayable",
      "type": "function"
    },
    {
      "inputs": [
        {
          "internalType": "address",
          "name": "_treasury",
          "type": "address"
        }
      ],
      "name": "setTreasury",
      "outputs": [],
      "stateMutability": "nonpayable",
      "type": "function"
    },
    {
      "inputs": [
        {
          "internalType": "contract IERC20WithBurn",
          "name": "_usdt",
          "type": "address"
        }
      ],
      "name": "setUSDT",
      "outputs": [],
      "stateMutability": "nonpayable",
      "type": "function"
    },
    {
      "inputs": [
        {
          "internalType": "bytes4",
          "name": "interfaceId",
          "type": "bytes4"
        }
      ],
      "name": "supportsInterface",
      "outputs": [
        {
          "internalType": "bool",
          "name": "",
          "type": "bool"
        }
      ],
      "stateMutability": "view",
      "type": "function"
    },
    {
      "inputs": [
        {
          "internalType": "address[2]",
          "name": "_path",
          "type": "address[2]"
        },
        {
          "internalType": "enum DGWSwap.SwapType",
          "name": "_type",
          "type": "uint8"
        },
        {
          "internalType": "uint256",
          "name": "_amount",
          "type": "uint256"
        }
      ],
      "name": "swap",
      "outputs": [],
      "stateMutability": "nonpayable",
      "type": "function"
    },
    {
      "inputs": [],
      "name": "unpause",
      "outputs": [],
      "stateMutability": "nonpayable",
      "type": "function"
    },
    {
      "inputs": [],
      "name": "usdt",
      "outputs": [
        {
          "internalType": "contract IERC20WithBurn",
          "name": "",
          "type": "address"
        }
      ],
      "stateMutability": "view",
      "type": "function"
    }
  ],
  "transactionHash": "0xdf1f926cce9a19f2680224d55aaf9120c1281a906a93a175138ebacb3df30d7f",
  "args": [],
  "solcInputHash": "d9e3e00f9de3aca69e5e34b453e2bc60",
  "bytecode": "0x608060405234801561001057600080fd5b5061189c806100206000396000f3fe608060405234801561001057600080fd5b506004361061014d5760003560e01c80638456cb59116100c3578063d547741f1161007c578063d547741f146102b2578063e58378bb146102c5578063e63ab1e9146102da578063f0f44260146102ef578063f7c618c114610302578063f8c8765e1461031657600080fd5b80638456cb59146102615780638aee8127146102695780638dbe2d6c1461027c57806391d148541461028f578063a217fddf146102a2578063b6db75a0146102aa57600080fd5b806336568abe1161011557806336568abe146102015780633f4ba83a1461021457806350c1b9231461021c5780635c975abb1461022f57806362d6306f1461023a5780636a736cea1461024d57600080fd5b806301ffc9a714610152578063022f23541461017a578063248a9ca31461019d5780632f2ff15d146101c05780632f48ab7d146101d5575b600080fd5b61016561016036600461159b565b610329565b60405190151581526020015b60405180910390f35b61018f60008051602061184783398151915281565b604051908152602001610171565b61018f6101ab366004611554565b60009081526065602052604090206001015490565b6101d36101ce36600461156c565b610360565b005b6101c5546101e9906001600160a01b031681565b6040516001600160a01b039091168152602001610171565b6101d361020f36600461156c565b61038a565b6101d361040d565b6101d361022a366004611417565b610430565b60975460ff16610165565b6101d3610248366004611417565b610477565b6101c3546101e9906001600160a01b031681565b6101d36105a0565b6101d3610277366004611417565b6105c0565b6101d361028a36600461148e565b610607565b61016561029d36600461156c565b610948565b61018f600081565b610165610973565b6101d36102c036600461156c565b610992565b61018f60008051602061180783398151915281565b61018f60008051602061182783398151915281565b6101d36102fd366004611417565b6109b7565b6101c4546101e9906001600160a01b031681565b6101d3610324366004611433565b6109fe565b60006001600160e01b03198216637965db0b60e01b148061035a57506301ffc9a760e01b6001600160e01b03198316145b92915050565b60008281526065602052604090206001015461037b81610b9f565b6103858383610ba9565b505050565b6001600160a01b03811633146103ff5760405162461bcd60e51b815260206004820152602f60248201527f416363657373436f6e74726f6c3a2063616e206f6e6c792072656e6f756e636560448201526e103937b632b9903337b91039b2b63360891b60648201526084015b60405180910390fd5b6104098282610c2f565b5050565b60008051602061184783398151915261042581610b9f565b61042d610c96565b50565b610438610973565b6104545760405162461bcd60e51b81526004016103f690611700565b6101c580546001600160a01b0319166001600160a01b0392909216919091179055565b600054610100900460ff1661049e5760405162461bcd60e51b81526004016103f6906116b5565b6001600160a01b0381166104f45760405162461bcd60e51b815260206004820181905260248201527f4f776e65722063616e6e6f7420626520746865207a65726f206164647265737360448201526064016103f6565b6104fc610ce8565b610504610d11565b61050c610d40565b61052460008051602061180783398151915282610d6f565b61053c60008051602061182783398151915282610d6f565b610562600080516020611847833981519152600080516020611807833981519152610d79565b610588600080516020611827833981519152600080516020611807833981519152610d79565b61042d60008051602061180783398151915280610d79565b6000805160206118478339815191526105b881610b9f565b61042d610dc4565b6105c8610973565b6105e45760405162461bcd60e51b81526004016103f690611700565b6101c480546001600160a01b0319166001600160a01b0392909216919091179055565b61060f610e01565b6101c454835160009182916001600160a01b0390811691161415610699576101c5546001600160a01b03168560015b60200201516001600160a01b0316146106945760405162461bcd60e51b8152602060048201526018602482015277151bdad95b881bdd5d1c1d5d081b9bdd081b585d18da195960421b60448201526064016103f6565b6106c7565b6101c55485516001600160a01b039081169116141561014d576101c4546001600160a01b031685600161063e565b60008460018111156106e957634e487b7160e01b600052602160045260246000fd5b14156107cd576101c45485518493506001600160a01b039081169116141561079b576101c35485516040516320e485d760e11b81526001600160a01b039182166004820152602481018690529116906341c90bae906044015b602060405180830381600087803b15801561075c57600080fd5b505af1158015610770573d6000803e3d6000fd5b505050506040513d601f19601f8201168201806040525081019061079491906115c3565b90506108fa565b6101c35460405163688cd84560e01b8152600481018590526001600160a01b039091169063688cd84590602401610742565b506101c454845183916001600160a01b039182169116141561086f576101c35460405163688cd84560e01b8152600481018590526001600160a01b039091169063688cd84590602401602060405180830381600087803b15801561083057600080fd5b505af1158015610844573d6000803e3d6000fd5b505050506040513d601f19601f8201168201806040525081019061086891906115c3565b91506108fa565b6101c35485516040516320e485d760e11b81526001600160a01b039182166004820152602481018690529116906341c90bae90604401602060405180830381600087803b1580156108bf57600080fd5b505af11580156108d3573d6000803e3d6000fd5b505050506040513d601f19601f820116820180604052508101906108f791906115c3565b91505b61091a336101c6546101c4546001600160a01b0390811692911685610e47565b6101c654610941906001600160a01b0316336101c4546001600160a01b0316919084610e47565b5050505050565b60009182526065602090815260408084206001600160a01b0393909316845291905290205460ff1690565b600061098d60008051602061180783398151915233610948565b905090565b6000828152606560205260409020600101546109ad81610b9f565b6103858383610c2f565b6109bf610973565b6109db5760405162461bcd60e51b81526004016103f690611700565b6101c680546001600160a01b0319166001600160a01b0392909216919091179055565b600054610100900460ff1615808015610a1e5750600054600160ff909116105b80610a385750303b158015610a38575060005460ff166001145b610a9b5760405162461bcd60e51b815260206004820152602e60248201527f496e697469616c697a61626c653a20636f6e747261637420697320616c72656160448201526d191e481a5b9a5d1a585b1a5e995960921b60648201526084016103f6565b6000805460ff191660011790558015610abe576000805461ff0019166101001790555b610ac785610477565b6001600160a01b038316610aed5760405162461bcd60e51b81526004016103f690611699565b6001600160a01b038416610b135760405162461bcd60e51b81526004016103f690611699565b6101c680546001600160a01b038087166001600160a01b0319928316179092556101c480548684169083161790556101c58054928516929091169190911790558015610941576000805461ff0019169055604051600181527f7f26b83ff96e1f2b6a682f133852f6798a09c465da95921460cefb38474024989060200160405180910390a15050505050565b61042d8133610ea7565b610bb38282610948565b6104095760008281526065602090815260408083206001600160a01b03851684529091529020805460ff19166001179055610beb3390565b6001600160a01b0316816001600160a01b0316837f2f8788117e7eff1d82e926ec794901d17c78024a50270940304540a733656f0d60405160405180910390a45050565b610c398282610948565b156104095760008281526065602090815260408083206001600160a01b0385168085529252808320805460ff1916905551339285917ff6391f5c32d9c69d2a47ea670b442974b53935d1edc7fd64eb21e047a839171b9190a45050565b610c9e610f00565b6097805460ff191690557f5db9ee0a495bf2e6ff9c91a7834c1ba4fdd244a5e8aa4e537bd38aeae4b073aa335b6040516001600160a01b03909116815260200160405180910390a1565b600054610100900460ff16610d0f5760405162461bcd60e51b81526004016103f6906116b5565b565b600054610100900460ff16610d385760405162461bcd60e51b81526004016103f6906116b5565b610d0f610f49565b600054610100900460ff16610d675760405162461bcd60e51b81526004016103f6906116b5565b610d0f610f7c565b6104098282610ba9565b600082815260656020526040808220600101805490849055905190918391839186917fbd79b86ffe0ab8e8776151514217cd7cacd52c909f66475c3af44e129f0b00ff9190a4505050565b610dcc610e01565b6097805460ff191660011790557f62e78cea01bee320cd4e420270b5ea74000d11b0c9f74754ebdbfc544b05a258610ccb3390565b60975460ff1615610d0f5760405162461bcd60e51b815260206004820152601060248201526f14185d5cd8589b194e881c185d5cd95960821b60448201526064016103f6565b604080516001600160a01b0385811660248301528416604482015260648082018490528251808303909101815260849091019091526020810180516001600160e01b03166323b872dd60e01b179052610ea1908590610faa565b50505050565b610eb18282610948565b61040957610ebe8161107c565b610ec983602061108e565b604051602001610eda9291906115f7565b60408051601f198184030181529082905262461bcd60e51b82526103f691600401611666565b60975460ff16610d0f5760405162461bcd60e51b815260206004820152601460248201527314185d5cd8589b194e881b9bdd081c185d5cd95960621b60448201526064016103f6565b600054610100900460ff16610f705760405162461bcd60e51b81526004016103f6906116b5565b6097805460ff19169055565b600054610100900460ff16610fa35760405162461bcd60e51b81526004016103f6906116b5565b600160c955565b6000610fff826040518060400160405280602081526020017f5361666545524332303a206c6f772d6c6576656c2063616c6c206661696c6564815250856001600160a01b03166112779092919063ffffffff16565b805190915015610385578080602001905181019061101d9190611534565b6103855760405162461bcd60e51b815260206004820152602a60248201527f5361666545524332303a204552433230206f7065726174696f6e20646964206e6044820152691bdd081cdd58d8d9595960b21b60648201526084016103f6565b606061035a6001600160a01b03831660145b6060600061109d836002611763565b6110a890600261174b565b67ffffffffffffffff8111156110ce57634e487b7160e01b600052604160045260246000fd5b6040519080825280601f01601f1916602001820160405280156110f8576020820181803683370190505b509050600360fc1b8160008151811061112157634e487b7160e01b600052603260045260246000fd5b60200101906001600160f81b031916908160001a905350600f60fb1b8160018151811061115e57634e487b7160e01b600052603260045260246000fd5b60200101906001600160f81b031916908160001a9053506000611182846002611763565b61118d90600161174b565b90505b6001811115611221576f181899199a1a9b1b9c1cb0b131b232b360811b85600f16601081106111cf57634e487b7160e01b600052603260045260246000fd5b1a60f81b8282815181106111f357634e487b7160e01b600052603260045260246000fd5b60200101906001600160f81b031916908160001a90535060049490941c9361121a816117ae565b9050611190565b5083156112705760405162461bcd60e51b815260206004820181905260248201527f537472696e67733a20686578206c656e67746820696e73756666696369656e7460448201526064016103f6565b9392505050565b6060611286848460008561128e565b949350505050565b6060824710156112ef5760405162461bcd60e51b815260206004820152602660248201527f416464726573733a20696e73756666696369656e742062616c616e636520666f6044820152651c8818d85b1b60d21b60648201526084016103f6565b6001600160a01b0385163b6113465760405162461bcd60e51b815260206004820152601d60248201527f416464726573733a2063616c6c20746f206e6f6e2d636f6e747261637400000060448201526064016103f6565b600080866001600160a01b0316858760405161136291906115db565b60006040518083038185875af1925050503d806000811461139f576040519150601f19603f3d011682016040523d82523d6000602084013e6113a4565b606091505b50915091506113b48282866113bf565b979650505050505050565b606083156113ce575081611270565b8251156113de5782518084602001fd5b8160405162461bcd60e51b81526004016103f69190611666565b8035611403816117f1565b919050565b80356002811061140357600080fd5b600060208284031215611428578081fd5b8135611270816117f1565b60008060008060808587031215611448578283fd5b8435611453816117f1565b93506020850135611463816117f1565b92506040850135611473816117f1565b91506060850135611483816117f1565b939692955090935050565b6000806000608084860312156114a2578283fd5b84601f8501126114b0578283fd5b6040516040810181811067ffffffffffffffff821117156114d3576114d36117db565b8060405250808560408701888111156114ea578687fd5b865b6002811015611513576114fe836113f8565b845260209384019392909201916001016114ec565b5083965061152081611408565b955050505050606084013590509250925092565b600060208284031215611545578081fd5b81518015158114611270578182fd5b600060208284031215611565578081fd5b5035919050565b6000806040838503121561157e578182fd5b823591506020830135611590816117f1565b809150509250929050565b6000602082840312156115ac578081fd5b81356001600160e01b031981168114611270578182fd5b6000602082840312156115d4578081fd5b5051919050565b600082516115ed818460208701611782565b9190910192915050565b76020b1b1b2b9b9a1b7b73a3937b61d1030b1b1b7bab73a1604d1b815260008351611629816017850160208801611782565b7001034b99036b4b9b9b4b733903937b6329607d1b601791840191820152835161165a816028840160208801611782565b01602801949350505050565b6020815260008251806020840152611685816040850160208701611782565b601f01601f19169190910160400192915050565b6020808252600290820152615a4160f01b604082015260600190565b6020808252602b908201527f496e697469616c697a61626c653a20636f6e7472616374206973206e6f74206960408201526a6e697469616c697a696e6760a81b606082015260800190565b6020808252602b908201527f4d75737420686176652061646d696e20726f6c6520746f20706572666f726d2060408201526a3a3434b99030b1ba34b7b760a91b606082015260800190565b6000821982111561175e5761175e6117c5565b500190565b600081600019048311821515161561177d5761177d6117c5565b500290565b60005b8381101561179d578181015183820152602001611785565b83811115610ea15750506000910152565b6000816117bd576117bd6117c5565b506000190190565b634e487b7160e01b600052601160045260246000fd5b634e487b7160e01b600052604160045260246000fd5b6001600160a01b038116811461042d57600080fdfeb19546dff01e856fb3f010c267a7b1c60363cf8a4664e21cc89c26224620214e65d7a28e3265b37a6474929f336521b332c1681b933f6cb9f3376673440d862ad2e4c2619ea6e0faebc405d89445161c041e30fe03373ea0473da142d57d4514a2646970667358221220e34549b309550d713282fe054ff8b807fa585fcc73cfb4a384a7ab98bfaf4a6f64736f6c63430008040033",
  "devdoc": {
    "kind": "dev",
    "methods": {
      "getRoleAdmin(bytes32)": {
        "details": "Returns the admin role that controls `role`. See {grantRole} and {revokeRole}. To change a role's admin, use {_setRoleAdmin}."
      },
      "grantRole(bytes32,address)": {
        "details": "Grants `role` to `account`. If `account` had not been already granted `role`, emits a {RoleGranted} event. Requirements: - the caller must have ``role``'s admin role. May emit a {RoleGranted} event."
      },
      "hasRole(bytes32,address)": {
        "details": "Returns `true` if `account` has been granted `role`."
      },
      "paused()": {
        "details": "Returns true if the contract is paused, and false otherwise."
      },
      "renounceRole(bytes32,address)": {
        "details": "Revokes `role` from the calling account. Roles are often managed via {grantRole} and {revokeRole}: this function's purpose is to provide a mechanism for accounts to lose their privileges if they are compromised (such as when a trusted device is misplaced). If the calling account had been revoked `role`, emits a {RoleRevoked} event. Requirements: - the caller must be `account`. May emit a {RoleRevoked} event."
      },
      "revokeRole(bytes32,address)": {
        "details": "Revokes `role` from `account`. If `account` had been granted `role`, emits a {RoleRevoked} event. Requirements: - the caller must have ``role``'s admin role. May emit a {RoleRevoked} event."
      },
      "supportsInterface(bytes4)": {
        "details": "See {IERC165-supportsInterface}."
      }
    },
    "version": 1
  },
  "userdoc": {
    "kind": "user",
    "methods": {},
    "version": 1
  },
  "storageLayout": {
    "storage": [
      {
        "astId": 415,
        "contract": "contracts/DGWSwap.sol:DGWSwap",
        "label": "_initialized",
        "offset": 0,
        "slot": "0",
        "type": "t_uint8"
      },
      {
        "astId": 418,
        "contract": "contracts/DGWSwap.sol:DGWSwap",
        "label": "_initializing",
        "offset": 1,
        "slot": "0",
        "type": "t_bool"
      },
      {
        "astId": 2044,
        "contract": "contracts/DGWSwap.sol:DGWSwap",
        "label": "__gap",
        "offset": 0,
        "slot": "1",
        "type": "t_array(t_uint256)50_storage"
      },
      {
        "astId": 2848,
        "contract": "contracts/DGWSwap.sol:DGWSwap",
        "label": "__gap",
        "offset": 0,
        "slot": "51",
        "type": "t_array(t_uint256)50_storage"
      },
      {
        "astId": 39,
        "contract": "contracts/DGWSwap.sol:DGWSwap",
        "label": "_roles",
        "offset": 0,
        "slot": "101",
        "type": "t_mapping(t_bytes32,t_struct(RoleData)34_storage)"
      },
      {
        "astId": 334,
        "contract": "contracts/DGWSwap.sol:DGWSwap",
        "label": "__gap",
        "offset": 0,
        "slot": "102",
        "type": "t_array(t_uint256)49_storage"
      },
      {
        "astId": 598,
        "contract": "contracts/DGWSwap.sol:DGWSwap",
        "label": "_paused",
        "offset": 0,
        "slot": "151",
        "type": "t_bool"
      },
      {
        "astId": 703,
        "contract": "contracts/DGWSwap.sol:DGWSwap",
        "label": "__gap",
        "offset": 0,
        "slot": "152",
        "type": "t_array(t_uint256)49_storage"
      },
      {
        "astId": 718,
        "contract": "contracts/DGWSwap.sol:DGWSwap",
        "label": "_status",
        "offset": 0,
        "slot": "201",
        "type": "t_uint256"
      },
      {
        "astId": 776,
        "contract": "contracts/DGWSwap.sol:DGWSwap",
        "label": "__gap",
        "offset": 0,
        "slot": "202",
        "type": "t_array(t_uint256)49_storage"
      },
      {
        "astId": 4665,
        "contract": "contracts/DGWSwap.sol:DGWSwap",
        "label": "__gap1",
        "offset": 0,
        "slot": "251",
        "type": "t_array(t_uint256)50_storage"
      },
      {
        "astId": 4669,
        "contract": "contracts/DGWSwap.sol:DGWSwap",
        "label": "__gap2",
        "offset": 0,
        "slot": "301",
        "type": "t_array(t_uint256)50_storage"
      },
      {
        "astId": 4673,
        "contract": "contracts/DGWSwap.sol:DGWSwap",
        "label": "__gap3",
        "offset": 0,
        "slot": "351",
        "type": "t_array(t_uint256)50_storage"
      },
      {
        "astId": 4677,
        "contract": "contracts/DGWSwap.sol:DGWSwap",
        "label": "__gap4",
        "offset": 0,
        "slot": "401",
        "type": "t_array(t_uint256)50_storage"
      },
      {
        "astId": 9183,
        "contract": "contracts/DGWSwap.sol:DGWSwap",
        "label": "DWStaking",
        "offset": 0,
        "slot": "451",
        "type": "t_contract(IDChainStaking)10604"
      },
      {
        "astId": 9186,
        "contract": "contracts/DGWSwap.sol:DGWSwap",
        "label": "rewardToken",
        "offset": 0,
        "slot": "452",
        "type": "t_contract(IERC20WithBurn)10694"
      },
      {
        "astId": 9189,
        "contract": "contracts/DGWSwap.sol:DGWSwap",
        "label": "usdt",
        "offset": 0,
        "slot": "453",
        "type": "t_contract(IERC20WithBurn)10694"
      },
      {
        "astId": 9191,
        "contract": "contracts/DGWSwap.sol:DGWSwap",
        "label": "treasury",
        "offset": 0,
        "slot": "454",
        "type": "t_address"
      }
    ],
    "types": {
      "t_address": {
        "encoding": "inplace",
        "label": "address",
        "numberOfBytes": "20"
      },
      "t_array(t_uint256)49_storage": {
        "base": "t_uint256",
        "encoding": "inplace",
        "label": "uint256[49]",
        "numberOfBytes": "1568"
      },
      "t_array(t_uint256)50_storage": {
        "base": "t_uint256",
        "encoding": "inplace",
        "label": "uint256[50]",
        "numberOfBytes": "1600"
      },
      "t_bool": {
        "encoding": "inplace",
        "label": "bool",
        "numberOfBytes": "1"
      },
      "t_bytes32": {
        "encoding": "inplace",
        "label": "bytes32",
        "numberOfBytes": "32"
      },
      "t_contract(IDChainStaking)10604": {
        "encoding": "inplace",
        "label": "contract IDChainStaking",
        "numberOfBytes": "20"
      },
      "t_contract(IERC20WithBurn)10694": {
        "encoding": "inplace",
        "label": "contract IERC20WithBurn",
        "numberOfBytes": "20"
      },
      "t_mapping(t_address,t_bool)": {
        "encoding": "mapping",
        "key": "t_address",
        "label": "mapping(address => bool)",
        "numberOfBytes": "32",
        "value": "t_bool"
      },
      "t_mapping(t_bytes32,t_struct(RoleData)34_storage)": {
        "encoding": "mapping",
        "key": "t_bytes32",
        "label": "mapping(bytes32 => struct AccessControlUpgradeable.RoleData)",
        "numberOfBytes": "32",
        "value": "t_struct(RoleData)34_storage"
      },
      "t_struct(RoleData)34_storage": {
        "encoding": "inplace",
        "label": "struct AccessControlUpgradeable.RoleData",
        "members": [
          {
            "astId": 31,
            "contract": "contracts/DGWSwap.sol:DGWSwap",
            "label": "members",
            "offset": 0,
            "slot": "0",
            "type": "t_mapping(t_address,t_bool)"
          },
          {
            "astId": 33,
            "contract": "contracts/DGWSwap.sol:DGWSwap",
            "label": "adminRole",
            "offset": 0,
            "slot": "1",
            "type": "t_bytes32"
          }
        ],
        "numberOfBytes": "64"
      },
      "t_uint256": {
        "encoding": "inplace",
        "label": "uint256",
        "numberOfBytes": "32"
      },
      "t_uint8": {
        "encoding": "inplace",
        "label": "uint8",
        "numberOfBytes": "1"
      }
    }
  }
}