{
  "address": "0xd8a8A080F70B7611cC443DBe6Fb8DaD6A3BA7c83",
  "abi": [
    {
      "anonymous": false,
      "inputs": [
        {
          "indexed": true,
          "internalType": "uint256",
          "name": "contractId",
          "type": "uint256"
        },
        {
          "indexed": true,
          "internalType": "address",
          "name": "user",
          "type": "address"
        },
        {
          "indexed": true,
          "internalType": "address",
          "name": "stakeToken",
          "type": "address"
        },
        {
          "indexed": false,
          "internalType": "address",
          "name": "referrer",
          "type": "address"
        },
        {
          "indexed": false,
          "internalType": "uint256",
          "name": "amount",
          "type": "uint256"
        },
        {
          "indexed": false,
          "internalType": "uint256",
          "name": "amountInUSD",
          "type": "uint256"
        }
      ],
      "name": "ContractCreated",
      "type": "event"
    },
    {
      "anonymous": false,
      "inputs": [
        {
          "indexed": false,
          "internalType": "uint8",
          "name": "version",
          "type": "uint8"
        }
      ],
      "name": "Initialized",
      "type": "event"
    },
    {
      "anonymous": false,
      "inputs": [
        {
          "indexed": false,
          "internalType": "address",
          "name": "account",
          "type": "address"
        }
      ],
      "name": "Paused",
      "type": "event"
    },
    {
      "anonymous": false,
      "inputs": [
        {
          "indexed": true,
          "internalType": "address",
          "name": "claimer",
          "type": "address"
        },
        {
          "indexed": false,
          "internalType": "uint256",
          "name": "amount",
          "type": "uint256"
        },
        {
          "indexed": false,
          "internalType": "uint256",
          "name": "amountInUSD",
          "type": "uint256"
        }
      ],
      "name": "RewardHarvested",
      "type": "event"
    },
    {
      "anonymous": false,
      "inputs": [
        {
          "indexed": true,
          "internalType": "bytes32",
          "name": "role",
          "type": "bytes32"
        },
        {
          "indexed": true,
          "internalType": "bytes32",
          "name": "previousAdminRole",
          "type": "bytes32"
        },
        {
          "indexed": true,
          "internalType": "bytes32",
          "name": "newAdminRole",
          "type": "bytes32"
        }
      ],
      "name": "RoleAdminChanged",
      "type": "event"
    },
    {
      "anonymous": false,
      "inputs": [
        {
          "indexed": true,
          "internalType": "bytes32",
          "name": "role",
          "type": "bytes32"
        },
        {
          "indexed": true,
          "internalType": "address",
          "name": "account",
          "type": "address"
        },
        {
          "indexed": true,
          "internalType": "address",
          "name": "sender",
          "type": "address"
        }
      ],
      "name": "RoleGranted",
      "type": "event"
    },
    {
      "anonymous": false,
      "inputs": [
        {
          "indexed": true,
          "internalType": "bytes32",
          "name": "role",
          "type": "bytes32"
        },
        {
          "indexed": true,
          "internalType": "address",
          "name": "account",
          "type": "address"
        },
        {
          "indexed": true,
          "internalType": "address",
          "name": "sender",
          "type": "address"
        }
      ],
      "name": "RoleRevoked",
      "type": "event"
    },
    {
      "anonymous": false,
      "inputs": [
        {
          "indexed": true,
          "internalType": "address",
          "name": "user",
          "type": "address"
        },
        {
          "indexed": true,
          "internalType": "address",
          "name": "referrer",
          "type": "address"
        },
        {
          "indexed": true,
          "internalType": "uint256",
          "name": "contractId",
          "type": "uint256"
        },
        {
          "indexed": false,
          "internalType": "uint256",
          "name": "stakingAmount",
          "type": "uint256"
        }
      ],
      "name": "StakingContractCreated",
      "type": "event"
    },
    {
      "anonymous": false,
      "inputs": [
        {
          "indexed": false,
          "internalType": "address",
          "name": "account",
          "type": "address"
        }
      ],
      "name": "Unpaused",
      "type": "event"
    },
    {
      "anonymous": false,
      "inputs": [
        {
          "indexed": true,
          "internalType": "address",
          "name": "user",
          "type": "address"
        },
        {
          "indexed": false,
          "internalType": "uint256",
          "name": "amount",
          "type": "uint256"
        }
      ],
      "name": "Withdraw",
      "type": "event"
    },
    {
      "inputs": [],
      "name": "DDXStaking",
      "outputs": [
        {
          "internalType": "contract IDDXStaking",
          "name": "",
          "type": "address"
        }
      ],
      "stateMutability": "view",
      "type": "function"
    },
    {
      "inputs": [],
      "name": "DDXVault",
      "outputs": [
        {
          "internalType": "contract IDDXVault",
          "name": "",
          "type": "address"
        }
      ],
      "stateMutability": "view",
      "type": "function"
    },
    {
      "inputs": [],
      "name": "DEFAULT_ADMIN_ROLE",
      "outputs": [
        {
          "internalType": "bytes32",
          "name": "",
          "type": "bytes32"
        }
      ],
      "stateMutability": "view",
      "type": "function"
    },
    {
      "inputs": [],
      "name": "OWNER_ROLE",
      "outputs": [
        {
          "internalType": "bytes32",
          "name": "",
          "type": "bytes32"
        }
      ],
      "stateMutability": "view",
      "type": "function"
    },
    {
      "inputs": [],
      "name": "PAUSER_ROLE",
      "outputs": [
        {
          "internalType": "bytes32",
          "name": "",
          "type": "bytes32"
        }
      ],
      "stateMutability": "view",
      "type": "function"
    },
    {
      "inputs": [],
      "name": "SUB_ADMIN_ROLE",
      "outputs": [
        {
          "internalType": "bytes32",
          "name": "",
          "type": "bytes32"
        }
      ],
      "stateMutability": "view",
      "type": "function"
    },
    {
      "inputs": [
        {
          "internalType": "address",
          "name": "owner",
          "type": "address"
        }
      ],
      "name": "__DChainBase_init",
      "outputs": [],
      "stateMutability": "nonpayable",
      "type": "function"
    },
    {
      "inputs": [],
      "name": "admin",
      "outputs": [
        {
          "internalType": "address",
          "name": "",
          "type": "address"
        }
      ],
      "stateMutability": "view",
      "type": "function"
    },
    {
      "inputs": [
        {
          "internalType": "address",
          "name": "",
          "type": "address"
        }
      ],
      "name": "allowedStakeTokens",
      "outputs": [
        {
          "internalType": "bool",
          "name": "created",
          "type": "bool"
        }
      ],
      "stateMutability": "view",
      "type": "function"
    },
    {
      "inputs": [
        {
          "internalType": "address",
          "name": "",
          "type": "address"
        }
      ],
      "name": "assetPrices",
      "outputs": [
        {
          "internalType": "address",
          "name": "",
          "type": "address"
        }
      ],
      "stateMutability": "view",
      "type": "function"
    },
    {
      "inputs": [],
      "name": "claimDuration",
      "outputs": [
        {
          "internalType": "uint64",
          "name": "",
          "type": "uint64"
        }
      ],
      "stateMutability": "view",
      "type": "function"
    },
    {
      "inputs": [
        {
          "internalType": "uint256[]",
          "name": "_contractIds",
          "type": "uint256[]"
        }
      ],
      "name": "claimMultRewards",
      "outputs": [],
      "stateMutability": "nonpayable",
      "type": "function"
    },
    {
      "inputs": [
        {
          "internalType": "uint256",
          "name": "_contractId",
          "type": "uint256"
        }
      ],
      "name": "claimReward",
      "outputs": [],
      "stateMutability": "nonpayable",
      "type": "function"
    },
    {
      "inputs": [
        {
          "internalType": "uint256",
          "name": "",
          "type": "uint256"
        }
      ],
      "name": "commissionInterestLevels",
      "outputs": [
        {
          "internalType": "uint256",
          "name": "",
          "type": "uint256"
        }
      ],
      "stateMutability": "view",
      "type": "function"
    },
    {
      "inputs": [
        {
          "internalType": "uint256",
          "name": "amount",
          "type": "uint256"
        },
        {
          "internalType": "address",
          "name": "stakeToken",
          "type": "address"
        },
        {
          "internalType": "address",
          "name": "referrer",
          "type": "address"
        }
      ],
      "name": "deposit",
      "outputs": [],
      "stateMutability": "nonpayable",
      "type": "function"
    },
    {
      "inputs": [
        {
          "internalType": "uint256",
          "name": "_originAmount",
          "type": "uint256"
        },
        {
          "internalType": "uint256",
          "name": "_lockedAmount",
          "type": "uint256"
        },
        {
          "internalType": "address",
          "name": "_user",
          "type": "address"
        },
        {
          "internalType": "address",
          "name": "_referrer",
          "type": "address"
        }
      ],
      "name": "depositByVault",
      "outputs": [],
      "stateMutability": "nonpayable",
      "type": "function"
    },
    {
      "inputs": [],
      "name": "directInterest",
      "outputs": [
        {
          "internalType": "uint256",
          "name": "",
          "type": "uint256"
        }
      ],
      "stateMutability": "view",
      "type": "function"
    },
    {
      "inputs": [],
      "name": "emergencyCancelled",
      "outputs": [
        {
          "internalType": "bool",
          "name": "",
          "type": "bool"
        }
      ],
      "stateMutability": "view",
      "type": "function"
    },
    {
      "inputs": [],
      "name": "extraRewardToken",
      "outputs": [
        {
          "internalType": "contract IERC20",
          "name": "",
          "type": "address"
        }
      ],
      "stateMutability": "view",
      "type": "function"
    },
    {
      "inputs": [
        {
          "internalType": "bytes32",
          "name": "role",
          "type": "bytes32"
        }
      ],
      "name": "getRoleAdmin",
      "outputs": [
        {
          "internalType": "bytes32",
          "name": "",
          "type": "bytes32"
        }
      ],
      "stateMutability": "view",
      "type": "function"
    },
    {
      "inputs": [
        {
          "internalType": "address",
          "name": "_token",
          "type": "address"
        },
        {
          "internalType": "uint256",
          "name": "_amount",
          "type": "uint256"
        }
      ],
      "name": "getStakingAmountByPegToken",
      "outputs": [
        {
          "internalType": "uint256",
          "name": "",
          "type": "uint256"
        }
      ],
      "stateMutability": "view",
      "type": "function"
    },
    {
      "inputs": [
        {
          "internalType": "address",
          "name": "_token",
          "type": "address"
        },
        {
          "internalType": "uint256",
          "name": "_amount",
          "type": "uint256"
        }
      ],
      "name": "getStakingAmountInUSD",
      "outputs": [
        {
          "internalType": "uint256",
          "name": "",
          "type": "uint256"
        }
      ],
      "stateMutability": "view",
      "type": "function"
    },
    {
      "inputs": [
        {
          "internalType": "bytes32",
          "name": "role",
          "type": "bytes32"
        },
        {
          "internalType": "address",
          "name": "account",
          "type": "address"
        }
      ],
      "name": "grantRole",
      "outputs": [],
      "stateMutability": "nonpayable",
      "type": "function"
    },
    {
      "inputs": [
        {
          "internalType": "bytes32",
          "name": "role",
          "type": "bytes32"
        },
        {
          "internalType": "address",
          "name": "account",
          "type": "address"
        }
      ],
      "name": "hasRole",
      "outputs": [
        {
          "internalType": "bool",
          "name": "",
          "type": "bool"
        }
      ],
      "stateMutability": "view",
      "type": "function"
    },
    {
      "inputs": [
        {
          "internalType": "address",
          "name": "_owner",
          "type": "address"
        },
        {
          "internalType": "address",
          "name": "_treasury",
          "type": "address"
        },
        {
          "internalType": "contract IERC20",
          "name": "_rewardToken",
          "type": "address"
        },
        {
          "internalType": "contract IERC20",
          "name": "_extraRewardToken",
          "type": "address"
        }
      ],
      "name": "initialize",
      "outputs": [],
      "stateMutability": "nonpayable",
      "type": "function"
    },
    {
      "inputs": [],
      "name": "isAdmin",
      "outputs": [
        {
          "internalType": "bool",
          "name": "",
          "type": "bool"
        }
      ],
      "stateMutability": "view",
      "type": "function"
    },
    {
      "inputs": [],
      "name": "maximumEarningsInPercent",
      "outputs": [
        {
          "internalType": "uint256",
          "name": "",
          "type": "uint256"
        }
      ],
      "stateMutability": "view",
      "type": "function"
    },
    {
      "inputs": [],
      "name": "minimumStakingAmountInUSD",
      "outputs": [
        {
          "internalType": "uint256",
          "name": "",
          "type": "uint256"
        }
      ],
      "stateMutability": "view",
      "type": "function"
    },
    {
      "inputs": [
        {
          "internalType": "address",
          "name": "",
          "type": "address"
        }
      ],
      "name": "offeredCurrencies",
      "outputs": [
        {
          "internalType": "uint256",
          "name": "decimal",
          "type": "uint256"
        },
        {
          "internalType": "uint256",
          "name": "rate",
          "type": "uint256"
        }
      ],
      "stateMutability": "view",
      "type": "function"
    },
    {
      "inputs": [],
      "name": "pause",
      "outputs": [],
      "stateMutability": "nonpayable",
      "type": "function"
    },
    {
      "inputs": [],
      "name": "paused",
      "outputs": [
        {
          "internalType": "bool",
          "name": "",
          "type": "bool"
        }
      ],
      "stateMutability": "view",
      "type": "function"
    },
    {
      "inputs": [
        {
          "internalType": "uint256",
          "name": "_contractId",
          "type": "uint256"
        }
      ],
      "name": "pendingRewardInUSD",
      "outputs": [
        {
          "internalType": "uint256",
          "name": "",
          "type": "uint256"
        }
      ],
      "stateMutability": "view",
      "type": "function"
    },
    {
      "inputs": [
        {
          "internalType": "address",
          "name": "",
          "type": "address"
        }
      ],
      "name": "referredBy",
      "outputs": [
        {
          "internalType": "address",
          "name": "",
          "type": "address"
        }
      ],
      "stateMutability": "view",
      "type": "function"
    },
    {
      "inputs": [
        {
          "internalType": "bytes32",
          "name": "role",
          "type": "bytes32"
        },
        {
          "internalType": "address",
          "name": "account",
          "type": "address"
        }
      ],
      "name": "renounceRole",
      "outputs": [],
      "stateMutability": "nonpayable",
      "type": "function"
    },
    {
      "inputs": [
        {
          "internalType": "bytes32",
          "name": "role",
          "type": "bytes32"
        },
        {
          "internalType": "address",
          "name": "account",
          "type": "address"
        }
      ],
      "name": "revokeRole",
      "outputs": [],
      "stateMutability": "nonpayable",
      "type": "function"
    },
    {
      "inputs": [],
      "name": "rewardToken",
      "outputs": [
        {
          "internalType": "contract IERC20",
          "name": "",
          "type": "address"
        }
      ],
      "stateMutability": "view",
      "type": "function"
    },
    {
      "inputs": [
        {
          "internalType": "address",
          "name": "_stakeToken",
          "type": "address"
        }
      ],
      "name": "setAllowedStakeToken",
      "outputs": [],
      "stateMutability": "nonpayable",
      "type": "function"
    },
    {
      "inputs": [
        {
          "internalType": "address",
          "name": "_pegToken",
          "type": "address"
        },
        {
          "internalType": "address",
          "name": "_oracle",
          "type": "address"
        }
      ],
      "name": "setAssetOracle",
      "outputs": [],
      "stateMutability": "nonpayable",
      "type": "function"
    },
    {
      "inputs": [
        {
          "internalType": "contract IDDXStaking",
          "name": "_staking",
          "type": "address"
        }
      ],
      "name": "setDDXStaking",
      "outputs": [],
      "stateMutability": "nonpayable",
      "type": "function"
    },
    {
      "inputs": [
        {
          "internalType": "contract IDDXVault",
          "name": "_vault",
          "type": "address"
        }
      ],
      "name": "setDDXVault",
      "outputs": [],
      "stateMutability": "nonpayable",
      "type": "function"
    },
    {
      "inputs": [
        {
          "internalType": "contract IDWVault",
          "name": "_vault",
          "type": "address"
        }
      ],
      "name": "setDWVault",
      "outputs": [],
      "stateMutability": "nonpayable",
      "type": "function"
    },
    {
      "inputs": [
        {
          "internalType": "address",
          "name": "_currency",
          "type": "address"
        },
        {
          "internalType": "uint256",
          "name": "_rate",
          "type": "uint256"
        },
        {
          "internalType": "uint256",
          "name": "_decimal",
          "type": "uint256"
        }
      ],
      "name": "setOfferedCurrency",
      "outputs": [],
      "stateMutability": "nonpayable",
      "type": "function"
    },
    {
      "inputs": [
        {
          "internalType": "uint256",
          "name": "",
          "type": "uint256"
        }
      ],
      "name": "stakingContractOwnedBy",
      "outputs": [
        {
          "internalType": "address",
          "name": "",
          "type": "address"
        }
      ],
      "stateMutability": "view",
      "type": "function"
    },
    {
      "inputs": [
        {
          "internalType": "uint256",
          "name": "",
          "type": "uint256"
        }
      ],
      "name": "stakingContracts",
      "outputs": [
        {
          "internalType": "uint256",
          "name": "totalExpectedInterest",
          "type": "uint256"
        },
        {
          "internalType": "uint256",
          "name": "totalStakesInUSD",
          "type": "uint256"
        },
        {
          "internalType": "uint256",
          "name": "claimedInterest",
          "type": "uint256"
        },
        {
          "internalType": "uint64",
          "name": "claimDuration",
          "type": "uint64"
        },
        {
          "internalType": "uint64",
          "name": "dueDate",
          "type": "uint64"
        },
        {
          "internalType": "uint64",
          "name": "lastClaimedTime",
          "type": "uint64"
        },
        {
          "internalType": "uint64",
          "name": "lastUpdatedTime",
          "type": "uint64"
        },
        {
          "internalType": "uint64",
          "name": "createdAt",
          "type": "uint64"
        }
      ],
      "stateMutability": "view",
      "type": "function"
    },
    {
      "inputs": [
        {
          "internalType": "bytes4",
          "name": "interfaceId",
          "type": "bytes4"
        }
      ],
      "name": "supportsInterface",
      "outputs": [
        {
          "internalType": "bool",
          "name": "",
          "type": "bool"
        }
      ],
      "stateMutability": "view",
      "type": "function"
    },
    {
      "inputs": [
        {
          "internalType": "address",
          "name": "",
          "type": "address"
        }
      ],
      "name": "totalReferralInvitations",
      "outputs": [
        {
          "internalType": "uint256",
          "name": "",
          "type": "uint256"
        }
      ],
      "stateMutability": "view",
      "type": "function"
    },
    {
      "inputs": [],
      "name": "totalStaked",
      "outputs": [
        {
          "internalType": "uint256",
          "name": "",
          "type": "uint256"
        }
      ],
      "stateMutability": "view",
      "type": "function"
    },
    {
      "inputs": [],
      "name": "totalStakingContracts",
      "outputs": [
        {
          "internalType": "uint256",
          "name": "",
          "type": "uint256"
        }
      ],
      "stateMutability": "view",
      "type": "function"
    },
    {
      "inputs": [],
      "name": "treasury",
      "outputs": [
        {
          "internalType": "address",
          "name": "",
          "type": "address"
        }
      ],
      "stateMutability": "view",
      "type": "function"
    },
    {
      "inputs": [],
      "name": "unpause",
      "outputs": [],
      "stateMutability": "nonpayable",
      "type": "function"
    },
    {
      "inputs": [],
      "name": "vault",
      "outputs": [
        {
          "internalType": "contract IDWVault",
          "name": "",
          "type": "address"
        }
      ],
      "stateMutability": "view",
      "type": "function"
    }
  ],
  "transactionHash": "0xf9872405efa09f69df4b7d55df34c2a0a07a667a4c5d4fdbd01329d3b1205eed",
  "args": [],
  "solcInputHash": "f5aebcb8d3bc11338a03402a54132064",
  "bytecode": "0x608060405234801561001057600080fd5b506131ea806100206000396000f3fe608060405234801561001057600080fd5b50600436106102c15760003560e01c80638456cb591161017d578063ce3637ef116100d9578063e7ad370111610092578063e7ad370114610739578063f2e034821461074c578063f7c618c11461075f578063f851a44014610773578063f8c8765e14610787578063fbd695bf1461079a578063fbfa77cf146107ad57600080fd5b8063ce3637ef146106ac578063d547741f146106bf578063dc2903c6146106d2578063e1988ca3146106fc578063e58378bb1461070f578063e63ab1e91461072457600080fd5b8063a217fddf11610136578063a217fddf14610616578063a90f8e9a1461061e578063ab1a4d9414610648578063ae169a5014610674578063b1e6cb8214610687578063b6db75a014610691578063bfc90a5e1461069957600080fd5b80638456cb591461059f5780638e1303d7146105a75780638fb33c3b146105ba578063901bb5af146105db57806391d14854146105ef578063991932bb1461060257600080fd5b80635a3a85cb1161022c57806362d6306f116101e557806362d6306f14610539578063657efde61461054c5780637801d3a81461055f578063784579261461057357806378ecb4ee1461057d578063803efb611461058b578063817b1cd21461059557600080fd5b80635a3a85cb146104805780635c975abb146104bd5780635d5b3fa5146104c85780635e9a523c146104db57806361d027b31461051257806362adfe7a1461052657600080fd5b80632f10a9be1161027e5780632f10a9be146104085780632f2ff15d1461041b57806336568abe1461042e5780633c34ab30146104415780633f4ba83a1461046557806344d25cb21461046d57600080fd5b806301ffc9a7146102c6578063022f2354146102ee5780631109b19a14610311578063248a9ca3146103c65780632a9c0560146103e95780632e2d2984146103f3575b600080fd5b6102d96102d4366004612ca5565b6107c1565b60405190151581526020015b60405180910390f35b61030360008051602061319583398151915281565b6040519081526020016102e5565b61037a61031f366004612c69565b6101df60205260009081526040902080546001820154600283015460038401546004909401549293919290916001600160401b0380821692600160401b8304821692600160801b8104831692600160c01b9091048116911688565b604080519889526020890197909752958701949094526001600160401b0392831660608701529082166080860152811660a085015290811660c08401521660e0820152610100016102e5565b6103036103d4366004612c69565b60009081526065602052604090206001015490565b6103036101cd5481565b610406610401366004612ce5565b6107f8565b005b610303610416366004612c69565b6109f4565b610406610429366004612c81565b610b1d565b61040661043c366004612c81565b610b42565b6102d961044f366004612a60565b6101db6020526000908152604090205460ff1681565b610406610bc0565b61030361047b366004612c69565b610be3565b6104a861048e366004612a60565b6101da602052600090815260409020805460019091015482565b604080519283526020830191909152016102e5565b60975460ff166102d9565b6104066104d6366004612b8a565b610bfb565b6105056104e9366004612a60565b6101dc602052600090815260409020546001600160a01b031681565b6040516102e59190612de7565b6101c854610505906001600160a01b031681565b610406610534366004612a98565b610c5a565b610406610547366004612a60565b610ca2565b61040661055a366004612b56565b610dcb565b6101c754610505906001600160a01b031681565b6103036101cc5481565b6101d9546102d99060ff1681565b6103036101cf5481565b6103036101cb5481565b610406610e09565b6104066105b5366004612d26565b610e29565b6103036105c8366004612a60565b6101dd6020526000908152604090205481565b6101c554610505906001600160a01b031681565b6102d96105fd366004612c81565b610fa2565b6101c454610505906001600160a01b031681565b610303600081565b61050561062c366004612a60565b6101de602052600090815260409020546001600160a01b031681565b6101ce5461065c906001600160401b031681565b6040516001600160401b0390911681526020016102e5565b610406610682366004612c69565b610fcd565b6103036101ca5481565b6102d9611064565b6104066106a7366004612a60565b611083565b6104066106ba366004612a60565b61111f565b6104066106cd366004612c81565b6111bf565b6105056106e0366004612c69565b6101e0602052600090815260409020546001600160a01b031681565b61030361070a366004612b2b565b6111e4565b61030360008051602061315583398151915281565b61030360008051602061317583398151915281565b610406610747366004612a60565b611243565b61030361075a366004612b2b565b6112e6565b6101c354610505906001600160a01b031681565b6101c954610505906001600160a01b031681565b610406610795366004612ad0565b611337565b6104066107a8366004612a60565b61161c565b6101c654610505906001600160a01b031681565b60006001600160e01b03198216637965db0b60e01b14806107f257506301ffc9a760e01b6001600160e01b03198316145b92915050565b6108006116bd565b610808611705565b338361082f5760405162461bcd60e51b815260040161082690612e87565b60405180910390fd5b6001600160a01b0381166108995760405162461bcd60e51b815260206004820152602b60248201527f706f6f6c3a207374616b6520616464726573732063616e206e6f74206265207a60448201526a65726f206164647265737360a81b6064820152608401610826565b60006108a5828661175f565b905060006108b38583611905565b6101c3549091506001600160a01b03868116911614610949576001600160a01b03851660009081526101db60209081526040918290208251918201909252905460ff1615158082526109475760405162461bcd60e51b815260206004820181905260248201527f706f6f6c3a207374616b6520746f6b656e206973206e6f7420616c6c6f7765646044820152606401610826565b505b6101c3546001600160a01b03868116911614156109c0576101c354604051630852cd8d60e31b8152600481018490526001600160a01b03909116906342966c6890602401600060405180830381600087803b1580156109a757600080fd5b505af11580156109bb573d6000803e3d6000fd5b505050505b6109cb838584611b7e565b6109d88386868585611d27565b6109e28184611ebe565b5050506109ef600160c955565b505050565b60008181526101df602090815260408083208151610100810183528154815260018201549381019390935260028101549183019190915260038101546001600160401b038082166060850152600160401b820481166080850152600160801b8204811660a08501819052600160c01b909204811660c0850152600490920154821660e08401524291821611610a8d575060009392505050565b81608001516001600160401b0316816001600160401b03161115610ab2575060808101515b60008260a0015142610ac4919061308d565b6101ce548451919250600091670de0b6b3a7640000916001600160401b03908116918391610af59190871690613057565b610aff9190613057565b610b099190612f4c565b610b139190612f4c565b9695505050505050565b600082815260656020526040902060010154610b3881612048565b6109ef8383612052565b6001600160a01b0381163314610bb25760405162461bcd60e51b815260206004820152602f60248201527f416363657373436f6e74726f6c3a2063616e206f6e6c792072656e6f756e636560448201526e103937b632b9903337b91039b2b63360891b6064820152608401610826565b610bbc82826120d8565b5050565b600080516020613195833981519152610bd881612048565b610be061213f565b50565b6101d08160098110610bf457600080fd5b0154905081565b610c03611705565b610c0b6116bd565b60005b8151811015610c4f57610c47828281518110610c3a57634e487b7160e01b600052603260045260246000fd5b6020026020010151610fcd565b600101610c0e565b50610be0600160c955565b600080516020613195833981519152610c7281612048565b506001600160a01b0391821660009081526101dc6020526040902080546001600160a01b03191691909216179055565b600054610100900460ff16610cc95760405162461bcd60e51b815260040161082690612ebe565b6001600160a01b038116610d1f5760405162461bcd60e51b815260206004820181905260248201527f4f776e65722063616e6e6f7420626520746865207a65726f20616464726573736044820152606401610826565b610d2761218b565b610d2f6121b2565b610d376121e1565b610d4f60008051602061315583398151915282612210565b610d6760008051602061317583398151915282612210565b610d8d60008051602061319583398151915260008051602061315583398151915261221a565b610db360008051602061317583398151915260008051602061315583398151915261221a565b610be06000805160206131558339815191528061221a565b600080516020613195833981519152610de381612048565b506001600160a01b0390921660009081526101da60205260409020600181019190915555565b600080516020613195833981519152610e2181612048565b610be0612265565b610e316116bd565b610e39611705565b6101c6546001600160a01b0316336001600160a01b031614610e985760405162461bcd60e51b81526020600482015260186024820152771c1bdbdb0e88139bdd081cdd185ad948189e481d985d5b1d60421b6044820152606401610826565b6000610ea48486612f09565b905060008111610ec65760405162461bcd60e51b815260040161082690612e87565b6101c654610edd906001600160a01b03168661175f565b506101c354600090610ef8906001600160a01b031683611905565b90508515610f60576101c354604051630852cd8d60e31b8152600481018890526001600160a01b03909116906342966c6890602401600060405180830381600087803b158015610f4757600080fd5b505af1158015610f5b573d6000803e3d6000fd5b505050505b610f6b848484611b7e565b6101c354610f869085906001600160a01b0316858585611d27565b610f908185611ebe565b5050610f9c600160c955565b50505050565b60009182526065602090815260408084206001600160a01b0393909316845291905290205460ff1690565b610fd5611705565b610fdd6116bd565b60008181526101e0602052604090205433906001600160a01b0316811461105a5760405162461bcd60e51b815260206004820152602b60248201527f706f6f6c3a20636f6e7472616374206964206e6f742062656c6f6e677320746f60448201526a103a3434b99037bbb732b960a91b6064820152608401610826565b610c4f81836122a2565b600061107e60008051602061315583398151915233610fa2565b905090565b60008051602061319583398151915261109b81612048565b6001600160a01b03821660009081526101db60205260409020805460ff16156111105760405162461bcd60e51b815260206004820152602160248201527f416c6c6f77656420746f6b656e20697320616c726561647920657869737465646044820152602160f81b6064820152608401610826565b805460ff191660011790555050565b60008051602061319583398151915261113781612048565b6001600160a01b03821661119b5760405162461bcd60e51b815260206004820152602560248201527f706f6f6c3a204457207661756c742063616e6e6f74206265207a65726f206164604482015264647265737360d81b6064820152608401610826565b506101c680546001600160a01b0319166001600160a01b0392909216919091179055565b6000828152606560205260409020600101546111da81612048565b6109ef83836120d8565b6001600160a01b03821660009081526101da602090815260408083208151808301909252805480835260019091015492820183905290919061122790600a612faf565b6112319085613057565b61123b9190612f4c565b949350505050565b60008051602061319583398151915261125b81612048565b6001600160a01b0382166112c25760405162461bcd60e51b815260206004820152602860248201527f706f6f6c3a20444458205374616b696e672063616e6e6f74206265207a65726f604482015267206164647265737360c01b6064820152608401610826565b506101c780546001600160a01b0319166001600160a01b0392909216919091179055565b6001600160a01b03821660009081526101da6020908152604080832081518083019092528054808352600190910154928201929092529061132890600a612faf565b60208201516112319085613057565b600054610100900460ff16158080156113575750600054600160ff909116105b806113715750303b158015611371575060005460ff166001145b6113d45760405162461bcd60e51b815260206004820152602e60248201527f496e697469616c697a61626c653a20636f6e747261637420697320616c72656160448201526d191e481a5b9a5d1a585b1a5e995960921b6064820152608401610826565b6000805460ff1916600117905580156113f7576000805461ff0019166101001790555b61140085610ca2565b6001600160a01b0384166114265760405162461bcd60e51b815260040161082690612e6b565b6001600160a01b03831661144c5760405162461bcd60e51b815260040161082690612e6b565b6101c880546001600160a01b038087166001600160a01b0319928316179092556101c380548684169083161790556101c48054928516928216929092179091556101c980549091163317905560408051610120810182526105dc81526103e860208201526101f4918101829052606081018290526080810191909152600060a0820181905260c0820181905260e082018190526101008201526114f4906101d0906009612a07565b506101ce805467ffffffffffffffff1916630317040017905566b1a2bc2ec500006101cf556305f5e1006101cc55671bc16d674ec800006101cd5561154760008051602061319583398151915286612210565b6101c35460405163095ea7b360e01b81526001600160a01b039091169063095ea7b39061157c90309060001990600401612e1f565b602060405180830381600087803b15801561159657600080fd5b505af11580156115aa573d6000803e3d6000fd5b505050506040513d601f19601f820116820180604052508101906115ce9190612c49565b508015611615576000805461ff0019169055604051600181527f7f26b83ff96e1f2b6a682f133852f6798a09c465da95921460cefb38474024989060200160405180910390a15b5050505050565b60008051602061319583398151915261163481612048565b6001600160a01b0382166116995760405162461bcd60e51b815260206004820152602660248201527f706f6f6c3a20444458207661756c742063616e6e6f74206265207a65726f206160448201526564647265737360d01b6064820152608401610826565b506101c580546001600160a01b0319166001600160a01b0392909216919091179055565b60975460ff16156117035760405162461bcd60e51b815260206004820152601060248201526f14185d5cd8589b194e881c185d5cd95960821b6044820152606401610826565b565b600260c95414156117585760405162461bcd60e51b815260206004820152601f60248201527f5265656e7472616e637947756172643a207265656e7472616e742063616c6c006044820152606401610826565b600260c955565b6101c3546040516370a0823160e01b815260009182916001600160a01b03909116906370a0823190611795903090600401612de7565b60206040518083038186803b1580156117ad57600080fd5b505afa1580156117c1573d6000803e3d6000fd5b505050506040513d601f19601f820116820180604052508101906117e59190612ccd565b6101c3546040516323b872dd60e01b81529192506001600160a01b0316906323b872dd9061181b90879030908890600401612dfb565b602060405180830381600087803b15801561183557600080fd5b505af1158015611849573d6000803e3d6000fd5b505050506040513d601f19601f8201168201806040525081019061186d9190612c49565b506101c3546040516370a0823160e01b81526000916001600160a01b0316906370a08231906118a0903090600401612de7565b60206040518083038186803b1580156118b857600080fd5b505afa1580156118cc573d6000803e3d6000fd5b505050506040513d601f19601f820116820180604052508101906118f09190612ccd565b90506118fc8282613076565b95945050505050565b6001600160a01b0380831660009081526101dc6020526040812054909116818115611af757816001600160a01b031663b4d1d7956040518163ffffffff1660e01b815260040160206040518083038186803b15801561196357600080fd5b505afa158015611977573d6000803e3d6000fd5b505050506040513d601f19601f8201168201806040525081019061199b9190612ccd565b826001600160a01b031663e56522a96040518163ffffffff1660e01b815260040160206040518083038186803b1580156119d457600080fd5b505afa1580156119e8573d6000803e3d6000fd5b505050506040513d601f19601f82011682018060405250810190611a0c9190612d54565b611a1c9063ffffffff1642613076565b1115611a7657816001600160a01b031663a2e620456040518163ffffffff1660e01b8152600401600060405180830381600087803b158015611a5d57600080fd5b505af1158015611a71573d6000803e3d6000fd5b505050505b604051633ddac95360e01b81526001600160a01b03831690633ddac95390611aa49088908890600401612e1f565b60206040518083038186803b158015611abc57600080fd5b505afa158015611ad0573d6000803e3d6000fd5b505050506040513d601f19601f82011682018060405250810190611af49190612ccd565b90505b8015611b0557809250611b12565b611b0f85856111e4565b92505b6101cc54831015611b765760405162461bcd60e51b815260206004820152602860248201527f706f6f6c3a206d696e696d756d207374616b696e6720616d6f756e74206e6f74604482015267081c995858da195960c21b6064820152608401610826565b505092915050565b6001600160a01b038216156109ef576001600160a01b0383811660009081526101de602052604090205416158015611bc85750826001600160a01b0316826001600160a01b031614155b611c225760405162461bcd60e51b815260206004820152602560248201527f706f6f6c3a207573657220616c7265616479206a6f696e656420627920726566604482015264195c9c985b60da1b6064820152608401610826565b6001600160a01b0383811660009081526101de6020908152604080832080546001600160a01b03191694871694851790559282526101dd9052908120805460019290611c6f908490612f09565b90915550506101cf54600090670de0b6b3a764000090611c8f9084613057565b611c999190612f4c565b6101c3546101c8546040516323b872dd60e01b81529293506001600160a01b03918216926323b872dd92611cd592169087908690600401612dfb565b602060405180830381600087803b158015611cef57600080fd5b505af1158015611d03573d6000803e3d6000fd5b505050506040513d601f19601f820116820180604052508101906116159190612c49565b6101ca5460008181526101df6020526040902060048101805467ffffffffffffffff1916426001600160401b03169081179091556003820180546001600160801b0316600160801b83026001600160c01b031617600160c01b909202919091179055600181018390556101cd54670de0b6b3a764000090611da89085613057565b611db29190612f4c565b81556101ce5460038201805467ffffffffffffffff19166001600160401b039283169081179091556004830154611de99216612f21565b8160030160086101000a8154816001600160401b0302191690836001600160401b03160217905550836101cb6000828254611e249190612f09565b90915550506101ca8054906000611e3a836130f8565b909155505060008281526101e0602090815260409182902080546001600160a01b0319166001600160a01b038b8116918217909255835189831681529283018890529282018690528816919084907ffc642e915560f3145b73690380c19e70476c21a07a4d3a5269d6970b6a334fbe9060600160405180910390a450505050505050565b6101c7546040516311026af760e11b8152600481018490526000916001600160a01b031690632204d5ee90602401602060405180830381600087803b158015611f0657600080fd5b505af1158015611f1a573d6000803e3d6000fd5b505050506040513d601f19601f82011682018060405250810190611f3e9190612ccd565b9050600081118015611fd257506101c560009054906101000a90046001600160a01b03166001600160a01b0316638832e6726040518163ffffffff1660e01b815260040160206040518083038186803b158015611f9a57600080fd5b505afa158015611fae573d6000803e3d6000fd5b505050506040513d601f19601f82011682018060405250810190611fd29190612c49565b156109ef576101c554604051637b408a6b60e01b81526001600160a01b0390911690637b408a6b9061200a9085908590600401612e1f565b600060405180830381600087803b15801561202457600080fd5b505af1158015612038573d6000803e3d6000fd5b50505050505050565b600160c955565b610be08133612498565b61205c8282610fa2565b610bbc5760008281526065602090815260408083206001600160a01b03851684529091529020805460ff191660011790556120943390565b6001600160a01b0316816001600160a01b0316837f2f8788117e7eff1d82e926ec794901d17c78024a50270940304540a733656f0d60405160405180910390a45050565b6120e28282610fa2565b15610bbc5760008281526065602090815260408083206001600160a01b0385168085529252808320805460ff1916905551339285917ff6391f5c32d9c69d2a47ea670b442974b53935d1edc7fd64eb21e047a839171b9190a45050565b6121476124f1565b6097805460ff191690557f5db9ee0a495bf2e6ff9c91a7834c1ba4fdd244a5e8aa4e537bd38aeae4b073aa335b6040516121819190612de7565b60405180910390a1565b600054610100900460ff166117035760405162461bcd60e51b815260040161082690612ebe565b600054610100900460ff166121d95760405162461bcd60e51b815260040161082690612ebe565b61170361253a565b600054610100900460ff166122085760405162461bcd60e51b815260040161082690612ebe565b61170361256d565b610bbc8282612052565b600082815260656020526040808220600101805490849055905190918391839186917fbd79b86ffe0ab8e8776151514217cd7cacd52c909f66475c3af44e129f0b00ff9190a4505050565b61226d6116bd565b6097805460ff191660011790557f62e78cea01bee320cd4e420270b5ea74000d11b0c9f74754ebdbfc544b05a2586121743390565b60008181526101df60205260408120906122bb836109f4565b905060006122c882612594565b9050600081116123255760405162461bcd60e51b815260206004820152602260248201527f706f6f6c3a20726577617264206e6f7420656e6f75676820746f2068617276656044820152611cdd60f21b6064820152608401610826565b6101c3546101c8546040516323b872dd60e01b81526001600160a01b03928316926323b872dd9261235f9291169089908690600401612dfb565b602060405180830381600087803b15801561237957600080fd5b505af115801561238d573d6000803e3d6000fd5b505050506040513d601f19601f820116820180604052508101906123b19190612c49565b50600383015442906001600160401b03600160401b909104811690821611156123eb57506003830154600160401b90046001600160401b03165b6003840180546001600160401b03838116600160801b0267ffffffffffffffff60801b194292909216600160c01b02919091166001600160801b0390921691909117179055600284018054849190600090612447908490612f09565b909155505060408051838152602081018590526001600160a01b038816917ff87cfa2d5feaea949ad65bb76a26d8553381bcb6382adbc83dedd48961bf32d9910160405180910390a2505050505050565b6124a28282610fa2565b610bbc576124af81612814565b6124ba836020612826565b6040516020016124cb929190612d78565b60408051601f198184030181529082905262461bcd60e51b825261082691600401612e38565b60975460ff166117035760405162461bcd60e51b815260206004820152601460248201527314185d5cd8589b194e881b9bdd081c185d5cd95960621b6044820152606401610826565b600054610100900460ff166125615760405162461bcd60e51b815260040161082690612ebe565b6097805460ff19169055565b600054610100900460ff166120415760405162461bcd60e51b815260040161082690612ebe565b6101c3546001600160a01b0390811660009081526101dc602052604081205490911680156127fd57806001600160a01b031663b4d1d7956040518163ffffffff1660e01b815260040160206040518083038186803b1580156125f557600080fd5b505afa158015612609573d6000803e3d6000fd5b505050506040513d601f19601f8201168201806040525081019061262d9190612ccd565b816001600160a01b031663e56522a96040518163ffffffff1660e01b815260040160206040518083038186803b15801561266657600080fd5b505afa15801561267a573d6000803e3d6000fd5b505050506040513d601f19601f8201168201806040525081019061269e9190612d54565b6126ae9063ffffffff1642613076565b111561270857806001600160a01b031663a2e620456040518163ffffffff1660e01b8152600401600060405180830381600087803b1580156126ef57600080fd5b505af1158015612703573d6000803e3d6000fd5b505050505b806001600160a01b0316633ddac953826001600160a01b031663d21220a76040518163ffffffff1660e01b815260040160206040518083038186803b15801561275057600080fd5b505afa158015612764573d6000803e3d6000fd5b505050506040513d601f19601f820116820180604052508101906127889190612a7c565b856040518363ffffffff1660e01b81526004016127a6929190612e1f565b60206040518083038186803b1580156127be57600080fd5b505afa1580156127d2573d6000803e3d6000fd5b505050506040513d601f19601f820116820180604052508101906127f69190612ccd565b9392505050565b6101c3546127f6906001600160a01b0316846112e6565b60606107f26001600160a01b03831660145b60606000612835836002613057565b612840906002612f09565b6001600160401b0381111561286557634e487b7160e01b600052604160045260246000fd5b6040519080825280601f01601f19166020018201604052801561288f576020820181803683370190505b509050600360fc1b816000815181106128b857634e487b7160e01b600052603260045260246000fd5b60200101906001600160f81b031916908160001a905350600f60fb1b816001815181106128f557634e487b7160e01b600052603260045260246000fd5b60200101906001600160f81b031916908160001a9053506000612919846002613057565b612924906001612f09565b90505b60018111156129b8576f181899199a1a9b1b9c1cb0b131b232b360811b85600f166010811061296657634e487b7160e01b600052603260045260246000fd5b1a60f81b82828151811061298a57634e487b7160e01b600052603260045260246000fd5b60200101906001600160f81b031916908160001a90535060049490941c936129b1816130e1565b9050612927565b5083156127f65760405162461bcd60e51b815260206004820181905260248201527f537472696e67733a20686578206c656e67746820696e73756666696369656e746044820152606401610826565b8260098101928215612a3b579160200282015b82811115612a3b578251829061ffff16905591602001919060010190612a1a565b50612a47929150612a4b565b5090565b5b80821115612a475760008155600101612a4c565b600060208284031215612a71578081fd5b81356127f68161313f565b600060208284031215612a8d578081fd5b81516127f68161313f565b60008060408385031215612aaa578081fd5b8235612ab58161313f565b91506020830135612ac58161313f565b809150509250929050565b60008060008060808587031215612ae5578182fd5b8435612af08161313f565b93506020850135612b008161313f565b92506040850135612b108161313f565b91506060850135612b208161313f565b939692955090935050565b60008060408385031215612b3d578182fd5b8235612b488161313f565b946020939093013593505050565b600080600060608486031215612b6a578283fd5b8335612b758161313f565b95602085013595506040909401359392505050565b60006020808385031215612b9c578182fd5b82356001600160401b0380821115612bb2578384fd5b818501915085601f830112612bc5578384fd5b813581811115612bd757612bd7613129565b8060051b604051601f19603f83011681018181108582111715612bfc57612bfc613129565b604052828152858101935084860182860187018a1015612c1a578788fd5b8795505b83861015612c3c578035855260019590950194938601938601612c1e565b5098975050505050505050565b600060208284031215612c5a578081fd5b815180151581146127f6578182fd5b600060208284031215612c7a578081fd5b5035919050565b60008060408385031215612c93578182fd5b823591506020830135612ac58161313f565b600060208284031215612cb6578081fd5b81356001600160e01b0319811681146127f6578182fd5b600060208284031215612cde578081fd5b5051919050565b600080600060608486031215612cf9578081fd5b833592506020840135612d0b8161313f565b91506040840135612d1b8161313f565b809150509250925092565b60008060008060808587031215612d3b578182fd5b84359350602085013592506040850135612b108161313f565b600060208284031215612d65578081fd5b815163ffffffff811681146127f6578182fd5b76020b1b1b2b9b9a1b7b73a3937b61d1030b1b1b7bab73a1604d1b815260008351612daa8160178501602088016130b5565b7001034b99036b4b9b9b4b733903937b6329607d1b6017918401918201528351612ddb8160288401602088016130b5565b01602801949350505050565b6001600160a01b0391909116815260200190565b6001600160a01b039384168152919092166020820152604081019190915260600190565b6001600160a01b03929092168252602082015260400190565b6020815260008251806020840152612e578160408501602087016130b5565b601f01601f19169190910160400192915050565b6020808252600290820152615a4160f01b604082015260600190565b6020808252601b908201527f706f6f6c3a20616d6f756e742063616e6e6f74206265207a65726f0000000000604082015260600190565b6020808252602b908201527f496e697469616c697a61626c653a20636f6e7472616374206973206e6f74206960408201526a6e697469616c697a696e6760a81b606082015260800190565b60008219821115612f1c57612f1c613113565b500190565b60006001600160401b03808316818516808303821115612f4357612f43613113565b01949350505050565b600082612f6757634e487b7160e01b81526012600452602481fd5b500490565b600181815b80851115612fa7578160001904821115612f8d57612f8d613113565b80851615612f9a57918102915b93841c9390800290612f71565b509250929050565b60006127f68383600082612fc5575060016107f2565b81612fd2575060006107f2565b8160018114612fe85760028114612ff25761300e565b60019150506107f2565b60ff84111561300357613003613113565b50506001821b6107f2565b5060208310610133831016604e8410600b8410161715613031575081810a6107f2565b61303b8383612f6c565b806000190482111561304f5761304f613113565b029392505050565b600081600019048311821515161561307157613071613113565b500290565b60008282101561308857613088613113565b500390565b60006001600160401b03838116908316818110156130ad576130ad613113565b039392505050565b60005b838110156130d05781810151838201526020016130b8565b83811115610f9c5750506000910152565b6000816130f0576130f0613113565b506000190190565b600060001982141561310c5761310c613113565b5060010190565b634e487b7160e01b600052601160045260246000fd5b634e487b7160e01b600052604160045260246000fd5b6001600160a01b0381168114610be057600080fdfeb19546dff01e856fb3f010c267a7b1c60363cf8a4664e21cc89c26224620214e65d7a28e3265b37a6474929f336521b332c1681b933f6cb9f3376673440d862ad2e4c2619ea6e0faebc405d89445161c041e30fe03373ea0473da142d57d4514a264697066735822122044665230a4a6fa2242a4051f2c9860d825017b89d6bcb1d7bdbe7f14dd99eb7764736f6c63430008040033",
  "devdoc": {
    "kind": "dev",
    "methods": {
      "getRoleAdmin(bytes32)": {
        "details": "Returns the admin role that controls `role`. See {grantRole} and {revokeRole}. To change a role's admin, use {_setRoleAdmin}."
      },
      "getStakingAmountInUSD(address,uint256)": {
        "details": "Get Staking token amount in offered currencies",
        "params": {
          "_amount": "Amount of purchase token"
        },
        "returns": {
          "_0": "Return amount of respective IDO token"
        }
      },
      "grantRole(bytes32,address)": {
        "details": "Grants `role` to `account`. If `account` had not been already granted `role`, emits a {RoleGranted} event. Requirements: - the caller must have ``role``'s admin role. May emit a {RoleGranted} event."
      },
      "hasRole(bytes32,address)": {
        "details": "Returns `true` if `account` has been granted `role`."
      },
      "paused()": {
        "details": "Returns true if the contract is paused, and false otherwise."
      },
      "renounceRole(bytes32,address)": {
        "details": "Revokes `role` from the calling account. Roles are often managed via {grantRole} and {revokeRole}: this function's purpose is to provide a mechanism for accounts to lose their privileges if they are compromised (such as when a trusted device is misplaced). If the calling account had been revoked `role`, emits a {RoleRevoked} event. Requirements: - the caller must be `account`. May emit a {RoleRevoked} event."
      },
      "revokeRole(bytes32,address)": {
        "details": "Revokes `role` from `account`. If `account` had been granted `role`, emits a {RoleRevoked} event. Requirements: - the caller must have ``role``'s admin role. May emit a {RoleRevoked} event."
      },
      "supportsInterface(bytes4)": {
        "details": "See {IERC165-supportsInterface}."
      }
    },
    "version": 1
  },
  "userdoc": {
    "kind": "user",
    "methods": {
      "depositByVault(uint256,uint256,address,address)": {
        "notice": "----------------------------------- ---------- Core Function ---------- -----------------------------------"
      },
      "pause()": {
        "notice": "----------------------------------- --------- Pause Function ---------- -----------------------------------"
      },
      "setDDXStaking(address)": {
        "notice": "----------------------------------- --------- Update Function --------- -----------------------------------"
      }
    },
    "version": 1
  },
  "storageLayout": {
    "storage": [
      {
        "astId": 415,
        "contract": "contracts/DWStaking.sol:DWStaking",
        "label": "_initialized",
        "offset": 0,
        "slot": "0",
        "type": "t_uint8"
      },
      {
        "astId": 418,
        "contract": "contracts/DWStaking.sol:DWStaking",
        "label": "_initializing",
        "offset": 1,
        "slot": "0",
        "type": "t_bool"
      },
      {
        "astId": 2044,
        "contract": "contracts/DWStaking.sol:DWStaking",
        "label": "__gap",
        "offset": 0,
        "slot": "1",
        "type": "t_array(t_uint256)50_storage"
      },
      {
        "astId": 2848,
        "contract": "contracts/DWStaking.sol:DWStaking",
        "label": "__gap",
        "offset": 0,
        "slot": "51",
        "type": "t_array(t_uint256)50_storage"
      },
      {
        "astId": 39,
        "contract": "contracts/DWStaking.sol:DWStaking",
        "label": "_roles",
        "offset": 0,
        "slot": "101",
        "type": "t_mapping(t_bytes32,t_struct(RoleData)34_storage)"
      },
      {
        "astId": 334,
        "contract": "contracts/DWStaking.sol:DWStaking",
        "label": "__gap",
        "offset": 0,
        "slot": "102",
        "type": "t_array(t_uint256)49_storage"
      },
      {
        "astId": 598,
        "contract": "contracts/DWStaking.sol:DWStaking",
        "label": "_paused",
        "offset": 0,
        "slot": "151",
        "type": "t_bool"
      },
      {
        "astId": 703,
        "contract": "contracts/DWStaking.sol:DWStaking",
        "label": "__gap",
        "offset": 0,
        "slot": "152",
        "type": "t_array(t_uint256)49_storage"
      },
      {
        "astId": 718,
        "contract": "contracts/DWStaking.sol:DWStaking",
        "label": "_status",
        "offset": 0,
        "slot": "201",
        "type": "t_uint256"
      },
      {
        "astId": 776,
        "contract": "contracts/DWStaking.sol:DWStaking",
        "label": "__gap",
        "offset": 0,
        "slot": "202",
        "type": "t_array(t_uint256)49_storage"
      },
      {
        "astId": 4441,
        "contract": "contracts/DWStaking.sol:DWStaking",
        "label": "__gap1",
        "offset": 0,
        "slot": "251",
        "type": "t_array(t_uint256)50_storage"
      },
      {
        "astId": 4445,
        "contract": "contracts/DWStaking.sol:DWStaking",
        "label": "__gap2",
        "offset": 0,
        "slot": "301",
        "type": "t_array(t_uint256)50_storage"
      },
      {
        "astId": 4449,
        "contract": "contracts/DWStaking.sol:DWStaking",
        "label": "__gap3",
        "offset": 0,
        "slot": "351",
        "type": "t_array(t_uint256)50_storage"
      },
      {
        "astId": 4453,
        "contract": "contracts/DWStaking.sol:DWStaking",
        "label": "__gap4",
        "offset": 0,
        "slot": "401",
        "type": "t_array(t_uint256)50_storage"
      },
      {
        "astId": 6541,
        "contract": "contracts/DWStaking.sol:DWStaking",
        "label": "rewardToken",
        "offset": 0,
        "slot": "451",
        "type": "t_contract(IERC20)8961"
      },
      {
        "astId": 6544,
        "contract": "contracts/DWStaking.sol:DWStaking",
        "label": "extraRewardToken",
        "offset": 0,
        "slot": "452",
        "type": "t_contract(IERC20)8961"
      },
      {
        "astId": 6547,
        "contract": "contracts/DWStaking.sol:DWStaking",
        "label": "DDXVault",
        "offset": 0,
        "slot": "453",
        "type": "t_contract(IDDXVault)8923"
      },
      {
        "astId": 6550,
        "contract": "contracts/DWStaking.sol:DWStaking",
        "label": "vault",
        "offset": 0,
        "slot": "454",
        "type": "t_contract(IDWVault)8926"
      },
      {
        "astId": 6553,
        "contract": "contracts/DWStaking.sol:DWStaking",
        "label": "DDXStaking",
        "offset": 0,
        "slot": "455",
        "type": "t_contract(IDDXStaking)8903"
      },
      {
        "astId": 6555,
        "contract": "contracts/DWStaking.sol:DWStaking",
        "label": "treasury",
        "offset": 0,
        "slot": "456",
        "type": "t_address"
      },
      {
        "astId": 6557,
        "contract": "contracts/DWStaking.sol:DWStaking",
        "label": "admin",
        "offset": 0,
        "slot": "457",
        "type": "t_address"
      },
      {
        "astId": 6559,
        "contract": "contracts/DWStaking.sol:DWStaking",
        "label": "totalStakingContracts",
        "offset": 0,
        "slot": "458",
        "type": "t_uint256"
      },
      {
        "astId": 6561,
        "contract": "contracts/DWStaking.sol:DWStaking",
        "label": "totalStaked",
        "offset": 0,
        "slot": "459",
        "type": "t_uint256"
      },
      {
        "astId": 6563,
        "contract": "contracts/DWStaking.sol:DWStaking",
        "label": "minimumStakingAmountInUSD",
        "offset": 0,
        "slot": "460",
        "type": "t_uint256"
      },
      {
        "astId": 6565,
        "contract": "contracts/DWStaking.sol:DWStaking",
        "label": "maximumEarningsInPercent",
        "offset": 0,
        "slot": "461",
        "type": "t_uint256"
      },
      {
        "astId": 6567,
        "contract": "contracts/DWStaking.sol:DWStaking",
        "label": "claimDuration",
        "offset": 0,
        "slot": "462",
        "type": "t_uint64"
      },
      {
        "astId": 6569,
        "contract": "contracts/DWStaking.sol:DWStaking",
        "label": "directInterest",
        "offset": 0,
        "slot": "463",
        "type": "t_uint256"
      },
      {
        "astId": 6573,
        "contract": "contracts/DWStaking.sol:DWStaking",
        "label": "commissionInterestLevels",
        "offset": 0,
        "slot": "464",
        "type": "t_array(t_uint256)9_storage"
      },
      {
        "astId": 6575,
        "contract": "contracts/DWStaking.sol:DWStaking",
        "label": "emergencyCancelled",
        "offset": 0,
        "slot": "473",
        "type": "t_bool"
      },
      {
        "astId": 6580,
        "contract": "contracts/DWStaking.sol:DWStaking",
        "label": "offeredCurrencies",
        "offset": 0,
        "slot": "474",
        "type": "t_mapping(t_address,t_struct(OfferedCurrency)6526_storage)"
      },
      {
        "astId": 6585,
        "contract": "contracts/DWStaking.sol:DWStaking",
        "label": "allowedStakeTokens",
        "offset": 0,
        "slot": "475",
        "type": "t_mapping(t_address,t_struct(StakeToken)6521_storage)"
      },
      {
        "astId": 6589,
        "contract": "contracts/DWStaking.sol:DWStaking",
        "label": "assetPrices",
        "offset": 0,
        "slot": "476",
        "type": "t_mapping(t_address,t_address)"
      },
      {
        "astId": 6593,
        "contract": "contracts/DWStaking.sol:DWStaking",
        "label": "totalReferralInvitations",
        "offset": 0,
        "slot": "477",
        "type": "t_mapping(t_address,t_uint256)"
      },
      {
        "astId": 6597,
        "contract": "contracts/DWStaking.sol:DWStaking",
        "label": "referredBy",
        "offset": 0,
        "slot": "478",
        "type": "t_mapping(t_address,t_address)"
      },
      {
        "astId": 6602,
        "contract": "contracts/DWStaking.sol:DWStaking",
        "label": "stakingContracts",
        "offset": 0,
        "slot": "479",
        "type": "t_mapping(t_uint256,t_struct(StakingInfo)6518_storage)"
      },
      {
        "astId": 6606,
        "contract": "contracts/DWStaking.sol:DWStaking",
        "label": "stakingContractOwnedBy",
        "offset": 0,
        "slot": "480",
        "type": "t_mapping(t_uint256,t_address)"
      }
    ],
    "types": {
      "t_address": {
        "encoding": "inplace",
        "label": "address",
        "numberOfBytes": "20"
      },
      "t_array(t_uint256)49_storage": {
        "base": "t_uint256",
        "encoding": "inplace",
        "label": "uint256[49]",
        "numberOfBytes": "1568"
      },
      "t_array(t_uint256)50_storage": {
        "base": "t_uint256",
        "encoding": "inplace",
        "label": "uint256[50]",
        "numberOfBytes": "1600"
      },
      "t_array(t_uint256)9_storage": {
        "base": "t_uint256",
        "encoding": "inplace",
        "label": "uint256[9]",
        "numberOfBytes": "288"
      },
      "t_bool": {
        "encoding": "inplace",
        "label": "bool",
        "numberOfBytes": "1"
      },
      "t_bytes32": {
        "encoding": "inplace",
        "label": "bytes32",
        "numberOfBytes": "32"
      },
      "t_contract(IDDXStaking)8903": {
        "encoding": "inplace",
        "label": "contract IDDXStaking",
        "numberOfBytes": "20"
      },
      "t_contract(IDDXVault)8923": {
        "encoding": "inplace",
        "label": "contract IDDXVault",
        "numberOfBytes": "20"
      },
      "t_contract(IDWVault)8926": {
        "encoding": "inplace",
        "label": "contract IDWVault",
        "numberOfBytes": "20"
      },
      "t_contract(IERC20)8961": {
        "encoding": "inplace",
        "label": "contract IERC20",
        "numberOfBytes": "20"
      },
      "t_mapping(t_address,t_address)": {
        "encoding": "mapping",
        "key": "t_address",
        "label": "mapping(address => address)",
        "numberOfBytes": "32",
        "value": "t_address"
      },
      "t_mapping(t_address,t_bool)": {
        "encoding": "mapping",
        "key": "t_address",
        "label": "mapping(address => bool)",
        "numberOfBytes": "32",
        "value": "t_bool"
      },
      "t_mapping(t_address,t_struct(OfferedCurrency)6526_storage)": {
        "encoding": "mapping",
        "key": "t_address",
        "label": "mapping(address => struct DWStaking.OfferedCurrency)",
        "numberOfBytes": "32",
        "value": "t_struct(OfferedCurrency)6526_storage"
      },
      "t_mapping(t_address,t_struct(StakeToken)6521_storage)": {
        "encoding": "mapping",
        "key": "t_address",
        "label": "mapping(address => struct DWStaking.StakeToken)",
        "numberOfBytes": "32",
        "value": "t_struct(StakeToken)6521_storage"
      },
      "t_mapping(t_address,t_uint256)": {
        "encoding": "mapping",
        "key": "t_address",
        "label": "mapping(address => uint256)",
        "numberOfBytes": "32",
        "value": "t_uint256"
      },
      "t_mapping(t_bytes32,t_struct(RoleData)34_storage)": {
        "encoding": "mapping",
        "key": "t_bytes32",
        "label": "mapping(bytes32 => struct AccessControlUpgradeable.RoleData)",
        "numberOfBytes": "32",
        "value": "t_struct(RoleData)34_storage"
      },
      "t_mapping(t_uint256,t_address)": {
        "encoding": "mapping",
        "key": "t_uint256",
        "label": "mapping(uint256 => address)",
        "numberOfBytes": "32",
        "value": "t_address"
      },
      "t_mapping(t_uint256,t_struct(StakingInfo)6518_storage)": {
        "encoding": "mapping",
        "key": "t_uint256",
        "label": "mapping(uint256 => struct DWStaking.StakingInfo)",
        "numberOfBytes": "32",
        "value": "t_struct(StakingInfo)6518_storage"
      },
      "t_struct(OfferedCurrency)6526_storage": {
        "encoding": "inplace",
        "label": "struct DWStaking.OfferedCurrency",
        "members": [
          {
            "astId": 6523,
            "contract": "contracts/DWStaking.sol:DWStaking",
            "label": "decimal",
            "offset": 0,
            "slot": "0",
            "type": "t_uint256"
          },
          {
            "astId": 6525,
            "contract": "contracts/DWStaking.sol:DWStaking",
            "label": "rate",
            "offset": 0,
            "slot": "1",
            "type": "t_uint256"
          }
        ],
        "numberOfBytes": "64"
      },
      "t_struct(RoleData)34_storage": {
        "encoding": "inplace",
        "label": "struct AccessControlUpgradeable.RoleData",
        "members": [
          {
            "astId": 31,
            "contract": "contracts/DWStaking.sol:DWStaking",
            "label": "members",
            "offset": 0,
            "slot": "0",
            "type": "t_mapping(t_address,t_bool)"
          },
          {
            "astId": 33,
            "contract": "contracts/DWStaking.sol:DWStaking",
            "label": "adminRole",
            "offset": 0,
            "slot": "1",
            "type": "t_bytes32"
          }
        ],
        "numberOfBytes": "64"
      },
      "t_struct(StakeToken)6521_storage": {
        "encoding": "inplace",
        "label": "struct DWStaking.StakeToken",
        "members": [
          {
            "astId": 6520,
            "contract": "contracts/DWStaking.sol:DWStaking",
            "label": "created",
            "offset": 0,
            "slot": "0",
            "type": "t_bool"
          }
        ],
        "numberOfBytes": "32"
      },
      "t_struct(StakingInfo)6518_storage": {
        "encoding": "inplace",
        "label": "struct DWStaking.StakingInfo",
        "members": [
          {
            "astId": 6503,
            "contract": "contracts/DWStaking.sol:DWStaking",
            "label": "totalExpectedInterest",
            "offset": 0,
            "slot": "0",
            "type": "t_uint256"
          },
          {
            "astId": 6505,
            "contract": "contracts/DWStaking.sol:DWStaking",
            "label": "totalStakesInUSD",
            "offset": 0,
            "slot": "1",
            "type": "t_uint256"
          },
          {
            "astId": 6507,
            "contract": "contracts/DWStaking.sol:DWStaking",
            "label": "claimedInterest",
            "offset": 0,
            "slot": "2",
            "type": "t_uint256"
          },
          {
            "astId": 6509,
            "contract": "contracts/DWStaking.sol:DWStaking",
            "label": "claimDuration",
            "offset": 0,
            "slot": "3",
            "type": "t_uint64"
          },
          {
            "astId": 6511,
            "contract": "contracts/DWStaking.sol:DWStaking",
            "label": "dueDate",
            "offset": 8,
            "slot": "3",
            "type": "t_uint64"
          },
          {
            "astId": 6513,
            "contract": "contracts/DWStaking.sol:DWStaking",
            "label": "lastClaimedTime",
            "offset": 16,
            "slot": "3",
            "type": "t_uint64"
          },
          {
            "astId": 6515,
            "contract": "contracts/DWStaking.sol:DWStaking",
            "label": "lastUpdatedTime",
            "offset": 24,
            "slot": "3",
            "type": "t_uint64"
          },
          {
            "astId": 6517,
            "contract": "contracts/DWStaking.sol:DWStaking",
            "label": "createdAt",
            "offset": 0,
            "slot": "4",
            "type": "t_uint64"
          }
        ],
        "numberOfBytes": "160"
      },
      "t_uint256": {
        "encoding": "inplace",
        "label": "uint256",
        "numberOfBytes": "32"
      },
      "t_uint64": {
        "encoding": "inplace",
        "label": "uint64",
        "numberOfBytes": "8"
      },
      "t_uint8": {
        "encoding": "inplace",
        "label": "uint8",
        "numberOfBytes": "1"
      }
    }
  }
}