{
  "address": "0x8Ea9E3814E8336916794116e16BE9891DEE02C8E",
  "abi": [
    {
      "anonymous": false,
      "inputs": [
        {
          "indexed": true,
          "internalType": "address",
          "name": "investor",
          "type": "address"
        },
        {
          "indexed": true,
          "internalType": "address",
          "name": "offerToken",
          "type": "address"
        },
        {
          "indexed": true,
          "internalType": "address",
          "name": "beneficiary",
          "type": "address"
        },
        {
          "indexed": false,
          "internalType": "uint256",
          "name": "amount",
          "type": "uint256"
        },
        {
          "indexed": false,
          "internalType": "uint256",
          "name": "soldTokens",
          "type": "uint256"
        }
      ],
      "name": "BuyTokenByToken",
      "type": "event"
    },
    {
      "anonymous": false,
      "inputs": [
        {
          "indexed": false,
          "internalType": "uint8",
          "name": "version",
          "type": "uint8"
        }
      ],
      "name": "Initialized",
      "type": "event"
    },
    {
      "anonymous": false,
      "inputs": [
        {
          "indexed": false,
          "internalType": "address",
          "name": "account",
          "type": "address"
        }
      ],
      "name": "Paused",
      "type": "event"
    },
    {
      "anonymous": false,
      "inputs": [
        {
          "indexed": true,
          "internalType": "address",
          "name": "claimer",
          "type": "address"
        },
        {
          "indexed": true,
          "internalType": "address",
          "name": "beneficiary",
          "type": "address"
        },
        {
          "indexed": false,
          "internalType": "uint256",
          "name": "soldTokens",
          "type": "uint256"
        }
      ],
      "name": "PendingSoldTokenClaimed",
      "type": "event"
    },
    {
      "anonymous": false,
      "inputs": [
        {
          "indexed": true,
          "internalType": "bytes32",
          "name": "role",
          "type": "bytes32"
        },
        {
          "indexed": true,
          "internalType": "bytes32",
          "name": "previousAdminRole",
          "type": "bytes32"
        },
        {
          "indexed": true,
          "internalType": "bytes32",
          "name": "newAdminRole",
          "type": "bytes32"
        }
      ],
      "name": "RoleAdminChanged",
      "type": "event"
    },
    {
      "anonymous": false,
      "inputs": [
        {
          "indexed": true,
          "internalType": "bytes32",
          "name": "role",
          "type": "bytes32"
        },
        {
          "indexed": true,
          "internalType": "address",
          "name": "account",
          "type": "address"
        },
        {
          "indexed": true,
          "internalType": "address",
          "name": "sender",
          "type": "address"
        }
      ],
      "name": "RoleGranted",
      "type": "event"
    },
    {
      "anonymous": false,
      "inputs": [
        {
          "indexed": true,
          "internalType": "bytes32",
          "name": "role",
          "type": "bytes32"
        },
        {
          "indexed": true,
          "internalType": "address",
          "name": "account",
          "type": "address"
        },
        {
          "indexed": true,
          "internalType": "address",
          "name": "sender",
          "type": "address"
        }
      ],
      "name": "RoleRevoked",
      "type": "event"
    },
    {
      "anonymous": false,
      "inputs": [
        {
          "indexed": true,
          "internalType": "address",
          "name": "beneficiary",
          "type": "address"
        },
        {
          "indexed": false,
          "internalType": "uint256",
          "name": "vestedAmount",
          "type": "uint256"
        }
      ],
      "name": "TokenReleased",
      "type": "event"
    },
    {
      "anonymous": false,
      "inputs": [
        {
          "indexed": false,
          "internalType": "address",
          "name": "account",
          "type": "address"
        }
      ],
      "name": "Unpaused",
      "type": "event"
    },
    {
      "inputs": [],
      "name": "DEFAULT_ADMIN_ROLE",
      "outputs": [
        {
          "internalType": "bytes32",
          "name": "",
          "type": "bytes32"
        }
      ],
      "stateMutability": "view",
      "type": "function"
    },
    {
      "inputs": [],
      "name": "DWStaking",
      "outputs": [
        {
          "internalType": "address",
          "name": "",
          "type": "address"
        }
      ],
      "stateMutability": "view",
      "type": "function"
    },
    {
      "inputs": [],
      "name": "OWNER_ROLE",
      "outputs": [
        {
          "internalType": "bytes32",
          "name": "",
          "type": "bytes32"
        }
      ],
      "stateMutability": "view",
      "type": "function"
    },
    {
      "inputs": [],
      "name": "PAUSER_ROLE",
      "outputs": [
        {
          "internalType": "bytes32",
          "name": "",
          "type": "bytes32"
        }
      ],
      "stateMutability": "view",
      "type": "function"
    },
    {
      "inputs": [],
      "name": "SUB_ADMIN_ROLE",
      "outputs": [
        {
          "internalType": "bytes32",
          "name": "",
          "type": "bytes32"
        }
      ],
      "stateMutability": "view",
      "type": "function"
    },
    {
      "inputs": [
        {
          "internalType": "address",
          "name": "owner",
          "type": "address"
        }
      ],
      "name": "__DChainBase_init",
      "outputs": [],
      "stateMutability": "nonpayable",
      "type": "function"
    },
    {
      "inputs": [],
      "name": "admin",
      "outputs": [
        {
          "internalType": "address",
          "name": "",
          "type": "address"
        }
      ],
      "stateMutability": "view",
      "type": "function"
    },
    {
      "inputs": [],
      "name": "availableToStakeThroughVault",
      "outputs": [
        {
          "internalType": "bool",
          "name": "",
          "type": "bool"
        }
      ],
      "stateMutability": "view",
      "type": "function"
    },
    {
      "inputs": [
        {
          "internalType": "address",
          "name": "_offerToken",
          "type": "address"
        },
        {
          "internalType": "address",
          "name": "_beneficiary",
          "type": "address"
        },
        {
          "internalType": "uint256",
          "name": "_amount",
          "type": "uint256"
        }
      ],
      "name": "buyTokenWithToken",
      "outputs": [],
      "stateMutability": "nonpayable",
      "type": "function"
    },
    {
      "inputs": [
        {
          "internalType": "address",
          "name": "_beneficiary",
          "type": "address"
        }
      ],
      "name": "claim",
      "outputs": [],
      "stateMutability": "nonpayable",
      "type": "function"
    },
    {
      "inputs": [],
      "name": "closeTime",
      "outputs": [
        {
          "internalType": "uint256",
          "name": "",
          "type": "uint256"
        }
      ],
      "stateMutability": "view",
      "type": "function"
    },
    {
      "inputs": [],
      "name": "fundReceiver",
      "outputs": [
        {
          "internalType": "address",
          "name": "",
          "type": "address"
        }
      ],
      "stateMutability": "view",
      "type": "function"
    },
    {
      "inputs": [
        {
          "internalType": "bytes32",
          "name": "role",
          "type": "bytes32"
        }
      ],
      "name": "getRoleAdmin",
      "outputs": [
        {
          "internalType": "bytes32",
          "name": "",
          "type": "bytes32"
        }
      ],
      "stateMutability": "view",
      "type": "function"
    },
    {
      "inputs": [
        {
          "internalType": "bytes32",
          "name": "role",
          "type": "bytes32"
        },
        {
          "internalType": "address",
          "name": "account",
          "type": "address"
        }
      ],
      "name": "grantRole",
      "outputs": [],
      "stateMutability": "nonpayable",
      "type": "function"
    },
    {
      "inputs": [
        {
          "internalType": "bytes32",
          "name": "role",
          "type": "bytes32"
        },
        {
          "internalType": "address",
          "name": "account",
          "type": "address"
        }
      ],
      "name": "hasRole",
      "outputs": [
        {
          "internalType": "bool",
          "name": "",
          "type": "bool"
        }
      ],
      "stateMutability": "view",
      "type": "function"
    },
    {
      "inputs": [
        {
          "internalType": "address",
          "name": "_owner",
          "type": "address"
        },
        {
          "internalType": "contract IERC20",
          "name": "_soldToken",
          "type": "address"
        },
        {
          "internalType": "address",
          "name": "_treasury",
          "type": "address"
        },
        {
          "internalType": "address",
          "name": "_fundReceiver",
          "type": "address"
        },
        {
          "internalType": "address",
          "name": "_DWStaking",
          "type": "address"
        },
        {
          "internalType": "uint256",
          "name": "_tgePercentage",
          "type": "uint256"
        },
        {
          "internalType": "uint256",
          "name": "_totalRaiseAmount",
          "type": "uint256"
        },
        {
          "internalType": "uint256",
          "name": "_lockBeforeVesting",
          "type": "uint256"
        },
        {
          "internalType": "uint256",
          "name": "_openTime",
          "type": "uint256"
        },
        {
          "internalType": "uint256",
          "name": "_duration",
          "type": "uint256"
        }
      ],
      "name": "initialize",
      "outputs": [],
      "stateMutability": "nonpayable",
      "type": "function"
    },
    {
      "inputs": [],
      "name": "isAdmin",
      "outputs": [
        {
          "internalType": "bool",
          "name": "",
          "type": "bool"
        }
      ],
      "stateMutability": "view",
      "type": "function"
    },
    {
      "inputs": [],
      "name": "lockBeforeVesting",
      "outputs": [
        {
          "internalType": "uint256",
          "name": "",
          "type": "uint256"
        }
      ],
      "stateMutability": "view",
      "type": "function"
    },
    {
      "inputs": [
        {
          "internalType": "address",
          "name": "",
          "type": "address"
        }
      ],
      "name": "offeredCurrencies",
      "outputs": [
        {
          "internalType": "uint256",
          "name": "decimals",
          "type": "uint256"
        },
        {
          "internalType": "uint256",
          "name": "rate",
          "type": "uint256"
        },
        {
          "internalType": "bool",
          "name": "created",
          "type": "bool"
        }
      ],
      "stateMutability": "view",
      "type": "function"
    },
    {
      "inputs": [],
      "name": "openTime",
      "outputs": [
        {
          "internalType": "uint256",
          "name": "",
          "type": "uint256"
        }
      ],
      "stateMutability": "view",
      "type": "function"
    },
    {
      "inputs": [],
      "name": "paused",
      "outputs": [
        {
          "internalType": "bool",
          "name": "",
          "type": "bool"
        }
      ],
      "stateMutability": "view",
      "type": "function"
    },
    {
      "inputs": [
        {
          "internalType": "address",
          "name": "",
          "type": "address"
        }
      ],
      "name": "pendingSoldTokenClaim",
      "outputs": [
        {
          "internalType": "uint256",
          "name": "",
          "type": "uint256"
        }
      ],
      "stateMutability": "view",
      "type": "function"
    },
    {
      "inputs": [
        {
          "internalType": "address",
          "name": "_user",
          "type": "address"
        }
      ],
      "name": "releasableAmount",
      "outputs": [
        {
          "internalType": "uint256",
          "name": "",
          "type": "uint256"
        }
      ],
      "stateMutability": "view",
      "type": "function"
    },
    {
      "inputs": [],
      "name": "release",
      "outputs": [],
      "stateMutability": "nonpayable",
      "type": "function"
    },
    {
      "inputs": [
        {
          "internalType": "bytes32",
          "name": "role",
          "type": "bytes32"
        },
        {
          "internalType": "address",
          "name": "account",
          "type": "address"
        }
      ],
      "name": "renounceRole",
      "outputs": [],
      "stateMutability": "nonpayable",
      "type": "function"
    },
    {
      "inputs": [
        {
          "internalType": "bytes32",
          "name": "role",
          "type": "bytes32"
        },
        {
          "internalType": "address",
          "name": "account",
          "type": "address"
        }
      ],
      "name": "revokeRole",
      "outputs": [],
      "stateMutability": "nonpayable",
      "type": "function"
    },
    {
      "inputs": [
        {
          "internalType": "address",
          "name": "_currency",
          "type": "address"
        },
        {
          "internalType": "uint256",
          "name": "_rate",
          "type": "uint256"
        },
        {
          "internalType": "uint256",
          "name": "_decimals",
          "type": "uint256"
        }
      ],
      "name": "setOfferedCurrency",
      "outputs": [],
      "stateMutability": "nonpayable",
      "type": "function"
    },
    {
      "inputs": [
        {
          "internalType": "uint256",
          "name": "_tgePercentage",
          "type": "uint256"
        }
      ],
      "name": "setTGEPercentage",
      "outputs": [],
      "stateMutability": "nonpayable",
      "type": "function"
    },
    {
      "inputs": [
        {
          "internalType": "uint256",
          "name": "_totalRaiseAmount",
          "type": "uint256"
        }
      ],
      "name": "setTotalRaiseAmount",
      "outputs": [],
      "stateMutability": "nonpayable",
      "type": "function"
    },
    {
      "inputs": [],
      "name": "soldToken",
      "outputs": [
        {
          "internalType": "contract IERC20",
          "name": "",
          "type": "address"
        }
      ],
      "stateMutability": "view",
      "type": "function"
    },
    {
      "inputs": [
        {
          "internalType": "uint256",
          "name": "_originAmount",
          "type": "uint256"
        },
        {
          "internalType": "uint256",
          "name": "_lockedAmount",
          "type": "uint256"
        },
        {
          "internalType": "address",
          "name": "_referrer",
          "type": "address"
        }
      ],
      "name": "stakeWithVault",
      "outputs": [],
      "stateMutability": "nonpayable",
      "type": "function"
    },
    {
      "inputs": [
        {
          "internalType": "bytes4",
          "name": "interfaceId",
          "type": "bytes4"
        }
      ],
      "name": "supportsInterface",
      "outputs": [
        {
          "internalType": "bool",
          "name": "",
          "type": "bool"
        }
      ],
      "stateMutability": "view",
      "type": "function"
    },
    {
      "inputs": [],
      "name": "tgePercentage",
      "outputs": [
        {
          "internalType": "uint256",
          "name": "",
          "type": "uint256"
        }
      ],
      "stateMutability": "view",
      "type": "function"
    },
    {
      "inputs": [],
      "name": "totalRaiseAmount",
      "outputs": [
        {
          "internalType": "uint256",
          "name": "",
          "type": "uint256"
        }
      ],
      "stateMutability": "view",
      "type": "function"
    },
    {
      "inputs": [],
      "name": "totalRaised",
      "outputs": [
        {
          "internalType": "uint256",
          "name": "",
          "type": "uint256"
        }
      ],
      "stateMutability": "view",
      "type": "function"
    },
    {
      "inputs": [],
      "name": "totalSold",
      "outputs": [
        {
          "internalType": "uint256",
          "name": "",
          "type": "uint256"
        }
      ],
      "stateMutability": "view",
      "type": "function"
    },
    {
      "inputs": [],
      "name": "treasury",
      "outputs": [
        {
          "internalType": "address",
          "name": "",
          "type": "address"
        }
      ],
      "stateMutability": "view",
      "type": "function"
    },
    {
      "inputs": [],
      "name": "vestingDuration",
      "outputs": [
        {
          "internalType": "uint256",
          "name": "",
          "type": "uint256"
        }
      ],
      "stateMutability": "view",
      "type": "function"
    },
    {
      "inputs": [],
      "name": "vestingPeriodInSeconds",
      "outputs": [
        {
          "internalType": "uint256",
          "name": "",
          "type": "uint256"
        }
      ],
      "stateMutability": "view",
      "type": "function"
    },
    {
      "inputs": [
        {
          "internalType": "address",
          "name": "",
          "type": "address"
        }
      ],
      "name": "vestingSchedules",
      "outputs": [
        {
          "internalType": "address",
          "name": "beneficiary",
          "type": "address"
        },
        {
          "internalType": "uint256",
          "name": "cliff",
          "type": "uint256"
        },
        {
          "internalType": "uint256",
          "name": "start",
          "type": "uint256"
        },
        {
          "internalType": "uint256",
          "name": "duration",
          "type": "uint256"
        },
        {
          "internalType": "uint256",
          "name": "slicePeriodSeconds",
          "type": "uint256"
        },
        {
          "internalType": "bool",
          "name": "revocable",
          "type": "bool"
        },
        {
          "internalType": "uint256",
          "name": "amountTotal",
          "type": "uint256"
        },
        {
          "internalType": "uint256",
          "name": "released",
          "type": "uint256"
        },
        {
          "internalType": "bool",
          "name": "revoked",
          "type": "bool"
        }
      ],
      "stateMutability": "view",
      "type": "function"
    }
  ],
  "transactionHash": "0x45acefdd7514d9107227ad395a76ac57b17976074491690558725b6432153ba1",
  "args": [],
  "solcInputHash": "f5aebcb8d3bc11338a03402a54132064",
  "bytecode": "0x608060405234801561001057600080fd5b506127d3806100206000396000f3fe608060405234801561001057600080fd5b50600436106102485760003560e01c806370e6bf4d1161013b578063b6db75a0116100b8578063e58378bb1161007c578063e58378bb14610510578063e63ab1e914610525578063f851a4401461053a578063fb4aa0a11461054e578063fdb20ccb1461056257600080fd5b8063b6db75a0146104c5578063c5c4744c146104cd578063cc21d023146104d7578063cc3c70cf146104ea578063d547741f146104fd57600080fd5b8063a217fddf116100ff578063a217fddf14610497578063ae5ff7851461049f578063b1f1215c146104a9578063b3679bda146104b1578063b4256888146104bb57600080fd5b806370e6bf4d1461045557806386d1a69f1461045f5780638c8c2cee146104675780639106d7ba1461047a57806391d148541461048457600080fd5b806346e73271116101c9578063627749e61161018d578063627749e6146103fd57806362d6306f14610407578063657efde61461041a5780636769d1f91461042d5780636a736cea1461044157600080fd5b806346e73271146103595780635a3a85cb1461036c5780635b889e6e146103bc5780635c975abb146103c657806361d027b3146103d157600080fd5b8063248a9ca311610210578063248a9ca3146102dc5780632f2ff15d146102ff578063339fb6241461031257806336568abe146103335780633bcbfbc11461034657600080fd5b806301ffc9a71461024d578063022f2354146102755780631514617e146102aa5780631726cbc8146102b45780631e83409a146102c7575b600080fd5b61026061025b36600461238d565b61061e565b60405190151581526020015b60405180910390f35b61029c7fd2e4c2619ea6e0faebc405d89445161c041e30fe03373ea0473da142d57d451481565b60405190815260200161026c565b61029c6101c75481565b61029c6102c23660046121fa565b610655565b6102da6102d53660046121fa565b6106e9565b005b61029c6102ea366004612346565b60009081526065602052604090206001015490565b6102da61030d36600461235e565b610933565b61029c6103203660046121fa565b6101d36020526000908152604090205481565b6102da61034136600461235e565b61095d565b6102da610354366004612346565b6109db565b6102da610367366004612256565b610a27565b61039f61037a3660046121fa565b6101d26020526000908152604090208054600182015460029092015490919060ff1683565b60408051938452602084019290925215159082015260600161026c565b61029c6101c35481565b60975460ff16610260565b6101c9546103e5906001600160a01b031681565b6040516001600160a01b03909116815260200161026c565b61029c6101c55481565b6102da6104153660046121fa565b610c8e565b6102da6104283660046122f2565b610dc9565b6101cd546103e5906001600160a01b031681565b6101cc546103e5906001600160a01b031681565b61029c6101c65481565b6102da610e12565b6102da610475366004612346565b611034565b61029c6101d05481565b61026061049236600461235e565b61105e565b61029c600081565b61029c6101c85481565b610260611089565b61029c6101ce5481565b61029c6101c45481565b6102606110a5565b61029c6101cf5481565b6102da6104e5366004612216565b6110c4565b6102da6104f83660046123cd565b61137f565b6102da61050b36600461235e565b6116e9565b61029c60008051602061275e83398151915281565b61029c60008051602061277e83398151915281565b6101ca546103e5906001600160a01b031681565b6101cb546103e5906001600160a01b031681565b6105cc6105703660046121fa565b6101d4602052600090815260409020805460018201546002830154600384015460048501546005860154600687015460078801546008909801546001600160a01b0390971697959694959394929360ff92831693919290911689565b604080516001600160a01b03909a168a5260208a01989098529688019590955260608701939093526080860191909152151560a085015260c084015260e083015215156101008201526101200161026c565b60006001600160e01b03198216637965db0b60e01b148061064f57506301ffc9a760e01b6001600160e01b03198316145b92915050565b6001600160a01b0380821660009081526101d460209081526040808320815161012081018352815490951685526001810154928501929092526002820154908401526003810154606084015260048101546080840152600581015460ff908116151560a0850152600682015460c0850152600782015460e08501526008909101541615156101008301529061064f9061170e565b6106f16117df565b6106f9611825565b3360009081526101d360205260409020546101c554421161075b5760405162461bcd60e51b81526020600482015260176024820152761c1bdbdb0e881cd85b19481a5cc81b9bdd08195b991959604a1b60448201526064015b60405180910390fd5b6101c6546101c55461076d9190612592565b4211156107b85760405162461bcd60e51b81526020600482015260196024820152781c1bdbdb0e8818db185a5b481d1a5b59481a5cc8195b991959603a1b6044820152606401610752565b6000811161081c5760405162461bcd60e51b815260206004820152602b60248201527f706f6f6c3a2070656e64696e6720636c61696d20616d6f756e74206d7573742060448201526a626520706f73697469766560a81b6064820152608401610752565b60006127106101c3548361083091906126b5565b61083a91906125aa565b9050600061084882846126d4565b9050811561085a5761085a848361187f565b6001600160a01b0380851660009081526101d46020526040902080549091166108aa576108a5856101c6546101c5546108939190612592565b60006101c7546101c85460018861189f565b6108c4565b818160060160008282546108be9190612592565b90915550505b3360008181526101d360205260408120556001600160a01b038616906001600160a01b03167f62184397e6a3fbbb9cd9b7aeba604a3ad439665f9fc7b58126dab25b0b3310f98660405161091a91815260200190565b60405180910390a350505050610930600160c955565b50565b60008281526065602052604090206001015461094e81611b0e565b6109588383611b18565b505050565b6001600160a01b03811633146109cd5760405162461bcd60e51b815260206004820152602f60248201527f416363657373436f6e74726f6c3a2063616e206f6e6c792072656e6f756e636560448201526e103937b632b9903337b91039b2b63360891b6064820152608401610752565b6109d78282611b9e565b5050565b6109e36110a5565b6109ff5760405162461bcd60e51b815260040161075290612547565b612710811115610a215760405162461bcd60e51b81526004016107529061252a565b6101c355565b600054610100900460ff1615808015610a475750600054600160ff909116105b80610a615750303b158015610a61575060005460ff166001145b610ac45760405162461bcd60e51b815260206004820152602e60248201527f496e697469616c697a61626c653a20636f6e747261637420697320616c72656160448201526d191e481a5b9a5d1a585b1a5e995960921b6064820152608401610752565b6000805460ff191660011790558015610ae7576000805461ff0019166101001790555b610af08b610c8e565b6001600160a01b038716610b165760405162461bcd60e51b8152600401610752906124c3565b6001600160a01b038a16610b3c5760405162461bcd60e51b8152600401610752906124c3565b6001600160a01b038916610b625760405162461bcd60e51b8152600401610752906124c3565b6001600160a01b038816610b885760405162461bcd60e51b8152600401610752906124c3565b612710861115610baa5760405162461bcd60e51b81526004016107529061252a565b6101c4839055610bba8284612592565b6101c5556101c68490556101cd80546001600160a01b03808d166001600160a01b0319928316179092556101c980548c84169083161790556101cb80548b84169083161790556101cc8054928a16928216929092179091556101ce8690556101c38790556101ca80549091163317905563031704006101c75562278d006101c8558015610c81576000805461ff0019169055604051600181527f7f26b83ff96e1f2b6a682f133852f6798a09c465da95921460cefb38474024989060200160405180910390a15b5050505050505050505050565b600054610100900460ff16610cb55760405162461bcd60e51b8152600401610752906124df565b6001600160a01b038116610d0b5760405162461bcd60e51b815260206004820181905260248201527f4f776e65722063616e6e6f7420626520746865207a65726f20616464726573736044820152606401610752565b610d13611c05565b610d1b611c2c565b610d23611c5b565b610d3b60008051602061275e83398151915282611c8a565b610d5360008051602061277e83398151915282611c8a565b610d8b7fd2e4c2619ea6e0faebc405d89445161c041e30fe03373ea0473da142d57d451460008051602061275e833981519152611c94565b610db160008051602061277e83398151915260008051602061275e833981519152611c94565b61093060008051602061275e83398151915280611c94565b610dd16110a5565b610ded5760405162461bcd60e51b815260040161075290612547565b6001600160a01b0390921660009081526101d260205260409020600181019190915555565b610e1a611825565b3360008181526101d460205260409020805490916001600160a01b039091161480610ea85760405162461bcd60e51b815260206004820152603860248201527f546f6b656e56657374696e673a206f6e6c792062656e65666963696172792063604482015277616e2072656c656173652076657374656420746f6b656e7360401b6064820152608401610752565b604080516101208101825283546001600160a01b03168152600184015460208201526002840154918101919091526003830154606082015260048301546080820152600583015460ff908116151560a0830152600684015460c0830152600784015460e08301526008840154161515610100820152600090610f299061170e565b905060008111610fa15760405162461bcd60e51b815260206004820152603d60248201527f546f6b656e56657374696e673a2063616e6e6f742072656c6561736520746f6b60448201527f656e732c206e6f7420656e6f7567682076657374656420746f6b656e730000006064820152608401610752565b808360070154610fb19190612592565b600784015582546101d1546001600160a01b0390911690610fd39083906126d4565b6101d155610fe1818361187f565b806001600160a01b03167f9cf9e3ab58b33f06d81842ea0ad850b6640c6430d6396973312e1715792e7a918360405161101c91815260200190565b60405180910390a250505050611032600160c955565b565b61103c6110a5565b6110585760405162461bcd60e51b815260040161075290612547565b6101ce55565b60009182526065602090815260408084206001600160a01b0393909316845291905290205460ff1690565b60006101c6546101c55461109d9190612592565b421115905090565b60006110bf60008051602061275e8339815191523361105e565b905090565b6110cc6117df565b6110d4611825565b6001600160a01b03831660009081526101d26020908152604091829020825160608101845281548152600182015492810183905260029091015460ff1615159281019290925261117b5760405162461bcd60e51b815260206004820152602c60248201527f50726573616c65506f6f6c3a3a4f666665722063757272656e6379207261746560448201526b20697320696e76616c69642160a01b6064820152608401610752565b611183611cdf565b6111cf5760405162461bcd60e51b815260206004820152601b60248201527f50726573616c65506f6f6c3a3a506f6f6c20697320656e6465642100000000006044820152606401610752565b6111da338584611cfd565b6112425760405162461bcd60e51b815260206004820152603360248201527f50726573616c65506f6f6c3a3a416c6c6f77616e636520666f72206f66666572604482015272656420746f6b656e20756e726561636865642160681b6064820152608401610752565b600061124e8584611d8d565b90506101ce546101d054826112639190612592565b11156112ca5760405162461bcd60e51b815260206004820152603060248201527f50726573616c65506f6f6c3a3a507572636861736520616d6f756e742065786360448201526f65656473206d617820616d6f756e742160801b6064820152608401610752565b6112d48584611e01565b6001600160a01b03841660009081526101d36020526040812080548392906112fd908490612592565b90915550506101cf54611311908490612592565b6101cf556101d054611324908290612592565b6101d05560408051848152602081018390526001600160a01b03868116929088169133917f0eb64e5e4e82e4f05908b1b3d0f57d3c46b43a50a7e86944ee4b914d1a9a9270910160405180910390a45050610958600160c955565b611387611089565b6113e85760405162461bcd60e51b815260206004820152602c60248201527f706f6f6c3a206e6f7420616c6c6f7720746f207374616b65206166746572207660448201526b195cdd1a5b99c81cdd185c9d60a21b6064820152608401610752565b3360008181526101d46020526040902080546001600160a01b0316821461145c5760405162461bcd60e51b815260206004820152602260248201527f706f6f6c3a2076657374696e67207363686564756c65206e6f74206578697374604482015261195960f21b6064820152608401610752565b6101cd54604051636eb1769f60e11b81526001600160a01b0384811660048301523060248301528792169063dd62ed3e9060440160206040518083038186803b1580156114a857600080fd5b505afa1580156114bc573d6000803e3d6000fd5b505050506040513d601f19601f820116820180604052508101906114e091906123b5565b101561152e5760405162461bcd60e51b815260206004820152601a60248201527f706f6f6c3a20616c6c6f77616e6365206e6f7420656e6f7567680000000000006044820152606401610752565b83816006015410156115a85760405162461bcd60e51b815260206004820152603f60248201527f706f6f6c3a2076657374696e67207363686564756c6520616d6f756e7420746f60448201527f74616c206e6f7420656e6f75676820746f20636f766572207374616b696e67006064820152608401610752565b8415611653576101cd546115c7906001600160a01b0316333088611e15565b6101cd546101cc5460405163095ea7b360e01b81526001600160a01b0391821660048201526024810188905291169063095ea7b390604401602060405180830381600087803b15801561161957600080fd5b505af115801561162d573d6000803e3d6000fd5b505050506040513d601f19601f820116820180604052508101906116519190612326565b505b6101cc54604051638e1303d760e01b815260048101879052602481018690526001600160a01b038481166044830152858116606483015290911690638e1303d790608401600060405180830381600087803b1580156116b157600080fd5b505af11580156116c5573d6000803e3d6000fd5b50505050838160060160008282546116dd91906126d4565b90915550505050505050565b60008281526065602052604090206001015461170481611b0e565b6109588383611b9e565b6020810151600090429081108061172757508261010001515b156117355750600092915050565b826060015183604001516117499190612592565b811061176a578260e001518360c0015161176391906126d4565b9392505050565b600083604001518261177c91906126d4565b6080850151909150600061179082846125aa565b9050600061179e83836126b5565b905060008760600151828960c001516117b791906126b5565b6117c191906125aa565b90508760e00151816117d391906126d4565b98975050505050505050565b60975460ff16156110325760405162461bcd60e51b815260206004820152601060248201526f14185d5cd8589b194e881c185d5cd95960821b6044820152606401610752565b600260c95414156118785760405162461bcd60e51b815260206004820152601f60248201527f5265656e7472616e637947756172643a207265656e7472616e742063616c6c006044820152606401610752565b600260c955565b6101cd546101c9546109d7916001600160a01b0390811691168484611e15565b600084116118fa5760405162461bcd60e51b815260206004820152602260248201527f546f6b656e56657374696e673a206475726174696f6e206d757374206265203e604482015261020360f41b6064820152608401610752565b6000811161194a5760405162461bcd60e51b815260206004820181905260248201527f546f6b656e56657374696e673a20616d6f756e74206d757374206265203e20306044820152606401610752565b60018310156119b15760405162461bcd60e51b815260206004820152602d60248201527f546f6b656e56657374696e673a20736c696365506572696f645365636f6e647360448201526c206d757374206265203e3d203160981b6064820152608401610752565b84841015611a115760405162461bcd60e51b815260206004820152602760248201527f546f6b656e56657374696e673a206475726174696f6e206d757374206265203e6044820152661e9031b634b33360c91b6064820152608401610752565b6000611a1d8688612592565b60408051610120810182526001600160a01b03808c1680835260208084018681528486018e8152606086018d8152608087018d81528c151560a0890190815260c089018d8152600060e08b018181526101008c018281529982526101d49098529a909a209851895498166001600160a01b03199098169790971788559251600188015590516002870155516003860155516004850155915160058401805491151560ff1992831617905593516006840155905160078301555160089091018054911515919092161790556101d154909150611af9908390612592565b6101d1555050505050505050565b600160c955565b6109308133611f53565b611b22828261105e565b6109d75760008281526065602090815260408083206001600160a01b03851684529091529020805460ff19166001179055611b5a3390565b6001600160a01b0316816001600160a01b0316837f2f8788117e7eff1d82e926ec794901d17c78024a50270940304540a733656f0d60405160405180910390a45050565b611ba8828261105e565b156109d75760008281526065602090815260408083206001600160a01b0385168085529252808320805460ff1916905551339285917ff6391f5c32d9c69d2a47ea670b442974b53935d1edc7fd64eb21e047a839171b9190a45050565b600054610100900460ff166110325760405162461bcd60e51b8152600401610752906124df565b600054610100900460ff16611c535760405162461bcd60e51b8152600401610752906124df565b611032611fac565b600054610100900460ff16611c825760405162461bcd60e51b8152600401610752906124df565b611032611fdf565b6109d78282611b18565b600082815260656020526040808220600101805490849055905190918391839186917fbd79b86ffe0ab8e8776151514217cd7cacd52c909f66475c3af44e129f0b00ff9190a4505050565b6000806101c454421015801561064f57506101c55442111592915050565b604051636eb1769f60e11b81526001600160a01b038481166004830152306024830152600091829185169063dd62ed3e9060440160206040518083038186803b158015611d4957600080fd5b505afa158015611d5d573d6000803e3d6000fd5b505050506040513d601f19601f82011682018060405250810190611d8191906123b5565b90921115949350505050565b6001600160a01b03821660009081526101d2602090815260408083208151606081018352815480825260018301549482019490945260029091015460ff1615159181019190915290611de090600a61260d565b6020820151611def90856126b5565b611df991906125aa565b949350505050565b6109d782336101cb546001600160a01b0316845b604080516001600160a01b0385811660248301528481166044830152606480830185905283518084039091018152608490920183526020820180516001600160e01b03166323b872dd60e01b1790529151600092839290881691611e799190612405565b6000604051808303816000865af19150503d8060008114611eb6576040519150601f19603f3d011682016040523d82523d6000602084013e611ebb565b606091505b5091509150818015611ee5575080511580611ee5575080806020019051810190611ee59190612326565b611f4b5760405162461bcd60e51b815260206004820152603160248201527f5472616e7366657248656c7065723a3a7472616e7366657246726f6d3a207472604482015270185b9cd9995c919c9bdb4819985a5b1959607a1b6064820152608401610752565b505050505050565b611f5d828261105e565b6109d757611f6a81612006565b611f75836020612018565b604051602001611f86929190612421565b60408051601f198184030181529082905262461bcd60e51b825261075291600401612490565b600054610100900460ff16611fd35760405162461bcd60e51b8152600401610752906124df565b6097805460ff19169055565b600054610100900460ff16611b075760405162461bcd60e51b8152600401610752906124df565b606061064f6001600160a01b03831660145b606060006120278360026126b5565b612032906002612592565b67ffffffffffffffff81111561205857634e487b7160e01b600052604160045260246000fd5b6040519080825280601f01601f191660200182016040528015612082576020820181803683370190505b509050600360fc1b816000815181106120ab57634e487b7160e01b600052603260045260246000fd5b60200101906001600160f81b031916908160001a905350600f60fb1b816001815181106120e857634e487b7160e01b600052603260045260246000fd5b60200101906001600160f81b031916908160001a905350600061210c8460026126b5565b612117906001612592565b90505b60018111156121ab576f181899199a1a9b1b9c1cb0b131b232b360811b85600f166010811061215957634e487b7160e01b600052603260045260246000fd5b1a60f81b82828151811061217d57634e487b7160e01b600052603260045260246000fd5b60200101906001600160f81b031916908160001a90535060049490941c936121a48161271b565b905061211a565b5083156117635760405162461bcd60e51b815260206004820181905260248201527f537472696e67733a20686578206c656e67746820696e73756666696369656e746044820152606401610752565b60006020828403121561220b578081fd5b813561176381612748565b60008060006060848603121561222a578182fd5b833561223581612748565b9250602084013561224581612748565b929592945050506040919091013590565b6000806000806000806000806000806101408b8d031215612275578586fd5b8a3561228081612748565b995060208b013561229081612748565b985060408b01356122a081612748565b975060608b01356122b081612748565b965060808b01356122c081612748565b999c989b50969995989760a0870135975060c08701359660e08101359650610100810135955061012001359350915050565b600080600060608486031215612306578283fd5b833561231181612748565b95602085013595506040909401359392505050565b600060208284031215612337578081fd5b81518015158114611763578182fd5b600060208284031215612357578081fd5b5035919050565b60008060408385031215612370578182fd5b82359150602083013561238281612748565b809150509250929050565b60006020828403121561239e578081fd5b81356001600160e01b031981168114611763578182fd5b6000602082840312156123c6578081fd5b5051919050565b6000806000606084860312156123e1578283fd5b833592506020840135915060408401356123fa81612748565b809150509250925092565b600082516124178184602087016126eb565b9190910192915050565b76020b1b1b2b9b9a1b7b73a3937b61d1030b1b1b7bab73a1604d1b8152600083516124538160178501602088016126eb565b7001034b99036b4b9b9b4b733903937b6329607d1b60179184019182015283516124848160288401602088016126eb565b01602801949350505050565b60208152600082518060208401526124af8160408501602087016126eb565b601f01601f19169190910160400192915050565b6020808252600290820152615a4160f01b604082015260600190565b6020808252602b908201527f496e697469616c697a61626c653a20636f6e7472616374206973206e6f74206960408201526a6e697469616c697a696e6760a81b606082015260800190565b6020808252600390820152620454f560ec1b604082015260600190565b6020808252602b908201527f4d75737420686176652061646d696e20726f6c6520746f20706572666f726d2060408201526a3a3434b99030b1ba34b7b760a91b606082015260800190565b600082198211156125a5576125a5612732565b500190565b6000826125c557634e487b7160e01b81526012600452602481fd5b500490565b600181815b808511156126055781600019048211156125eb576125eb612732565b808516156125f857918102915b93841c93908002906125cf565b509250929050565b600061176383836000826126235750600161064f565b816126305750600061064f565b816001811461264657600281146126505761266c565b600191505061064f565b60ff84111561266157612661612732565b50506001821b61064f565b5060208310610133831016604e8410600b841016171561268f575081810a61064f565b61269983836125ca565b80600019048211156126ad576126ad612732565b029392505050565b60008160001904831182151516156126cf576126cf612732565b500290565b6000828210156126e6576126e6612732565b500390565b60005b838110156127065781810151838201526020016126ee565b83811115612715576000848401525b50505050565b60008161272a5761272a612732565b506000190190565b634e487b7160e01b600052601160045260246000fd5b6001600160a01b038116811461093057600080fdfeb19546dff01e856fb3f010c267a7b1c60363cf8a4664e21cc89c26224620214e65d7a28e3265b37a6474929f336521b332c1681b933f6cb9f3376673440d862aa26469706673582212200c0ce91300ad763b0a0ee5268ee79b676219de4d4ba1c49d6ec68df0813f02ba64736f6c63430008040033",
  "devdoc": {
    "kind": "dev",
    "methods": {
      "getRoleAdmin(bytes32)": {
        "details": "Returns the admin role that controls `role`. See {grantRole} and {revokeRole}. To change a role's admin, use {_setRoleAdmin}."
      },
      "grantRole(bytes32,address)": {
        "details": "Grants `role` to `account`. If `account` had not been already granted `role`, emits a {RoleGranted} event. Requirements: - the caller must have ``role``'s admin role. May emit a {RoleGranted} event."
      },
      "hasRole(bytes32,address)": {
        "details": "Returns `true` if `account` has been granted `role`."
      },
      "paused()": {
        "details": "Returns true if the contract is paused, and false otherwise."
      },
      "renounceRole(bytes32,address)": {
        "details": "Revokes `role` from the calling account. Roles are often managed via {grantRole} and {revokeRole}: this function's purpose is to provide a mechanism for accounts to lose their privileges if they are compromised (such as when a trusted device is misplaced). If the calling account had been revoked `role`, emits a {RoleRevoked} event. Requirements: - the caller must be `account`. May emit a {RoleRevoked} event."
      },
      "revokeRole(bytes32,address)": {
        "details": "Revokes `role` from `account`. If `account` had been granted `role`, emits a {RoleRevoked} event. Requirements: - the caller must have ``role``'s admin role. May emit a {RoleRevoked} event."
      },
      "supportsInterface(bytes4)": {
        "details": "See {IERC165-supportsInterface}."
      }
    },
    "version": 1
  },
  "userdoc": {
    "kind": "user",
    "methods": {
      "release()": {
        "notice": "Release vested amount of tokens."
      }
    },
    "version": 1
  },
  "storageLayout": {
    "storage": [
      {
        "astId": 415,
        "contract": "contracts/DWVault.sol:DWVault",
        "label": "_initialized",
        "offset": 0,
        "slot": "0",
        "type": "t_uint8"
      },
      {
        "astId": 418,
        "contract": "contracts/DWVault.sol:DWVault",
        "label": "_initializing",
        "offset": 1,
        "slot": "0",
        "type": "t_bool"
      },
      {
        "astId": 2044,
        "contract": "contracts/DWVault.sol:DWVault",
        "label": "__gap",
        "offset": 0,
        "slot": "1",
        "type": "t_array(t_uint256)50_storage"
      },
      {
        "astId": 2848,
        "contract": "contracts/DWVault.sol:DWVault",
        "label": "__gap",
        "offset": 0,
        "slot": "51",
        "type": "t_array(t_uint256)50_storage"
      },
      {
        "astId": 39,
        "contract": "contracts/DWVault.sol:DWVault",
        "label": "_roles",
        "offset": 0,
        "slot": "101",
        "type": "t_mapping(t_bytes32,t_struct(RoleData)34_storage)"
      },
      {
        "astId": 334,
        "contract": "contracts/DWVault.sol:DWVault",
        "label": "__gap",
        "offset": 0,
        "slot": "102",
        "type": "t_array(t_uint256)49_storage"
      },
      {
        "astId": 598,
        "contract": "contracts/DWVault.sol:DWVault",
        "label": "_paused",
        "offset": 0,
        "slot": "151",
        "type": "t_bool"
      },
      {
        "astId": 703,
        "contract": "contracts/DWVault.sol:DWVault",
        "label": "__gap",
        "offset": 0,
        "slot": "152",
        "type": "t_array(t_uint256)49_storage"
      },
      {
        "astId": 718,
        "contract": "contracts/DWVault.sol:DWVault",
        "label": "_status",
        "offset": 0,
        "slot": "201",
        "type": "t_uint256"
      },
      {
        "astId": 776,
        "contract": "contracts/DWVault.sol:DWVault",
        "label": "__gap",
        "offset": 0,
        "slot": "202",
        "type": "t_array(t_uint256)49_storage"
      },
      {
        "astId": 4441,
        "contract": "contracts/DWVault.sol:DWVault",
        "label": "__gap1",
        "offset": 0,
        "slot": "251",
        "type": "t_array(t_uint256)50_storage"
      },
      {
        "astId": 4445,
        "contract": "contracts/DWVault.sol:DWVault",
        "label": "__gap2",
        "offset": 0,
        "slot": "301",
        "type": "t_array(t_uint256)50_storage"
      },
      {
        "astId": 4449,
        "contract": "contracts/DWVault.sol:DWVault",
        "label": "__gap3",
        "offset": 0,
        "slot": "351",
        "type": "t_array(t_uint256)50_storage"
      },
      {
        "astId": 4453,
        "contract": "contracts/DWVault.sol:DWVault",
        "label": "__gap4",
        "offset": 0,
        "slot": "401",
        "type": "t_array(t_uint256)50_storage"
      },
      {
        "astId": 7944,
        "contract": "contracts/DWVault.sol:DWVault",
        "label": "tgePercentage",
        "offset": 0,
        "slot": "451",
        "type": "t_uint256"
      },
      {
        "astId": 7946,
        "contract": "contracts/DWVault.sol:DWVault",
        "label": "openTime",
        "offset": 0,
        "slot": "452",
        "type": "t_uint256"
      },
      {
        "astId": 7948,
        "contract": "contracts/DWVault.sol:DWVault",
        "label": "closeTime",
        "offset": 0,
        "slot": "453",
        "type": "t_uint256"
      },
      {
        "astId": 7950,
        "contract": "contracts/DWVault.sol:DWVault",
        "label": "lockBeforeVesting",
        "offset": 0,
        "slot": "454",
        "type": "t_uint256"
      },
      {
        "astId": 7952,
        "contract": "contracts/DWVault.sol:DWVault",
        "label": "vestingDuration",
        "offset": 0,
        "slot": "455",
        "type": "t_uint256"
      },
      {
        "astId": 7954,
        "contract": "contracts/DWVault.sol:DWVault",
        "label": "vestingPeriodInSeconds",
        "offset": 0,
        "slot": "456",
        "type": "t_uint256"
      },
      {
        "astId": 7956,
        "contract": "contracts/DWVault.sol:DWVault",
        "label": "treasury",
        "offset": 0,
        "slot": "457",
        "type": "t_address"
      },
      {
        "astId": 7958,
        "contract": "contracts/DWVault.sol:DWVault",
        "label": "admin",
        "offset": 0,
        "slot": "458",
        "type": "t_address"
      },
      {
        "astId": 7960,
        "contract": "contracts/DWVault.sol:DWVault",
        "label": "fundReceiver",
        "offset": 0,
        "slot": "459",
        "type": "t_address"
      },
      {
        "astId": 7962,
        "contract": "contracts/DWVault.sol:DWVault",
        "label": "DWStaking",
        "offset": 0,
        "slot": "460",
        "type": "t_address"
      },
      {
        "astId": 7965,
        "contract": "contracts/DWVault.sol:DWVault",
        "label": "soldToken",
        "offset": 0,
        "slot": "461",
        "type": "t_contract(IERC20)8961"
      },
      {
        "astId": 7967,
        "contract": "contracts/DWVault.sol:DWVault",
        "label": "totalRaiseAmount",
        "offset": 0,
        "slot": "462",
        "type": "t_uint256"
      },
      {
        "astId": 7969,
        "contract": "contracts/DWVault.sol:DWVault",
        "label": "totalRaised",
        "offset": 0,
        "slot": "463",
        "type": "t_uint256"
      },
      {
        "astId": 7971,
        "contract": "contracts/DWVault.sol:DWVault",
        "label": "totalSold",
        "offset": 0,
        "slot": "464",
        "type": "t_uint256"
      },
      {
        "astId": 7973,
        "contract": "contracts/DWVault.sol:DWVault",
        "label": "vestingSchedulesTotalAmount",
        "offset": 0,
        "slot": "465",
        "type": "t_uint256"
      },
      {
        "astId": 7978,
        "contract": "contracts/DWVault.sol:DWVault",
        "label": "offeredCurrencies",
        "offset": 0,
        "slot": "466",
        "type": "t_mapping(t_address,t_struct(OfferedCurrency)7939_storage)"
      },
      {
        "astId": 7982,
        "contract": "contracts/DWVault.sol:DWVault",
        "label": "pendingSoldTokenClaim",
        "offset": 0,
        "slot": "467",
        "type": "t_mapping(t_address,t_uint256)"
      },
      {
        "astId": 7987,
        "contract": "contracts/DWVault.sol:DWVault",
        "label": "vestingSchedules",
        "offset": 0,
        "slot": "468",
        "type": "t_mapping(t_address,t_struct(VestingSchedule)7932_storage)"
      }
    ],
    "types": {
      "t_address": {
        "encoding": "inplace",
        "label": "address",
        "numberOfBytes": "20"
      },
      "t_array(t_uint256)49_storage": {
        "base": "t_uint256",
        "encoding": "inplace",
        "label": "uint256[49]",
        "numberOfBytes": "1568"
      },
      "t_array(t_uint256)50_storage": {
        "base": "t_uint256",
        "encoding": "inplace",
        "label": "uint256[50]",
        "numberOfBytes": "1600"
      },
      "t_bool": {
        "encoding": "inplace",
        "label": "bool",
        "numberOfBytes": "1"
      },
      "t_bytes32": {
        "encoding": "inplace",
        "label": "bytes32",
        "numberOfBytes": "32"
      },
      "t_contract(IERC20)8961": {
        "encoding": "inplace",
        "label": "contract IERC20",
        "numberOfBytes": "20"
      },
      "t_mapping(t_address,t_bool)": {
        "encoding": "mapping",
        "key": "t_address",
        "label": "mapping(address => bool)",
        "numberOfBytes": "32",
        "value": "t_bool"
      },
      "t_mapping(t_address,t_struct(OfferedCurrency)7939_storage)": {
        "encoding": "mapping",
        "key": "t_address",
        "label": "mapping(address => struct DWVault.OfferedCurrency)",
        "numberOfBytes": "32",
        "value": "t_struct(OfferedCurrency)7939_storage"
      },
      "t_mapping(t_address,t_struct(VestingSchedule)7932_storage)": {
        "encoding": "mapping",
        "key": "t_address",
        "label": "mapping(address => struct DWVault.VestingSchedule)",
        "numberOfBytes": "32",
        "value": "t_struct(VestingSchedule)7932_storage"
      },
      "t_mapping(t_address,t_uint256)": {
        "encoding": "mapping",
        "key": "t_address",
        "label": "mapping(address => uint256)",
        "numberOfBytes": "32",
        "value": "t_uint256"
      },
      "t_mapping(t_bytes32,t_struct(RoleData)34_storage)": {
        "encoding": "mapping",
        "key": "t_bytes32",
        "label": "mapping(bytes32 => struct AccessControlUpgradeable.RoleData)",
        "numberOfBytes": "32",
        "value": "t_struct(RoleData)34_storage"
      },
      "t_struct(OfferedCurrency)7939_storage": {
        "encoding": "inplace",
        "label": "struct DWVault.OfferedCurrency",
        "members": [
          {
            "astId": 7934,
            "contract": "contracts/DWVault.sol:DWVault",
            "label": "decimals",
            "offset": 0,
            "slot": "0",
            "type": "t_uint256"
          },
          {
            "astId": 7936,
            "contract": "contracts/DWVault.sol:DWVault",
            "label": "rate",
            "offset": 0,
            "slot": "1",
            "type": "t_uint256"
          },
          {
            "astId": 7938,
            "contract": "contracts/DWVault.sol:DWVault",
            "label": "created",
            "offset": 0,
            "slot": "2",
            "type": "t_bool"
          }
        ],
        "numberOfBytes": "96"
      },
      "t_struct(RoleData)34_storage": {
        "encoding": "inplace",
        "label": "struct AccessControlUpgradeable.RoleData",
        "members": [
          {
            "astId": 31,
            "contract": "contracts/DWVault.sol:DWVault",
            "label": "members",
            "offset": 0,
            "slot": "0",
            "type": "t_mapping(t_address,t_bool)"
          },
          {
            "astId": 33,
            "contract": "contracts/DWVault.sol:DWVault",
            "label": "adminRole",
            "offset": 0,
            "slot": "1",
            "type": "t_bytes32"
          }
        ],
        "numberOfBytes": "64"
      },
      "t_struct(VestingSchedule)7932_storage": {
        "encoding": "inplace",
        "label": "struct DWVault.VestingSchedule",
        "members": [
          {
            "astId": 7915,
            "contract": "contracts/DWVault.sol:DWVault",
            "label": "beneficiary",
            "offset": 0,
            "slot": "0",
            "type": "t_address"
          },
          {
            "astId": 7917,
            "contract": "contracts/DWVault.sol:DWVault",
            "label": "cliff",
            "offset": 0,
            "slot": "1",
            "type": "t_uint256"
          },
          {
            "astId": 7919,
            "contract": "contracts/DWVault.sol:DWVault",
            "label": "start",
            "offset": 0,
            "slot": "2",
            "type": "t_uint256"
          },
          {
            "astId": 7921,
            "contract": "contracts/DWVault.sol:DWVault",
            "label": "duration",
            "offset": 0,
            "slot": "3",
            "type": "t_uint256"
          },
          {
            "astId": 7923,
            "contract": "contracts/DWVault.sol:DWVault",
            "label": "slicePeriodSeconds",
            "offset": 0,
            "slot": "4",
            "type": "t_uint256"
          },
          {
            "astId": 7925,
            "contract": "contracts/DWVault.sol:DWVault",
            "label": "revocable",
            "offset": 0,
            "slot": "5",
            "type": "t_bool"
          },
          {
            "astId": 7927,
            "contract": "contracts/DWVault.sol:DWVault",
            "label": "amountTotal",
            "offset": 0,
            "slot": "6",
            "type": "t_uint256"
          },
          {
            "astId": 7929,
            "contract": "contracts/DWVault.sol:DWVault",
            "label": "released",
            "offset": 0,
            "slot": "7",
            "type": "t_uint256"
          },
          {
            "astId": 7931,
            "contract": "contracts/DWVault.sol:DWVault",
            "label": "revoked",
            "offset": 0,
            "slot": "8",
            "type": "t_bool"
          }
        ],
        "numberOfBytes": "288"
      },
      "t_uint256": {
        "encoding": "inplace",
        "label": "uint256",
        "numberOfBytes": "32"
      },
      "t_uint8": {
        "encoding": "inplace",
        "label": "uint8",
        "numberOfBytes": "1"
      }
    }
  }
}