{
  "address": "0xb3315B64DD24AAc7F45af6580907d78F3b16eDEe",
  "abi": [
    {
      "anonymous": false,
      "inputs": [
        {
          "indexed": false,
          "internalType": "uint8",
          "name": "version",
          "type": "uint8"
        }
      ],
      "name": "Initialized",
      "type": "event"
    },
    {
      "anonymous": false,
      "inputs": [
        {
          "indexed": true,
          "internalType": "bytes32",
          "name": "id",
          "type": "bytes32"
        },
        {
          "indexed": true,
          "internalType": "address",
          "name": "recipient",
          "type": "address"
        },
        {
          "indexed": false,
          "internalType": "uint256",
          "name": "amount",
          "type": "uint256"
        }
      ],
      "name": "OrderExecuted",
      "type": "event"
    },
    {
      "anonymous": false,
      "inputs": [
        {
          "indexed": false,
          "internalType": "address",
          "name": "account",
          "type": "address"
        }
      ],
      "name": "Paused",
      "type": "event"
    },
    {
      "anonymous": false,
      "inputs": [
        {
          "indexed": true,
          "internalType": "bytes32",
          "name": "role",
          "type": "bytes32"
        },
        {
          "indexed": true,
          "internalType": "bytes32",
          "name": "previousAdminRole",
          "type": "bytes32"
        },
        {
          "indexed": true,
          "internalType": "bytes32",
          "name": "newAdminRole",
          "type": "bytes32"
        }
      ],
      "name": "RoleAdminChanged",
      "type": "event"
    },
    {
      "anonymous": false,
      "inputs": [
        {
          "indexed": true,
          "internalType": "bytes32",
          "name": "role",
          "type": "bytes32"
        },
        {
          "indexed": true,
          "internalType": "address",
          "name": "account",
          "type": "address"
        },
        {
          "indexed": true,
          "internalType": "address",
          "name": "sender",
          "type": "address"
        }
      ],
      "name": "RoleGranted",
      "type": "event"
    },
    {
      "anonymous": false,
      "inputs": [
        {
          "indexed": true,
          "internalType": "bytes32",
          "name": "role",
          "type": "bytes32"
        },
        {
          "indexed": true,
          "internalType": "address",
          "name": "account",
          "type": "address"
        },
        {
          "indexed": true,
          "internalType": "address",
          "name": "sender",
          "type": "address"
        }
      ],
      "name": "RoleRevoked",
      "type": "event"
    },
    {
      "anonymous": false,
      "inputs": [
        {
          "indexed": false,
          "internalType": "address",
          "name": "account",
          "type": "address"
        }
      ],
      "name": "Unpaused",
      "type": "event"
    },
    {
      "inputs": [],
      "name": "DEFAULT_ADMIN_ROLE",
      "outputs": [
        {
          "internalType": "bytes32",
          "name": "",
          "type": "bytes32"
        }
      ],
      "stateMutability": "view",
      "type": "function"
    },
    {
      "inputs": [],
      "name": "ORDER_COMPLETED_SLUG",
      "outputs": [
        {
          "internalType": "bytes32",
          "name": "",
          "type": "bytes32"
        }
      ],
      "stateMutability": "view",
      "type": "function"
    },
    {
      "inputs": [],
      "name": "OWNER_ROLE",
      "outputs": [
        {
          "internalType": "bytes32",
          "name": "",
          "type": "bytes32"
        }
      ],
      "stateMutability": "view",
      "type": "function"
    },
    {
      "inputs": [],
      "name": "PAUSER_ROLE",
      "outputs": [
        {
          "internalType": "bytes32",
          "name": "",
          "type": "bytes32"
        }
      ],
      "stateMutability": "view",
      "type": "function"
    },
    {
      "inputs": [],
      "name": "SUB_ADMIN_ROLE",
      "outputs": [
        {
          "internalType": "bytes32",
          "name": "",
          "type": "bytes32"
        }
      ],
      "stateMutability": "view",
      "type": "function"
    },
    {
      "inputs": [
        {
          "internalType": "address",
          "name": "owner",
          "type": "address"
        }
      ],
      "name": "__DChainBase_init",
      "outputs": [],
      "stateMutability": "nonpayable",
      "type": "function"
    },
    {
      "inputs": [
        {
          "components": [
            {
              "internalType": "bytes32",
              "name": "id",
              "type": "bytes32"
            },
            {
              "internalType": "uint256",
              "name": "amount",
              "type": "uint256"
            },
            {
              "internalType": "address",
              "name": "recipient",
              "type": "address"
            }
          ],
          "internalType": "struct DGWPayment.PaymentOrder[]",
          "name": "orders",
          "type": "tuple[]"
        }
      ],
      "name": "executePayment",
      "outputs": [],
      "stateMutability": "nonpayable",
      "type": "function"
    },
    {
      "inputs": [
        {
          "internalType": "bytes32",
          "name": "",
          "type": "bytes32"
        }
      ],
      "name": "executedOrders",
      "outputs": [
        {
          "internalType": "bool",
          "name": "",
          "type": "bool"
        }
      ],
      "stateMutability": "view",
      "type": "function"
    },
    {
      "inputs": [
        {
          "internalType": "bytes32",
          "name": "role",
          "type": "bytes32"
        }
      ],
      "name": "getRoleAdmin",
      "outputs": [
        {
          "internalType": "bytes32",
          "name": "",
          "type": "bytes32"
        }
      ],
      "stateMutability": "view",
      "type": "function"
    },
    {
      "inputs": [
        {
          "internalType": "bytes32",
          "name": "role",
          "type": "bytes32"
        },
        {
          "internalType": "address",
          "name": "account",
          "type": "address"
        }
      ],
      "name": "grantRole",
      "outputs": [],
      "stateMutability": "nonpayable",
      "type": "function"
    },
    {
      "inputs": [
        {
          "internalType": "bytes32",
          "name": "role",
          "type": "bytes32"
        },
        {
          "internalType": "address",
          "name": "account",
          "type": "address"
        }
      ],
      "name": "hasRole",
      "outputs": [
        {
          "internalType": "bool",
          "name": "",
          "type": "bool"
        }
      ],
      "stateMutability": "view",
      "type": "function"
    },
    {
      "inputs": [
        {
          "internalType": "address",
          "name": "_owner",
          "type": "address"
        },
        {
          "internalType": "contract IERC20WithBurn",
          "name": "_rewardToken",
          "type": "address"
        }
      ],
      "name": "initialize",
      "outputs": [],
      "stateMutability": "nonpayable",
      "type": "function"
    },
    {
      "inputs": [],
      "name": "isAdmin",
      "outputs": [
        {
          "internalType": "bool",
          "name": "",
          "type": "bool"
        }
      ],
      "stateMutability": "view",
      "type": "function"
    },
    {
      "inputs": [],
      "name": "paused",
      "outputs": [
        {
          "internalType": "bool",
          "name": "",
          "type": "bool"
        }
      ],
      "stateMutability": "view",
      "type": "function"
    },
    {
      "inputs": [
        {
          "internalType": "bytes32",
          "name": "role",
          "type": "bytes32"
        },
        {
          "internalType": "address",
          "name": "account",
          "type": "address"
        }
      ],
      "name": "renounceRole",
      "outputs": [],
      "stateMutability": "nonpayable",
      "type": "function"
    },
    {
      "inputs": [
        {
          "internalType": "bytes32",
          "name": "role",
          "type": "bytes32"
        },
        {
          "internalType": "address",
          "name": "account",
          "type": "address"
        }
      ],
      "name": "revokeRole",
      "outputs": [],
      "stateMutability": "nonpayable",
      "type": "function"
    },
    {
      "inputs": [],
      "name": "rewardToken",
      "outputs": [
        {
          "internalType": "contract IERC20WithBurn",
          "name": "",
          "type": "address"
        }
      ],
      "stateMutability": "view",
      "type": "function"
    },
    {
      "inputs": [
        {
          "internalType": "bytes4",
          "name": "interfaceId",
          "type": "bytes4"
        }
      ],
      "name": "supportsInterface",
      "outputs": [
        {
          "internalType": "bool",
          "name": "",
          "type": "bool"
        }
      ],
      "stateMutability": "view",
      "type": "function"
    },
    {
      "inputs": [
        {
          "internalType": "address",
          "name": "_executor",
          "type": "address"
        },
        {
          "internalType": "bool",
          "name": "status",
          "type": "bool"
        }
      ],
      "name": "updateExecutor",
      "outputs": [],
      "stateMutability": "nonpayable",
      "type": "function"
    },
    {
      "inputs": [
        {
          "internalType": "address",
          "name": "",
          "type": "address"
        }
      ],
      "name": "validExecutors",
      "outputs": [
        {
          "internalType": "bool",
          "name": "",
          "type": "bool"
        }
      ],
      "stateMutability": "view",
      "type": "function"
    }
  ],
  "transactionHash": "0xceae295ac9300c03013d8c8ed3266f966350ee0e461e6a6fa3565b5e1c225a03",
  "args": [],
  "solcInputHash": "d9e3e00f9de3aca69e5e34b453e2bc60",
  "bytecode": "0x608060405234801561001057600080fd5b50611505806100206000396000f3fe608060405234801561001057600080fd5b506004361061012c5760003560e01c80635c975abb116100ad578063b6db75a011610071578063b6db75a01461029b578063d547741f146102a3578063e58378bb146102b6578063e63ab1e9146102cb578063f7c618c1146102e057600080fd5b80635c975abb1461023e57806362d6306f146102495780636dbb6cdd1461025c57806391d1485414610280578063a217fddf1461029357600080fd5b806334b85e74116100f457806334b85e74146101d957806336568abe146101ec5780633740bf52146101ff57806346069bb514610223578063485cc9551461022b57600080fd5b806301ffc9a714610131578063022f235414610159578063248a9ca31461018e5780632f2ff15d146101b1578063312c4278146101c6575b600080fd5b61014461013f36600461121b565b61030c565b60405190151581526020015b60405180910390f35b6101807fd2e4c2619ea6e0faebc405d89445161c041e30fe03373ea0473da142d57d451481565b604051908152602001610150565b61018061019c3660046111df565b60009081526065602052604090206001015490565b6101c46101bf3660046111f7565b610343565b005b6101c46101d4366004611153565b61036d565b6101c46101e73660046110ee565b610574565b6101c46101fa3660046111f7565b6105b9565b61014461020d3660046111df565b6101c46020526000908152604090205460ff1681565b610180610637565b6101c4610239366004611126565b61065f565b60975460ff16610144565b6101c46102573660046110d2565b6107ea565b61014461026a3660046110d2565b6101c56020526000908152604090205460ff1681565b61014461028e3660046111f7565b610928565b610180600081565b610144610953565b6101c46102b13660046111f7565b610972565b61018060008051602061149083398151915281565b6101806000805160206114b083398151915281565b6101c3546102f4906001600160a01b031681565b6040516001600160a01b039091168152602001610150565b60006001600160e01b03198216637965db0b60e01b148061033d57506301ffc9a760e01b6001600160e01b03198316145b92915050565b60008281526065602052604090206001015461035e81610997565b61036883836109a1565b505050565b60005b8181101561050d57600083838381811061039a57634e487b7160e01b600052603260045260246000fd5b9050606002018036038101906103b09190611243565b3360009081526101c5602052604090205490915060ff166104115760405162461bcd60e51b81526020600482015260166024820152754e6f7420612076616c6964206578656375746f72202160501b60448201526064015b60405180910390fd5b805160009081526101c4602052604090205460ff16156104735760405162461bcd60e51b815260206004820181905260248201527f4f7264657220616c726561647920686173206265656e206578656375746564216044820152606401610408565b61049633604083015160208401516101c3546001600160a01b0316929190610a27565b805160009081526101c46020908152604091829020805460ff191660011790558183015183519184015192516001600160a01b03909116927fe96da7d7f9b1253f3f855c25f35f32d0a83a96c1a75acdecf0f3bc7cc3bb1ccf916104fc91815260200190565b60405180910390a350600101610370565b506040516001906105209060200161136e565b604051602081830303815290604052805190602001207fe96da7d7f9b1253f3f855c25f35f32d0a83a96c1a75acdecf0f3bc7cc3bb1ccf600060405161056891815260200190565b60405180910390a35050565b60008051602061149083398151915261058c81610997565b506001600160a01b039190911660009081526101c560205260409020805460ff1916911515919091179055565b6001600160a01b03811633146106295760405162461bcd60e51b815260206004820152602f60248201527f416363657373436f6e74726f6c3a2063616e206f6e6c792072656e6f756e636560448201526e103937b632b9903337b91039b2b63360891b6064820152608401610408565b6106338282610a87565b5050565b6040516020016106469061136e565b6040516020818303038152906040528051906020012081565b600054610100900460ff161580801561067f5750600054600160ff909116105b806106995750303b158015610699575060005460ff166001145b6106fc5760405162461bcd60e51b815260206004820152602e60248201527f496e697469616c697a61626c653a20636f6e747261637420697320616c72656160448201526d191e481a5b9a5d1a585b1a5e995960921b6064820152608401610408565b6000805460ff19166001179055801561071f576000805461ff0019166101001790555b610728836107ea565b6001600160a01b0382166107635760405162461bcd60e51b81526020600482015260026024820152615a4160f01b6044820152606401610408565b6101c380546001600160a01b0319166001600160a01b0384811691909117909155831660009081526101c560205260409020805460ff191660011790558015610368576000805461ff0019169055604051600181527f7f26b83ff96e1f2b6a682f133852f6798a09c465da95921460cefb38474024989060200160405180910390a1505050565b600054610100900460ff166108115760405162461bcd60e51b815260040161040890611391565b6001600160a01b0381166108675760405162461bcd60e51b815260206004820181905260248201527f4f776e65722063616e6e6f7420626520746865207a65726f20616464726573736044820152606401610408565b61086f610aee565b610877610b17565b61087f610b46565b61089760008051602061149083398151915282610b75565b6108af6000805160206114b083398151915282610b75565b6108e77fd2e4c2619ea6e0faebc405d89445161c041e30fe03373ea0473da142d57d4514600080516020611490833981519152610b7f565b61090d6000805160206114b0833981519152600080516020611490833981519152610b7f565b61092560008051602061149083398151915280610b7f565b50565b60009182526065602090815260408084206001600160a01b0393909316845291905290205460ff1690565b600061096d60008051602061149083398151915233610928565b905090565b60008281526065602052604090206001015461098d81610997565b6103688383610a87565b6109258133610bca565b6109ab8282610928565b6106335760008281526065602090815260408083206001600160a01b03851684529091529020805460ff191660011790556109e33390565b6001600160a01b0316816001600160a01b0316837f2f8788117e7eff1d82e926ec794901d17c78024a50270940304540a733656f0d60405160405180910390a45050565b604080516001600160a01b0385811660248301528416604482015260648082018490528251808303909101815260849091019091526020810180516001600160e01b03166323b872dd60e01b179052610a81908590610c23565b50505050565b610a918282610928565b156106335760008281526065602090815260408083206001600160a01b0385168085529252808320805460ff1916905551339285917ff6391f5c32d9c69d2a47ea670b442974b53935d1edc7fd64eb21e047a839171b9190a45050565b600054610100900460ff16610b155760405162461bcd60e51b815260040161040890611391565b565b600054610100900460ff16610b3e5760405162461bcd60e51b815260040161040890611391565b610b15610cf5565b600054610100900460ff16610b6d5760405162461bcd60e51b815260040161040890611391565b610b15610d28565b61063382826109a1565b600082815260656020526040808220600101805490849055905190918391839186917fbd79b86ffe0ab8e8776151514217cd7cacd52c909f66475c3af44e129f0b00ff9190a4505050565b610bd48282610928565b61063357610be181610d56565b610bec836020610d68565b604051602001610bfd9291906112cc565b60408051601f198184030181529082905262461bcd60e51b82526104089160040161133b565b6000610c78826040518060400160405280602081526020017f5361666545524332303a206c6f772d6c6576656c2063616c6c206661696c6564815250856001600160a01b0316610f519092919063ffffffff16565b8051909150156103685780806020019051810190610c9691906111c3565b6103685760405162461bcd60e51b815260206004820152602a60248201527f5361666545524332303a204552433230206f7065726174696f6e20646964206e6044820152691bdd081cdd58d8d9595960b21b6064820152608401610408565b600054610100900460ff16610d1c5760405162461bcd60e51b815260040161040890611391565b6097805460ff19169055565b600054610100900460ff16610d4f5760405162461bcd60e51b815260040161040890611391565b600160c955565b606061033d6001600160a01b03831660145b60606000610d778360026113f4565b610d829060026113dc565b67ffffffffffffffff811115610da857634e487b7160e01b600052604160045260246000fd5b6040519080825280601f01601f191660200182016040528015610dd2576020820181803683370190505b509050600360fc1b81600081518110610dfb57634e487b7160e01b600052603260045260246000fd5b60200101906001600160f81b031916908160001a905350600f60fb1b81600181518110610e3857634e487b7160e01b600052603260045260246000fd5b60200101906001600160f81b031916908160001a9053506000610e5c8460026113f4565b610e679060016113dc565b90505b6001811115610efb576f181899199a1a9b1b9c1cb0b131b232b360811b85600f1660108110610ea957634e487b7160e01b600052603260045260246000fd5b1a60f81b828281518110610ecd57634e487b7160e01b600052603260045260246000fd5b60200101906001600160f81b031916908160001a90535060049490941c93610ef48161143f565b9050610e6a565b508315610f4a5760405162461bcd60e51b815260206004820181905260248201527f537472696e67733a20686578206c656e67746820696e73756666696369656e746044820152606401610408565b9392505050565b6060610f608484600085610f68565b949350505050565b606082471015610fc95760405162461bcd60e51b815260206004820152602660248201527f416464726573733a20696e73756666696369656e742062616c616e636520666f6044820152651c8818d85b1b60d21b6064820152608401610408565b6001600160a01b0385163b6110205760405162461bcd60e51b815260206004820152601d60248201527f416464726573733a2063616c6c20746f206e6f6e2d636f6e74726163740000006044820152606401610408565b600080866001600160a01b0316858760405161103c91906112b0565b60006040518083038185875af1925050503d8060008114611079576040519150601f19603f3d011682016040523d82523d6000602084013e61107e565b606091505b509150915061108e828286611099565b979650505050505050565b606083156110a8575081610f4a565b8251156110b85782518084602001fd5b8160405162461bcd60e51b8152600401610408919061133b565b6000602082840312156110e3578081fd5b8135610f4a8161146c565b60008060408385031215611100578081fd5b823561110b8161146c565b9150602083013561111b81611481565b809150509250929050565b60008060408385031215611138578182fd5b82356111438161146c565b9150602083013561111b8161146c565b60008060208385031215611165578182fd5b823567ffffffffffffffff8082111561117c578384fd5b818501915085601f83011261118f578384fd5b81358181111561119d578485fd5b8660206060830285010111156111b1578485fd5b60209290920196919550909350505050565b6000602082840312156111d4578081fd5b8151610f4a81611481565b6000602082840312156111f0578081fd5b5035919050565b60008060408385031215611209578182fd5b82359150602083013561111b8161146c565b60006020828403121561122c578081fd5b81356001600160e01b031981168114610f4a578182fd5b600060608284031215611254578081fd5b6040516060810181811067ffffffffffffffff8211171561128357634e487b7160e01b83526041600452602483fd5b8060405250823581526020830135602082015260408301356112a48161146c565b60408201529392505050565b600082516112c2818460208701611413565b9190910192915050565b76020b1b1b2b9b9a1b7b73a3937b61d1030b1b1b7bab73a1604d1b8152600083516112fe816017850160208801611413565b7001034b99036b4b9b9b4b733903937b6329607d1b601791840191820152835161132f816028840160208801611413565b01602801949350505050565b602081526000825180602084015261135a816040850160208701611413565b601f01601f19169190910160400192915050565b60208082526009908201526810d3d354131155115160ba1b604082015260600190565b6020808252602b908201527f496e697469616c697a61626c653a20636f6e7472616374206973206e6f74206960408201526a6e697469616c697a696e6760a81b606082015260800190565b600082198211156113ef576113ef611456565b500190565b600081600019048311821515161561140e5761140e611456565b500290565b60005b8381101561142e578181015183820152602001611416565b83811115610a815750506000910152565b60008161144e5761144e611456565b506000190190565b634e487b7160e01b600052601160045260246000fd5b6001600160a01b038116811461092557600080fd5b801515811461092557600080fdfeb19546dff01e856fb3f010c267a7b1c60363cf8a4664e21cc89c26224620214e65d7a28e3265b37a6474929f336521b332c1681b933f6cb9f3376673440d862aa26469706673582212206efc7c6b4cb635e340ad7ea1e878b199d272b3a8d99517a9f9061da2c0924a0064736f6c63430008040033",
  "devdoc": {
    "kind": "dev",
    "methods": {
      "getRoleAdmin(bytes32)": {
        "details": "Returns the admin role that controls `role`. See {grantRole} and {revokeRole}. To change a role's admin, use {_setRoleAdmin}."
      },
      "grantRole(bytes32,address)": {
        "details": "Grants `role` to `account`. If `account` had not been already granted `role`, emits a {RoleGranted} event. Requirements: - the caller must have ``role``'s admin role. May emit a {RoleGranted} event."
      },
      "hasRole(bytes32,address)": {
        "details": "Returns `true` if `account` has been granted `role`."
      },
      "paused()": {
        "details": "Returns true if the contract is paused, and false otherwise."
      },
      "renounceRole(bytes32,address)": {
        "details": "Revokes `role` from the calling account. Roles are often managed via {grantRole} and {revokeRole}: this function's purpose is to provide a mechanism for accounts to lose their privileges if they are compromised (such as when a trusted device is misplaced). If the calling account had been revoked `role`, emits a {RoleRevoked} event. Requirements: - the caller must be `account`. May emit a {RoleRevoked} event."
      },
      "revokeRole(bytes32,address)": {
        "details": "Revokes `role` from `account`. If `account` had been granted `role`, emits a {RoleRevoked} event. Requirements: - the caller must have ``role``'s admin role. May emit a {RoleRevoked} event."
      },
      "supportsInterface(bytes4)": {
        "details": "See {IERC165-supportsInterface}."
      }
    },
    "version": 1
  },
  "userdoc": {
    "kind": "user",
    "methods": {},
    "version": 1
  },
  "storageLayout": {
    "storage": [
      {
        "astId": 415,
        "contract": "contracts/DGWPayment.sol:DGWPayment",
        "label": "_initialized",
        "offset": 0,
        "slot": "0",
        "type": "t_uint8"
      },
      {
        "astId": 418,
        "contract": "contracts/DGWPayment.sol:DGWPayment",
        "label": "_initializing",
        "offset": 1,
        "slot": "0",
        "type": "t_bool"
      },
      {
        "astId": 2044,
        "contract": "contracts/DGWPayment.sol:DGWPayment",
        "label": "__gap",
        "offset": 0,
        "slot": "1",
        "type": "t_array(t_uint256)50_storage"
      },
      {
        "astId": 2848,
        "contract": "contracts/DGWPayment.sol:DGWPayment",
        "label": "__gap",
        "offset": 0,
        "slot": "51",
        "type": "t_array(t_uint256)50_storage"
      },
      {
        "astId": 39,
        "contract": "contracts/DGWPayment.sol:DGWPayment",
        "label": "_roles",
        "offset": 0,
        "slot": "101",
        "type": "t_mapping(t_bytes32,t_struct(RoleData)34_storage)"
      },
      {
        "astId": 334,
        "contract": "contracts/DGWPayment.sol:DGWPayment",
        "label": "__gap",
        "offset": 0,
        "slot": "102",
        "type": "t_array(t_uint256)49_storage"
      },
      {
        "astId": 598,
        "contract": "contracts/DGWPayment.sol:DGWPayment",
        "label": "_paused",
        "offset": 0,
        "slot": "151",
        "type": "t_bool"
      },
      {
        "astId": 703,
        "contract": "contracts/DGWPayment.sol:DGWPayment",
        "label": "__gap",
        "offset": 0,
        "slot": "152",
        "type": "t_array(t_uint256)49_storage"
      },
      {
        "astId": 718,
        "contract": "contracts/DGWPayment.sol:DGWPayment",
        "label": "_status",
        "offset": 0,
        "slot": "201",
        "type": "t_uint256"
      },
      {
        "astId": 776,
        "contract": "contracts/DGWPayment.sol:DGWPayment",
        "label": "__gap",
        "offset": 0,
        "slot": "202",
        "type": "t_array(t_uint256)49_storage"
      },
      {
        "astId": 4665,
        "contract": "contracts/DGWPayment.sol:DGWPayment",
        "label": "__gap1",
        "offset": 0,
        "slot": "251",
        "type": "t_array(t_uint256)50_storage"
      },
      {
        "astId": 4669,
        "contract": "contracts/DGWPayment.sol:DGWPayment",
        "label": "__gap2",
        "offset": 0,
        "slot": "301",
        "type": "t_array(t_uint256)50_storage"
      },
      {
        "astId": 4673,
        "contract": "contracts/DGWPayment.sol:DGWPayment",
        "label": "__gap3",
        "offset": 0,
        "slot": "351",
        "type": "t_array(t_uint256)50_storage"
      },
      {
        "astId": 4677,
        "contract": "contracts/DGWPayment.sol:DGWPayment",
        "label": "__gap4",
        "offset": 0,
        "slot": "401",
        "type": "t_array(t_uint256)50_storage"
      },
      {
        "astId": 7056,
        "contract": "contracts/DGWPayment.sol:DGWPayment",
        "label": "rewardToken",
        "offset": 0,
        "slot": "451",
        "type": "t_contract(IERC20WithBurn)10694"
      },
      {
        "astId": 7060,
        "contract": "contracts/DGWPayment.sol:DGWPayment",
        "label": "executedOrders",
        "offset": 0,
        "slot": "452",
        "type": "t_mapping(t_bytes32,t_bool)"
      },
      {
        "astId": 7064,
        "contract": "contracts/DGWPayment.sol:DGWPayment",
        "label": "validExecutors",
        "offset": 0,
        "slot": "453",
        "type": "t_mapping(t_address,t_bool)"
      }
    ],
    "types": {
      "t_address": {
        "encoding": "inplace",
        "label": "address",
        "numberOfBytes": "20"
      },
      "t_array(t_uint256)49_storage": {
        "base": "t_uint256",
        "encoding": "inplace",
        "label": "uint256[49]",
        "numberOfBytes": "1568"
      },
      "t_array(t_uint256)50_storage": {
        "base": "t_uint256",
        "encoding": "inplace",
        "label": "uint256[50]",
        "numberOfBytes": "1600"
      },
      "t_bool": {
        "encoding": "inplace",
        "label": "bool",
        "numberOfBytes": "1"
      },
      "t_bytes32": {
        "encoding": "inplace",
        "label": "bytes32",
        "numberOfBytes": "32"
      },
      "t_contract(IERC20WithBurn)10694": {
        "encoding": "inplace",
        "label": "contract IERC20WithBurn",
        "numberOfBytes": "20"
      },
      "t_mapping(t_address,t_bool)": {
        "encoding": "mapping",
        "key": "t_address",
        "label": "mapping(address => bool)",
        "numberOfBytes": "32",
        "value": "t_bool"
      },
      "t_mapping(t_bytes32,t_bool)": {
        "encoding": "mapping",
        "key": "t_bytes32",
        "label": "mapping(bytes32 => bool)",
        "numberOfBytes": "32",
        "value": "t_bool"
      },
      "t_mapping(t_bytes32,t_struct(RoleData)34_storage)": {
        "encoding": "mapping",
        "key": "t_bytes32",
        "label": "mapping(bytes32 => struct AccessControlUpgradeable.RoleData)",
        "numberOfBytes": "32",
        "value": "t_struct(RoleData)34_storage"
      },
      "t_struct(RoleData)34_storage": {
        "encoding": "inplace",
        "label": "struct AccessControlUpgradeable.RoleData",
        "members": [
          {
            "astId": 31,
            "contract": "contracts/DGWPayment.sol:DGWPayment",
            "label": "members",
            "offset": 0,
            "slot": "0",
            "type": "t_mapping(t_address,t_bool)"
          },
          {
            "astId": 33,
            "contract": "contracts/DGWPayment.sol:DGWPayment",
            "label": "adminRole",
            "offset": 0,
            "slot": "1",
            "type": "t_bytes32"
          }
        ],
        "numberOfBytes": "64"
      },
      "t_uint256": {
        "encoding": "inplace",
        "label": "uint256",
        "numberOfBytes": "32"
      },
      "t_uint8": {
        "encoding": "inplace",
        "label": "uint8",
        "numberOfBytes": "1"
      }
    }
  }
}