{
  "address": "0x1dbf6A393Fd1eC1626878363c206C6FF82A91d7f",
  "abi": [
    {
      "inputs": [],
      "name": "T",
      "type": "error"
    },
    {
      "anonymous": false,
      "inputs": [
        {
          "indexed": true,
          "internalType": "address",
          "name": "user",
          "type": "address"
        },
        {
          "indexed": true,
          "internalType": "address",
          "name": "recipient",
          "type": "address"
        },
        {
          "indexed": false,
          "internalType": "uint256",
          "name": "amount",
          "type": "uint256"
        },
        {
          "indexed": false,
          "internalType": "uint256",
          "name": "amountInUSD",
          "type": "uint256"
        }
      ],
      "name": "ComissionDirectBonus",
      "type": "event"
    },
    {
      "anonymous": false,
      "inputs": [
        {
          "indexed": true,
          "internalType": "uint256",
          "name": "contractId",
          "type": "uint256"
        },
        {
          "indexed": true,
          "internalType": "address",
          "name": "user",
          "type": "address"
        },
        {
          "indexed": true,
          "internalType": "address",
          "name": "stakeToken",
          "type": "address"
        },
        {
          "indexed": false,
          "internalType": "address",
          "name": "referrer",
          "type": "address"
        },
        {
          "indexed": false,
          "internalType": "uint256",
          "name": "amount",
          "type": "uint256"
        },
        {
          "indexed": false,
          "internalType": "uint256",
          "name": "amountInUSD",
          "type": "uint256"
        },
        {
          "indexed": false,
          "internalType": "uint256",
          "name": "interestAmountInUSD",
          "type": "uint256"
        },
        {
          "indexed": false,
          "internalType": "uint64",
          "name": "dueDate",
          "type": "uint64"
        }
      ],
      "name": "ContractCreated",
      "type": "event"
    },
    {
      "anonymous": false,
      "inputs": [
        {
          "indexed": true,
          "internalType": "address",
          "name": "user",
          "type": "address"
        },
        {
          "indexed": false,
          "internalType": "uint256",
          "name": "amount",
          "type": "uint256"
        },
        {
          "indexed": false,
          "internalType": "uint256",
          "name": "amountInUSD",
          "type": "uint256"
        }
      ],
      "name": "DDXRewarded",
      "type": "event"
    },
    {
      "anonymous": false,
      "inputs": [
        {
          "indexed": false,
          "internalType": "uint8",
          "name": "version",
          "type": "uint8"
        }
      ],
      "name": "Initialized",
      "type": "event"
    },
    {
      "anonymous": false,
      "inputs": [
        {
          "indexed": false,
          "internalType": "address",
          "name": "account",
          "type": "address"
        }
      ],
      "name": "Paused",
      "type": "event"
    },
    {
      "anonymous": false,
      "inputs": [
        {
          "indexed": true,
          "internalType": "uint256",
          "name": "contractId",
          "type": "uint256"
        },
        {
          "indexed": true,
          "internalType": "address",
          "name": "claimer",
          "type": "address"
        },
        {
          "indexed": false,
          "internalType": "uint256",
          "name": "amount",
          "type": "uint256"
        },
        {
          "indexed": false,
          "internalType": "uint256",
          "name": "amountInUSD",
          "type": "uint256"
        }
      ],
      "name": "RewardHarvested",
      "type": "event"
    },
    {
      "anonymous": false,
      "inputs": [
        {
          "indexed": true,
          "internalType": "bytes32",
          "name": "role",
          "type": "bytes32"
        },
        {
          "indexed": true,
          "internalType": "bytes32",
          "name": "previousAdminRole",
          "type": "bytes32"
        },
        {
          "indexed": true,
          "internalType": "bytes32",
          "name": "newAdminRole",
          "type": "bytes32"
        }
      ],
      "name": "RoleAdminChanged",
      "type": "event"
    },
    {
      "anonymous": false,
      "inputs": [
        {
          "indexed": true,
          "internalType": "bytes32",
          "name": "role",
          "type": "bytes32"
        },
        {
          "indexed": true,
          "internalType": "address",
          "name": "account",
          "type": "address"
        },
        {
          "indexed": true,
          "internalType": "address",
          "name": "sender",
          "type": "address"
        }
      ],
      "name": "RoleGranted",
      "type": "event"
    },
    {
      "anonymous": false,
      "inputs": [
        {
          "indexed": true,
          "internalType": "bytes32",
          "name": "role",
          "type": "bytes32"
        },
        {
          "indexed": true,
          "internalType": "address",
          "name": "account",
          "type": "address"
        },
        {
          "indexed": true,
          "internalType": "address",
          "name": "sender",
          "type": "address"
        }
      ],
      "name": "RoleRevoked",
      "type": "event"
    },
    {
      "anonymous": false,
      "inputs": [
        {
          "indexed": true,
          "internalType": "address",
          "name": "user",
          "type": "address"
        },
        {
          "indexed": true,
          "internalType": "address",
          "name": "referrer",
          "type": "address"
        },
        {
          "indexed": true,
          "internalType": "uint256",
          "name": "contractId",
          "type": "uint256"
        },
        {
          "indexed": false,
          "internalType": "uint256",
          "name": "stakingAmount",
          "type": "uint256"
        }
      ],
      "name": "StakingContractCreated",
      "type": "event"
    },
    {
      "anonymous": false,
      "inputs": [
        {
          "indexed": false,
          "internalType": "address",
          "name": "account",
          "type": "address"
        }
      ],
      "name": "Unpaused",
      "type": "event"
    },
    {
      "anonymous": false,
      "inputs": [
        {
          "indexed": true,
          "internalType": "address",
          "name": "user",
          "type": "address"
        },
        {
          "indexed": false,
          "internalType": "uint256",
          "name": "amount",
          "type": "uint256"
        }
      ],
      "name": "Withdraw",
      "type": "event"
    },
    {
      "inputs": [],
      "name": "DDXStaking",
      "outputs": [
        {
          "internalType": "contract IDDXStaking",
          "name": "",
          "type": "address"
        }
      ],
      "stateMutability": "view",
      "type": "function"
    },
    {
      "inputs": [],
      "name": "DDXVault",
      "outputs": [
        {
          "internalType": "contract IDDXVault",
          "name": "",
          "type": "address"
        }
      ],
      "stateMutability": "view",
      "type": "function"
    },
    {
      "inputs": [],
      "name": "DEFAULT_ADMIN_ROLE",
      "outputs": [
        {
          "internalType": "bytes32",
          "name": "",
          "type": "bytes32"
        }
      ],
      "stateMutability": "view",
      "type": "function"
    },
    {
      "inputs": [],
      "name": "OWNER_ROLE",
      "outputs": [
        {
          "internalType": "bytes32",
          "name": "",
          "type": "bytes32"
        }
      ],
      "stateMutability": "view",
      "type": "function"
    },
    {
      "inputs": [],
      "name": "PAUSER_ROLE",
      "outputs": [
        {
          "internalType": "bytes32",
          "name": "",
          "type": "bytes32"
        }
      ],
      "stateMutability": "view",
      "type": "function"
    },
    {
      "inputs": [],
      "name": "SUB_ADMIN_ROLE",
      "outputs": [
        {
          "internalType": "bytes32",
          "name": "",
          "type": "bytes32"
        }
      ],
      "stateMutability": "view",
      "type": "function"
    },
    {
      "inputs": [
        {
          "internalType": "address",
          "name": "owner",
          "type": "address"
        }
      ],
      "name": "__DChainBase_init",
      "outputs": [],
      "stateMutability": "nonpayable",
      "type": "function"
    },
    {
      "inputs": [],
      "name": "admin",
      "outputs": [
        {
          "internalType": "address",
          "name": "",
          "type": "address"
        }
      ],
      "stateMutability": "view",
      "type": "function"
    },
    {
      "inputs": [
        {
          "internalType": "address",
          "name": "",
          "type": "address"
        }
      ],
      "name": "allowedStakeTokens",
      "outputs": [
        {
          "internalType": "bool",
          "name": "created",
          "type": "bool"
        }
      ],
      "stateMutability": "view",
      "type": "function"
    },
    {
      "inputs": [
        {
          "internalType": "address",
          "name": "",
          "type": "address"
        }
      ],
      "name": "assetPrices",
      "outputs": [
        {
          "internalType": "address",
          "name": "",
          "type": "address"
        }
      ],
      "stateMutability": "view",
      "type": "function"
    },
    {
      "inputs": [
        {
          "internalType": "address",
          "name": "",
          "type": "address"
        }
      ],
      "name": "assetPricesWithChainLink",
      "outputs": [
        {
          "internalType": "address",
          "name": "",
          "type": "address"
        }
      ],
      "stateMutability": "view",
      "type": "function"
    },
    {
      "inputs": [
        {
          "internalType": "address",
          "name": "",
          "type": "address"
        }
      ],
      "name": "assetPricesWithUniV3PoolCompatible",
      "outputs": [
        {
          "internalType": "address",
          "name": "",
          "type": "address"
        }
      ],
      "stateMutability": "view",
      "type": "function"
    },
    {
      "inputs": [],
      "name": "blacklist",
      "outputs": [
        {
          "internalType": "contract IDGWBlacklist",
          "name": "",
          "type": "address"
        }
      ],
      "stateMutability": "view",
      "type": "function"
    },
    {
      "inputs": [],
      "name": "claimDuration",
      "outputs": [
        {
          "internalType": "uint64",
          "name": "",
          "type": "uint64"
        }
      ],
      "stateMutability": "view",
      "type": "function"
    },
    {
      "inputs": [
        {
          "internalType": "uint256[]",
          "name": "_contractIds",
          "type": "uint256[]"
        }
      ],
      "name": "claimMultipleRewards",
      "outputs": [],
      "stateMutability": "nonpayable",
      "type": "function"
    },
    {
      "inputs": [
        {
          "internalType": "uint256",
          "name": "_contractId",
          "type": "uint256"
        }
      ],
      "name": "claimReward",
      "outputs": [],
      "stateMutability": "nonpayable",
      "type": "function"
    },
    {
      "inputs": [
        {
          "internalType": "uint256",
          "name": "",
          "type": "uint256"
        }
      ],
      "name": "commissionInterestLevels",
      "outputs": [
        {
          "internalType": "uint256",
          "name": "",
          "type": "uint256"
        }
      ],
      "stateMutability": "view",
      "type": "function"
    },
    {
      "inputs": [
        {
          "internalType": "address",
          "name": "",
          "type": "address"
        }
      ],
      "name": "couldBecomeReferrer",
      "outputs": [
        {
          "internalType": "bool",
          "name": "",
          "type": "bool"
        }
      ],
      "stateMutability": "view",
      "type": "function"
    },
    {
      "inputs": [
        {
          "internalType": "address",
          "name": "",
          "type": "address"
        }
      ],
      "name": "ddxRewardDistributionCount",
      "outputs": [
        {
          "internalType": "uint256",
          "name": "",
          "type": "uint256"
        }
      ],
      "stateMutability": "view",
      "type": "function"
    },
    {
      "inputs": [
        {
          "internalType": "uint256",
          "name": "amount",
          "type": "uint256"
        },
        {
          "internalType": "address",
          "name": "stakeToken",
          "type": "address"
        },
        {
          "internalType": "address",
          "name": "referrer",
          "type": "address"
        }
      ],
      "name": "deposit",
      "outputs": [],
      "stateMutability": "nonpayable",
      "type": "function"
    },
    {
      "inputs": [
        {
          "internalType": "uint256",
          "name": "_originAmount",
          "type": "uint256"
        },
        {
          "internalType": "uint256",
          "name": "_lockedAmount",
          "type": "uint256"
        },
        {
          "internalType": "address",
          "name": "_user",
          "type": "address"
        },
        {
          "internalType": "address",
          "name": "_referrer",
          "type": "address"
        }
      ],
      "name": "depositByVault",
      "outputs": [],
      "stateMutability": "nonpayable",
      "type": "function"
    },
    {
      "inputs": [
        {
          "internalType": "address",
          "name": "",
          "type": "address"
        }
      ],
      "name": "directBonus",
      "outputs": [
        {
          "internalType": "uint256",
          "name": "",
          "type": "uint256"
        }
      ],
      "stateMutability": "view",
      "type": "function"
    },
    {
      "inputs": [
        {
          "internalType": "address",
          "name": "",
          "type": "address"
        }
      ],
      "name": "directBonusRefreshExecuted",
      "outputs": [
        {
          "internalType": "bool",
          "name": "",
          "type": "bool"
        }
      ],
      "stateMutability": "view",
      "type": "function"
    },
    {
      "inputs": [],
      "name": "directInterest",
      "outputs": [
        {
          "internalType": "uint256",
          "name": "",
          "type": "uint256"
        }
      ],
      "stateMutability": "view",
      "type": "function"
    },
    {
      "inputs": [],
      "name": "emergencyCancelled",
      "outputs": [
        {
          "internalType": "bool",
          "name": "",
          "type": "bool"
        }
      ],
      "stateMutability": "view",
      "type": "function"
    },
    {
      "inputs": [],
      "name": "extraRewardBonusPercentage",
      "outputs": [
        {
          "internalType": "uint256",
          "name": "",
          "type": "uint256"
        }
      ],
      "stateMutability": "view",
      "type": "function"
    },
    {
      "inputs": [],
      "name": "extraRewardToken",
      "outputs": [
        {
          "internalType": "contract IERC20WithBurn",
          "name": "",
          "type": "address"
        }
      ],
      "stateMutability": "view",
      "type": "function"
    },
    {
      "inputs": [],
      "name": "fundReceiver",
      "outputs": [
        {
          "internalType": "address",
          "name": "",
          "type": "address"
        }
      ],
      "stateMutability": "view",
      "type": "function"
    },
    {
      "inputs": [
        {
          "internalType": "uint256[]",
          "name": "_contractIds",
          "type": "uint256[]"
        }
      ],
      "name": "getAllPendingRewards",
      "outputs": [
        {
          "internalType": "uint256",
          "name": "",
          "type": "uint256"
        }
      ],
      "stateMutability": "view",
      "type": "function"
    },
    {
      "inputs": [
        {
          "internalType": "uint256",
          "name": "_amountInUSD",
          "type": "uint256"
        }
      ],
      "name": "getAmountDWByUSD",
      "outputs": [
        {
          "internalType": "uint256",
          "name": "",
          "type": "uint256"
        }
      ],
      "stateMutability": "nonpayable",
      "type": "function"
    },
    {
      "inputs": [
        {
          "internalType": "uint256",
          "name": "_amountInUSD",
          "type": "uint256"
        }
      ],
      "name": "getAmountDWByUSDStatic",
      "outputs": [
        {
          "internalType": "uint256",
          "name": "",
          "type": "uint256"
        }
      ],
      "stateMutability": "nonpayable",
      "type": "function"
    },
    {
      "inputs": [
        {
          "internalType": "uint256",
          "name": "_amountInUSD",
          "type": "uint256"
        }
      ],
      "name": "getAmountDWByUSDWithoutOracle",
      "outputs": [
        {
          "internalType": "uint256",
          "name": "",
          "type": "uint256"
        }
      ],
      "stateMutability": "view",
      "type": "function"
    },
    {
      "inputs": [
        {
          "internalType": "address",
          "name": "_stakeToken",
          "type": "address"
        },
        {
          "internalType": "uint256",
          "name": "_stakingAmount",
          "type": "uint256"
        }
      ],
      "name": "getAmountUSDByToken",
      "outputs": [
        {
          "internalType": "uint256",
          "name": "",
          "type": "uint256"
        }
      ],
      "stateMutability": "nonpayable",
      "type": "function"
    },
    {
      "inputs": [
        {
          "internalType": "address",
          "name": "_stakeToken",
          "type": "address"
        },
        {
          "internalType": "uint256",
          "name": "_stakingAmount",
          "type": "uint256"
        }
      ],
      "name": "getAmountUSDByTokenStatic",
      "outputs": [
        {
          "internalType": "uint256",
          "name": "",
          "type": "uint256"
        }
      ],
      "stateMutability": "nonpayable",
      "type": "function"
    },
    {
      "inputs": [
        {
          "internalType": "address",
          "name": "_stakeToken",
          "type": "address"
        },
        {
          "internalType": "uint256",
          "name": "_stakingAmount",
          "type": "uint256"
        }
      ],
      "name": "getAmountUSDByTokenUsingUniswapOracle",
      "outputs": [
        {
          "internalType": "uint256",
          "name": "",
          "type": "uint256"
        }
      ],
      "stateMutability": "view",
      "type": "function"
    },
    {
      "inputs": [
        {
          "internalType": "address",
          "name": "_stakeToken",
          "type": "address"
        },
        {
          "internalType": "uint256",
          "name": "_stakingAmount",
          "type": "uint256"
        }
      ],
      "name": "getAmountUSDByTokenWithoutV2Oracle",
      "outputs": [
        {
          "internalType": "uint256",
          "name": "",
          "type": "uint256"
        }
      ],
      "stateMutability": "view",
      "type": "function"
    },
    {
      "inputs": [
        {
          "internalType": "uint256[]",
          "name": "_contractIds",
          "type": "uint256[]"
        }
      ],
      "name": "getMultipleContractInfos",
      "outputs": [
        {
          "components": [
            {
              "internalType": "uint256",
              "name": "totalExpectedInterest",
              "type": "uint256"
            },
            {
              "internalType": "uint256",
              "name": "totalStakesInUSD",
              "type": "uint256"
            },
            {
              "internalType": "uint256",
              "name": "claimedInterest",
              "type": "uint256"
            },
            {
              "internalType": "uint64",
              "name": "claimDuration",
              "type": "uint64"
            },
            {
              "internalType": "uint64",
              "name": "dueDate",
              "type": "uint64"
            },
            {
              "internalType": "uint64",
              "name": "lastClaimedTime",
              "type": "uint64"
            },
            {
              "internalType": "uint64",
              "name": "lastUpdatedTime",
              "type": "uint64"
            },
            {
              "internalType": "uint64",
              "name": "createdAt",
              "type": "uint64"
            },
            {
              "internalType": "address",
              "name": "stakeToken",
              "type": "address"
            },
            {
              "internalType": "uint256",
              "name": "totalStakesInToken",
              "type": "uint256"
            }
          ],
          "internalType": "struct DGWStaking.StakingInfo[]",
          "name": "",
          "type": "tuple[]"
        }
      ],
      "stateMutability": "view",
      "type": "function"
    },
    {
      "inputs": [
        {
          "internalType": "bytes32",
          "name": "role",
          "type": "bytes32"
        }
      ],
      "name": "getRoleAdmin",
      "outputs": [
        {
          "internalType": "bytes32",
          "name": "",
          "type": "bytes32"
        }
      ],
      "stateMutability": "view",
      "type": "function"
    },
    {
      "inputs": [
        {
          "internalType": "address",
          "name": "_token",
          "type": "address"
        },
        {
          "internalType": "uint256",
          "name": "_amount",
          "type": "uint256"
        }
      ],
      "name": "getStakingAmountByPegToken",
      "outputs": [
        {
          "internalType": "uint256",
          "name": "",
          "type": "uint256"
        }
      ],
      "stateMutability": "view",
      "type": "function"
    },
    {
      "inputs": [
        {
          "internalType": "address",
          "name": "_token",
          "type": "address"
        },
        {
          "internalType": "uint256",
          "name": "_amount",
          "type": "uint256"
        }
      ],
      "name": "getStakingAmountInUSD",
      "outputs": [
        {
          "internalType": "uint256",
          "name": "",
          "type": "uint256"
        }
      ],
      "stateMutability": "view",
      "type": "function"
    },
    {
      "inputs": [
        {
          "internalType": "bytes32",
          "name": "role",
          "type": "bytes32"
        },
        {
          "internalType": "address",
          "name": "account",
          "type": "address"
        }
      ],
      "name": "grantRole",
      "outputs": [],
      "stateMutability": "nonpayable",
      "type": "function"
    },
    {
      "inputs": [
        {
          "internalType": "bytes32",
          "name": "role",
          "type": "bytes32"
        },
        {
          "internalType": "address",
          "name": "account",
          "type": "address"
        }
      ],
      "name": "hasRole",
      "outputs": [
        {
          "internalType": "bool",
          "name": "",
          "type": "bool"
        }
      ],
      "stateMutability": "view",
      "type": "function"
    },
    {
      "inputs": [
        {
          "internalType": "address",
          "name": "_owner",
          "type": "address"
        },
        {
          "internalType": "address",
          "name": "_treasury",
          "type": "address"
        },
        {
          "internalType": "address",
          "name": "_fundReceiver",
          "type": "address"
        },
        {
          "internalType": "contract IERC20WithBurn",
          "name": "_rewardToken",
          "type": "address"
        },
        {
          "internalType": "contract IERC20WithBurn",
          "name": "_extraRewardToken",
          "type": "address"
        }
      ],
      "name": "initialize",
      "outputs": [],
      "stateMutability": "nonpayable",
      "type": "function"
    },
    {
      "inputs": [],
      "name": "isAdmin",
      "outputs": [
        {
          "internalType": "bool",
          "name": "",
          "type": "bool"
        }
      ],
      "stateMutability": "view",
      "type": "function"
    },
    {
      "inputs": [],
      "name": "maximumDDXRewardDistributionCount",
      "outputs": [
        {
          "internalType": "uint256",
          "name": "",
          "type": "uint256"
        }
      ],
      "stateMutability": "view",
      "type": "function"
    },
    {
      "inputs": [],
      "name": "maximumEarningsInPercent",
      "outputs": [
        {
          "internalType": "uint256",
          "name": "",
          "type": "uint256"
        }
      ],
      "stateMutability": "view",
      "type": "function"
    },
    {
      "inputs": [],
      "name": "minimumStakingAmountInUSD",
      "outputs": [
        {
          "internalType": "uint256",
          "name": "",
          "type": "uint256"
        }
      ],
      "stateMutability": "view",
      "type": "function"
    },
    {
      "inputs": [
        {
          "internalType": "address",
          "name": "",
          "type": "address"
        }
      ],
      "name": "offeredCurrencies",
      "outputs": [
        {
          "internalType": "uint256",
          "name": "decimal",
          "type": "uint256"
        },
        {
          "internalType": "uint256",
          "name": "rate",
          "type": "uint256"
        }
      ],
      "stateMutability": "view",
      "type": "function"
    },
    {
      "inputs": [],
      "name": "pause",
      "outputs": [],
      "stateMutability": "nonpayable",
      "type": "function"
    },
    {
      "inputs": [],
      "name": "paused",
      "outputs": [
        {
          "internalType": "bool",
          "name": "",
          "type": "bool"
        }
      ],
      "stateMutability": "view",
      "type": "function"
    },
    {
      "inputs": [
        {
          "internalType": "uint256",
          "name": "_contractId",
          "type": "uint256"
        }
      ],
      "name": "pendingRewardInUSD",
      "outputs": [
        {
          "internalType": "uint256",
          "name": "",
          "type": "uint256"
        }
      ],
      "stateMutability": "view",
      "type": "function"
    },
    {
      "inputs": [
        {
          "internalType": "address",
          "name": "",
          "type": "address"
        }
      ],
      "name": "referredBy",
      "outputs": [
        {
          "internalType": "address",
          "name": "",
          "type": "address"
        }
      ],
      "stateMutability": "view",
      "type": "function"
    },
    {
      "inputs": [
        {
          "internalType": "address[]",
          "name": "_addresses",
          "type": "address[]"
        }
      ],
      "name": "refreshDirectBonus",
      "outputs": [],
      "stateMutability": "nonpayable",
      "type": "function"
    },
    {
      "inputs": [
        {
          "internalType": "bytes32",
          "name": "role",
          "type": "bytes32"
        },
        {
          "internalType": "address",
          "name": "account",
          "type": "address"
        }
      ],
      "name": "renounceRole",
      "outputs": [],
      "stateMutability": "nonpayable",
      "type": "function"
    },
    {
      "inputs": [
        {
          "internalType": "bytes32",
          "name": "role",
          "type": "bytes32"
        },
        {
          "internalType": "address",
          "name": "account",
          "type": "address"
        }
      ],
      "name": "revokeRole",
      "outputs": [],
      "stateMutability": "nonpayable",
      "type": "function"
    },
    {
      "inputs": [],
      "name": "rewardToken",
      "outputs": [
        {
          "internalType": "contract IERC20WithBurn",
          "name": "",
          "type": "address"
        }
      ],
      "stateMutability": "view",
      "type": "function"
    },
    {
      "inputs": [],
      "name": "root",
      "outputs": [
        {
          "internalType": "address",
          "name": "",
          "type": "address"
        }
      ],
      "stateMutability": "view",
      "type": "function"
    },
    {
      "inputs": [
        {
          "internalType": "address",
          "name": "_stakeToken",
          "type": "address"
        }
      ],
      "name": "setAllowedStakeToken",
      "outputs": [],
      "stateMutability": "nonpayable",
      "type": "function"
    },
    {
      "inputs": [
        {
          "internalType": "address",
          "name": "_pegToken",
          "type": "address"
        },
        {
          "internalType": "address",
          "name": "_oracle",
          "type": "address"
        }
      ],
      "name": "setAssetOracle",
      "outputs": [],
      "stateMutability": "nonpayable",
      "type": "function"
    },
    {
      "inputs": [
        {
          "internalType": "address",
          "name": "_stakeToken",
          "type": "address"
        },
        {
          "internalType": "address",
          "name": "_pool",
          "type": "address"
        }
      ],
      "name": "setAssetUniV3PoolCompatible",
      "outputs": [],
      "stateMutability": "nonpayable",
      "type": "function"
    },
    {
      "inputs": [
        {
          "internalType": "contract IDGWBlacklist",
          "name": "_blacklist",
          "type": "address"
        }
      ],
      "name": "setBlacklist",
      "outputs": [],
      "stateMutability": "nonpayable",
      "type": "function"
    },
    {
      "inputs": [
        {
          "internalType": "address",
          "name": "_stakeToken",
          "type": "address"
        },
        {
          "internalType": "address",
          "name": "_oracle",
          "type": "address"
        }
      ],
      "name": "setChainLinkAssetOracle",
      "outputs": [],
      "stateMutability": "nonpayable",
      "type": "function"
    },
    {
      "inputs": [
        {
          "internalType": "uint64",
          "name": "_claimDuration",
          "type": "uint64"
        }
      ],
      "name": "setClaimDuration",
      "outputs": [],
      "stateMutability": "nonpayable",
      "type": "function"
    },
    {
      "inputs": [
        {
          "internalType": "contract IDDXStaking",
          "name": "_staking",
          "type": "address"
        }
      ],
      "name": "setDDXStaking",
      "outputs": [],
      "stateMutability": "nonpayable",
      "type": "function"
    },
    {
      "inputs": [
        {
          "internalType": "contract IDDXVault",
          "name": "_vault",
          "type": "address"
        }
      ],
      "name": "setDDXVault",
      "outputs": [],
      "stateMutability": "nonpayable",
      "type": "function"
    },
    {
      "inputs": [
        {
          "internalType": "contract IDWVault",
          "name": "_vault",
          "type": "address"
        }
      ],
      "name": "setDWVault",
      "outputs": [],
      "stateMutability": "nonpayable",
      "type": "function"
    },
    {
      "inputs": [
        {
          "internalType": "uint256",
          "name": "_directInterest",
          "type": "uint256"
        }
      ],
      "name": "setDirectInterest",
      "outputs": [],
      "stateMutability": "nonpayable",
      "type": "function"
    },
    {
      "inputs": [
        {
          "internalType": "uint256",
          "name": "_extraRewardBonusPercentage",
          "type": "uint256"
        }
      ],
      "name": "setExtraRewardBonusPercentage",
      "outputs": [],
      "stateMutability": "nonpayable",
      "type": "function"
    },
    {
      "inputs": [
        {
          "internalType": "address",
          "name": "_fundReceiver",
          "type": "address"
        }
      ],
      "name": "setFundReceiver",
      "outputs": [],
      "stateMutability": "nonpayable",
      "type": "function"
    },
    {
      "inputs": [
        {
          "internalType": "uint256",
          "name": "_maximumDDXRewardDistributionCount",
          "type": "uint256"
        }
      ],
      "name": "setMaximumDDXRewardDistribution",
      "outputs": [],
      "stateMutability": "nonpayable",
      "type": "function"
    },
    {
      "inputs": [
        {
          "internalType": "uint256",
          "name": "_minimumStakingAmountInUSD",
          "type": "uint256"
        }
      ],
      "name": "setMinimumStakingInUSD",
      "outputs": [],
      "stateMutability": "nonpayable",
      "type": "function"
    },
    {
      "inputs": [
        {
          "internalType": "address",
          "name": "_currency",
          "type": "address"
        },
        {
          "internalType": "uint256",
          "name": "_rate",
          "type": "uint256"
        },
        {
          "internalType": "uint256",
          "name": "_decimal",
          "type": "uint256"
        }
      ],
      "name": "setOfferedCurrency",
      "outputs": [],
      "stateMutability": "nonpayable",
      "type": "function"
    },
    {
      "inputs": [
        {
          "internalType": "address",
          "name": "_root",
          "type": "address"
        }
      ],
      "name": "setRoot",
      "outputs": [],
      "stateMutability": "nonpayable",
      "type": "function"
    },
    {
      "inputs": [
        {
          "internalType": "uint256",
          "name": "",
          "type": "uint256"
        }
      ],
      "name": "stakingContractOwnedBy",
      "outputs": [
        {
          "internalType": "address",
          "name": "",
          "type": "address"
        }
      ],
      "stateMutability": "view",
      "type": "function"
    },
    {
      "inputs": [
        {
          "internalType": "uint256",
          "name": "",
          "type": "uint256"
        }
      ],
      "name": "stakingContracts",
      "outputs": [
        {
          "internalType": "uint256",
          "name": "totalExpectedInterest",
          "type": "uint256"
        },
        {
          "internalType": "uint256",
          "name": "totalStakesInUSD",
          "type": "uint256"
        },
        {
          "internalType": "uint256",
          "name": "claimedInterest",
          "type": "uint256"
        },
        {
          "internalType": "uint64",
          "name": "claimDuration",
          "type": "uint64"
        },
        {
          "internalType": "uint64",
          "name": "dueDate",
          "type": "uint64"
        },
        {
          "internalType": "uint64",
          "name": "lastClaimedTime",
          "type": "uint64"
        },
        {
          "internalType": "uint64",
          "name": "lastUpdatedTime",
          "type": "uint64"
        },
        {
          "internalType": "uint64",
          "name": "createdAt",
          "type": "uint64"
        },
        {
          "internalType": "address",
          "name": "stakeToken",
          "type": "address"
        },
        {
          "internalType": "uint256",
          "name": "totalStakesInToken",
          "type": "uint256"
        }
      ],
      "stateMutability": "view",
      "type": "function"
    },
    {
      "inputs": [
        {
          "internalType": "bytes4",
          "name": "interfaceId",
          "type": "bytes4"
        }
      ],
      "name": "supportsInterface",
      "outputs": [
        {
          "internalType": "bool",
          "name": "",
          "type": "bool"
        }
      ],
      "stateMutability": "view",
      "type": "function"
    },
    {
      "inputs": [
        {
          "internalType": "address",
          "name": "",
          "type": "address"
        }
      ],
      "name": "totalReferralInvitations",
      "outputs": [
        {
          "internalType": "uint256",
          "name": "",
          "type": "uint256"
        }
      ],
      "stateMutability": "view",
      "type": "function"
    },
    {
      "inputs": [],
      "name": "totalStaked",
      "outputs": [
        {
          "internalType": "uint256",
          "name": "",
          "type": "uint256"
        }
      ],
      "stateMutability": "view",
      "type": "function"
    },
    {
      "inputs": [],
      "name": "totalStakingContracts",
      "outputs": [
        {
          "internalType": "uint256",
          "name": "",
          "type": "uint256"
        }
      ],
      "stateMutability": "view",
      "type": "function"
    },
    {
      "inputs": [],
      "name": "treasury",
      "outputs": [
        {
          "internalType": "address",
          "name": "",
          "type": "address"
        }
      ],
      "stateMutability": "view",
      "type": "function"
    },
    {
      "inputs": [],
      "name": "unpause",
      "outputs": [],
      "stateMutability": "nonpayable",
      "type": "function"
    },
    {
      "inputs": [],
      "name": "vault",
      "outputs": [
        {
          "internalType": "contract IDWVault",
          "name": "",
          "type": "address"
        }
      ],
      "stateMutability": "view",
      "type": "function"
    }
  ],
  "transactionHash": "0xf9295a1116c5debe576b28679ee2a73b61edb199f4161c23eff5142481dc8e6c",
  "args": [],
  "solcInputHash": "ae4ed23b7e86e89cb947b9b95837102d",
  "bytecode": "0x608060405234801561001057600080fd5b50615f5880620000216000396000f3fe608060405234801561001057600080fd5b50600436106104955760003560e01c80637e212b7311610262578063c79d94a511610151578063e7ad3701116100ce578063f464f38f11610092578063f464f38f14610bef578063f7c618c114610c13578063f851a44014610c27578063fb4aa0a114610c3b578063fbd695bf14610c4f578063fbfa77cf14610c6257600080fd5b8063e7ad370114610b98578063ebf0c71714610bab578063ed2ffc0914610bbf578063edeef8ad14610bd2578063f2e0348214610bdc57600080fd5b8063e1988ca311610115578063e1988ca314610b24578063e37242f914610b37578063e508d56114610b4a578063e58378bb14610b6e578063e63ab1e914610b8357600080fd5b8063c79d94a514610aa0578063ce3637ef14610ac1578063d547741f14610ad4578063d9ee263614610ae7578063dc2903c614610afa57600080fd5b8063991932bb116101df578063ab1a4d94116101a3578063ab1a4d9414610a3c578063ae169a5014610a68578063b1e6cb8214610a7b578063b6db75a014610a85578063bfc90a5e14610a8d57600080fd5b8063991932bb146109cf578063a00229fe146109e3578063a217fddf146109f6578063a4b5fa56146109fe578063a90f8e9a14610a1257600080fd5b80638e1303d7116102265780638e1303d71461096a5780638fb33c3b1461097d5780638fd43dcb1461099e578063901bb5af146109a857806391d14854146109bc57600080fd5b80637e212b7314610911578063803efb611461093b578063817b1cd2146109455780638456cb591461094f5780638b57e55a1461095757600080fd5b80633f4ba83a1161038957806362adfe7a11610306578063729d0a8a116102ca578063729d0a8a1461089e5780637801d3a8146108b157806378457926146108c557806378ecb4ee146108cf57806379ebe118146108dd5780637d12cfc1146108fe57600080fd5b806362adfe7a1461083f57806362d6306f14610852578063657efde614610865578063688cd8451461087857806370ca4b741461088b57600080fd5b8063526432811161034d57806352643281146107a65780635a3a85cb146107b95780635c975abb146107f65780635e9a523c1461080157806361d027b31461082b57600080fd5b80633f4ba83a146107525780633fd79bb51461075a57806341c90bae1461076d57806344d25cb2146107805780634e054a671461079357600080fd5b8063270390de116104175780632f2ff15d116103db5780632f2ff15d146106e257806331393474146106f557806336568abe146107085780633c34ab301461071b5780633e29a7361461073f57600080fd5b8063270390de146106685780632a9c05601461069f5780632c4e5c6b146106a95780632e2d2984146106bc5780632f10a9be146106cf57600080fd5b80631109b19a1161045e5780631109b19a1461052d5780631356df351461060c5780631459457a1461061f578063188601f714610632578063248a9ca31461064557600080fd5b80623ba1ed1461049a57806301ffc9a7146104af578063022f2354146104d757806307c18b89146104fa5780630c75a1d71461050d575b600080fd5b6104ad6104a836600461524a565b610c76565b005b6104c26104bd36600461563f565b610cc6565b60405190151581526020015b60405180910390f35b6104ec600080516020615f0383398151915281565b6040519081526020016104ce565b6104ec61050836600461532a565b610cfd565b61052061051b3660046154ee565b610d12565b6040516104ce9190615851565b6105ab61053b366004615603565b6101e0602052600090815260409020805460018201546002830154600384015460048501546005909501549394929391926001600160401b0380831693600160401b808504831694600160801b8104841694600160c01b9091048416938116929190046001600160a01b0316908a565b604080519a8b5260208b0199909952978901969096526001600160401b039485166060890152928416608088015290831660a0870152821660c08601521660e08401526001600160a01b0316610100830152610120820152610140016104ce565b6104ad61061a366004615603565b610edf565b6104ad61062d3660046152ba565b610f74565b6104ec61064036600461532a565b611268565b6104ec610653366004615603565b60009081526065602052604090206001015490565b61069261067636600461524a565b6101e9602052600090815260409020546001600160a01b031681565b6040516104ce9190615800565b6104ec6101cd5481565b6104ad6106b7366004615282565b611323565b6104ad6106ca36600461567f565b61136b565b6104ec6106dd366004615603565b611580565b6104ad6106f036600461561b565b6117a1565b6104ec61070336600461532a565b6117c6565b6104ad61071636600461561b565b6117d2565b6104c261072936600461524a565b6101dc6020526000908152604090205460ff1681565b6104ad61074d366004615603565b611850565b6104ad61186f565b6104ad610768366004615603565b611892565b6104ec61077b36600461532a565b6118b1565b6104ec61078e366004615603565b6118bd565b6104ad6107a136600461524a565b6118d5565b6104ad6107b4366004615389565b611911565b6107e16107c736600461524a565b6101da602052600090815260409020805460019091015482565b604080519283526020830191909152016104ce565b60975460ff166104c2565b61069261080f36600461524a565b6101dd602052600090815260409020546001600160a01b031681565b6101c854610692906001600160a01b031681565b6104ad61084d366004615282565b611abc565b6104ad61086036600461524a565b611b04565b6104ad610873366004615355565b611c2d565b6104ec610886366004615603565b611c6b565b6104ad610899366004615282565b611c76565b6104ad6108ac36600461555d565b611cbe565b6101c754610692906001600160a01b031681565b6104ec6101cc5481565b6101d9546104c29060ff1681565b6104ec6108eb36600461524a565b6101db6020526000908152604090205481565b6104ec61090c3660046154ee565b611d0a565b61069261091f36600461524a565b6101ea602052600090815260409020546001600160a01b031681565b6104ec6101cf5481565b6104ec6101cb5481565b6104ad611d64565b6104ad610965366004615603565b611d84565b6104ad6109783660046156c0565b611da3565b6104ec61098b36600461524a565b6101de6020526000908152604090205481565b6104ec6101e75481565b6101c554610692906001600160a01b031681565b6104c26109ca36600461561b565b611f27565b6101c454610692906001600160a01b031681565b6104ec6109f1366004615603565b611f52565b6104ec600081565b6101eb54610692906001600160a01b031681565b610692610a2036600461524a565b6101df602052600090815260409020546001600160a01b031681565b6101ce54610a50906001600160401b031681565b6040516001600160401b0390911681526020016104ce565b6104ad610a76366004615603565b61200c565b6104ec6101ca5481565b6104c261210a565b6104ad610a9b36600461524a565b612129565b6104ec610aae36600461524a565b6101e66020526000908152604090205481565b6104ad610acf36600461524a565b6121c5565b6104ad610ae236600461561b565b612265565b6104ec610af5366004615603565b61228a565b610692610b08366004615603565b6101e1602052600090815260409020546001600160a01b031681565b6104ec610b3236600461532a565b612295565b6104ad610b4536600461524a565b6122ec565b6104c2610b5836600461524a565b6101e56020526000908152604090205460ff1681565b6104ec600080516020615ec383398151915281565b6104ec600080516020615ee383398151915281565b6104ad610ba636600461524a565b612333565b6101e454610692906001600160a01b031681565b6104ad610bcd36600461572d565b6123d6565b6104ec6101e85481565b6104ec610bea36600461532a565b612413565b6104c2610bfd36600461524a565b6101e26020526000908152604090205460ff1681565b6101c354610692906001600160a01b031681565b6101c954610692906001600160a01b031681565b6101e354610692906001600160a01b031681565b6104ad610c5d36600461524a565b612464565b6101c654610692906001600160a01b031681565b610c7e61210a565b610ca35760405162461bcd60e51b8152600401610c9a90615a2f565b60405180910390fd5b6101e480546001600160a01b0319166001600160a01b0392909216919091179055565b60006001600160e01b03198216637965db0b60e01b1480610cf757506301ffc9a760e01b6001600160e01b03198316145b92915050565b6000610d0b83836000612505565b9392505050565b60606000826001600160401b03811115610d3c57634e487b7160e01b600052604160045260246000fd5b604051908082528060200260200182016040528015610dbb57816020015b604080516101408101825260008082526020808301829052928201819052606082018190526080820181905260a0820181905260c0820181905260e0820181905261010082018190526101208201528252600019909201910181610d5a5790505b50905060005b83811015610ed7576101e06000868684818110610dee57634e487b7160e01b600052603260045260246000fd5b602090810292909201358352508181019290925260409081016000208151610140810183528154815260018201549381019390935260028101549183019190915260038101546001600160401b038082166060850152600160401b80830482166080860152600160801b8304821660a0860152600160c01b909204811660c0850152600483015490811660e0850152046001600160a01b0316610100830152600501546101208201528251839083908110610eb957634e487b7160e01b600052603260045260246000fd5b60200260200101819052508080610ecf90615e2e565b915050610dc1565b509392505050565b600080516020615f03833981519152610ef7816126a5565b670de0b6b3a7640000821115610f6d5760405162461bcd60e51b815260206004820152603560248201527f706f6f6c3a2044697265637420496e746572657374207261746520636f756c64604482015274206e6f7420686967686572207468616e203130302560581b6064820152608401610c9a565b506101cf55565b600054610100900460ff1615808015610f945750600054600160ff909116105b80610fae5750303b158015610fae575060005460ff166001145b6110115760405162461bcd60e51b815260206004820152602e60248201527f496e697469616c697a61626c653a20636f6e747261637420697320616c72656160448201526d191e481a5b9a5d1a585b1a5e995960921b6064820152608401610c9a565b6000805460ff191660011790558015611034576000805461ff0019166101001790555b61103d86611b04565b6001600160a01b0385166110635760405162461bcd60e51b8152600401610c9a90615991565b6001600160a01b0383166110895760405162461bcd60e51b8152600401610c9a90615991565b6101e380546001600160a01b038087166001600160a01b0319928316179092556101c880548884169083161790556101c380548684169083161790556101c48054928516928216929092179091556101c980549091163317905560408051610120810182526105dc81526103e860208201526101f4918101829052606081018290526080810191909152600060a0820181905260c0820181905260e0820181905261010082015261113f906101d0906009615179565b506101ce805467ffffffffffffffff1916630317040017905566b1a2bc2ec500006101cf556305f5e1006101cc55671bc16d674ec800006101cd55611192600080516020615f03833981519152876126af565b6101c35460405163095ea7b360e01b81526001600160a01b039091169063095ea7b3906111c790309060001990600401615838565b602060405180830381600087803b1580156111e157600080fd5b505af11580156111f5573d6000803e3d6000fd5b505050506040513d601f19601f8201168201806040525081019061121991906155e3565b508015611260576000805461ff0019169055604051600181527f7f26b83ff96e1f2b6a682f133852f6798a09c465da95921460cefb38474024989060200160405180910390a15b505050505050565b6000806000306001600160a01b0316858560405160240161128a929190615838565b60408051601f198184030181529181526020820180516001600160e01b03166320e485d760e11b179052516112bf9190615775565b6000604051808303816000865af19150503d80600081146112fc576040519150601f19603f3d011682016040523d82523d6000602084013e611301565b606091505b50915091508080602001905181019061131a9190615667565b95945050505050565b600080516020615f0383398151915261133b816126a5565b506001600160a01b0391821660009081526101e96020526040902080546001600160a01b03191691909216179055565b6113736126b9565b61137b612701565b33836113995760405162461bcd60e51b8152600401610c9a906159ad565b6001600160a01b0381166114035760405162461bcd60e51b815260206004820152602b60248201527f706f6f6c3a207374616b6520616464726573732063616e206e6f74206265207a60448201526a65726f206164647265737360a81b6064820152608401610c9a565b600061141084838761275b565b9050600061141e858361287c565b6101c3549091506001600160a01b038681169116146114b4576001600160a01b03851660009081526101dc60209081526040918290208251918201909252905460ff1615158082526114b25760405162461bcd60e51b815260206004820181905260248201527f706f6f6c3a207374616b6520746f6b656e206973206e6f7420616c6c6f7765646044820152606401610c9a565b505b6101c3546001600160a01b038681169116141561152f576101c354604051630852cd8d60e31b8152600481018490526001600160a01b03909116906342966c6890602401600060405180830381600087803b15801561151257600080fd5b505af1158015611526573d6000803e3d6000fd5b5050505061154a565b6101e35461154a906001600160a01b03878116911688612d02565b611555838583612d58565b935061156483868685856131e4565b61156e8184613433565b50505061157b600160c955565b505050565b6101eb546000906001600160a01b03161580159061162c57506101eb5460008381526101e160205260409081902054905163dbac26e960e01b81526001600160a01b039283169263dbac26e9926115dc92911690600401615800565b60206040518083038186803b1580156115f457600080fd5b505afa158015611608573d6000803e3d6000fd5b505050506040513d601f19601f8201168201806040525081019061162c91906155e3565b1561163957506000919050565b60008281526101e060209081526040918290208251610140810184528154815260018201549281019290925260028101549282019290925260038201546001600160401b038082166060840152600160401b80830482166080850152600160801b8304821660a08501819052600160c01b909304821660c0850152600485015480831660e0860152046001600160a01b031661010084015260059093015461012083015290914291908216116116f3575060009392505050565b81608001516001600160401b0316816001600160401b03161115611718575060808101515b60008260a001518261172a9190615d84565b90506000670de0b6b3a76400006001600160401b031684606001516001600160401b0316670de0b6b3a76400006001600160401b0316846001600160401b031687600001516117799190615cd7565b6117839190615cd7565b61178d9190615b99565b6117979190615b99565b9695505050505050565b6000828152606560205260409020600101546117bc816126a5565b61157b8383613689565b6000610d0b838361370f565b6001600160a01b03811633146118425760405162461bcd60e51b815260206004820152602f60248201527f416363657373436f6e74726f6c3a2063616e206f6e6c792072656e6f756e636560448201526e103937b632b9903337b91039b2b63360891b6064820152608401610c9a565b61184c8282613942565b5050565b600080516020615f03833981519152611868816126a5565b506101cc55565b600080516020615f03833981519152611887816126a5565b61188f6139a9565b50565b600080516020615f038339815191526118aa816126a5565b506101e855565b6000610d0b83836139f5565b6101d081600981106118ce57600080fd5b0154905081565b600080516020615f038339815191526118ed816126a5565b506101eb80546001600160a01b0319166001600160a01b0392909216919091179055565b600080516020615f03833981519152611929816126a5565b60005b825181101561157b576101e5600084838151811061195a57634e487b7160e01b600052603260045260246000fd5b6020908102919091018101516001600160a01b031682528101919091526040016000205460ff16611aaa5760016101e560008584815181106119ac57634e487b7160e01b600052603260045260246000fd5b60200260200101516001600160a01b03166001600160a01b0316815260200190815260200160002060006101000a81548160ff021916908315150217905550611a586101c360009054906101000a90046001600160a01b03166101db6000868581518110611a2a57634e487b7160e01b600052603260045260246000fd5b60200260200101516001600160a01b03166001600160a01b03168152602001908152602001600020546139f5565b6101db6000858481518110611a7d57634e487b7160e01b600052603260045260246000fd5b60200260200101516001600160a01b03166001600160a01b03168152602001908152602001600020819055505b80611ab481615e2e565b91505061192c565b600080516020615f03833981519152611ad4816126a5565b506001600160a01b0391821660009081526101dd6020526040902080546001600160a01b03191691909216179055565b600054610100900460ff16611b2b5760405162461bcd60e51b8152600401610c9a906159e4565b6001600160a01b038116611b815760405162461bcd60e51b815260206004820181905260248201527f4f776e65722063616e6e6f7420626520746865207a65726f20616464726573736044820152606401610c9a565b611b89613e27565b611b91613e4e565b611b99613e7d565b611bb1600080516020615ec3833981519152826126af565b611bc9600080516020615ee3833981519152826126af565b611bef600080516020615f03833981519152600080516020615ec3833981519152613eac565b611c15600080516020615ee3833981519152600080516020615ec3833981519152613eac565b61188f600080516020615ec383398151915280613eac565b600080516020615f03833981519152611c45816126a5565b506001600160a01b0390921660009081526101da60205260409020600181019190915555565b6000610cf782613ef7565b600080516020615f03833981519152611c8e816126a5565b506001600160a01b0391821660009081526101ea6020526040902080546001600160a01b03191691909216179055565b611cc66126b9565b60005b815181101561184c57611d02828281518110611cf557634e487b7160e01b600052603260045260246000fd5b602002602001015161200c565b600101611cc9565b600080805b83811015610ed757611d46858583818110611d3a57634e487b7160e01b600052603260045260246000fd5b90506020020135611580565b611d509083615acd565b915080611d5c81615e2e565b915050611d0f565b600080516020615f03833981519152611d7c816126a5565b61188f61424e565b600080516020615f03833981519152611d9c816126a5565b506101e755565b611dab6126b9565b611db3612701565b6101c6546001600160a01b0316336001600160a01b031614611e125760405162461bcd60e51b81526020600482015260186024820152771c1bdbdb0e88139bdd081cdd185ad948189e481d985d5b1d60421b6044820152606401610c9a565b6000611e1e8486615acd565b905060008111611e405760405162461bcd60e51b8152600401610c9a906159ad565b6101c3546101c654611e5f916001600160a01b0390811691168761275b565b506101c354600090611e7a906001600160a01b03168361287c565b90508515611ee2576101c354604051630852cd8d60e31b8152600481018890526001600160a01b03909116906342966c6890602401600060405180830381600087803b158015611ec957600080fd5b505af1158015611edd573d6000803e3d6000fd5b505050505b611eed848483612d58565b6101c354909350611f0b9085906001600160a01b03168585856131e4565b611f158185613433565b5050611f21600160c955565b50505050565b60009182526065602090815260408084206001600160a01b0393909316845291905290205460ff1690565b6000806000306001600160a01b031684604051602401611f7491815260200190565b60408051601f198184030181529181526020820180516001600160e01b031663688cd84560e01b17905251611fa99190615775565b6000604051808303816000865af19150503d8060008114611fe6576040519150601f19603f3d011682016040523d82523d6000602084013e611feb565b606091505b5091509150808060200190518101906120049190615667565b949350505050565b612014612701565b61201c6126b9565b6101eb546001600160a01b0316156120f6576101eb546001600160a01b031663dbac26e9336040518263ffffffff1660e01b815260040161205d9190615800565b60206040518083038186803b15801561207557600080fd5b505afa158015612089573d6000803e3d6000fd5b505050506040513d601f19601f820116820180604052508101906120ad91906155e3565b156120f65760405162461bcd60e51b81526020600482015260196024820152781c1bdbdb0e881d5cd95c881a5cc8189b1858dadb1a5cdd1959603a1b6044820152606401610c9a565b612100338261428b565b61188f600160c955565b6000612124600080516020615ec383398151915233611f27565b905090565b600080516020615f03833981519152612141816126a5565b6001600160a01b03821660009081526101dc60205260409020805460ff16156121b65760405162461bcd60e51b815260206004820152602160248201527f416c6c6f77656420746f6b656e20697320616c726561647920657869737465646044820152602160f81b6064820152608401610c9a565b805460ff191660011790555050565b600080516020615f038339815191526121dd816126a5565b6001600160a01b0382166122415760405162461bcd60e51b815260206004820152602560248201527f706f6f6c3a204457207661756c742063616e6e6f74206265207a65726f206164604482015264647265737360d81b6064820152608401610c9a565b506101c680546001600160a01b0319166001600160a01b0392909216919091179055565b600082815260656020526040902060010154612280816126a5565b61157b8383613942565b6000610cf7826144b1565b6001600160a01b03821660009081526101da60209081526040808320815180830190925280548083526001909101549282018390529091906122d890600a615bf0565b6122e29085615cd7565b6120049190615b99565b6122f461210a565b6123105760405162461bcd60e51b8152600401610c9a90615a2f565b6101e380546001600160a01b0319166001600160a01b0392909216919091179055565b600080516020615f0383398151915261234b816126a5565b6001600160a01b0382166123b25760405162461bcd60e51b815260206004820152602860248201527f706f6f6c3a20444458205374616b696e672063616e6e6f74206265207a65726f604482015267206164647265737360c01b6064820152608401610c9a565b506101c780546001600160a01b0319166001600160a01b0392909216919091179055565b600080516020615f038339815191526123ee816126a5565b506101ce805467ffffffffffffffff19166001600160401b0392909216919091179055565b6001600160a01b03821660009081526101da6020908152604080832081518083019092528054808352600190910154928201929092529061245590600a615bf0565b60208201516122e29085615cd7565b600080516020615f0383398151915261247c816126a5565b6001600160a01b0382166124e15760405162461bcd60e51b815260206004820152602660248201527f706f6f6c3a20444458207661756c742063616e6e6f74206265207a65726f206160448201526564647265737360d01b6064820152608401610c9a565b506101c580546001600160a01b0319166001600160a01b0392909216919091179055565b6001600160a01b0380841660009081526101ea6020526040812054909116801561269a57600061253682603c614509565b5090506000826001600160a01b0316630dfe16816040518163ffffffff1660e01b815260040160206040518083038186803b15801561257457600080fd5b505afa158015612588573d6000803e3d6000fd5b505050506040513d601f19601f820116820180604052508101906125ac9190615266565b90506000836001600160a01b031663d21220a76040518163ffffffff1660e01b815260040160206040518083038186803b1580156125e957600080fd5b505afa1580156125fd573d6000803e3d6000fd5b505050506040513d601f19601f820116820180604052508101906126219190615266565b90506000826001600160a01b0316896001600160a01b0316146126445781612646565b825b90506000836001600160a01b03168a6001600160a01b031614612669578361266b565b825b90508761267957818161267c565b80825b909250905061268d858a84846147b3565b9650505050505050610d0b565b506000949350505050565b61188f81336148bc565b61184c8282613689565b60975460ff16156126ff5760405162461bcd60e51b815260206004820152601060248201526f14185d5cd8589b194e881c185d5cd95960821b6044820152606401610c9a565b565b600260c95414156127545760405162461bcd60e51b815260206004820152601f60248201527f5265656e7472616e637947756172643a207265656e7472616e742063616c6c006044820152606401610c9a565b600260c955565b600080846001600160a01b03166370a08231306040518263ffffffff1660e01b815260040161278a9190615800565b60206040518083038186803b1580156127a257600080fd5b505afa1580156127b6573d6000803e3d6000fd5b505050506040513d601f19601f820116820180604052508101906127da9190615667565b90506127f16001600160a01b038616853086614915565b6040516370a0823160e01b81526000906001600160a01b038716906370a0823190612820903090600401615800565b60206040518083038186803b15801561283857600080fd5b505afa15801561284c573d6000803e3d6000fd5b505050506040513d601f19601f820116820180604052508101906128709190615667565b90506117978282615d6d565b6001600160a01b0380831660009081526101dd60209081526040808320546101e98352818420546101ea909352908320549293908116929181169116838215612a55576000836001600160a01b03166350d25bcd6040518163ffffffff1660e01b815260040160206040518083038186803b1580156128fa57600080fd5b505afa15801561290e573d6000803e3d6000fd5b505050506040513d601f19601f820116820180604052508101906129329190615667565b905060006006896001600160a01b031663313ce5676040518163ffffffff1660e01b815260040160206040518083038186803b15801561297157600080fd5b505afa158015612985573d6000803e3d6000fd5b505050506040513d601f19601f820116820180604052508101906129a99190615754565b866001600160a01b031663313ce5676040518163ffffffff1660e01b815260040160206040518083038186803b1580156129e257600080fd5b505afa1580156129f6573d6000803e3d6000fd5b505050506040513d601f19601f82011682018060405250810190612a1a9190615754565b612a249190615b10565b612a2e9190615da4565b612a3990600a615bfc565b905080612a46838a615cd7565b612a509190615b99565b925050505b6001600160a01b038316158015612a7457506001600160a01b03821615155b15612a8857612a8587876000612505565b90505b6001600160a01b038316158015612aa757506001600160a01b03841615155b15612c7957836001600160a01b031663b4d1d7956040518163ffffffff1660e01b815260040160206040518083038186803b158015612ae557600080fd5b505afa158015612af9573d6000803e3d6000fd5b505050506040513d601f19601f82011682018060405250810190612b1d9190615667565b846001600160a01b031663e56522a96040518163ffffffff1660e01b815260040160206040518083038186803b158015612b5657600080fd5b505afa158015612b6a573d6000803e3d6000fd5b505050506040513d601f19601f82011682018060405250810190612b8e9190615709565b612b9e9063ffffffff1642615d6d565b1115612bf857836001600160a01b031663a2e620456040518163ffffffff1660e01b8152600401600060405180830381600087803b158015612bdf57600080fd5b505af1158015612bf3573d6000803e3d6000fd5b505050505b604051633ddac95360e01b81526001600160a01b03851690633ddac95390612c26908a908a90600401615838565b60206040518083038186803b158015612c3e57600080fd5b505afa158015612c52573d6000803e3d6000fd5b505050506040513d601f19601f82011682018060405250810190612c769190615667565b90505b8015612c8757809450612c94565b612c918787612295565b94505b6101cc54851015612cf85760405162461bcd60e51b815260206004820152602860248201527f706f6f6c3a206d696e696d756d207374616b696e6720616d6f756e74206e6f74604482015267081c995858da195960c21b6064820152608401610c9a565b5050505092915050565b61157b8363a9059cbb60e01b8484604051602401612d21929190615838565b60408051601f198184030181529190526020810180516001600160e01b03166001600160e01b031990931692909217909152614936565b6000806001600160a01b038416158015612d8b57506001600160a01b0385811660009081526101df602052604090205416155b15612df2576101e480546001600160a01b0387811660009081526101df6020908152604080832080546001600160a01b03191695851695909517909455935490911681526101de9092528120805460019290612de8908490615acd565b9091555060019150505b6001600160a01b0384161561300f576001600160a01b03841660009081526101e2602052604090205460ff16612e815760405162461bcd60e51b815260206004820152602e60248201527f706f6f6c3a2074686973207573657220686173206e6f74206a6f696e6564207460448201526d68652073797374656d207965742160901b6064820152608401610c9a565b6001600160a01b0385811660009081526101df602052604090205416158015612ebc5750846001600160a01b0316846001600160a01b031614155b612f165760405162461bcd60e51b815260206004820152602560248201527f706f6f6c3a207573657220616c7265616479206a6f696e656420627920726566604482015264195c9c985b60da1b6064820152608401610c9a565b6001600160a01b0380851660009081526101df6020526040902054168015801590612f525750856001600160a01b0316816001600160a01b0316145b15612fbb5760405162461bcd60e51b815260206004820152603360248201527f706f6f6c3a206661696c65642062656361757365206f662063697263756c6174604482015272696e6720726566657272616c20636972636c6560681b6064820152608401610c9a565b6001600160a01b0386811660009081526101df6020908152604080832080546001600160a01b031916948a1694851790559282526101de9052908120805460019290613008908490615acd565b9091555050505b6001600160a01b0385811660009081526101df602052604090205416156131c1576001600160a01b0380861660009081526101df60205260408120549091169061305885613ef7565b90506000670de0b6b3a76400006001600160401b03166101cf548761307d9190615cd7565b6130879190615b99565b90506000670de0b6b3a76400006001600160401b03166101cf54846130ac9190615cd7565b6130b69190615b99565b6101c3546101c8546040516323b872dd60e01b81529293506001600160a01b03918216926323b872dd926130f292169088908690600401615814565b602060405180830381600087803b15801561310c57600080fd5b505af1158015613120573d6000803e3d6000fd5b505050506040513d601f19601f8201168201806040525081019061314491906155e3565b506001600160a01b03841660009081526101db60205260408120805484929061316e908490615acd565b909155505060408051828152602081018490526001600160a01b0380871692908c16917f1db3eb8593e2df25f384c5d65274f44eb883bdefc3323aa2197ed202ce0eb8ee910160405180910390a3505050505b80156131db5750506101e4546001600160a01b0316610d0b565b50919392505050565b6101ca5460008181526101e06020526040902060048101805467ffffffffffffffff1916426001600160401b03169081179091556003820180546001600160801b0316600160801b83026001600160c01b031617600160c01b909202919091179055600181018390556101cd54670de0b6b3a7640000906132659085615cd7565b61326f9190615b99565b81556101ce5460038201805467ffffffffffffffff19166001600160401b0392831690811790915560048301546132a69216615ae5565b8160030160086101000a8154816001600160401b0302191690836001600160401b03160217905550858160040160086101000a8154816001600160a01b0302191690836001600160a01b03160217905550838160050181905550836101cb60008282546133139190615acd565b90915550506101ca805490600061332983615e2e565b909155505060008281526101e16020908152604080832080546001600160a01b0319166001600160a01b038c1690811790915583526101e290915290205460ff16613393576001600160a01b03871660009081526101e260205260409020805460ff191660011790555b856001600160a01b0316876001600160a01b0316837ffeddeab5331bfcd2c5ba6992d9bb9c2233dee3f0785ec31e081eb46857693a01888888876001015488600001546133e09190615d6d565b6003890154604080516001600160a01b0390961686526020860194909452928401919091526060830152600160401b90046001600160401b0316608082015260a00160405180910390a450505050505050565b6001600160a01b03811660009081526101e660205260409020546101e75481108015906134605750505050565b6101c7546101e8546000916001600160a01b031690632204d5ee90670de0b6b3a76400009061348f9089615cd7565b6134999190615b99565b6040518263ffffffff1660e01b81526004016134b791815260200190565b602060405180830381600087803b1580156134d157600080fd5b505af11580156134e5573d6000803e3d6000fd5b505050506040513d601f19601f820116820180604052508101906135099190615667565b905060008111801561359d57506101c560009054906101000a90046001600160a01b03166001600160a01b0316638832e6726040518163ffffffff1660e01b815260040160206040518083038186803b15801561356557600080fd5b505afa158015613579573d6000803e3d6000fd5b505050506040513d601f19601f8201168201806040525081019061359d91906155e3565b1561367b576101c554604051637b408a6b60e01b81526001600160a01b0390911690637b408a6b906135d59087908590600401615838565b600060405180830381600087803b1580156135ef57600080fd5b505af1158015613603573d6000803e3d6000fd5b505050506001600160a01b03841660009081526101e660205260408120805460019290613631908490615acd565b909155505060408051828152602081018790526001600160a01b038616917f8c86d5e7008976d4387667ed3421ebbc5dd837b6286be0b764eb5291e01c73c9910160405180910390a25b5050505050565b600160c955565b6136938282611f27565b61184c5760008281526065602090815260408083206001600160a01b03851684529091529020805460ff191660011790556136cb3390565b6001600160a01b0316816001600160a01b0316837f2f8788117e7eff1d82e926ec794901d17c78024a50270940304540a733656f0d60405160405180910390a45050565b6001600160a01b0380831660009081526101e960209081526040808320546101ea9092528220549192839291811691168282156138dc576000836001600160a01b03166350d25bcd6040518163ffffffff1660e01b815260040160206040518083038186803b15801561378157600080fd5b505afa158015613795573d6000803e3d6000fd5b505050506040513d601f19601f820116820180604052508101906137b99190615667565b905060006006896001600160a01b031663313ce5676040518163ffffffff1660e01b815260040160206040518083038186803b1580156137f857600080fd5b505afa15801561380c573d6000803e3d6000fd5b505050506040513d601f19601f820116820180604052508101906138309190615754565b866001600160a01b031663313ce5676040518163ffffffff1660e01b815260040160206040518083038186803b15801561386957600080fd5b505afa15801561387d573d6000803e3d6000fd5b505050506040513d601f19601f820116820180604052508101906138a19190615754565b6138ab9190615b10565b6138b59190615da4565b6138c090600a615bfc565b9050806138cd838a615cd7565b6138d79190615b99565b925050505b6001600160a01b0383161580156138fb57506001600160a01b03821615155b1561391c576101c354613919906001600160a01b0316876000612505565b90505b801561392a57809350613937565b6139348787612295565b93505b509195945050505050565b61394c8282611f27565b1561184c5760008281526065602090815260408083206001600160a01b0385168085529252808320805460ff1916905551339285917ff6391f5c32d9c69d2a47ea670b442974b53935d1edc7fd64eb21e047a839171b9190a45050565b6139b1614a08565b6097805460ff191690557f5db9ee0a495bf2e6ff9c91a7834c1ba4fdd244a5e8aa4e537bd38aeae4b073aa335b6040516139eb9190615800565b60405180910390a1565b6001600160a01b0380831660009081526101dd60209081526040808320546101e98352818420546101ea90935290832054929384939181169281169116838215613bcf576000836001600160a01b03166350d25bcd6040518163ffffffff1660e01b815260040160206040518083038186803b158015613a7457600080fd5b505afa158015613a88573d6000803e3d6000fd5b505050506040513d601f19601f82011682018060405250810190613aac9190615667565b9050600060068a6001600160a01b031663313ce5676040518163ffffffff1660e01b815260040160206040518083038186803b158015613aeb57600080fd5b505afa158015613aff573d6000803e3d6000fd5b505050506040513d601f19601f82011682018060405250810190613b239190615754565b866001600160a01b031663313ce5676040518163ffffffff1660e01b815260040160206040518083038186803b158015613b5c57600080fd5b505afa158015613b70573d6000803e3d6000fd5b505050506040513d601f19601f82011682018060405250810190613b949190615754565b613b9e9190615b10565b613ba89190615da4565b613bb390600a615bfc565b905080613bc0838b615cd7565b613bca9190615b99565b925050505b6001600160a01b038316158015613bee57506001600160a01b03821615155b15613c0f576101c354613c0c906001600160a01b0316886000612505565b90505b6001600160a01b038316158015613c2e57506001600160a01b03841615155b15613e0057836001600160a01b031663b4d1d7956040518163ffffffff1660e01b815260040160206040518083038186803b158015613c6c57600080fd5b505afa158015613c80573d6000803e3d6000fd5b505050506040513d601f19601f82011682018060405250810190613ca49190615667565b846001600160a01b031663e56522a96040518163ffffffff1660e01b815260040160206040518083038186803b158015613cdd57600080fd5b505afa158015613cf1573d6000803e3d6000fd5b505050506040513d601f19601f82011682018060405250810190613d159190615709565b613d259063ffffffff1642615d6d565b1115613d7f57836001600160a01b031663a2e620456040518163ffffffff1660e01b8152600401600060405180830381600087803b158015613d6657600080fd5b505af1158015613d7a573d6000803e3d6000fd5b505050505b604051633ddac95360e01b81526001600160a01b03851690633ddac95390613dad908b908b90600401615838565b60206040518083038186803b158015613dc557600080fd5b505afa158015613dd9573d6000803e3d6000fd5b505050506040513d601f19601f82011682018060405250810190613dfd9190615667565b90505b8015613e0e57809450613e1b565b613e188888612295565b94505b50929695505050505050565b600054610100900460ff166126ff5760405162461bcd60e51b8152600401610c9a906159e4565b600054610100900460ff16613e755760405162461bcd60e51b8152600401610c9a906159e4565b6126ff614a51565b600054610100900460ff16613ea45760405162461bcd60e51b8152600401610c9a906159e4565b6126ff614a84565b600082815260656020526040808220600101805490849055905190918391839186917fbd79b86ffe0ab8e8776151514217cd7cacd52c909f66475c3af44e129f0b00ff9190a4505050565b6101c3546001600160a01b0390811660009081526101dd60209081526040808320546101ea909252822054919290811691168015613f48576101c354612004906001600160a01b0316856001612505565b6001600160a01b038116158015613f6757506001600160a01b03821615155b1561423757816001600160a01b031663b4d1d7956040518163ffffffff1660e01b815260040160206040518083038186803b158015613fa557600080fd5b505afa158015613fb9573d6000803e3d6000fd5b505050506040513d601f19601f82011682018060405250810190613fdd9190615667565b826001600160a01b031663e56522a96040518163ffffffff1660e01b815260040160206040518083038186803b15801561401657600080fd5b505afa15801561402a573d6000803e3d6000fd5b505050506040513d601f19601f8201168201806040525081019061404e9190615709565b61405e9063ffffffff1642615d6d565b11156140b857816001600160a01b031663a2e620456040518163ffffffff1660e01b8152600401600060405180830381600087803b15801561409f57600080fd5b505af11580156140b3573d6000803e3d6000fd5b505050505b6000826001600160a01b0316630dfe16816040518163ffffffff1660e01b815260040160206040518083038186803b1580156140f357600080fd5b505afa158015614107573d6000803e3d6000fd5b505050506040513d601f19601f8201168201806040525081019061412b9190615266565b6101c3549091506001600160a01b03808316911614156141b957826001600160a01b031663d21220a76040518163ffffffff1660e01b815260040160206040518083038186803b15801561417e57600080fd5b505afa158015614192573d6000803e3d6000fd5b505050506040513d601f19601f820116820180604052508101906141b69190615266565b90505b604051633ddac95360e01b81526001600160a01b03841690633ddac953906141e79084908990600401615838565b60206040518083038186803b1580156141ff57600080fd5b505afa158015614213573d6000803e3d6000fd5b505050506040513d601f19601f8201168201806040525081019061131a9190615667565b6101c354612004906001600160a01b031685612413565b6142566126b9565b6097805460ff191660011790557f62e78cea01bee320cd4e420270b5ea74000d11b0c9f74754ebdbfc544b05a2586139de3390565b60008181526101e160205260409020546001600160a01b038381169116146143095760405162461bcd60e51b815260206004820152602b60248201527f706f6f6c3a20636f6e7472616374206964206e6f742062656c6f6e677320746f60448201526a103a3434b99037bbb732b960a91b6064820152608401610c9a565b60008181526101e0602052604081209061432283611580565b9050600061432f82613ef7565b90508015614442576101c3546101c8546040516323b872dd60e01b81526001600160a01b03928316926323b872dd926143719291169089908690600401615814565b602060405180830381600087803b15801561438b57600080fd5b505af115801561439f573d6000803e3d6000fd5b505050506040513d601f19601f820116820180604052508101906143c391906155e3565b50600383015442906001600160401b03600160401b909104811690821611156143fd57506003830154600160401b90046001600160401b03165b60038401805467ffffffffffffffff60801b1916600160801b6001600160401b0384160217905560028401805484919060009061443b908490615acd565b9091555050505b6003830180546001600160c01b0316600160c01b426001600160401b03160217905560408051828152602081018490526001600160a01b0387169186917f6fa2252892a07f93963cd54ee15abe8b0ac4070c43d93f0fbbfb30604ffb8d06910160405180910390a35050505050565b6101c3546001600160a01b0390811660009081526101ea602052604081205490911680156144f2576101c354610d0b906001600160a01b0316846001612505565b6101c354610d0b906001600160a01b031684612413565b60008063ffffffff83166145445760405162461bcd60e51b8152602060048201526002602482015261042560f41b6044820152606401610c9a565b604080516002808252606082018352600092602083019080368337019050509050838160008151811061458757634e487b7160e01b600052603260045260246000fd5b602002602001019063ffffffff16908163ffffffff16815250506000816001815181106145c457634e487b7160e01b600052603260045260246000fd5b602002602001019063ffffffff16908163ffffffff1681525050600080866001600160a01b031663883bdbfd846040518263ffffffff1660e01b815260040161460d9190615914565b60006040518083038186803b15801561462557600080fd5b505afa158015614639573d6000803e3d6000fd5b505050506040513d6000823e601f3d908101601f191682016040526146619190810190615424565b9150915060008260008151811061468857634e487b7160e01b600052603260045260246000fd5b6020026020010151836001815181106146b157634e487b7160e01b600052603260045260246000fd5b60200260200101516146c39190615cf6565b90506000826000815181106146e857634e487b7160e01b600052603260045260246000fd5b60200260200101518360018151811061471157634e487b7160e01b600052603260045260246000fd5b60200260200101516147239190615d45565b905061473563ffffffff891683615b35565b965060008260060b12801561475b575061475563ffffffff891683615e49565b60060b15155b1561476e578661476a81615df3565b9750505b60006147876001600160a01b0363ffffffff8b16615ca8565b90506147a4640100000000600160c01b03602084901b1682615b73565b96505050505050509250929050565b6000806147bf86614aab565b90506001600160801b036001600160a01b038216116148455760006147ed6001600160a01b03831680615cd7565b9050836001600160a01b0316856001600160a01b03161061482557614820600160c01b876001600160801b031683614dcf565b61483d565b61483d81876001600160801b0316600160c01b614dcf565b9250506148b3565b600061485f6001600160a01b03831680600160401b614dcf565b9050836001600160a01b0316856001600160a01b03161061489757614892600160801b876001600160801b031683614dcf565b6148af565b6148af81876001600160801b0316600160801b614dcf565b9250505b50949350505050565b6148c68282611f27565b61184c576148d381614e82565b6148de836020614e94565b6040516020016148ef929190615791565b60408051601f198184030181529082905262461bcd60e51b8252610c9a9160040161595e565b611f21846323b872dd60e01b858585604051602401612d2193929190615814565b600061498b826040518060400160405280602081526020017f5361666545524332303a206c6f772d6c6576656c2063616c6c206661696c6564815250856001600160a01b03166150759092919063ffffffff16565b80519091501561157b57808060200190518101906149a991906155e3565b61157b5760405162461bcd60e51b815260206004820152602a60248201527f5361666545524332303a204552433230206f7065726174696f6e20646964206e6044820152691bdd081cdd58d8d9595960b21b6064820152608401610c9a565b60975460ff166126ff5760405162461bcd60e51b815260206004820152601460248201527314185d5cd8589b194e881b9bdd081c185d5cd95960621b6044820152606401610c9a565b600054610100900460ff16614a785760405162461bcd60e51b8152600401610c9a906159e4565b6097805460ff19169055565b600054610100900460ff166136825760405162461bcd60e51b8152600401610c9a906159e4565b60008060008360020b12614ac2578260020b614aca565b8260020b6000035b9050620d89e8811115614af0576040516315e4079d60e11b815260040160405180910390fd5b600060018216614b0457600160801b614b16565b6ffffcb933bd6fad37aa2d162d1a5940015b6001600160881b031690506002821615614b40576ffff97272373d413259a46990580e213a0260801c5b6004821615614b5f576ffff2e50f5f656932ef12357cf3c7fdcc0260801c5b6008821615614b7e576fffe5caca7e10e4e61c3624eaa0941cd00260801c5b6010821615614b9d576fffcb9843d60f6159c9db58835c9266440260801c5b6020821615614bbc576fff973b41fa98c081472e6896dfb254c00260801c5b6040821615614bdb576fff2ea16466c96a3843ec78b326b528610260801c5b6080821615614bfa576ffe5dee046a99a2a811c461f1969c30530260801c5b610100821615614c1a576ffcbe86c7900a88aedcffc83b479aa3a40260801c5b610200821615614c3a576ff987a7253ac413176f2b074cf7815e540260801c5b610400821615614c5a576ff3392b0822b70005940c7a398e4b70f30260801c5b610800821615614c7a576fe7159475a2c29b7443b29c7fa6e889d90260801c5b611000821615614c9a576fd097f3bdfd2022b8845ad8f792aa58250260801c5b612000821615614cba576fa9f746462d870fdf8a65dc1f90e061e50260801c5b614000821615614cda576f70d869a156d2a1b890bb3df62baf32f70260801c5b618000821615614cfa576f31be135f97d08fd981231505542fcfa60260801c5b62010000821615614d1b576f09aa508b5b7a84e1c677de54f3e99bc90260801c5b62020000821615614d3b576e5d6af8dedb81196699c329225ee6040260801c5b62040000821615614d5a576d2216e584f5fa1ea926041bedfe980260801c5b62080000821615614d77576b048a170391f7dc42444e8fa20260801c5b60008460020b1315614da6578060001981614da257634e487b7160e01b600052601260045260246000fd5b0490505b640100000000810615614dba576001614dbd565b60005b60ff16602082901c0192505050919050565b600080806000198587098587029250828110838203039150508060001415614e095760008411614dfe57600080fd5b508290049050610d0b565b808411614e1557600080fd5b6000848688096000868103871696879004966002600389028118808a02820302808a02820302808a02820302808a02820302808a02820302808a02909103029181900381900460010186841190950394909402919094039290920491909117919091029150509392505050565b6060610cf76001600160a01b03831660145b60606000614ea3836002615cd7565b614eae906002615acd565b6001600160401b03811115614ed357634e487b7160e01b600052604160045260246000fd5b6040519080825280601f01601f191660200182016040528015614efd576020820181803683370190505b509050600360fc1b81600081518110614f2657634e487b7160e01b600052603260045260246000fd5b60200101906001600160f81b031916908160001a905350600f60fb1b81600181518110614f6357634e487b7160e01b600052603260045260246000fd5b60200101906001600160f81b031916908160001a9053506000614f87846002615cd7565b614f92906001615acd565b90505b6001811115615026576f181899199a1a9b1b9c1cb0b131b232b360811b85600f1660108110614fd457634e487b7160e01b600052603260045260246000fd5b1a60f81b828281518110614ff857634e487b7160e01b600052603260045260246000fd5b60200101906001600160f81b031916908160001a90535060049490941c9361501f81615e17565b9050614f95565b508315610d0b5760405162461bcd60e51b815260206004820181905260248201527f537472696e67733a20686578206c656e67746820696e73756666696369656e746044820152606401610c9a565b60606120048484600085856001600160a01b0385163b6150d75760405162461bcd60e51b815260206004820152601d60248201527f416464726573733a2063616c6c20746f206e6f6e2d636f6e74726163740000006044820152606401610c9a565b600080866001600160a01b031685876040516150f39190615775565b60006040518083038185875af1925050503d8060008114615130576040519150601f19603f3d011682016040523d82523d6000602084013e615135565b606091505b50915091506148af8282866060831561514f575081610d0b565b82511561515f5782518084602001fd5b8160405162461bcd60e51b8152600401610c9a919061595e565b82600981019282156151ad579160200282015b828111156151ad578251829061ffff1690559160200191906001019061518c565b506151b99291506151bd565b5090565b5b808211156151b957600081556001016151be565b600082601f8301126151e2578081fd5b815160206151f76151f283615aaa565b615a7a565b80838252828201915082860187848660051b8901011115615216578586fd5b855b8581101561523d57815161522b81615ead565b84529284019290840190600101615218565b5090979650505050505050565b60006020828403121561525b578081fd5b8135610d0b81615ead565b600060208284031215615277578081fd5b8151610d0b81615ead565b60008060408385031215615294578081fd5b823561529f81615ead565b915060208301356152af81615ead565b809150509250929050565b600080600080600060a086880312156152d1578081fd5b85356152dc81615ead565b945060208601356152ec81615ead565b935060408601356152fc81615ead565b9250606086013561530c81615ead565b9150608086013561531c81615ead565b809150509295509295909350565b6000806040838503121561533c578182fd5b823561534781615ead565b946020939093013593505050565b600080600060608486031215615369578081fd5b833561537481615ead565b95602085013595506040909401359392505050565b6000602080838503121561539b578182fd5b82356001600160401b038111156153b0578283fd5b8301601f810185136153c0578283fd5b80356153ce6151f282615aaa565b80828252848201915084840188868560051b87010111156153ed578687fd5b8694505b8385101561541857803561540481615ead565b8352600194909401939185019185016153f1565b50979650505050505050565b60008060408385031215615436578182fd5b82516001600160401b038082111561544c578384fd5b818501915085601f83011261545f578384fd5b8151602061546f6151f283615aaa565b8083825282820191508286018a848660051b890101111561548e578889fd5b8896505b848710156154be5780518060060b81146154aa57898afd5b835260019690960195918301918301615492565b50918801519196509093505050808211156154d7578283fd5b506154e4858286016151d2565b9150509250929050565b60008060208385031215615500578182fd5b82356001600160401b0380821115615516578384fd5b818501915085601f830112615529578384fd5b813581811115615537578485fd5b8660208260051b850101111561554b578485fd5b60209290920196919550909350505050565b6000602080838503121561556f578182fd5b82356001600160401b03811115615584578283fd5b8301601f81018513615594578283fd5b80356155a26151f282615aaa565b80828252848201915084840188868560051b87010111156155c1578687fd5b8694505b838510156154185780358352600194909401939185019185016155c5565b6000602082840312156155f4578081fd5b81518015158114610d0b578182fd5b600060208284031215615614578081fd5b5035919050565b6000806040838503121561562d578182fd5b8235915060208301356152af81615ead565b600060208284031215615650578081fd5b81356001600160e01b031981168114610d0b578182fd5b600060208284031215615678578081fd5b5051919050565b600080600060608486031215615693578081fd5b8335925060208401356156a581615ead565b915060408401356156b581615ead565b809150509250925092565b600080600080608085870312156156d5578182fd5b843593506020850135925060408501356156ee81615ead565b915060608501356156fe81615ead565b939692955090935050565b60006020828403121561571a578081fd5b815163ffffffff81168114610d0b578182fd5b60006020828403121561573e578081fd5b81356001600160401b0381168114610d0b578182fd5b600060208284031215615765578081fd5b815160ff81168114610d0b578182fd5b60008251615787818460208701615dc7565b9190910192915050565b76020b1b1b2b9b9a1b7b73a3937b61d1030b1b1b7bab73a1604d1b8152600083516157c3816017850160208801615dc7565b7001034b99036b4b9b9b4b733903937b6329607d1b60179184019182015283516157f4816028840160208801615dc7565b01602801949350505050565b6001600160a01b0391909116815260200190565b6001600160a01b039384168152919092166020820152604081019190915260600190565b6001600160a01b03929092168252602082015260400190565b602080825282518282018190526000919060409081850190868401855b8281101561590757815180518552868101518786015285810151868601526060808201516001600160401b039081169187019190915260808083015182169087015260a08083015182169087015260c08083015182169087015260e08083015190911690860152610100808201516001600160a01b0316908601526101209081015190850152610140909301929085019060010161586e565b5091979650505050505050565b6020808252825182820181905260009190848201906040850190845b8181101561595257835163ffffffff1683529284019291840191600101615930565b50909695505050505050565b602081526000825180602084015261597d816040850160208701615dc7565b601f01601f19169190910160400192915050565b6020808252600290820152615a4160f01b604082015260600190565b6020808252601b908201527f706f6f6c3a20616d6f756e742063616e6e6f74206265207a65726f0000000000604082015260600190565b6020808252602b908201527f496e697469616c697a61626c653a20636f6e7472616374206973206e6f74206960408201526a6e697469616c697a696e6760a81b606082015260800190565b6020808252602b908201527f4d75737420686176652061646d696e20726f6c6520746f20706572666f726d2060408201526a3a3434b99030b1ba34b7b760a91b606082015260800190565b604051601f8201601f191681016001600160401b0381118282101715615aa257615aa2615e97565b604052919050565b60006001600160401b03821115615ac357615ac3615e97565b5060051b60200190565b60008219821115615ae057615ae0615e6b565b500190565b60006001600160401b03808316818516808303821115615b0757615b07615e6b565b01949350505050565b600060ff821660ff84168060ff03821115615b2d57615b2d615e6b565b019392505050565b60008160060b8360060b80615b4c57615b4c615e81565b667fffffffffffff19821460001982141615615b6a57615b6a615e6b565b90059392505050565b60006001600160c01b0383811680615b8d57615b8d615e81565b92169190910492915050565b600082615ba857615ba8615e81565b500490565b600181815b80851115615be8578160001904821115615bce57615bce615e6b565b80851615615bdb57918102915b93841c9390800290615bb2565b509250929050565b6000610d0b8383615c07565b6000610d0b60ff8416835b600082615c1657506001610cf7565b81615c2357506000610cf7565b8160018114615c395760028114615c4357615c5f565b6001915050610cf7565b60ff841115615c5457615c54615e6b565b50506001821b610cf7565b5060208310610133831016604e8410600b8410161715615c82575081810a610cf7565b615c8c8383615bad565b8060001904821115615ca057615ca0615e6b565b029392505050565b60006001600160c01b0382811684821681151582840482111615615cce57615cce615e6b565b02949350505050565b6000816000190483118215151615615cf157615cf1615e6b565b500290565b60008160060b8360060b82811281667fffffffffffff1901831281151615615d2057615d20615e6b565b81667fffffffffffff018313811615615d3b57615d3b615e6b565b5090039392505050565b60006001600160a01b0383811690831681811015615d6557615d65615e6b565b039392505050565b600082821015615d7f57615d7f615e6b565b500390565b60006001600160401b0383811690831681811015615d6557615d65615e6b565b600060ff821660ff841680821015615dbe57615dbe615e6b565b90039392505050565b60005b83811015615de2578181015183820152602001615dca565b83811115611f215750506000910152565b60008160020b627fffff19811415615e0d57615e0d615e6b565b6000190192915050565b600081615e2657615e26615e6b565b506000190190565b6000600019821415615e4257615e42615e6b565b5060010190565b60008260060b80615e5c57615e5c615e81565b808360060b0791505092915050565b634e487b7160e01b600052601160045260246000fd5b634e487b7160e01b600052601260045260246000fd5b634e487b7160e01b600052604160045260246000fd5b6001600160a01b038116811461188f57600080fdfeb19546dff01e856fb3f010c267a7b1c60363cf8a4664e21cc89c26224620214e65d7a28e3265b37a6474929f336521b332c1681b933f6cb9f3376673440d862ad2e4c2619ea6e0faebc405d89445161c041e30fe03373ea0473da142d57d4514a2646970667358221220339f93294ea70d4caa91f2c6a0e451a87ae5f1f6677b0af2d007194c7df8486464736f6c63430008040033",
  "devdoc": {
    "kind": "dev",
    "methods": {
      "getRoleAdmin(bytes32)": {
        "details": "Returns the admin role that controls `role`. See {grantRole} and {revokeRole}. To change a role's admin, use {_setRoleAdmin}."
      },
      "getStakingAmountInUSD(address,uint256)": {
        "details": "Get Staking token amount in offered currencies",
        "params": {
          "_amount": "Amount of purchase token"
        },
        "returns": {
          "_0": "Return amount of respective IDO token"
        }
      },
      "grantRole(bytes32,address)": {
        "details": "Grants `role` to `account`. If `account` had not been already granted `role`, emits a {RoleGranted} event. Requirements: - the caller must have ``role``'s admin role. May emit a {RoleGranted} event."
      },
      "hasRole(bytes32,address)": {
        "details": "Returns `true` if `account` has been granted `role`."
      },
      "paused()": {
        "details": "Returns true if the contract is paused, and false otherwise."
      },
      "renounceRole(bytes32,address)": {
        "details": "Revokes `role` from the calling account. Roles are often managed via {grantRole} and {revokeRole}: this function's purpose is to provide a mechanism for accounts to lose their privileges if they are compromised (such as when a trusted device is misplaced). If the calling account had been revoked `role`, emits a {RoleRevoked} event. Requirements: - the caller must be `account`. May emit a {RoleRevoked} event."
      },
      "revokeRole(bytes32,address)": {
        "details": "Revokes `role` from `account`. If `account` had been granted `role`, emits a {RoleRevoked} event. Requirements: - the caller must have ``role``'s admin role. May emit a {RoleRevoked} event."
      },
      "supportsInterface(bytes4)": {
        "details": "See {IERC165-supportsInterface}."
      }
    },
    "version": 1
  },
  "userdoc": {
    "kind": "user",
    "methods": {
      "depositByVault(uint256,uint256,address,address)": {
        "notice": "----------------------------------- ---------- Core Function ---------- -----------------------------------"
      },
      "pause()": {
        "notice": "----------------------------------- --------- Pause Function ---------- -----------------------------------"
      },
      "setBlacklist(address)": {
        "notice": "----------------------------------- --------- Update Function --------- -----------------------------------"
      }
    },
    "version": 1
  },
  "storageLayout": {
    "storage": [
      {
        "astId": 415,
        "contract": "contracts/DGWStaking.sol:DGWStaking",
        "label": "_initialized",
        "offset": 0,
        "slot": "0",
        "type": "t_uint8"
      },
      {
        "astId": 418,
        "contract": "contracts/DGWStaking.sol:DGWStaking",
        "label": "_initializing",
        "offset": 1,
        "slot": "0",
        "type": "t_bool"
      },
      {
        "astId": 2044,
        "contract": "contracts/DGWStaking.sol:DGWStaking",
        "label": "__gap",
        "offset": 0,
        "slot": "1",
        "type": "t_array(t_uint256)50_storage"
      },
      {
        "astId": 2848,
        "contract": "contracts/DGWStaking.sol:DGWStaking",
        "label": "__gap",
        "offset": 0,
        "slot": "51",
        "type": "t_array(t_uint256)50_storage"
      },
      {
        "astId": 39,
        "contract": "contracts/DGWStaking.sol:DGWStaking",
        "label": "_roles",
        "offset": 0,
        "slot": "101",
        "type": "t_mapping(t_bytes32,t_struct(RoleData)34_storage)"
      },
      {
        "astId": 334,
        "contract": "contracts/DGWStaking.sol:DGWStaking",
        "label": "__gap",
        "offset": 0,
        "slot": "102",
        "type": "t_array(t_uint256)49_storage"
      },
      {
        "astId": 598,
        "contract": "contracts/DGWStaking.sol:DGWStaking",
        "label": "_paused",
        "offset": 0,
        "slot": "151",
        "type": "t_bool"
      },
      {
        "astId": 703,
        "contract": "contracts/DGWStaking.sol:DGWStaking",
        "label": "__gap",
        "offset": 0,
        "slot": "152",
        "type": "t_array(t_uint256)49_storage"
      },
      {
        "astId": 718,
        "contract": "contracts/DGWStaking.sol:DGWStaking",
        "label": "_status",
        "offset": 0,
        "slot": "201",
        "type": "t_uint256"
      },
      {
        "astId": 776,
        "contract": "contracts/DGWStaking.sol:DGWStaking",
        "label": "__gap",
        "offset": 0,
        "slot": "202",
        "type": "t_array(t_uint256)49_storage"
      },
      {
        "astId": 6467,
        "contract": "contracts/DGWStaking.sol:DGWStaking",
        "label": "__gap1",
        "offset": 0,
        "slot": "251",
        "type": "t_array(t_uint256)50_storage"
      },
      {
        "astId": 6471,
        "contract": "contracts/DGWStaking.sol:DGWStaking",
        "label": "__gap2",
        "offset": 0,
        "slot": "301",
        "type": "t_array(t_uint256)50_storage"
      },
      {
        "astId": 6475,
        "contract": "contracts/DGWStaking.sol:DGWStaking",
        "label": "__gap3",
        "offset": 0,
        "slot": "351",
        "type": "t_array(t_uint256)50_storage"
      },
      {
        "astId": 6479,
        "contract": "contracts/DGWStaking.sol:DGWStaking",
        "label": "__gap4",
        "offset": 0,
        "slot": "401",
        "type": "t_array(t_uint256)50_storage"
      },
      {
        "astId": 9264,
        "contract": "contracts/DGWStaking.sol:DGWStaking",
        "label": "rewardToken",
        "offset": 0,
        "slot": "451",
        "type": "t_contract(IERC20WithBurn)13617"
      },
      {
        "astId": 9267,
        "contract": "contracts/DGWStaking.sol:DGWStaking",
        "label": "extraRewardToken",
        "offset": 0,
        "slot": "452",
        "type": "t_contract(IERC20WithBurn)13617"
      },
      {
        "astId": 9270,
        "contract": "contracts/DGWStaking.sol:DGWStaking",
        "label": "DDXVault",
        "offset": 0,
        "slot": "453",
        "type": "t_contract(IDDXVault)13513"
      },
      {
        "astId": 9273,
        "contract": "contracts/DGWStaking.sol:DGWStaking",
        "label": "vault",
        "offset": 0,
        "slot": "454",
        "type": "t_contract(IDWVault)13526"
      },
      {
        "astId": 9276,
        "contract": "contracts/DGWStaking.sol:DGWStaking",
        "label": "DDXStaking",
        "offset": 0,
        "slot": "455",
        "type": "t_contract(IDDXStaking)13493"
      },
      {
        "astId": 9278,
        "contract": "contracts/DGWStaking.sol:DGWStaking",
        "label": "treasury",
        "offset": 0,
        "slot": "456",
        "type": "t_address"
      },
      {
        "astId": 9280,
        "contract": "contracts/DGWStaking.sol:DGWStaking",
        "label": "admin",
        "offset": 0,
        "slot": "457",
        "type": "t_address"
      },
      {
        "astId": 9282,
        "contract": "contracts/DGWStaking.sol:DGWStaking",
        "label": "totalStakingContracts",
        "offset": 0,
        "slot": "458",
        "type": "t_uint256"
      },
      {
        "astId": 9284,
        "contract": "contracts/DGWStaking.sol:DGWStaking",
        "label": "totalStaked",
        "offset": 0,
        "slot": "459",
        "type": "t_uint256"
      },
      {
        "astId": 9286,
        "contract": "contracts/DGWStaking.sol:DGWStaking",
        "label": "minimumStakingAmountInUSD",
        "offset": 0,
        "slot": "460",
        "type": "t_uint256"
      },
      {
        "astId": 9288,
        "contract": "contracts/DGWStaking.sol:DGWStaking",
        "label": "maximumEarningsInPercent",
        "offset": 0,
        "slot": "461",
        "type": "t_uint256"
      },
      {
        "astId": 9290,
        "contract": "contracts/DGWStaking.sol:DGWStaking",
        "label": "claimDuration",
        "offset": 0,
        "slot": "462",
        "type": "t_uint64"
      },
      {
        "astId": 9292,
        "contract": "contracts/DGWStaking.sol:DGWStaking",
        "label": "directInterest",
        "offset": 0,
        "slot": "463",
        "type": "t_uint256"
      },
      {
        "astId": 9296,
        "contract": "contracts/DGWStaking.sol:DGWStaking",
        "label": "commissionInterestLevels",
        "offset": 0,
        "slot": "464",
        "type": "t_array(t_uint256)9_storage"
      },
      {
        "astId": 9298,
        "contract": "contracts/DGWStaking.sol:DGWStaking",
        "label": "emergencyCancelled",
        "offset": 0,
        "slot": "473",
        "type": "t_bool"
      },
      {
        "astId": 9303,
        "contract": "contracts/DGWStaking.sol:DGWStaking",
        "label": "offeredCurrencies",
        "offset": 0,
        "slot": "474",
        "type": "t_mapping(t_address,t_struct(OfferedCurrency)9248_storage)"
      },
      {
        "astId": 9307,
        "contract": "contracts/DGWStaking.sol:DGWStaking",
        "label": "directBonus",
        "offset": 0,
        "slot": "475",
        "type": "t_mapping(t_address,t_uint256)"
      },
      {
        "astId": 9312,
        "contract": "contracts/DGWStaking.sol:DGWStaking",
        "label": "allowedStakeTokens",
        "offset": 0,
        "slot": "476",
        "type": "t_mapping(t_address,t_struct(StakeToken)9243_storage)"
      },
      {
        "astId": 9316,
        "contract": "contracts/DGWStaking.sol:DGWStaking",
        "label": "assetPrices",
        "offset": 0,
        "slot": "477",
        "type": "t_mapping(t_address,t_address)"
      },
      {
        "astId": 9320,
        "contract": "contracts/DGWStaking.sol:DGWStaking",
        "label": "totalReferralInvitations",
        "offset": 0,
        "slot": "478",
        "type": "t_mapping(t_address,t_uint256)"
      },
      {
        "astId": 9324,
        "contract": "contracts/DGWStaking.sol:DGWStaking",
        "label": "referredBy",
        "offset": 0,
        "slot": "479",
        "type": "t_mapping(t_address,t_address)"
      },
      {
        "astId": 9329,
        "contract": "contracts/DGWStaking.sol:DGWStaking",
        "label": "stakingContracts",
        "offset": 0,
        "slot": "480",
        "type": "t_mapping(t_uint256,t_struct(StakingInfo)9240_storage)"
      },
      {
        "astId": 9333,
        "contract": "contracts/DGWStaking.sol:DGWStaking",
        "label": "stakingContractOwnedBy",
        "offset": 0,
        "slot": "481",
        "type": "t_mapping(t_uint256,t_address)"
      },
      {
        "astId": 9337,
        "contract": "contracts/DGWStaking.sol:DGWStaking",
        "label": "couldBecomeReferrer",
        "offset": 0,
        "slot": "482",
        "type": "t_mapping(t_address,t_bool)"
      },
      {
        "astId": 9339,
        "contract": "contracts/DGWStaking.sol:DGWStaking",
        "label": "fundReceiver",
        "offset": 0,
        "slot": "483",
        "type": "t_address"
      },
      {
        "astId": 9341,
        "contract": "contracts/DGWStaking.sol:DGWStaking",
        "label": "root",
        "offset": 0,
        "slot": "484",
        "type": "t_address"
      },
      {
        "astId": 9345,
        "contract": "contracts/DGWStaking.sol:DGWStaking",
        "label": "directBonusRefreshExecuted",
        "offset": 0,
        "slot": "485",
        "type": "t_mapping(t_address,t_bool)"
      },
      {
        "astId": 9349,
        "contract": "contracts/DGWStaking.sol:DGWStaking",
        "label": "ddxRewardDistributionCount",
        "offset": 0,
        "slot": "486",
        "type": "t_mapping(t_address,t_uint256)"
      },
      {
        "astId": 9351,
        "contract": "contracts/DGWStaking.sol:DGWStaking",
        "label": "maximumDDXRewardDistributionCount",
        "offset": 0,
        "slot": "487",
        "type": "t_uint256"
      },
      {
        "astId": 9353,
        "contract": "contracts/DGWStaking.sol:DGWStaking",
        "label": "extraRewardBonusPercentage",
        "offset": 0,
        "slot": "488",
        "type": "t_uint256"
      },
      {
        "astId": 9357,
        "contract": "contracts/DGWStaking.sol:DGWStaking",
        "label": "assetPricesWithChainLink",
        "offset": 0,
        "slot": "489",
        "type": "t_mapping(t_address,t_address)"
      },
      {
        "astId": 9361,
        "contract": "contracts/DGWStaking.sol:DGWStaking",
        "label": "assetPricesWithUniV3PoolCompatible",
        "offset": 0,
        "slot": "490",
        "type": "t_mapping(t_address,t_address)"
      },
      {
        "astId": 9364,
        "contract": "contracts/DGWStaking.sol:DGWStaking",
        "label": "blacklist",
        "offset": 0,
        "slot": "491",
        "type": "t_contract(IDGWBlacklist)13523"
      }
    ],
    "types": {
      "t_address": {
        "encoding": "inplace",
        "label": "address",
        "numberOfBytes": "20"
      },
      "t_array(t_uint256)49_storage": {
        "base": "t_uint256",
        "encoding": "inplace",
        "label": "uint256[49]",
        "numberOfBytes": "1568"
      },
      "t_array(t_uint256)50_storage": {
        "base": "t_uint256",
        "encoding": "inplace",
        "label": "uint256[50]",
        "numberOfBytes": "1600"
      },
      "t_array(t_uint256)9_storage": {
        "base": "t_uint256",
        "encoding": "inplace",
        "label": "uint256[9]",
        "numberOfBytes": "288"
      },
      "t_bool": {
        "encoding": "inplace",
        "label": "bool",
        "numberOfBytes": "1"
      },
      "t_bytes32": {
        "encoding": "inplace",
        "label": "bytes32",
        "numberOfBytes": "32"
      },
      "t_contract(IDDXStaking)13493": {
        "encoding": "inplace",
        "label": "contract IDDXStaking",
        "numberOfBytes": "20"
      },
      "t_contract(IDDXVault)13513": {
        "encoding": "inplace",
        "label": "contract IDDXVault",
        "numberOfBytes": "20"
      },
      "t_contract(IDGWBlacklist)13523": {
        "encoding": "inplace",
        "label": "contract IDGWBlacklist",
        "numberOfBytes": "20"
      },
      "t_contract(IDWVault)13526": {
        "encoding": "inplace",
        "label": "contract IDWVault",
        "numberOfBytes": "20"
      },
      "t_contract(IERC20WithBurn)13617": {
        "encoding": "inplace",
        "label": "contract IERC20WithBurn",
        "numberOfBytes": "20"
      },
      "t_mapping(t_address,t_address)": {
        "encoding": "mapping",
        "key": "t_address",
        "label": "mapping(address => address)",
        "numberOfBytes": "32",
        "value": "t_address"
      },
      "t_mapping(t_address,t_bool)": {
        "encoding": "mapping",
        "key": "t_address",
        "label": "mapping(address => bool)",
        "numberOfBytes": "32",
        "value": "t_bool"
      },
      "t_mapping(t_address,t_struct(OfferedCurrency)9248_storage)": {
        "encoding": "mapping",
        "key": "t_address",
        "label": "mapping(address => struct DGWStaking.OfferedCurrency)",
        "numberOfBytes": "32",
        "value": "t_struct(OfferedCurrency)9248_storage"
      },
      "t_mapping(t_address,t_struct(StakeToken)9243_storage)": {
        "encoding": "mapping",
        "key": "t_address",
        "label": "mapping(address => struct DGWStaking.StakeToken)",
        "numberOfBytes": "32",
        "value": "t_struct(StakeToken)9243_storage"
      },
      "t_mapping(t_address,t_uint256)": {
        "encoding": "mapping",
        "key": "t_address",
        "label": "mapping(address => uint256)",
        "numberOfBytes": "32",
        "value": "t_uint256"
      },
      "t_mapping(t_bytes32,t_struct(RoleData)34_storage)": {
        "encoding": "mapping",
        "key": "t_bytes32",
        "label": "mapping(bytes32 => struct AccessControlUpgradeable.RoleData)",
        "numberOfBytes": "32",
        "value": "t_struct(RoleData)34_storage"
      },
      "t_mapping(t_uint256,t_address)": {
        "encoding": "mapping",
        "key": "t_uint256",
        "label": "mapping(uint256 => address)",
        "numberOfBytes": "32",
        "value": "t_address"
      },
      "t_mapping(t_uint256,t_struct(StakingInfo)9240_storage)": {
        "encoding": "mapping",
        "key": "t_uint256",
        "label": "mapping(uint256 => struct DGWStaking.StakingInfo)",
        "numberOfBytes": "32",
        "value": "t_struct(StakingInfo)9240_storage"
      },
      "t_struct(OfferedCurrency)9248_storage": {
        "encoding": "inplace",
        "label": "struct DGWStaking.OfferedCurrency",
        "members": [
          {
            "astId": 9245,
            "contract": "contracts/DGWStaking.sol:DGWStaking",
            "label": "decimal",
            "offset": 0,
            "slot": "0",
            "type": "t_uint256"
          },
          {
            "astId": 9247,
            "contract": "contracts/DGWStaking.sol:DGWStaking",
            "label": "rate",
            "offset": 0,
            "slot": "1",
            "type": "t_uint256"
          }
        ],
        "numberOfBytes": "64"
      },
      "t_struct(RoleData)34_storage": {
        "encoding": "inplace",
        "label": "struct AccessControlUpgradeable.RoleData",
        "members": [
          {
            "astId": 31,
            "contract": "contracts/DGWStaking.sol:DGWStaking",
            "label": "members",
            "offset": 0,
            "slot": "0",
            "type": "t_mapping(t_address,t_bool)"
          },
          {
            "astId": 33,
            "contract": "contracts/DGWStaking.sol:DGWStaking",
            "label": "adminRole",
            "offset": 0,
            "slot": "1",
            "type": "t_bytes32"
          }
        ],
        "numberOfBytes": "64"
      },
      "t_struct(StakeToken)9243_storage": {
        "encoding": "inplace",
        "label": "struct DGWStaking.StakeToken",
        "members": [
          {
            "astId": 9242,
            "contract": "contracts/DGWStaking.sol:DGWStaking",
            "label": "created",
            "offset": 0,
            "slot": "0",
            "type": "t_bool"
          }
        ],
        "numberOfBytes": "32"
      },
      "t_struct(StakingInfo)9240_storage": {
        "encoding": "inplace",
        "label": "struct DGWStaking.StakingInfo",
        "members": [
          {
            "astId": 9221,
            "contract": "contracts/DGWStaking.sol:DGWStaking",
            "label": "totalExpectedInterest",
            "offset": 0,
            "slot": "0",
            "type": "t_uint256"
          },
          {
            "astId": 9223,
            "contract": "contracts/DGWStaking.sol:DGWStaking",
            "label": "totalStakesInUSD",
            "offset": 0,
            "slot": "1",
            "type": "t_uint256"
          },
          {
            "astId": 9225,
            "contract": "contracts/DGWStaking.sol:DGWStaking",
            "label": "claimedInterest",
            "offset": 0,
            "slot": "2",
            "type": "t_uint256"
          },
          {
            "astId": 9227,
            "contract": "contracts/DGWStaking.sol:DGWStaking",
            "label": "claimDuration",
            "offset": 0,
            "slot": "3",
            "type": "t_uint64"
          },
          {
            "astId": 9229,
            "contract": "contracts/DGWStaking.sol:DGWStaking",
            "label": "dueDate",
            "offset": 8,
            "slot": "3",
            "type": "t_uint64"
          },
          {
            "astId": 9231,
            "contract": "contracts/DGWStaking.sol:DGWStaking",
            "label": "lastClaimedTime",
            "offset": 16,
            "slot": "3",
            "type": "t_uint64"
          },
          {
            "astId": 9233,
            "contract": "contracts/DGWStaking.sol:DGWStaking",
            "label": "lastUpdatedTime",
            "offset": 24,
            "slot": "3",
            "type": "t_uint64"
          },
          {
            "astId": 9235,
            "contract": "contracts/DGWStaking.sol:DGWStaking",
            "label": "createdAt",
            "offset": 0,
            "slot": "4",
            "type": "t_uint64"
          },
          {
            "astId": 9237,
            "contract": "contracts/DGWStaking.sol:DGWStaking",
            "label": "stakeToken",
            "offset": 8,
            "slot": "4",
            "type": "t_address"
          },
          {
            "astId": 9239,
            "contract": "contracts/DGWStaking.sol:DGWStaking",
            "label": "totalStakesInToken",
            "offset": 0,
            "slot": "5",
            "type": "t_uint256"
          }
        ],
        "numberOfBytes": "192"
      },
      "t_uint256": {
        "encoding": "inplace",
        "label": "uint256",
        "numberOfBytes": "32"
      },
      "t_uint64": {
        "encoding": "inplace",
        "label": "uint64",
        "numberOfBytes": "8"
      },
      "t_uint8": {
        "encoding": "inplace",
        "label": "uint8",
        "numberOfBytes": "1"
      }
    }
  }
}